{
  "abi": [
    {
      "inputs": [
        {
          "internalType": "contract ITrustedContractManager",
          "name": "_trustedModuleManager",
          "type": "address"
        },
        {
          "internalType": "contract ITrustedContractManager",
          "name": "_trustedPluginManager",
          "type": "address"
        }
      ],
      "stateMutability": "nonpayable",
      "type": "constructor"
    },
    {
      "inputs": [
        {
          "internalType": "bytes32",
          "name": "txId",
          "type": "bytes32"
        }
      ],
      "name": "AlreadyQueuedError",
      "type": "error"
    },
    {
      "inputs": [],
      "name": "NotInitializedError",
      "type": "error"
    },
    {
      "inputs": [],
      "name": "NotOwnerError",
      "type": "error"
    },
    {
      "inputs": [
        {
          "internalType": "bytes32",
          "name": "txId",
          "type": "bytes32"
        }
      ],
      "name": "NotQueuedError",
      "type": "error"
    },
    {
      "inputs": [
        {
          "internalType": "uint256",
          "name": "blockTimestmap",
          "type": "uint256"
        },
        {
          "internalType": "uint256",
          "name": "timestamp",
          "type": "uint256"
        }
      ],
      "name": "TimestampNotPassedError",
      "type": "error"
    },
    {
      "inputs": [
        {
          "internalType": "bytes4",
          "name": "selector",
          "type": "bytes4"
        }
      ],
      "name": "UnsupportedSelectorError",
      "type": "error"
    },
    {
      "anonymous": false,
      "inputs": [
        {
          "indexed": true,
          "internalType": "bytes32",
          "name": "txId",
          "type": "bytes32"
        }
      ],
      "name": "Cancel",
      "type": "event"
    },
    {
      "anonymous": false,
      "inputs": [
        {
          "indexed": true,
          "internalType": "bool",
          "name": "success",
          "type": "bool"
        },
        {
          "indexed": true,
          "internalType": "bytes32",
          "name": "txId",
          "type": "bytes32"
        },
        {
          "indexed": true,
          "internalType": "address",
          "name": "target",
          "type": "address"
        },
        {
          "indexed": false,
          "internalType": "bytes",
          "name": "data",
          "type": "bytes"
        }
      ],
      "name": "Execute",
      "type": "event"
    },
    {
      "anonymous": false,
      "inputs": [
        {
          "indexed": true,
          "internalType": "address",
          "name": "wallet",
          "type": "address"
        }
      ],
      "name": "ModuleDeInit",
      "type": "event"
    },
    {
      "anonymous": false,
      "inputs": [
        {
          "indexed": true,
          "internalType": "address",
          "name": "wallet",
          "type": "address"
        }
      ],
      "name": "ModuleInit",
      "type": "event"
    },
    {
      "anonymous": false,
      "inputs": [
        {
          "indexed": true,
          "internalType": "bytes32",
          "name": "txId",
          "type": "bytes32"
        },
        {
          "indexed": true,
          "internalType": "address",
          "name": "target",
          "type": "address"
        },
        {
          "indexed": false,
          "internalType": "bytes",
          "name": "data",
          "type": "bytes"
        },
        {
          "indexed": false,
          "internalType": "uint256",
          "name": "timestamp",
          "type": "uint256"
        }
      ],
      "name": "Queue",
      "type": "event"
    },
    {
      "inputs": [],
      "name": "MAX_DELAY",
      "outputs": [
        {
          "internalType": "uint256",
          "name": "",
          "type": "uint256"
        }
      ],
      "stateMutability": "view",
      "type": "function"
    },
    {
      "inputs": [],
      "name": "MIN_DELAY",
      "outputs": [
        {
          "internalType": "uint256",
          "name": "",
          "type": "uint256"
        }
      ],
      "stateMutability": "view",
      "type": "function"
    },
    {
      "inputs": [
        {
          "internalType": "bytes32",
          "name": "_txId",
          "type": "bytes32"
        }
      ],
      "name": "cancel",
      "outputs": [],
      "stateMutability": "nonpayable",
      "type": "function"
    },
    {
      "inputs": [
        {
          "internalType": "address",
          "name": "_target",
          "type": "address"
        },
        {
          "internalType": "bytes",
          "name": "_data",
          "type": "bytes"
        }
      ],
      "name": "execute",
      "outputs": [
        {
          "internalType": "bool",
          "name": "",
          "type": "bool"
        },
        {
          "internalType": "bytes",
          "name": "",
          "type": "bytes"
        }
      ],
      "stateMutability": "nonpayable",
      "type": "function"
    },
    {
      "inputs": [
        {
          "internalType": "uint128",
          "name": "_seed",
          "type": "uint128"
        },
        {
          "internalType": "address",
          "name": "_target",
          "type": "address"
        },
        {
          "internalType": "bytes",
          "name": "_data",
          "type": "bytes"
        }
      ],
      "name": "getTxId",
      "outputs": [
        {
          "internalType": "bytes32",
          "name": "",
          "type": "bytes32"
        }
      ],
      "stateMutability": "nonpayable",
      "type": "function"
    },
    {
      "inputs": [
        {
          "internalType": "address",
          "name": "_target",
          "type": "address"
        }
      ],
      "name": "getWalletConfig",
      "outputs": [
        {
          "components": [
            {
              "internalType": "uint128",
              "name": "inited",
              "type": "uint128"
            },
            {
              "internalType": "uint64",
              "name": "delay",
              "type": "uint64"
            }
          ],
          "internalType": "struct IBaseSecurityControlModule.WalletConfig",
          "name": "",
          "type": "tuple"
        }
      ],
      "stateMutability": "view",
      "type": "function"
    },
    {
      "inputs": [
        {
          "internalType": "address",
          "name": "_target",
          "type": "address"
        },
        {
          "internalType": "bytes",
          "name": "_data",
          "type": "bytes"
        }
      ],
      "name": "queue",
      "outputs": [
        {
          "internalType": "bytes32",
          "name": "txId",
          "type": "bytes32"
        }
      ],
      "stateMutability": "nonpayable",
      "type": "function"
    },
    {
      "inputs": [
        {
          "internalType": "bytes4",
          "name": "interfaceId",
          "type": "bytes4"
        }
      ],
      "name": "supportsInterface",
      "outputs": [
        {
          "internalType": "bool",
          "name": "",
          "type": "bool"
        }
      ],
      "stateMutability": "view",
      "type": "function"
    },
    {
      "inputs": [],
      "name": "trustedModuleManager",
      "outputs": [
        {
          "internalType": "contract ITrustedContractManager",
          "name": "",
          "type": "address"
        }
      ],
      "stateMutability": "view",
      "type": "function"
    },
    {
      "inputs": [],
      "name": "trustedPluginManager",
      "outputs": [
        {
          "internalType": "contract ITrustedContractManager",
          "name": "",
          "type": "address"
        }
      ],
      "stateMutability": "view",
      "type": "function"
    },
    {
      "inputs": [],
      "name": "walletDeInit",
      "outputs": [],
      "stateMutability": "nonpayable",
      "type": "function"
    },
    {
      "inputs": [
        {
          "internalType": "bytes",
          "name": "data",
          "type": "bytes"
        }
      ],
      "name": "walletInit",
      "outputs": [],
      "stateMutability": "nonpayable",
      "type": "function"
    }
  ],
  "bytecode": {
    "object": "0x60c03461009a57601f61103138819003918201601f19168301916001600160401b0383118484101761009f57808492604094855283398101031261009a57610052602061004b836100b5565b92016100b5565b600280546001600160801b031916905560809190915260a052604051610f6790816100ca823960805181818161069701526108e8015260a051818181610be00152610c720152f35b600080fd5b634e487b7160e01b600052604160045260246000fd5b51906001600160a01b038216820361009a5756fe608080604052600436101561001357600080fd5b60003560e01c90816301ffc9a714610ca1575080630ef22a0114610c5c5780631cff79cd146107695780634125ff901461074b57806367b33932146106c6578063820a142c146106815780639f81aed714610663578063c4d252f514610570578063cdca1a5314610503578063e335a37a146103cd578063e3d20e6d1461028b5763f361cef2146100a357600080fd5b3461020357602080600319360112610203576001600160401b03600435818111610203576100d5903690600401610ce3565b336000908152600160205260409020546001600160801b0316156100f557005b60405163399dd46360e01b815230600482015284816024816000335af190811561027f57600091610252575b501561021557818491810103126102035735908116809103610203576201518081101580610208575b1561020357600254916001600160801b0390818416908282146101ed578260018093011680956001600160801b031916176002556040519461018b86610d53565b8552808501938452336000525260406000209251168254916001600160401b0360801b905160801b16916001600160401b0360c01b1617179055337fcdddfb4e53d2f7d725fae607b33383443789359047546dbdbd01f85d21adf61c600080a2005b634e487b7160e01b600052601160045260246000fd5b600080fd5b506212750081111561014a565b60405162461bcd60e51b81526004810185905260156024820152746e6f7420617574686f72697a6564206d6f64756c6560581b6044820152606490fd5b6102729150853d8711610278575b61026a8183610d6e565b810190610d8f565b38610121565b503d610260565b6040513d6000823e3d90fd5b346102035761029936610d10565b90916102a481610e25565b60018060a01b03808216918260005260209460018652604060002094604051956102cd87610d53565b546102fb82846001600160801b03968b8886169b8c8152019a6001600160401b03809660801c168c52610dc8565b96876000526000895285604060002054166103b457511642018042116101ed5786947fa2870d86c0661e772986ac09e63ccc81e35120c057cc6415544b5687ef62e65a94600160405161034d81610d53565b8981528b81019383861685528960005260008d5260406000209151166001600160601b0360a01b825416178155019151166001600160801b03198254161790556103a4604051938493604085526040850191610da7565b90888301520390a3604051908152f35b604051634ca8215f60e11b815260048101899052602490fd5b3461020357600036600319011261020357336000908152600160205260409020546001600160801b03166103fd57005b60405163399dd46360e01b815230600482015260209081816024816000335af190811561027f576000916104e6575b506104ae576040519061043e82610d53565b600082526001818301916000835233600052526001600160801b0360406000209251168254916001600160401b0360801b905160801b16916001600160401b0360c01b1617179055337fc40cdf4341ec984cbdf8ee01d99ea3a417537c7d76f069c9c44e0a613c1a8aab600080a2005b6064906040519062461bcd60e51b825260048201526011602482015270617574686f72697a6564206d6f64756c6560781b6044820152fd5b6104fd9150823d84116102785761026a8183610d6e565b8261042c565b34610203576060366003190112610203576004356001600160801b0381168103610203576024356001600160a01b038116810361020357604435906001600160401b03821161020357602092610560610568933690600401610ce3565b929091610dc8565b604051908152f35b3461020357602036600319011261020357600435806000526000602052604060002060016040516105a081610d53565b818060a01b039283815416908183526001600160801b0393849101541660208301521561064a57826105d3915116610e25565b60016040516105e181610d53565b6000815260208101936000855285600052600060205260406000209151166001600160601b0360a01b825416178155019151166001600160801b03198254161790557fe8d9861dbc9c663ed3accd261bbe2fe01e0d3d9e5f51fa38523b265c7757a93a600080a2005b604051630995c9d560e01b815260048101859052602490fd5b34610203576000366003190112610203576020604051620151808152f35b34610203576000366003190112610203576040517f00000000000000000000000000000000000000000000000000000000000000006001600160a01b03168152602090f35b34610203576020366003190112610203576004356001600160a01b0381169081900361020357600060206040516106fc81610d53565b8281520152600052600160205260408060002081519061071b82610d53565b5460206001600160801b03821692838152016001600160401b03809260801c168152835192835251166020820152f35b34610203576000366003190112610203576020604051621275008152f35b346102035761077736610d10565b610782839293610e25565b60018060a01b03821660005260016020526107d18184846040600020604051906107ab82610d53565b549060206001600160401b036001600160801b0384169384845260801c16910152610dc8565b816004116102035783356001600160e01b031916630e554a5b60e21b8103610b6857506060600319858481010301126102035761081060048501610ccf565b60248501356001600160401b038111610203578386016023828801011215610203576001600160401b036004828801013511610b52576004818701013560051b90602060405161086282850182610d6e565b6004838a01013581520191858801602482848b010101116102035791602482890101925b602481848b0101018410610b2a575050505060448501356001600160401b038111610203576108bd90600485880191880101610eea565b50604051635bf3a31560e01b81526001600160a01b03918216600482015290602090829060249082907f0000000000000000000000000000000000000000000000000000000000000000165afa90811561027f57600091610b0b575b5015610a87575b60405161092c81610d53565b600081526001600160801b036001602083019260008452846000526000602052604060002090828060a01b039051166001600160601b0360a01b825416178155019151166001600160801b03198254161790556000806040518487823780858101838152039082875af1923d15610a5e577f5db5415ab96b2653e08beeb84341b7f5d19ded653e7d528a3af4505cd002ae603d946109c986610ecf565b956109d76040519788610d6e565b86523d6000602088013e5b1515958692610a076040519283926020845260018060a01b0316976020840191610da7565b0390a4604051918252604060208301528181519182604083015260005b838110610a465750508160006060809484010152601f80199101168101030190f35b60208282018101516060878401015285935001610a24565b7f5db5415ab96b2653e08beeb84341b7f5d19ded653e7d528a3af4505cd002ae606060946109e2565b806000526000602052602060406000206001600160801b03600160405192610aae84610d53565b818060a01b03815416845201541691829101528015610af257804210610ad45750610920565b6044906040519063035fce5b60e01b82524260048301526024820152fd5b604051630995c9d560e01b815260048101839052602490fd5b610b24915060203d6020116102785761026a8183610d6e565b85610919565b83356001600160e01b0319811690036102035760208060249386358152019401939150610886565b634e487b7160e01b600052604160045260246000fd5b63cb361da560e01b03610a87578382016040858203600319011261020357610b9260048601610ccf565b906024860135906001600160401b038211610203576004610bb592880101610eea565b50604051635bf3a31560e01b81526001600160a01b03918216600482015290602090829060249082907f0000000000000000000000000000000000000000000000000000000000000000165afa90811561027f57600091610c3d575b5061092057806000526000602052602060406000206001600160801b03600160405192610aae84610d53565b610c56915060203d6020116102785761026a8183610d6e565b85610c11565b34610203576000366003190112610203576040517f00000000000000000000000000000000000000000000000000000000000000006001600160a01b03168152602090f35b34610203576020366003190112610203576004359063ffffffff60e01b821680920361020357602091158152f35b35906001600160a01b038216820361020357565b9181601f84011215610203578235916001600160401b038311610203576020838186019501011161020357565b906040600319830112610203576004356001600160a01b03811681036102035791602435906001600160401b03821161020357610d4f91600401610ce3565b9091565b604081019081106001600160401b03821117610b5257604052565b90601f801991011681019081106001600160401b03821117610b5257604052565b90816020910312610203575180151581036102035790565b908060209392818452848401376000828201840152601f01601f1916010190565b929190610e11610e1f926040519485936001600160801b036020860198468a5230604088015216606086015260018060a01b0316608085015260a08085015260c0840191610da7565b03601f198101835282610d6e565b51902090565b6001600160a01b03163381141580610e7e575b610e6c5760005260016020526001600160801b036040600020541615610e5a57565b604051638fc8bd5960e01b8152600490fd5b6040516374a2152760e01b8152600490fd5b506040516317aa5fb760e11b8152336004820152602081602481855afa90811561027f57600091610eb1575b5015610e38565b610ec9915060203d81116102785761026a8183610d6e565b38610eaa565b6001600160401b038111610b5257601f01601f191660200190565b81601f8201121561020357803590610f0182610ecf565b92610f0f6040519485610d6e565b828452602083830101116102035781600092602080930183860137830101529056fea264697066735822122053f317b2db57b551ec79b22612470bec1d76b1f2bb69daef5b1e57dabca5174a64736f6c63430008130033",
    "linkReferences": {}
  },
  "methodIdentifiers": {
    "MAX_DELAY()": "4125ff90",
    "MIN_DELAY()": "9f81aed7",
    "cancel(bytes32)": "c4d252f5",
    "execute(address,bytes)": "1cff79cd",
    "getTxId(uint128,address,bytes)": "cdca1a53",
    "getWalletConfig(address)": "67b33932",
    "queue(address,bytes)": "e3d20e6d",
    "supportsInterface(bytes4)": "01ffc9a7",
    "trustedModuleManager()": "820a142c",
    "trustedPluginManager()": "0ef22a01",
    "walletDeInit()": "e335a37a",
    "walletInit(bytes)": "f361cef2"
  },
  "id": 41
}