{
  "abi": [
    {
      "inputs": [
        {
          "internalType": "contract ITrustedContractManager",
          "name": "_trustedModuleManager",
          "type": "address"
        },
        {
          "internalType": "contract ITrustedContractManager",
          "name": "_trustedPluginManager",
          "type": "address"
        }
      ],
      "stateMutability": "nonpayable",
      "type": "constructor"
    },
    {
      "inputs": [
        {
          "internalType": "bytes32",
          "name": "txId",
          "type": "bytes32"
        }
      ],
      "name": "AlreadyQueuedError",
      "type": "error"
    },
    {
      "inputs": [],
      "name": "NotInitializedError",
      "type": "error"
    },
    {
      "inputs": [],
      "name": "NotOwnerError",
      "type": "error"
    },
    {
      "inputs": [
        {
          "internalType": "bytes32",
          "name": "txId",
          "type": "bytes32"
        }
      ],
      "name": "NotQueuedError",
      "type": "error"
    },
    {
      "inputs": [
        {
          "internalType": "uint256",
          "name": "blockTimestmap",
          "type": "uint256"
        },
        {
          "internalType": "uint256",
          "name": "timestamp",
          "type": "uint256"
        }
      ],
      "name": "TimestampNotPassedError",
      "type": "error"
    },
    {
      "inputs": [
        {
          "internalType": "bytes4",
          "name": "selector",
          "type": "bytes4"
        }
      ],
      "name": "UnsupportedSelectorError",
      "type": "error"
    },
    {
      "anonymous": false,
      "inputs": [
        {
          "indexed": true,
          "internalType": "bytes32",
          "name": "txId",
          "type": "bytes32"
        }
      ],
      "name": "Cancel",
      "type": "event"
    },
    {
      "anonymous": false,
      "inputs": [
        {
          "indexed": true,
          "internalType": "bool",
          "name": "success",
          "type": "bool"
        },
        {
          "indexed": true,
          "internalType": "bytes32",
          "name": "txId",
          "type": "bytes32"
        },
        {
          "indexed": true,
          "internalType": "address",
          "name": "target",
          "type": "address"
        },
        {
          "indexed": false,
          "internalType": "bytes",
          "name": "data",
          "type": "bytes"
        }
      ],
      "name": "Execute",
      "type": "event"
    },
    {
      "anonymous": false,
      "inputs": [
        {
          "indexed": true,
          "internalType": "address",
          "name": "wallet",
          "type": "address"
        }
      ],
      "name": "ModuleDeInit",
      "type": "event"
    },
    {
      "anonymous": false,
      "inputs": [
        {
          "indexed": true,
          "internalType": "address",
          "name": "wallet",
          "type": "address"
        }
      ],
      "name": "ModuleInit",
      "type": "event"
    },
    {
      "anonymous": false,
      "inputs": [
        {
          "indexed": true,
          "internalType": "bytes32",
          "name": "txId",
          "type": "bytes32"
        },
        {
          "indexed": true,
          "internalType": "address",
          "name": "target",
          "type": "address"
        },
        {
          "indexed": false,
          "internalType": "bytes",
          "name": "data",
          "type": "bytes"
        },
        {
          "indexed": false,
          "internalType": "uint256",
          "name": "timestamp",
          "type": "uint256"
        }
      ],
      "name": "Queue",
      "type": "event"
    },
    {
      "inputs": [],
      "name": "MAX_DELAY",
      "outputs": [
        {
          "internalType": "uint256",
          "name": "",
          "type": "uint256"
        }
      ],
      "stateMutability": "view",
      "type": "function"
    },
    {
      "inputs": [],
      "name": "MIN_DELAY",
      "outputs": [
        {
          "internalType": "uint256",
          "name": "",
          "type": "uint256"
        }
      ],
      "stateMutability": "view",
      "type": "function"
    },
    {
      "inputs": [
        {
          "internalType": "bytes32",
          "name": "_txId",
          "type": "bytes32"
        }
      ],
      "name": "cancel",
      "outputs": [],
      "stateMutability": "nonpayable",
      "type": "function"
    },
    {
      "inputs": [
        {
          "internalType": "address",
          "name": "_target",
          "type": "address"
        },
        {
          "internalType": "bytes",
          "name": "_data",
          "type": "bytes"
        }
      ],
      "name": "execute",
      "outputs": [
        {
          "internalType": "bool",
          "name": "",
          "type": "bool"
        },
        {
          "internalType": "bytes",
          "name": "",
          "type": "bytes"
        }
      ],
      "stateMutability": "nonpayable",
      "type": "function"
    },
    {
      "inputs": [
        {
          "internalType": "uint128",
          "name": "_seed",
          "type": "uint128"
        },
        {
          "internalType": "address",
          "name": "_target",
          "type": "address"
        },
        {
          "internalType": "bytes",
          "name": "_data",
          "type": "bytes"
        }
      ],
      "name": "getTxId",
      "outputs": [
        {
          "internalType": "bytes32",
          "name": "",
          "type": "bytes32"
        }
      ],
      "stateMutability": "nonpayable",
      "type": "function"
    },
    {
      "inputs": [
        {
          "internalType": "address",
          "name": "_target",
          "type": "address"
        }
      ],
      "name": "getWalletConfig",
      "outputs": [
        {
          "components": [
            {
              "internalType": "uint128",
              "name": "inited",
              "type": "uint128"
            },
            {
              "internalType": "uint64",
              "name": "delay",
              "type": "uint64"
            }
          ],
          "internalType": "struct IBaseSecurityControlModule.WalletConfig",
          "name": "",
          "type": "tuple"
        }
      ],
      "stateMutability": "view",
      "type": "function"
    },
    {
      "inputs": [
        {
          "internalType": "address",
          "name": "_target",
          "type": "address"
        },
        {
          "internalType": "bytes",
          "name": "_data",
          "type": "bytes"
        }
      ],
      "name": "queue",
      "outputs": [
        {
          "internalType": "bytes32",
          "name": "txId",
          "type": "bytes32"
        }
      ],
      "stateMutability": "nonpayable",
      "type": "function"
    },
    {
      "inputs": [
        {
          "internalType": "bytes4",
          "name": "interfaceId",
          "type": "bytes4"
        }
      ],
      "name": "supportsInterface",
      "outputs": [
        {
          "internalType": "bool",
          "name": "",
          "type": "bool"
        }
      ],
      "stateMutability": "view",
      "type": "function"
    },
    {
      "inputs": [],
      "name": "trustedModuleManager",
      "outputs": [
        {
          "internalType": "contract ITrustedContractManager",
          "name": "",
          "type": "address"
        }
      ],
      "stateMutability": "view",
      "type": "function"
    },
    {
      "inputs": [],
      "name": "trustedPluginManager",
      "outputs": [
        {
          "internalType": "contract ITrustedContractManager",
          "name": "",
          "type": "address"
        }
      ],
      "stateMutability": "view",
      "type": "function"
    },
    {
      "inputs": [],
      "name": "walletDeInit",
      "outputs": [],
      "stateMutability": "nonpayable",
      "type": "function"
    },
    {
      "inputs": [
        {
          "internalType": "bytes",
          "name": "data",
          "type": "bytes"
        }
      ],
      "name": "walletInit",
      "outputs": [],
      "stateMutability": "nonpayable",
      "type": "function"
    }
  ],
  "bytecode": {
    "object": "0x60c0604052600280546001600160801b031916905534801561002057600080fd5b5060405161140238038061140283398101604081905261003f91610072565b6001600160a01b039182166080521660a0526100a5565b80516001600160a01b038116811461006d57600080fd5b919050565b6000806040838503121561008557600080fd5b61008e83610056565b915061009c60208401610056565b90509250929050565b60805160a05161132b6100d76000396000818160ef0152610b4d0152600081816101fe0152610a72015261132b6000f3fe608060405234801561001057600080fd5b50600436106100b45760003560e01c80639f81aed7116100715780639f81aed714610220578063c4d252f51461022a578063cdca1a531461023f578063e335a37a14610252578063e3d20e6d1461025a578063f361cef21461026d57600080fd5b806301ffc9a7146100b95780630ef22a01146100ea5780631cff79cd146101295780634125ff901461014a57806367b3393214610162578063820a142c146101f9575b600080fd5b6100d56100c7366004610d3c565b6001600160e01b0319161590565b60405190151581526020015b60405180910390f35b6101117f000000000000000000000000000000000000000000000000000000000000000081565b6040516001600160a01b0390911681526020016100e1565b61013c610137366004610dbb565b610280565b6040516100e1929190610e0f565b6101546212750081565b6040519081526020016100e1565b6101cc610170366004610e67565b6040805180820190915260008082526020820152506001600160a01b03166000908152600160209081526040918290208251808401909352546001600160801b0381168352600160801b90046001600160401b03169082015290565b6040805182516001600160801b031681526020928301516001600160401b031692810192909252016100e1565b6101117f000000000000000000000000000000000000000000000000000000000000000081565b6101546201518081565b61023d610238366004610e84565b610405565b005b61015461024d366004610e9d565b6104fc565b61023d610539565b610154610268366004610dbb565b6106a2565b61023d61027b366004610f0d565b61080d565b6000606061028d8561091c565b6001600160a01b03851660009081526001602090815260408083208151808301909252546001600160801b038116808352600160801b9091046001600160401b03169282019290925291906102e4908888886104fc565b90506102f287878784610a00565b6040805180820182526000808252602080830182815285835290829052838220925183546001600160a01b0319166001600160a01b039182161784559051600190930180546001600160801b0319166001600160801b0390941693909317909255915182918a16908290610369908b908b90610f4e565b60006040518083038185875af1925050503d80600081146103a6576040519150601f19603f3d011682016040523d82523d6000602084013e6103ab565b606091505b5091509150886001600160a01b0316838315157f5db5415ab96b2653e08beeb84341b7f5d19ded653e7d528a3af4505cd002ae608b8b6040516103ef929190610f87565b60405180910390a4909890975095505050505050565b60008181526020818152604091829020825180840190935280546001600160a01b03168084526001909101546001600160801b03169183019190915261046657604051630995c9d560e01b8152600481018390526024015b60405180910390fd5b80516104719061091c565b6040805180820182526000808252602080830182815286835290829052838220925183546001600160a01b0319166001600160a01b0390911617835551600190920180546001600160801b0319166001600160801b0390931692909217909155905183917fe8d9861dbc9c663ed3accd261bbe2fe01e0d3d9e5f51fa38523b265c7757a93a91a25050565b600046308686868660405160200161051996959493929190610fa3565b604051602081830303815290604052805190602001209050949350505050565b336000818152600160205260409020546001600160801b03161561069f5760405163399dd46360e01b81523060048201526001600160a01b0382169063399dd463906024016020604051808303816000875af115801561059d573d6000803e3d6000fd5b505050506040513d601f19601f820116820180604052508101906105c19190610ff1565b156106025760405162461bcd60e51b8152602060048201526011602482015270617574686f72697a6564206d6f64756c6560781b604482015260640161045d565b61066a600033604080518082018252600080825260208083018281526001600160a01b03909516825260019052919091209051815492516001600160401b0316600160801b026001600160c01b03199093166001600160801b03919091161791909117905550565b6040516001600160a01b038216907fc40cdf4341ec984cbdf8ee01d99ea3a417537c7d76f069c9c44e0a613c1a8aab90600090a25b50565b60006106ad8461091c565b6001600160a01b0384166000908152600160209081526040918290208251808401909352546001600160801b038116808452600160801b9091046001600160401b031691830191909152610703908686866104fc565b6000818152602081905260409020549092506001600160a01b03161561073f57604051634ca8215f60e11b81526004810183905260240161045d565b600081602001516001600160401b03164261075a9190611029565b6040805180820182526001600160a01b038981168083526001600160801b03858116602080860191825260008b815290819052869020945185546001600160a01b03191694169390931784559151600190930180546001600160801b0319169390921692909217905590519192509084907fa2870d86c0661e772986ac09e63ccc81e35120c057cc6415544b5687ef62e65a906107fc90899089908790611042565b60405180910390a350509392505050565b336000818152600160205260409020546001600160801b03166109175760405163399dd46360e01b81523060048201526001600160a01b0382169063399dd463906024016020604051808303816000875af1158015610870573d6000803e3d6000fd5b505050506040513d601f19601f820116820180604052508101906108949190610ff1565b6108d85760405162461bcd60e51b81526020600482015260156024820152746e6f7420617574686f72697a6564206d6f64756c6560581b604482015260640161045d565b6108e28383610b91565b6040516001600160a01b038216907fcdddfb4e53d2f7d725fae607b33383443789359047546dbdbd01f85d21adf61c90600090a25b505050565b336001600160a01b038216811480159061099d57506040516317aa5fb760e11b81526001600160a01b038281166004830152831690632f54bf6e90602401602060405180830381865afa158015610977573d6000803e3d6000fd5b505050506040513d601f19601f8201168201806040525081019061099b9190610ff1565b155b156109bb576040516374a2152760e01b815260040160405180910390fd5b6001600160a01b0382166000908152600160205260408120546001600160801b031690036109fc57604051638fc8bd5960e01b815260040160405180910390fd5b5050565b6000610a0f6004828587611066565b610a1891611090565b90506331aab5a560e21b6001600160e01b0319821601610af6576000610a418460048188611066565b810190610a4e9190611175565b5050604051635bf3a31560e01b81526001600160a01b0380831660048301529192507f000000000000000000000000000000000000000000000000000000000000000090911690635bf3a315906024015b602060405180830381865afa158015610abc573d6000803e3d6000fd5b505050506040513d601f19601f82011682018060405250810190610ae09190610ff1565b610af057610af086868686610c4b565b50610b8a565b6334c9e25b60e01b6001600160e01b0319821601610b7e576000610b1d8460048188611066565b810190610b2a9190611257565b50604051635bf3a31560e01b81526001600160a01b0380831660048301529192507f000000000000000000000000000000000000000000000000000000000000000090911690635bf3a31590602401610a9f565b610b8a85858585610c4b565b5050505050565b6000610b9f828401846112a6565b905062015180816001600160401b031610158015610bc9575062127500816001600160401b031611155b610bd257600080fd5b60003390506040518060400160405280610bea610cd8565b6001600160801b0390811682526001600160401b039485166020928301526001600160a01b0390931660009081526001825260409020825181549390920151909416600160801b026001600160c01b03199092169216919091171790555050565b600081815260208181526040808320815180830190925280546001600160a01b03168252600101546001600160801b031691810182905291819003610ca657604051630995c9d560e01b81526004810184905260240161045d565b80421015610cd05760405163035fce5b60e01b81524260048201526024810182905260440161045d565b505050505050565b600280546000916001600160801b039091169082610cf5836112cf565b82546101009290920a6001600160801b038181021990931691831602179091556002541692915050565b80356001600160e01b031981168114610d3757600080fd5b919050565b600060208284031215610d4e57600080fd5b610d5782610d1f565b9392505050565b6001600160a01b038116811461069f57600080fd5b60008083601f840112610d8557600080fd5b5081356001600160401b03811115610d9c57600080fd5b602083019150836020828501011115610db457600080fd5b9250929050565b600080600060408486031215610dd057600080fd5b8335610ddb81610d5e565b925060208401356001600160401b03811115610df657600080fd5b610e0286828701610d73565b9497909650939450505050565b821515815260006020604081840152835180604085015260005b81811015610e4557858101830151858201606001528201610e29565b506000606082860101526060601f19601f830116850101925050509392505050565b600060208284031215610e7957600080fd5b8135610d5781610d5e565b600060208284031215610e9657600080fd5b5035919050565b60008060008060608587031215610eb357600080fd5b84356001600160801b0381168114610eca57600080fd5b93506020850135610eda81610d5e565b925060408501356001600160401b03811115610ef557600080fd5b610f0187828801610d73565b95989497509550505050565b60008060208385031215610f2057600080fd5b82356001600160401b03811115610f3657600080fd5b610f4285828601610d73565b90969095509350505050565b8183823760009101908152919050565b81835281816020850137506000828201602090810191909152601f909101601f19169091010190565b602081526000610f9b602083018486610f5e565b949350505050565b8681526001600160a01b0386811660208301526001600160801b03861660408301528416606082015260a060808201819052600090610fe59083018486610f5e565b98975050505050505050565b60006020828403121561100357600080fd5b81518015158114610d5757600080fd5b634e487b7160e01b600052601160045260246000fd5b8082018082111561103c5761103c611013565b92915050565b604081526000611056604083018587610f5e565b9050826020830152949350505050565b6000808585111561107657600080fd5b8386111561108357600080fd5b5050820193919092039150565b6001600160e01b031981358181169160048510156110b85780818660040360031b1b83161692505b505092915050565b634e487b7160e01b600052604160045260246000fd5b604051601f8201601f191681016001600160401b03811182821017156110fe576110fe6110c0565b604052919050565b600082601f83011261111757600080fd5b81356001600160401b03811115611130576111306110c0565b611143601f8201601f19166020016110d6565b81815284602083860101111561115857600080fd5b816020850160208301376000918101602001919091529392505050565b60008060006060848603121561118a57600080fd5b833561119581610d5e565b92506020848101356001600160401b03808211156111b257600080fd5b818701915087601f8301126111c657600080fd5b8135818111156111d8576111d86110c0565b8060051b6111e78582016110d6565b918252838101850191858101908b84111561120157600080fd5b948601945b838610156112265761121786610d1f565b82529486019490860190611206565b9750505050604087013592508083111561123f57600080fd5b505061124d86828701611106565b9150509250925092565b6000806040838503121561126a57600080fd5b823561127581610d5e565b915060208301356001600160401b0381111561129057600080fd5b61129c85828601611106565b9150509250929050565b6000602082840312156112b857600080fd5b81356001600160401b0381168114610d5757600080fd5b60006001600160801b038083168181036112eb576112eb611013565b600101939250505056fea2646970667358221220c01a9766f2c5c6dcfba19d03e0cd97924bfeae467a1fc2e84dafd0706a4810b664736f6c63430008110033",
    "linkReferences": {}
  },
  "methodIdentifiers": {
    "MAX_DELAY()": "4125ff90",
    "MIN_DELAY()": "9f81aed7",
    "cancel(bytes32)": "c4d252f5",
    "execute(address,bytes)": "1cff79cd",
    "getTxId(uint128,address,bytes)": "cdca1a53",
    "getWalletConfig(address)": "67b33932",
    "queue(address,bytes)": "e3d20e6d",
    "supportsInterface(bytes4)": "01ffc9a7",
    "trustedModuleManager()": "820a142c",
    "trustedPluginManager()": "0ef22a01",
    "walletDeInit()": "e335a37a",
    "walletInit(bytes)": "f361cef2"
  },
  "id": 36
}