{
  "abi": [
    {
      "inputs": [
        {
          "internalType": "bytes32",
          "name": "txId",
          "type": "bytes32"
        }
      ],
      "name": "AlreadyQueuedError",
      "type": "error"
    },
    {
      "inputs": [],
      "name": "NotInitializedError",
      "type": "error"
    },
    {
      "inputs": [],
      "name": "NotOwnerError",
      "type": "error"
    },
    {
      "inputs": [
        {
          "internalType": "bytes32",
          "name": "txId",
          "type": "bytes32"
        }
      ],
      "name": "NotQueuedError",
      "type": "error"
    },
    {
      "inputs": [
        {
          "internalType": "uint256",
          "name": "blockTimestmap",
          "type": "uint256"
        },
        {
          "internalType": "uint256",
          "name": "timestamp",
          "type": "uint256"
        }
      ],
      "name": "TimestampNotPassedError",
      "type": "error"
    },
    {
      "anonymous": false,
      "inputs": [
        {
          "indexed": true,
          "internalType": "bytes32",
          "name": "txId",
          "type": "bytes32"
        }
      ],
      "name": "Cancel",
      "type": "event"
    },
    {
      "anonymous": false,
      "inputs": [
        {
          "indexed": true,
          "internalType": "bool",
          "name": "success",
          "type": "bool"
        },
        {
          "indexed": true,
          "internalType": "bytes32",
          "name": "txId",
          "type": "bytes32"
        },
        {
          "indexed": true,
          "internalType": "address",
          "name": "target",
          "type": "address"
        },
        {
          "indexed": false,
          "internalType": "bytes",
          "name": "data",
          "type": "bytes"
        }
      ],
      "name": "Execute",
      "type": "event"
    },
    {
      "anonymous": false,
      "inputs": [
        {
          "indexed": true,
          "internalType": "address",
          "name": "wallet",
          "type": "address"
        }
      ],
      "name": "ModuleDeInit",
      "type": "event"
    },
    {
      "anonymous": false,
      "inputs": [
        {
          "indexed": true,
          "internalType": "address",
          "name": "wallet",
          "type": "address"
        }
      ],
      "name": "ModuleInit",
      "type": "event"
    },
    {
      "anonymous": false,
      "inputs": [
        {
          "indexed": true,
          "internalType": "bytes32",
          "name": "txId",
          "type": "bytes32"
        },
        {
          "indexed": true,
          "internalType": "address",
          "name": "target",
          "type": "address"
        },
        {
          "indexed": false,
          "internalType": "bytes",
          "name": "data",
          "type": "bytes"
        },
        {
          "indexed": false,
          "internalType": "uint256",
          "name": "timestamp",
          "type": "uint256"
        }
      ],
      "name": "Queue",
      "type": "event"
    },
    {
      "inputs": [],
      "name": "MAX_DELAY",
      "outputs": [
        {
          "internalType": "uint256",
          "name": "",
          "type": "uint256"
        }
      ],
      "stateMutability": "view",
      "type": "function"
    },
    {
      "inputs": [],
      "name": "MIN_DELAY",
      "outputs": [
        {
          "internalType": "uint256",
          "name": "",
          "type": "uint256"
        }
      ],
      "stateMutability": "view",
      "type": "function"
    },
    {
      "inputs": [
        {
          "internalType": "bytes32",
          "name": "_txId",
          "type": "bytes32"
        }
      ],
      "name": "cancel",
      "outputs": [],
      "stateMutability": "nonpayable",
      "type": "function"
    },
    {
      "inputs": [
        {
          "internalType": "address",
          "name": "_target",
          "type": "address"
        },
        {
          "internalType": "bytes",
          "name": "_data",
          "type": "bytes"
        }
      ],
      "name": "execute",
      "outputs": [
        {
          "internalType": "bool",
          "name": "",
          "type": "bool"
        },
        {
          "internalType": "bytes",
          "name": "",
          "type": "bytes"
        }
      ],
      "stateMutability": "nonpayable",
      "type": "function"
    },
    {
      "inputs": [
        {
          "internalType": "uint128",
          "name": "_seed",
          "type": "uint128"
        },
        {
          "internalType": "address",
          "name": "_target",
          "type": "address"
        },
        {
          "internalType": "bytes",
          "name": "_data",
          "type": "bytes"
        }
      ],
      "name": "getTxId",
      "outputs": [
        {
          "internalType": "bytes32",
          "name": "",
          "type": "bytes32"
        }
      ],
      "stateMutability": "nonpayable",
      "type": "function"
    },
    {
      "inputs": [
        {
          "internalType": "address",
          "name": "_target",
          "type": "address"
        }
      ],
      "name": "getWalletConfig",
      "outputs": [
        {
          "components": [
            {
              "internalType": "uint128",
              "name": "inited",
              "type": "uint128"
            },
            {
              "internalType": "uint64",
              "name": "delay",
              "type": "uint64"
            }
          ],
          "internalType": "struct IBaseSecurityControlModule.WalletConfig",
          "name": "",
          "type": "tuple"
        }
      ],
      "stateMutability": "view",
      "type": "function"
    },
    {
      "inputs": [
        {
          "internalType": "address",
          "name": "_target",
          "type": "address"
        },
        {
          "internalType": "bytes",
          "name": "_data",
          "type": "bytes"
        }
      ],
      "name": "queue",
      "outputs": [
        {
          "internalType": "bytes32",
          "name": "txId",
          "type": "bytes32"
        }
      ],
      "stateMutability": "nonpayable",
      "type": "function"
    },
    {
      "inputs": [
        {
          "internalType": "bytes4",
          "name": "interfaceId",
          "type": "bytes4"
        }
      ],
      "name": "supportsInterface",
      "outputs": [
        {
          "internalType": "bool",
          "name": "",
          "type": "bool"
        }
      ],
      "stateMutability": "view",
      "type": "function"
    },
    {
      "inputs": [],
      "name": "walletDeInit",
      "outputs": [],
      "stateMutability": "nonpayable",
      "type": "function"
    },
    {
      "inputs": [
        {
          "internalType": "bytes",
          "name": "data",
          "type": "bytes"
        }
      ],
      "name": "walletInit",
      "outputs": [],
      "stateMutability": "nonpayable",
      "type": "function"
    }
  ],
  "bytecode": {
    "object": "0x6080604052600280546001600160801b031916905534801561002057600080fd5b50610ed1806100306000396000f3fe608060405234801561001057600080fd5b506004361061009e5760003560e01c8063c4d252f511610066578063c4d252f5146101ae578063cdca1a53146101c3578063e335a37a146101d6578063e3d20e6d146101de578063f361cef2146101f157600080fd5b806301ffc9a7146100a35780631cff79cd146100d45780634125ff90146100f557806367b339321461010d5780639f81aed7146101a4575b600080fd5b6100bf6100b1366004610b12565b6001600160e01b0319161590565b60405190151581526020015b60405180910390f35b6100e76100e2366004610ba7565b610204565b6040516100cb929190610bf9565b6100ff6212750081565b6040519081526020016100cb565b61017761011b366004610c51565b6040805180820190915260008082526020820152506001600160a01b03166000908152600160209081526040918290208251808401909352546001600160801b0381168352600160801b90046001600160401b03169082015290565b6040805182516001600160801b031681526020928301516001600160401b031692810192909252016100cb565b6100ff6201518081565b6101c16101bc366004610c6c565b610389565b005b6100ff6101d1366004610c85565b610480565b6101c16104bd565b6100ff6101ec366004610ba7565b610626565b6101c16101ff366004610cf3565b610791565b60006060610211856108a0565b6001600160a01b03851660009081526001602090815260408083208151808301909252546001600160801b038116808352600160801b9091046001600160401b031692820192909252919061026890888888610480565b905061027687878784610984565b6040805180820182526000808252602080830182815285835290829052838220925183546001600160a01b0319166001600160a01b039182161784559051600190930180546001600160801b0319166001600160801b0390941693909317909255915182918a169082906102ed908b908b90610d34565b60006040518083038185875af1925050503d806000811461032a576040519150601f19603f3d011682016040523d82523d6000602084013e61032f565b606091505b5091509150886001600160a01b0316838315157f5db5415ab96b2653e08beeb84341b7f5d19ded653e7d528a3af4505cd002ae608b8b604051610373929190610d6d565b60405180910390a4909890975095505050505050565b60008181526020818152604091829020825180840190935280546001600160a01b03168084526001909101546001600160801b0316918301919091526103ea57604051630995c9d560e01b8152600481018390526024015b60405180910390fd5b80516103f5906108a0565b6040805180820182526000808252602080830182815286835290829052838220925183546001600160a01b0319166001600160a01b0390911617835551600190920180546001600160801b0319166001600160801b0390931692909217909155905183917fe8d9861dbc9c663ed3accd261bbe2fe01e0d3d9e5f51fa38523b265c7757a93a91a25050565b600046308686868660405160200161049d96959493929190610d89565b604051602081830303815290604052805190602001209050949350505050565b336000818152600160205260409020546001600160801b0316156106235760405163399dd46360e01b81523060048201526001600160a01b0382169063399dd463906024016020604051808303816000875af1158015610521573d6000803e3d6000fd5b505050506040513d601f19601f820116820180604052508101906105459190610dd7565b156105865760405162461bcd60e51b8152602060048201526011602482015270617574686f72697a6564206d6f64756c6560781b60448201526064016103e1565b6105ee600033604080518082018252600080825260208083018281526001600160a01b03909516825260019052919091209051815492516001600160401b0316600160801b026001600160c01b03199093166001600160801b03919091161791909117905550565b6040516001600160a01b038216907fc40cdf4341ec984cbdf8ee01d99ea3a417537c7d76f069c9c44e0a613c1a8aab90600090a25b50565b6000610631846108a0565b6001600160a01b0384166000908152600160209081526040918290208251808401909352546001600160801b038116808452600160801b9091046001600160401b03169183019190915261068790868686610480565b6000818152602081905260409020549092506001600160a01b0316156106c357604051634ca8215f60e11b8152600481018390526024016103e1565b600081602001516001600160401b0316426106de9190610e0f565b6040805180820182526001600160a01b038981168083526001600160801b03858116602080860191825260008b815290819052869020945185546001600160a01b03191694169390931784559151600190930180546001600160801b0319169390921692909217905590519192509084907fa2870d86c0661e772986ac09e63ccc81e35120c057cc6415544b5687ef62e65a9061078090899089908790610e28565b60405180910390a350509392505050565b336000818152600160205260409020546001600160801b031661089b5760405163399dd46360e01b81523060048201526001600160a01b0382169063399dd463906024016020604051808303816000875af11580156107f4573d6000803e3d6000fd5b505050506040513d601f19601f820116820180604052508101906108189190610dd7565b61085c5760405162461bcd60e51b81526020600482015260156024820152746e6f7420617574686f72697a6564206d6f64756c6560581b60448201526064016103e1565b6108668383610a11565b6040516001600160a01b038216907fcdddfb4e53d2f7d725fae607b33383443789359047546dbdbd01f85d21adf61c90600090a25b505050565b336001600160a01b038216811480159061092157506040516317aa5fb760e11b81526001600160a01b038281166004830152831690632f54bf6e90602401602060405180830381865afa1580156108fb573d6000803e3d6000fd5b505050506040513d601f19601f8201168201806040525081019061091f9190610dd7565b155b1561093f576040516374a2152760e01b815260040160405180910390fd5b6001600160a01b0382166000908152600160205260408120546001600160801b0316900361098057604051638fc8bd5960e01b815260040160405180910390fd5b5050565b600081815260208181526040808320815180830190925280546001600160a01b03168252600101546001600160801b0316918101829052918190036109df57604051630995c9d560e01b8152600481018490526024016103e1565b80421015610a095760405163035fce5b60e01b8152426004820152602481018290526044016103e1565b505050505050565b6000610a1f82840184610e4c565b905062015180816001600160401b031610158015610a49575062127500816001600160401b031611155b610a5257600080fd5b60003390506040518060400160405280610a6a610acb565b6001600160801b0390811682526001600160401b039485166020928301526001600160a01b0390931660009081526001825260409020825181549390920151909416600160801b026001600160c01b03199092169216919091171790555050565b600280546000916001600160801b039091169082610ae883610e75565b82546101009290920a6001600160801b038181021990931691831602179091556002541692915050565b600060208284031215610b2457600080fd5b81356001600160e01b031981168114610b3c57600080fd5b9392505050565b80356001600160a01b0381168114610b5a57600080fd5b919050565b60008083601f840112610b7157600080fd5b5081356001600160401b03811115610b8857600080fd5b602083019150836020828501011115610ba057600080fd5b9250929050565b600080600060408486031215610bbc57600080fd5b610bc584610b43565b925060208401356001600160401b03811115610be057600080fd5b610bec86828701610b5f565b9497909650939450505050565b821515815260006020604081840152835180604085015260005b81811015610c2f57858101830151858201606001528201610c13565b506000606082860101526060601f19601f830116850101925050509392505050565b600060208284031215610c6357600080fd5b610b3c82610b43565b600060208284031215610c7e57600080fd5b5035919050565b60008060008060608587031215610c9b57600080fd5b84356001600160801b0381168114610cb257600080fd5b9350610cc060208601610b43565b925060408501356001600160401b03811115610cdb57600080fd5b610ce787828801610b5f565b95989497509550505050565b60008060208385031215610d0657600080fd5b82356001600160401b03811115610d1c57600080fd5b610d2885828601610b5f565b90969095509350505050565b8183823760009101908152919050565b81835281816020850137506000828201602090810191909152601f909101601f19169091010190565b602081526000610d81602083018486610d44565b949350505050565b8681526001600160a01b0386811660208301526001600160801b03861660408301528416606082015260a060808201819052600090610dcb9083018486610d44565b98975050505050505050565b600060208284031215610de957600080fd5b81518015158114610b3c57600080fd5b634e487b7160e01b600052601160045260246000fd5b80820180821115610e2257610e22610df9565b92915050565b604081526000610e3c604083018587610d44565b9050826020830152949350505050565b600060208284031215610e5e57600080fd5b81356001600160401b0381168114610b3c57600080fd5b60006001600160801b03808316818103610e9157610e91610df9565b600101939250505056fea2646970667358221220253352418ff6f0face9b1dec112a19b424492172fc7e806a0b1b266a87f7201b64736f6c63430008110033",
    "linkReferences": {}
  },
  "methodIdentifiers": {
    "MAX_DELAY()": "4125ff90",
    "MIN_DELAY()": "9f81aed7",
    "cancel(bytes32)": "c4d252f5",
    "execute(address,bytes)": "1cff79cd",
    "getTxId(uint128,address,bytes)": "cdca1a53",
    "getWalletConfig(address)": "67b33932",
    "queue(address,bytes)": "e3d20e6d",
    "supportsInterface(bytes4)": "01ffc9a7",
    "walletDeInit()": "e335a37a",
    "walletInit(bytes)": "f361cef2"
  },
  "id": 34
}