{
  "abi": [
    {
      "inputs": [
        {
          "internalType": "bytes32",
          "name": "txId",
          "type": "bytes32"
        }
      ],
      "name": "AlreadyQueuedError",
      "type": "error"
    },
    {
      "inputs": [],
      "name": "NotInitializedError",
      "type": "error"
    },
    {
      "inputs": [],
      "name": "NotOwnerError",
      "type": "error"
    },
    {
      "inputs": [
        {
          "internalType": "bytes32",
          "name": "txId",
          "type": "bytes32"
        }
      ],
      "name": "NotQueuedError",
      "type": "error"
    },
    {
      "inputs": [
        {
          "internalType": "uint256",
          "name": "blockTimestmap",
          "type": "uint256"
        },
        {
          "internalType": "uint256",
          "name": "timestamp",
          "type": "uint256"
        }
      ],
      "name": "TimestampNotPassedError",
      "type": "error"
    },
    {
      "anonymous": false,
      "inputs": [
        {
          "indexed": true,
          "internalType": "bytes32",
          "name": "txId",
          "type": "bytes32"
        }
      ],
      "name": "Cancel",
      "type": "event"
    },
    {
      "anonymous": false,
      "inputs": [
        {
          "indexed": true,
          "internalType": "bool",
          "name": "success",
          "type": "bool"
        },
        {
          "indexed": true,
          "internalType": "bytes32",
          "name": "txId",
          "type": "bytes32"
        },
        {
          "indexed": true,
          "internalType": "address",
          "name": "target",
          "type": "address"
        },
        {
          "indexed": false,
          "internalType": "bytes",
          "name": "data",
          "type": "bytes"
        }
      ],
      "name": "Execute",
      "type": "event"
    },
    {
      "anonymous": false,
      "inputs": [
        {
          "indexed": true,
          "internalType": "address",
          "name": "wallet",
          "type": "address"
        }
      ],
      "name": "ModuleDeInit",
      "type": "event"
    },
    {
      "anonymous": false,
      "inputs": [
        {
          "indexed": true,
          "internalType": "address",
          "name": "wallet",
          "type": "address"
        }
      ],
      "name": "ModuleInit",
      "type": "event"
    },
    {
      "anonymous": false,
      "inputs": [
        {
          "indexed": true,
          "internalType": "bytes32",
          "name": "txId",
          "type": "bytes32"
        },
        {
          "indexed": true,
          "internalType": "address",
          "name": "target",
          "type": "address"
        },
        {
          "indexed": false,
          "internalType": "bytes",
          "name": "data",
          "type": "bytes"
        },
        {
          "indexed": false,
          "internalType": "uint256",
          "name": "timestamp",
          "type": "uint256"
        }
      ],
      "name": "Queue",
      "type": "event"
    },
    {
      "inputs": [],
      "name": "MAX_DELAY",
      "outputs": [
        {
          "internalType": "uint256",
          "name": "",
          "type": "uint256"
        }
      ],
      "stateMutability": "view",
      "type": "function"
    },
    {
      "inputs": [],
      "name": "MIN_DELAY",
      "outputs": [
        {
          "internalType": "uint256",
          "name": "",
          "type": "uint256"
        }
      ],
      "stateMutability": "view",
      "type": "function"
    },
    {
      "inputs": [
        {
          "internalType": "bytes32",
          "name": "_txId",
          "type": "bytes32"
        }
      ],
      "name": "cancel",
      "outputs": [],
      "stateMutability": "nonpayable",
      "type": "function"
    },
    {
      "inputs": [
        {
          "internalType": "address",
          "name": "_target",
          "type": "address"
        },
        {
          "internalType": "bytes",
          "name": "_data",
          "type": "bytes"
        }
      ],
      "name": "execute",
      "outputs": [
        {
          "internalType": "bool",
          "name": "",
          "type": "bool"
        },
        {
          "internalType": "bytes",
          "name": "",
          "type": "bytes"
        }
      ],
      "stateMutability": "nonpayable",
      "type": "function"
    },
    {
      "inputs": [
        {
          "internalType": "uint128",
          "name": "_seed",
          "type": "uint128"
        },
        {
          "internalType": "address",
          "name": "_target",
          "type": "address"
        },
        {
          "internalType": "bytes",
          "name": "_data",
          "type": "bytes"
        }
      ],
      "name": "getTxId",
      "outputs": [
        {
          "internalType": "bytes32",
          "name": "",
          "type": "bytes32"
        }
      ],
      "stateMutability": "nonpayable",
      "type": "function"
    },
    {
      "inputs": [
        {
          "internalType": "address",
          "name": "_target",
          "type": "address"
        }
      ],
      "name": "getWalletConfig",
      "outputs": [
        {
          "components": [
            {
              "internalType": "uint128",
              "name": "inited",
              "type": "uint128"
            },
            {
              "internalType": "uint64",
              "name": "delay",
              "type": "uint64"
            }
          ],
          "internalType": "struct IBaseSecurityControlModule.WalletConfig",
          "name": "",
          "type": "tuple"
        }
      ],
      "stateMutability": "view",
      "type": "function"
    },
    {
      "inputs": [
        {
          "internalType": "address",
          "name": "_target",
          "type": "address"
        },
        {
          "internalType": "bytes",
          "name": "_data",
          "type": "bytes"
        }
      ],
      "name": "queue",
      "outputs": [
        {
          "internalType": "bytes32",
          "name": "txId",
          "type": "bytes32"
        }
      ],
      "stateMutability": "nonpayable",
      "type": "function"
    },
    {
      "inputs": [
        {
          "internalType": "bytes4",
          "name": "interfaceId",
          "type": "bytes4"
        }
      ],
      "name": "supportsInterface",
      "outputs": [
        {
          "internalType": "bool",
          "name": "",
          "type": "bool"
        }
      ],
      "stateMutability": "view",
      "type": "function"
    },
    {
      "inputs": [],
      "name": "walletDeInit",
      "outputs": [],
      "stateMutability": "nonpayable",
      "type": "function"
    },
    {
      "inputs": [
        {
          "internalType": "bytes",
          "name": "data",
          "type": "bytes"
        }
      ],
      "name": "walletInit",
      "outputs": [],
      "stateMutability": "nonpayable",
      "type": "function"
    }
  ],
  "bytecode": {
    "object": "0x6080806040523461002657600280546001600160801b0319169055610bde908161002c8239f35b600080fdfe608060408181526004908136101561001657600080fd5b600092833560e01c90816301ffc9a714610966575080631cff79cd146107255780634125ff901461070757806367b33932146106875780639f81aed714610665578063c4d252f51461057b578063cdca1a5314610508578063e335a37a146103ce578063e3d20e6d146102805763f361cef21461009257600080fd5b3461027c5760209182600319360112610278576001600160401b03918135838111610202576100c49036908401610995565b336000908152600160205260409020546001600160801b0316156100e6578680f35b825163399dd46360e01b8152308582015286816024818b335af190811561026e578891610241575b5015610206578186918101031261020257359283168093036101f15762015180831015806101f5575b156101f157600254936001600160801b0392838616908482146101de5750908360018093011680966001600160801b0319161760025582519561017987610a0a565b86528086019485523387525284209251168254916001600160401b0360801b905160801b16916001600160401b0360c01b1617179055337fcdddfb4e53d2f7d725fae607b33383443789359047546dbdbd01f85d21adf61c8280a23880808080808680f35b634e487b7160e01b885260119052602487fd5b8480fd5b5062127500831115610137565b8580fd5b825162461bcd60e51b815280850187905260156024820152746e6f7420617574686f72697a6564206d6f64756c6560581b6044820152606490fd5b6102619150873d8911610267575b6102598183610a3b565b810190610a5c565b3861010e565b503d61024f565b84513d8a823e3d90fd5b8380fd5b8280fd5b503461027c576102c99192610294366109c7565b9091956102a087610af2565b60018060a01b0396878116948581526020988992600184526102f386888b86208c519d8e610a0a565b54936001600160801b03978886169e8f8152019d8e6001600160401b03809760801c169052610a95565b998a8452838c52828a852054166103b75751164201938442116103a457507fa2870d86c0661e772986ac09e63ccc81e35120c057cc6415544b5687ef62e65a949260018a9795938c938b80519261034984610a0a565b8c84528087850197878a1689528d825252209151166001600160601b0360a01b825416178155019151166001600160801b0319825416179055610396875193849389855289850191610a74565b90898301520390a351908152f35b634e487b7160e01b835260119052602482fd5b8951634ca8215f60e11b81528087018c9052602490fd5b50903461027c578260031936011261027c57336000908152600160205260409020546001600160801b0316610401578280f35b815163399dd46360e01b8152308282015260209190828160248188335af19081156104fe5785916104e1575b506104ac57506001600160801b0382519261044784610a0a565b8484526001838501938685523387525284209251168254916001600160401b0360801b905160801b16916001600160401b0360c01b1617179055337fc40cdf4341ec984cbdf8ee01d99ea3a417537c7d76f069c9c44e0a613c1a8aab8280a238808280f35b915162461bcd60e51b8152918201526011602482015270617574686f72697a6564206d6f64756c6560781b6044820152606490fd5b6104f89150833d8511610267576102598183610a3b565b3861042d565b84513d87823e3d90fd5b50903461027c57606036600319011261027c578035906001600160801b038216820361027857602435936001600160a01b038516850361057857604435906001600160401b0382116105785750916105696020959261057194369101610995565b929091610a95565b9051908152f35b80fd5b503461027c57602036600319011261027c57600182359283855284602052828520908351906105a982610a0a565b838060a01b039283815416908184526001600160801b0395869101541660208401521561064e5750906105e0816001935116610af2565b8351906105ec82610a0a565b86825260208201948786528688528760205287209151166001600160601b0360a01b825416178155019151166001600160801b03198254161790557fe8d9861dbc9c663ed3accd261bbe2fe01e0d3d9e5f51fa38523b265c7757a93a8280a280f35b8451630995c9d560e01b8152908101869052602490fd5b83823461068357816003193601126106835760209051620151808152f35b5080fd5b50903461027c57602036600319011261027c57356001600160a01b0381169081900361027c5791819281602084516106be81610a0a565b828152015281526001602052208151906106d782610a0a565b5460206001600160801b03821692838152016001600160401b03809260801c168152835192835251166020820152f35b83823461068357816003193601126106835760209051621275008152f35b50823461057857610735366109c7565b61074183929693610af2565b600160a01b6001900380831691828652602094600186528787209488519561076887610a0a565b54956001600160801b0390848c84848b16938481528c6001600160401b03809d60801c1691015261079893610a95565b94858a52898952888b8b20838d51916107b083610a0a565b84815416835260010154169182910152801561094f57804210610931575091888a939260018d86958151916107e483610a0a565b87835287868401968188528d82525287209151166001600160601b0360a01b825416178155019151166001600160801b03198254161790558a51858d8237828187810182815203925af1903d15610901573d9586116108ee57507f5db5415ab96b2653e08beeb84341b7f5d19ded653e7d528a3af4505cd002ae609088519561087688601f19601f8401160188610a3b565b86523d888888013e9896949795985b151596879261089e88519283928d84528d840191610a74565b0390a481519485938452828185015284518093850152815b8381106108d757505060608094508284010152601f80199101168101030190f35b8086018201518782016060015286945081016108b6565b634e487b7160e01b885260419052602487fd5b5093507f5db5415ab96b2653e08beeb84341b7f5d19ded653e7d528a3af4505cd002ae6060609795989694610885565b8b5163035fce5b60e01b815242818701526024810191909152604490fd5b8b51630995c9d560e01b8152808601889052602490fd5b8490843461027c57602036600319011261027c573563ffffffff60e01b811680910361027c5760209250158152f35b9181601f840112156109c2578235916001600160401b0383116109c257602083818601950101116109c257565b600080fd5b9060406003198301126109c2576004356001600160a01b03811681036109c25791602435906001600160401b0382116109c257610a0691600401610995565b9091565b604081019081106001600160401b03821117610a2557604052565b634e487b7160e01b600052604160045260246000fd5b90601f801991011681019081106001600160401b03821117610a2557604052565b908160209103126109c2575180151581036109c25790565b908060209392818452848401376000828201840152601f01601f1916010190565b929190610ade610aec926040519485936001600160801b036020860198468a5230604088015216606086015260018060a01b0316608085015260a08085015260c0840191610a74565b03601f198101835282610a3b565b51902090565b6001600160a01b03163381141580610b4b575b610b395760005260016020526001600160801b036040600020541615610b2757565b604051638fc8bd5960e01b8152600490fd5b6040516374a2152760e01b8152600490fd5b506040516317aa5fb760e11b8152336004820152602081602481855afa908115610b9c57600091610b7e575b5015610b05565b610b96915060203d8111610267576102598183610a3b565b38610b77565b6040513d6000823e3d90fdfea264697066735822122097e0e8252588e64b7d487f3b4f718f0cfc91a92edfe7540593351f2ccfde4d9f64736f6c63430008130033",
    "linkReferences": {}
  },
  "methodIdentifiers": {
    "MAX_DELAY()": "4125ff90",
    "MIN_DELAY()": "9f81aed7",
    "cancel(bytes32)": "c4d252f5",
    "execute(address,bytes)": "1cff79cd",
    "getTxId(uint128,address,bytes)": "cdca1a53",
    "getWalletConfig(address)": "67b33932",
    "queue(address,bytes)": "e3d20e6d",
    "supportsInterface(bytes4)": "01ffc9a7",
    "walletDeInit()": "e335a37a",
    "walletInit(bytes)": "f361cef2"
  },
  "id": 39
}