{
  "abi": [
    {
      "anonymous": false,
      "inputs": [
        {
          "indexed": true,
          "internalType": "address",
          "name": "wallet",
          "type": "address"
        }
      ],
      "name": "ModuleDeInit",
      "type": "event"
    },
    {
      "anonymous": false,
      "inputs": [
        {
          "indexed": true,
          "internalType": "address",
          "name": "wallet",
          "type": "address"
        }
      ],
      "name": "ModuleInit",
      "type": "event"
    },
    {
      "inputs": [
        {
          "components": [
            {
              "internalType": "address",
              "name": "wallet",
              "type": "address"
            },
            {
              "internalType": "address[]",
              "name": "newOwners",
              "type": "address[]"
            },
            {
              "internalType": "uint256",
              "name": "nonce",
              "type": "uint256"
            }
          ],
          "internalType": "struct RecoveryRecord",
          "name": "recoveryRecord",
          "type": "tuple"
        },
        {
          "internalType": "bytes[]",
          "name": "signatures",
          "type": "bytes[]"
        }
      ],
      "name": "batchConfirmRecovery",
      "outputs": [],
      "stateMutability": "nonpayable",
      "type": "function"
    },
    {
      "inputs": [
        {
          "internalType": "uint256",
          "name": "recoveryHash",
          "type": "uint256"
        }
      ],
      "name": "cancelRecovery",
      "outputs": [],
      "stateMutability": "nonpayable",
      "type": "function"
    },
    {
      "inputs": [
        {
          "internalType": "address",
          "name": "wallet",
          "type": "address"
        }
      ],
      "name": "cancelSetGuardians",
      "outputs": [],
      "stateMutability": "nonpayable",
      "type": "function"
    },
    {
      "inputs": [
        {
          "components": [
            {
              "internalType": "address",
              "name": "wallet",
              "type": "address"
            },
            {
              "internalType": "address[]",
              "name": "newOwners",
              "type": "address[]"
            },
            {
              "internalType": "uint256",
              "name": "nonce",
              "type": "uint256"
            }
          ],
          "internalType": "struct RecoveryRecord",
          "name": "recoveryRecord",
          "type": "tuple"
        }
      ],
      "name": "confirmRecovery",
      "outputs": [],
      "stateMutability": "nonpayable",
      "type": "function"
    },
    {
      "inputs": [
        {
          "internalType": "uint256",
          "name": "recoveryHash",
          "type": "uint256"
        }
      ],
      "name": "executeRecovery",
      "outputs": [],
      "stateMutability": "nonpayable",
      "type": "function"
    },
    {
      "inputs": [
        {
          "internalType": "address",
          "name": "wallet",
          "type": "address"
        }
      ],
      "name": "getGuardians",
      "outputs": [
        {
          "internalType": "address[]",
          "name": "",
          "type": "address[]"
        }
      ],
      "stateMutability": "view",
      "type": "function"
    },
    {
      "inputs": [
        {
          "internalType": "address",
          "name": "wallet",
          "type": "address"
        }
      ],
      "name": "guardianInfo",
      "outputs": [
        {
          "components": [
            {
              "internalType": "address[]",
              "name": "guardians",
              "type": "address[]"
            },
            {
              "internalType": "uint256",
              "name": "guardianHash",
              "type": "uint256"
            },
            {
              "internalType": "uint256",
              "name": "salt",
              "type": "uint256"
            }
          ],
          "internalType": "struct GuardianInfo",
          "name": "",
          "type": "tuple"
        }
      ],
      "stateMutability": "view",
      "type": "function"
    },
    {
      "inputs": [
        {
          "internalType": "address",
          "name": "wallet",
          "type": "address"
        }
      ],
      "name": "guardiansCount",
      "outputs": [
        {
          "internalType": "uint256",
          "name": "",
          "type": "uint256"
        }
      ],
      "stateMutability": "view",
      "type": "function"
    },
    {
      "inputs": [
        {
          "internalType": "address",
          "name": "wallet",
          "type": "address"
        },
        {
          "internalType": "address[]",
          "name": "guardians",
          "type": "address[]"
        },
        {
          "internalType": "uint256",
          "name": "salt",
          "type": "uint256"
        }
      ],
      "name": "revealAnomousGuardians",
      "outputs": [],
      "stateMutability": "nonpayable",
      "type": "function"
    },
    {
      "inputs": [
        {
          "internalType": "uint256",
          "name": "guardianHash",
          "type": "uint256"
        }
      ],
      "name": "setAnomousGuardians",
      "outputs": [],
      "stateMutability": "nonpayable",
      "type": "function"
    },
    {
      "inputs": [
        {
          "internalType": "address[]",
          "name": "guardians",
          "type": "address[]"
        }
      ],
      "name": "setGuardians",
      "outputs": [],
      "stateMutability": "nonpayable",
      "type": "function"
    },
    {
      "inputs": [
        {
          "internalType": "bytes4",
          "name": "interfaceId",
          "type": "bytes4"
        }
      ],
      "name": "supportsInterface",
      "outputs": [
        {
          "internalType": "bool",
          "name": "",
          "type": "bool"
        }
      ],
      "stateMutability": "view",
      "type": "function"
    },
    {
      "inputs": [],
      "name": "walletDeInit",
      "outputs": [],
      "stateMutability": "nonpayable",
      "type": "function"
    },
    {
      "inputs": [
        {
          "internalType": "bytes",
          "name": "data",
          "type": "bytes"
        }
      ],
      "name": "walletInit",
      "outputs": [],
      "stateMutability": "nonpayable",
      "type": "function"
    }
  ],
  "bytecode": {
    "object": "0x608060405234801561001057600080fd5b50610c40806100206000396000f3fe608060405234801561001057600080fd5b50600436106100ea5760003560e01c8063987f1be91161008c578063c026e7ee11610066578063c026e7ee146101c5578063e335a37a146101e6578063f18858ab146101ee578063f361cef21461020e57600080fd5b8063987f1be91461018c5780639b70dec31461019f5780639d4e523f146101b257600080fd5b80630dcf739d116100c85780630dcf739d1461015557806310de26761461016857806356570571146101685780637d3863b41461017957600080fd5b806301ffc9a7146100ef578063092d79c2146101205780630dc35b5814610140575b600080fd5b61010b6100fd36600461086c565b6001600160e01b0319161590565b60405190151581526020015b60405180910390f35b61013361012e3660046108b9565b610221565b60405161011791906108d4565b61015361014e3660046109a7565b6103bc565b005b6101536101633660046108b9565b6103cc565b610153610176366004610a10565b50565b610153610187366004610a29565b610417565b61015361019a366004610a83565b610428565b6101536101ad366004610ac0565b610436565b6101536101c0366004610a10565b6104ea565b6101d86101d33660046108b9565b61056f565b604051908152602001610117565b610153610582565b6102016101fc3660046108b9565b61058d565b6040516101179190610b02565b61015361021c366004610b4f565b61059f565b61024560405180606001604052806060815260200160008152602001600081525090565b6001600160a01b0382166000908152600260205260409020541580159061028357506001600160a01b03821660009081526002602052604090205442105b15610326576001600160a01b0382166000908152600260209081526040918290208251600190910180546080938102830184019094526060820184815291939092849291849184018282801561030257602002820191906000526020600020905b81546001600160a01b031681526001909101906020018083116102e4575b50505050508152602001600182015481526020016002820154815250509050919050565b6001600160a01b03821660009081526001602090815260409182902082518154608093810282018401909452606081018481529093919284928491840182828015610302576020028201919060005260206000209081546001600160a01b031681526001909101906020018083116102e45750505050508152602001600182015481526020016002820154815250509050919050565b336103c681610687565b50505050565b336103d681610687565b6001600160a01b03821660009081526002602052604081208181559060018201816104018282610759565b5060006001820181905560029091015550505050565b3361042181610687565b5050505050565b3361043281610687565b5050565b3361044081610687565b33610449610777565b610456426202a300610bc1565b815260408051602080870282810182019093528682529091879187918291850190849080828437600092018290525060208087018051969096526001600160a01b038816825260028152604090912086518155945180518051889796509194506001860193506104ca9284929101906107b2565b506020820151600182015560409091015160029091015550505050505050565b336104f481610687565b336104fd610777565b61050a426202a300610bc1565b81526020808201805182018690526001600160a01b03841660009081526002835260409020835181559051805180518594600185019261055092849291909101906107b2565b5060208201516001820155604090910151600290910155505050505050565b600061057a82610221565b515192915050565b565b60405180910390fd5b606061059882610221565b5192915050565b3360405163399dd46360e01b81523060048201526001600160a01b0382169063399dd463906024016020604051808303816000875af11580156105e6573d6000803e3d6000fd5b505050506040513d601f19601f8201168201806040525081019061060a9190610be8565b61064e5760405162461bcd60e51b81526020600482015260156024820152746e6f7420617574686f72697a6564206d6f64756c6560581b6044820152606401610584565b6040516001600160a01b038216907fcdddfb4e53d2f7d725fae607b33383443789359047546dbdbd01f85d21adf61c90600090a2505050565b6001600160a01b038116600090815260026020526040902054158015906106c557506001600160a01b03811660009081526002602052604090205442105b15610176576001600160a01b03811660009081526002602090815260408083206001928390529220910180549091906107019082908490610817565b5060018281015482820155600292830154918301919091556001600160a01b03831660009081526020929092526040822082815591908201816107448282610759565b50600060018201819055600290910155505050565b50805460008255906000526020600020908101906101769190610857565b6040518060400160405280600081526020016107ad60405180606001604052806060815260200160008152602001600081525090565b905290565b828054828255906000526020600020908101928215610807579160200282015b8281111561080757825182546001600160a01b0319166001600160a01b039091161782556020909201916001909101906107d2565b50610813929150610857565b5090565b8280548282559060005260206000209081019282156108075760005260206000209182015b8281111561080757825482559160010191906001019061083c565b5b808211156108135760008155600101610858565b60006020828403121561087e57600080fd5b81356001600160e01b03198116811461089657600080fd5b9392505050565b80356001600160a01b03811681146108b457600080fd5b919050565b6000602082840312156108cb57600080fd5b6108968261089d565b6020808252825160608383015280516080840181905260009291820190839060a08601905b808310156109225783516001600160a01b031682529284019260019290920191908401906108f9565b50838701516040870152604087015160608701528094505050505092915050565b60006060828403121561095557600080fd5b50919050565b60008083601f84011261096d57600080fd5b50813567ffffffffffffffff81111561098557600080fd5b6020830191508360208260051b85010111156109a057600080fd5b9250929050565b6000806000604084860312156109bc57600080fd5b833567ffffffffffffffff808211156109d457600080fd5b6109e087838801610943565b945060208601359150808211156109f657600080fd5b50610a038682870161095b565b9497909650939450505050565b600060208284031215610a2257600080fd5b5035919050565b60008060008060608587031215610a3f57600080fd5b610a488561089d565b9350602085013567ffffffffffffffff811115610a6457600080fd5b610a708782880161095b565b9598909750949560400135949350505050565b600060208284031215610a9557600080fd5b813567ffffffffffffffff811115610aac57600080fd5b610ab884828501610943565b949350505050565b60008060208385031215610ad357600080fd5b823567ffffffffffffffff811115610aea57600080fd5b610af68582860161095b565b90969095509350505050565b6020808252825182820181905260009190848201906040850190845b81811015610b435783516001600160a01b031683529284019291840191600101610b1e565b50909695505050505050565b60008060208385031215610b6257600080fd5b823567ffffffffffffffff80821115610b7a57600080fd5b818501915085601f830112610b8e57600080fd5b813581811115610b9d57600080fd5b866020828501011115610baf57600080fd5b60209290920196919550909350505050565b80820180821115610be257634e487b7160e01b600052601160045260246000fd5b92915050565b600060208284031215610bfa57600080fd5b8151801515811461089657600080fdfea2646970667358221220cf5be970163e1793c995115a60db2bbba8d24655b3590a1482ba5c966a407fad64736f6c63430008110033",
    "linkReferences": {}
  },
  "methodIdentifiers": {
    "batchConfirmRecovery((address,address[],uint256),bytes[])": "0dc35b58",
    "cancelRecovery(uint256)": "10de2676",
    "cancelSetGuardians(address)": "0dcf739d",
    "confirmRecovery((address,address[],uint256))": "987f1be9",
    "executeRecovery(uint256)": "56570571",
    "getGuardians(address)": "f18858ab",
    "guardianInfo(address)": "092d79c2",
    "guardiansCount(address)": "c026e7ee",
    "revealAnomousGuardians(address,address[],uint256)": "7d3863b4",
    "setAnomousGuardians(uint256)": "9d4e523f",
    "setGuardians(address[])": "9b70dec3",
    "supportsInterface(bytes4)": "01ffc9a7",
    "walletDeInit()": "e335a37a",
    "walletInit(bytes)": "f361cef2"
  },
  "id": 38
}