{
  "abi": [
    {
      "anonymous": false,
      "inputs": [
        {
          "indexed": true,
          "internalType": "address",
          "name": "wallet",
          "type": "address"
        }
      ],
      "name": "ModuleDeInit",
      "type": "event"
    },
    {
      "anonymous": false,
      "inputs": [
        {
          "indexed": true,
          "internalType": "address",
          "name": "wallet",
          "type": "address"
        }
      ],
      "name": "ModuleInit",
      "type": "event"
    },
    {
      "inputs": [
        {
          "components": [
            {
              "internalType": "address",
              "name": "wallet",
              "type": "address"
            },
            {
              "internalType": "address[]",
              "name": "newOwners",
              "type": "address[]"
            },
            {
              "internalType": "uint256",
              "name": "nonce",
              "type": "uint256"
            }
          ],
          "internalType": "struct RecoveryRecord",
          "name": "recoveryRecord",
          "type": "tuple"
        },
        {
          "internalType": "bytes[]",
          "name": "signatures",
          "type": "bytes[]"
        }
      ],
      "name": "batchConfirmRecovery",
      "outputs": [],
      "stateMutability": "nonpayable",
      "type": "function"
    },
    {
      "inputs": [
        {
          "internalType": "uint256",
          "name": "recoveryHash",
          "type": "uint256"
        }
      ],
      "name": "cancelRecovery",
      "outputs": [],
      "stateMutability": "nonpayable",
      "type": "function"
    },
    {
      "inputs": [
        {
          "internalType": "address",
          "name": "wallet",
          "type": "address"
        }
      ],
      "name": "cancelSetGuardians",
      "outputs": [],
      "stateMutability": "nonpayable",
      "type": "function"
    },
    {
      "inputs": [
        {
          "components": [
            {
              "internalType": "address",
              "name": "wallet",
              "type": "address"
            },
            {
              "internalType": "address[]",
              "name": "newOwners",
              "type": "address[]"
            },
            {
              "internalType": "uint256",
              "name": "nonce",
              "type": "uint256"
            }
          ],
          "internalType": "struct RecoveryRecord",
          "name": "recoveryRecord",
          "type": "tuple"
        }
      ],
      "name": "confirmRecovery",
      "outputs": [],
      "stateMutability": "nonpayable",
      "type": "function"
    },
    {
      "inputs": [
        {
          "internalType": "uint256",
          "name": "recoveryHash",
          "type": "uint256"
        }
      ],
      "name": "executeRecovery",
      "outputs": [],
      "stateMutability": "nonpayable",
      "type": "function"
    },
    {
      "inputs": [
        {
          "internalType": "address",
          "name": "wallet",
          "type": "address"
        }
      ],
      "name": "getGuardians",
      "outputs": [
        {
          "internalType": "address[]",
          "name": "",
          "type": "address[]"
        }
      ],
      "stateMutability": "view",
      "type": "function"
    },
    {
      "inputs": [
        {
          "internalType": "address",
          "name": "wallet",
          "type": "address"
        }
      ],
      "name": "guardianInfo",
      "outputs": [
        {
          "components": [
            {
              "internalType": "address[]",
              "name": "guardians",
              "type": "address[]"
            },
            {
              "internalType": "uint256",
              "name": "guardianHash",
              "type": "uint256"
            },
            {
              "internalType": "uint256",
              "name": "salt",
              "type": "uint256"
            }
          ],
          "internalType": "struct GuardianInfo",
          "name": "",
          "type": "tuple"
        }
      ],
      "stateMutability": "view",
      "type": "function"
    },
    {
      "inputs": [
        {
          "internalType": "address",
          "name": "wallet",
          "type": "address"
        }
      ],
      "name": "guardiansCount",
      "outputs": [
        {
          "internalType": "uint256",
          "name": "",
          "type": "uint256"
        }
      ],
      "stateMutability": "view",
      "type": "function"
    },
    {
      "inputs": [
        {
          "internalType": "address",
          "name": "wallet",
          "type": "address"
        },
        {
          "internalType": "address[]",
          "name": "guardians",
          "type": "address[]"
        },
        {
          "internalType": "uint256",
          "name": "salt",
          "type": "uint256"
        }
      ],
      "name": "revealAnomousGuardians",
      "outputs": [],
      "stateMutability": "nonpayable",
      "type": "function"
    },
    {
      "inputs": [
        {
          "internalType": "uint256",
          "name": "guardianHash",
          "type": "uint256"
        }
      ],
      "name": "setAnomousGuardians",
      "outputs": [],
      "stateMutability": "nonpayable",
      "type": "function"
    },
    {
      "inputs": [
        {
          "internalType": "address[]",
          "name": "guardians",
          "type": "address[]"
        }
      ],
      "name": "setGuardians",
      "outputs": [],
      "stateMutability": "nonpayable",
      "type": "function"
    },
    {
      "inputs": [
        {
          "internalType": "bytes4",
          "name": "interfaceId",
          "type": "bytes4"
        }
      ],
      "name": "supportsInterface",
      "outputs": [
        {
          "internalType": "bool",
          "name": "",
          "type": "bool"
        }
      ],
      "stateMutability": "view",
      "type": "function"
    },
    {
      "inputs": [],
      "name": "walletDeInit",
      "outputs": [],
      "stateMutability": "nonpayable",
      "type": "function"
    },
    {
      "inputs": [
        {
          "internalType": "bytes",
          "name": "data",
          "type": "bytes"
        }
      ],
      "name": "walletInit",
      "outputs": [],
      "stateMutability": "nonpayable",
      "type": "function"
    }
  ],
  "bytecode": {
    "object": "0x6080806040523461001657610a74908161001c8239f35b600080fdfe608060408181526004908136101561001657600080fd5b600092833560e01c90816301ffc9a71461065957508063092d79c2146105db5780630dc35b58146105945780630dcf739d1461055557806310de26761461055057806356570571146105505780637d3863b41461050a578063987f1be9146104cd5780639b70dec3146103785780639d4e523f14610298578063c026e7ee1461026e578063e335a37a14610257578063f18858ab146101e45763f361cef2146100be57600080fd5b346101e057602090816003193601126101d857823567ffffffffffffffff8082116101dc57366023830112156101dc57818501359081116101dc57369101602401116101d857805163399dd46360e01b81523084820152828160248188335af19081156101ce578591610194575b501561015b5783337fcdddfb4e53d2f7d725fae607b33383443789359047546dbdbd01f85d21adf61c8280a280f35b5162461bcd60e51b81529182015260156024820152746e6f7420617574686f72697a6564206d6f64756c6560581b604482015260649150fd5b90508281813d83116101c7575b6101ab8183610719565b810103126101c3575180151581036101c3573861012c565b8480fd5b503d6101a1565b82513d87823e3d90fd5b8380fd5b8580fd5b8280fd5b83823461025357602090816003193601126101e0579161020a610205610688565b61075b565b519083519383808695860192818752855180945286019401925b82811061023357505050500390f35b83516001600160a01b031685528695509381019392810192600101610224565b5080fd5b833461026b578060031936011261026b5780f35b80fd5b8382346102535760203660031901126102535760209061028f610205610688565b51519051908152f35b5082903461025357602090816003193601126101e0576102b7336109b1565b6102bf610885565b916202a300420180421161036557835280830190853581835101523385526002815282852093518455600195868501925192835180519267ffffffffffffffff84116103525750839061031284846108b7565b01908752828720875b838110610338578486015160028901558587015160038901558880f35b82516001600160a01b03168282015591840191890161031b565b634e487b7160e01b895260419052602488fd5b634e487b7160e01b855260118652602485fd5b5082903461025357602090816003193601126101e05767ffffffffffffffff9380358581116101c3576103ae90369083016106a3565b9390956103ba336109b1565b6103c2610885565b946202a30042018042116104ba578652828601978851908383116104a7578260051b8751936103f387830186610719565b8452858401908201913683116104a357905b8282106104805750505052338652600282528386209451855560019687860190519384519081519384116103525750839061044084846108b7565b01908752828720875b838110610466578486015160028901558587015160038901558880f35b82516001600160a01b031682820155918401918901610449565b81356001600160a01b038116810361049f578152908601908601610405565b8b80fd5b8a80fd5b634e487b7160e01b895260418652602489fd5b634e487b7160e01b885260118552602488fd5b50503461025357600319906020368301126101e057359067ffffffffffffffff82116101e0576060913603011261026b57610507336109b1565b80f35b50503461025357606036600319011261025357610525610688565b506024359067ffffffffffffffff82116101e057610545913691016106a3565b5050610507336109b1565b6106d4565b8382346102535760203660031901126102535761050790610574610688565b61057d336109b1565b6001600160a01b031683526002602052822061096d565b5090346101e05760031991368301126101e057803567ffffffffffffffff928382116101c357606091360301126101e0576024359182116101e057610545913691016106a3565b838234610253576020918260031936011261026b576105fb610205610688565b91805192848452608084019281519360608787015284518091528660a087019501915b81811061063c57505050839481015182850152015160608301520390f35b82516001600160a01b03168652948701949187019160010161061e565b849084346101e05760203660031901126101e0573563ffffffff60e01b81168091036101e05760209250158152f35b600435906001600160a01b038216820361069e57565b600080fd5b9181601f8401121561069e5782359167ffffffffffffffff831161069e576020808501948460051b01011161069e57565b3461069e57602036600319011261069e57005b6060810190811067ffffffffffffffff82111761070357604052565b634e487b7160e01b600052604160045260246000fd5b90601f8019910116810190811067ffffffffffffffff82111761070357604052565b60405190610748826106e7565b6000604083606081528260208201520152565b61076361073b565b506001600160a01b0390811660008181526002602090815260408083208054919491801515908161087b575b50610807575082949252600190818152838520918451956107af876106e7565b8551908184865491828152019686835285832092905b8282106107f057505050506107de816002960382610719565b86528201549085015201549082015290565b8354811689529786019792850192908501906107c5565b929490506001948584019085519661081e886106e7565b86518094868554928381520194845286842093905b828210610864575050505050906108508160039594930382610719565b855260028201549085015201549082015290565b845481168652948701949383019390830190610833565b905042103861078f565b604051906040820182811067ffffffffffffffff82111761070357604052816000815260206108b261073b565b910152565b680100000000000000008211610703578054918082558281106108d957505050565b60009182526020822092830192015b8281106108f457505050565b8181556001016108e8565b8181146109695781549167ffffffffffffffff83116107035761092283836108b7565b60005260206000209060005260206000208154916000925b848410610948575050505050565b600191820180546001600160a01b039092168486015593909101929061093a565b5050565b600090818155600180820180549084815581610994575b5050508082600260039301550155565b845260208420908101905b8181101561098457848155820161099f565b6001600160a01b0316600081815260026020526040902080548015159081610a34575b506109dd575050565b60018101906001602052604060002091808303610a0f575b5050506000526002602052610a0d604060002061096d565b565b600291610a1e600392856108ff565b82810154600185015501549101553880806109f5565b90504210386109d456fea264697066735822122085bc5c1a088d3a855f38124359b2ece838cade07ce81d7a00b604a12bb793dba64736f6c63430008130033",
    "linkReferences": {}
  },
  "methodIdentifiers": {
    "batchConfirmRecovery((address,address[],uint256),bytes[])": "0dc35b58",
    "cancelRecovery(uint256)": "10de2676",
    "cancelSetGuardians(address)": "0dcf739d",
    "confirmRecovery((address,address[],uint256))": "987f1be9",
    "executeRecovery(uint256)": "56570571",
    "getGuardians(address)": "f18858ab",
    "guardianInfo(address)": "092d79c2",
    "guardiansCount(address)": "c026e7ee",
    "revealAnomousGuardians(address,address[],uint256)": "7d3863b4",
    "setAnomousGuardians(uint256)": "9d4e523f",
    "setGuardians(address[])": "9b70dec3",
    "supportsInterface(bytes4)": "01ffc9a7",
    "walletDeInit()": "e335a37a",
    "walletInit(bytes)": "f361cef2"
  },
  "id": 43
}