{
  "abi": [
    {
      "inputs": [
        {
          "internalType": "bytes",
          "name": "_initCode",
          "type": "bytes"
        },
        {
          "internalType": "bytes32",
          "name": "_salt",
          "type": "bytes32"
        }
      ],
      "name": "deploy",
      "outputs": [
        {
          "internalType": "address payable",
          "name": "createdContract",
          "type": "address"
        }
      ],
      "stateMutability": "nonpayable",
      "type": "function"
    }
  ],
  "bytecode": {
    "object": "0x6080806040523461001657610120908161001c8239f35b600080fdfe60806040526004361015601157600080fd5b6000803560e01c634af63f0214602657600080fd5b3460d157604036600319011260d1576004359067ffffffffffffffff9081831160d1573660238401121560d15782600401359282841160cd5760405192601f8501601f19908116603f011684019081118482101760cd576040528383526020830190366024868301011160c95760208560c5966024869401853785010152602435925191f56040516001600160a01b0390911681529081906020820190565b0390f35b8280fd5b60d4565b80fd5b634e487b7160e01b600052604160045260246000fdfea2646970667358221220b8d57ca9e1d4c0d3c7cea57048f6c5308340eee9494770483667ecb6938ba46e64736f6c63430008130033",
    "linkReferences": {}
  },
  "methodIdentifiers": {
    "deploy(bytes,bytes32)": "4af63f02"
  },
  "id": 14
}