{
  "abi": [
    {
      "inputs": [
        {
          "internalType": "address",
          "name": "sender",
          "type": "address"
        },
        {
          "internalType": "uint192",
          "name": "key",
          "type": "uint192"
        }
      ],
      "name": "getNonce",
      "outputs": [
        {
          "internalType": "uint256",
          "name": "nonce",
          "type": "uint256"
        }
      ],
      "stateMutability": "view",
      "type": "function"
    },
    {
      "inputs": [
        {
          "internalType": "uint192",
          "name": "key",
          "type": "uint192"
        }
      ],
      "name": "incrementNonce",
      "outputs": [],
      "stateMutability": "nonpayable",
      "type": "function"
    },
    {
      "inputs": [
        {
          "internalType": "address",
          "name": "",
          "type": "address"
        },
        {
          "internalType": "uint192",
          "name": "",
          "type": "uint192"
        }
      ],
      "name": "nonceSequenceNumber",
      "outputs": [
        {
          "internalType": "uint256",
          "name": "",
          "type": "uint256"
        }
      ],
      "stateMutability": "view",
      "type": "function"
    }
  ],
  "bytecode": {
    "object": "0x60808060405234610016576101a3908161001c8239f35b600080fdfe604060808152600436101561001357600080fd5b600090813560e01c80630bd28e3b146100cf5780631b2e01b814610091576335567e1a1461004057600080fd5b3461008d57908160209261005336610132565b6001600160a01b0390911684528385528184206001600160c01b0382168552855292205481519290911b67ffffffffffffffff1916178152f35b5080fd5b503461008d57806020926100a436610132565b6001600160a01b0390911682528185528282206001600160c01b039091168252845220549051908152f35b503461008d57602036600319011261008d576004356001600160c01b0381169081900361012e5733835260208381528284209184525281208054600019811461011a57600101905580f35b634e487b7160e01b83526011600452602483fd5b8280fd5b6040906003190112610168576004356001600160a01b038116810361016857906024356001600160c01b03811681036101685790565b600080fdfea26469706673582212206745aeba3536f4d3bc64ae027fdbf0978251fff8d48bfa5c7b2a19f55aee8c3764736f6c63430008130033",
    "linkReferences": {}
  },
  "methodIdentifiers": {
    "getNonce(address,uint192)": "35567e1a",
    "incrementNonce(uint192)": "0bd28e3b",
    "nonceSequenceNumber(address,uint192)": "1b2e01b8"
  },
  "id": 58
}