{
  "abi": [
    {
      "inputs": [],
      "stateMutability": "nonpayable",
      "type": "constructor"
    },
    {
      "anonymous": false,
      "inputs": [
        {
          "indexed": false,
          "internalType": "address[]",
          "name": "token",
          "type": "address[]"
        },
        {
          "indexed": false,
          "internalType": "uint256[]",
          "name": "limit",
          "type": "uint256[]"
        }
      ],
      "name": "CancelSetDailyLimit",
      "type": "event"
    },
    {
      "anonymous": false,
      "inputs": [
        {
          "indexed": false,
          "internalType": "address[]",
          "name": "token",
          "type": "address[]"
        },
        {
          "indexed": false,
          "internalType": "uint256[]",
          "name": "limit",
          "type": "uint256[]"
        }
      ],
      "name": "DailyLimitChanged",
      "type": "event"
    },
    {
      "anonymous": false,
      "inputs": [
        {
          "indexed": true,
          "internalType": "address",
          "name": "wallet",
          "type": "address"
        }
      ],
      "name": "PluginDeInit",
      "type": "event"
    },
    {
      "anonymous": false,
      "inputs": [
        {
          "indexed": true,
          "internalType": "address",
          "name": "wallet",
          "type": "address"
        }
      ],
      "name": "PluginInit",
      "type": "event"
    },
    {
      "anonymous": false,
      "inputs": [
        {
          "indexed": false,
          "internalType": "address[]",
          "name": "token",
          "type": "address[]"
        },
        {
          "indexed": false,
          "internalType": "uint256[]",
          "name": "limit",
          "type": "uint256[]"
        }
      ],
      "name": "PreSetDailyLimit",
      "type": "event"
    },
    {
      "inputs": [
        {
          "internalType": "address[]",
          "name": "token",
          "type": "address[]"
        },
        {
          "internalType": "uint256[]",
          "name": "limit",
          "type": "uint256[]"
        }
      ],
      "name": "cancelSetDailyLimit",
      "outputs": [],
      "stateMutability": "nonpayable",
      "type": "function"
    },
    {
      "inputs": [
        {
          "internalType": "address[]",
          "name": "token",
          "type": "address[]"
        },
        {
          "internalType": "uint256[]",
          "name": "limit",
          "type": "uint256[]"
        }
      ],
      "name": "comfirmSetDailyLimit",
      "outputs": [],
      "stateMutability": "nonpayable",
      "type": "function"
    },
    {
      "inputs": [
        {
          "internalType": "address",
          "name": "token",
          "type": "address"
        }
      ],
      "name": "getDailyLimit",
      "outputs": [
        {
          "internalType": "uint256",
          "name": "",
          "type": "uint256"
        }
      ],
      "stateMutability": "view",
      "type": "function"
    },
    {
      "inputs": [
        {
          "internalType": "enum IPlugin.HookType",
          "name": "hookType",
          "type": "uint8"
        }
      ],
      "name": "getHookCallType",
      "outputs": [
        {
          "internalType": "enum CallHelper.CallType",
          "name": "calltype",
          "type": "uint8"
        }
      ],
      "stateMutability": "view",
      "type": "function"
    },
    {
      "inputs": [],
      "name": "getSafeLockPeriod",
      "outputs": [
        {
          "internalType": "uint64",
          "name": "",
          "type": "uint64"
        }
      ],
      "stateMutability": "view",
      "type": "function"
    },
    {
      "inputs": [
        {
          "internalType": "bytes32",
          "name": "_safeLockHash",
          "type": "bytes32"
        }
      ],
      "name": "getSafeLockStatus",
      "outputs": [
        {
          "internalType": "uint64",
          "name": "unLockTime",
          "type": "uint64"
        }
      ],
      "stateMutability": "view",
      "type": "function"
    },
    {
      "inputs": [
        {
          "internalType": "address",
          "name": "token",
          "type": "address"
        }
      ],
      "name": "getSpentToday",
      "outputs": [
        {
          "internalType": "uint256",
          "name": "",
          "type": "uint256"
        }
      ],
      "stateMutability": "view",
      "type": "function"
    },
    {
      "inputs": [
        {
          "components": [
            {
              "internalType": "address",
              "name": "sender",
              "type": "address"
            },
            {
              "internalType": "uint256",
              "name": "nonce",
              "type": "uint256"
            },
            {
              "internalType": "bytes",
              "name": "initCode",
              "type": "bytes"
            },
            {
              "internalType": "bytes",
              "name": "callData",
              "type": "bytes"
            },
            {
              "internalType": "uint256",
              "name": "callGasLimit",
              "type": "uint256"
            },
            {
              "internalType": "uint256",
              "name": "verificationGasLimit",
              "type": "uint256"
            },
            {
              "internalType": "uint256",
              "name": "preVerificationGas",
              "type": "uint256"
            },
            {
              "internalType": "uint256",
              "name": "maxFeePerGas",
              "type": "uint256"
            },
            {
              "internalType": "uint256",
              "name": "maxPriorityFeePerGas",
              "type": "uint256"
            },
            {
              "internalType": "bytes",
              "name": "paymasterAndData",
              "type": "bytes"
            },
            {
              "internalType": "bytes",
              "name": "signature",
              "type": "bytes"
            }
          ],
          "internalType": "struct UserOperation",
          "name": "userOp",
          "type": "tuple"
        },
        {
          "internalType": "bytes32",
          "name": "userOpHash",
          "type": "bytes32"
        }
      ],
      "name": "guardHook",
      "outputs": [],
      "stateMutability": "nonpayable",
      "type": "function"
    },
    {
      "inputs": [
        {
          "internalType": "enum IPlugin.HookType",
          "name": "hookType",
          "type": "uint8"
        }
      ],
      "name": "isHookCall",
      "outputs": [
        {
          "internalType": "bool",
          "name": "",
          "type": "bool"
        }
      ],
      "stateMutability": "view",
      "type": "function"
    },
    {
      "inputs": [
        {
          "internalType": "address",
          "name": "target",
          "type": "address"
        },
        {
          "internalType": "uint256",
          "name": "value",
          "type": "uint256"
        },
        {
          "internalType": "bytes",
          "name": "data",
          "type": "bytes"
        }
      ],
      "name": "postHook",
      "outputs": [],
      "stateMutability": "nonpayable",
      "type": "function"
    },
    {
      "inputs": [
        {
          "internalType": "address",
          "name": "target",
          "type": "address"
        },
        {
          "internalType": "uint256",
          "name": "value",
          "type": "uint256"
        },
        {
          "internalType": "bytes",
          "name": "data",
          "type": "bytes"
        }
      ],
      "name": "preHook",
      "outputs": [],
      "stateMutability": "nonpayable",
      "type": "function"
    },
    {
      "inputs": [
        {
          "internalType": "address[]",
          "name": "token",
          "type": "address[]"
        },
        {
          "internalType": "uint256[]",
          "name": "limit",
          "type": "uint256[]"
        }
      ],
      "name": "preSetDailyLimit",
      "outputs": [],
      "stateMutability": "nonpayable",
      "type": "function"
    },
    {
      "inputs": [
        {
          "internalType": "address[]",
          "name": "token",
          "type": "address[]"
        },
        {
          "internalType": "uint256[]",
          "name": "limit",
          "type": "uint256[]"
        }
      ],
      "name": "reduceDailyLimits",
      "outputs": [],
      "stateMutability": "nonpayable",
      "type": "function"
    },
    {
      "inputs": [
        {
          "internalType": "bytes4",
          "name": "interfaceId",
          "type": "bytes4"
        }
      ],
      "name": "supportsInterface",
      "outputs": [
        {
          "internalType": "bool",
          "name": "",
          "type": "bool"
        }
      ],
      "stateMutability": "view",
      "type": "function"
    },
    {
      "inputs": [],
      "name": "walletDeInit",
      "outputs": [],
      "stateMutability": "nonpayable",
      "type": "function"
    },
    {
      "inputs": [
        {
          "internalType": "bytes",
          "name": "data",
          "type": "bytes"
        }
      ],
      "name": "walletInit",
      "outputs": [],
      "stateMutability": "nonpayable",
      "type": "function"
    }
  ],
  "bytecode": {
    "object": "0x60e0346101a0576001600160401b0390604081018281118282101761017357604052601f815260207f504c5547494e5f4441494c594c494d49545f534146454c4f434b5f534c4f5400818301527f2821893fd1bf7f1c198c0a8fba5c24618af25d872b866b4b63501a5c292957c16080523060a05260405182819351908360005b83811061018957505050810160008382015203808352603f601f1991011682019282841090841117610173576040839052815191012060c081905280546001600160401b0319166202a3001790556122b290816101a68239608051818181610297015281816103dc0152818161065c015281816107c70152818161092101528181610b1b01528181610c6e01528181610f720152818161151c015281816119ff01528181611a4f0152611ae0015260a05181818161095701528181610b5101528181610f4101526114f2015260c05181818161042c0152818161048501528181610aa7015281816120bf01526121950152f35b634e487b7160e01b600052604160045260246000fd5b828101820151878201830152869450859101610080565b600080fdfe6080604052600436101561001257600080fd5b60003560e01c806301ffc9a714610117578063310ed9311461011257806349ff658e1461010d5780635709cd581461010857806358f2ef17146101035780638a7f1b55146100fe578063914643ac146100f9578063aa32a3f0146100f4578063ba38419a146100ef578063bccbbf94146100ea578063ca5ce119146100e5578063e335a37a146100e0578063e5810adb146100db578063f361cef2146100d6578063fda03237146100d15763ffaf02fc146100cc57600080fd5b610dcd565b610c2a565b610ae9565b610a40565b61090d565b6107ad565b610586565b61056c565b610516565b610468565b610411565b6103a7565b61027a565b6101c6565b610187565b346101515760203660031901126101515760043563ffffffff60e01b811680910361015157604051632bc9b2eb60e11b9091148152602090f35b600080fd5b60209060031901126101515760043560038110156101515790565b634e487b7160e01b600052602160045260246000fd5b346101515761019d61019836610156565b610edd565b60405160048210156101b0576020918152f35b610171565b6001600160a01b0381160361015157565b346101515760203660031901126101515760206001600160801b036101f76004356101f0816101b5565b429061208b565b16604051908152f35b9181601f84011215610151578235916001600160401b038311610151576020808501948460051b01011161015157565b6040600319820112610151576001600160401b0391600435838111610151578261025c91600401610200565b939093926024359182116101515761027691600401610200565b9091565b346101515761028836610230565b929061029584841461120f565b7f000000000000000000000000000000000000000000000000000000000000000060030160005b8481106102fc5750507f75bb2afda41bd6ae78da0773e0f5d6c9210fbf8dfb4e24a52cdf36cedc9734bd936102f79160405194859485611f2f565b0390a1005b610307818785611ec9565b359081156103625761035d9161034b61033161032c610327858b8b611ec9565b611ed9565b611fa4565b6001600160a01b0316600090815260208690526040902090565b61035782825411611ee3565b55611271565b6102bc565b60405162461bcd60e51b815260206004820152601a60248201527f4461696c796c696d69743a20696e76616c696420616d6f756e740000000000006044820152606490fd5b346101515760203660031901126101515760206104086103cc60043561032c816101b5565b6001600160a01b031660009081527f00000000000000000000000000000000000000000000000000000000000000006003016020526040902090565b54604051908152f35b346101515760203660031901126101515760043560005260017f00000000000000000000000000000000000000000000000000000000000000000160205260206001600160401b0360406000205416604051908152f35b346101515760003660031901126101515760206001600160401b037f00000000000000000000000000000000000000000000000000000000000000005416604051908152f35b9181601f84011215610151578235916001600160401b038311610151576020838186019501011161015157565b6060600319820112610151576004356104f3816101b5565b9160243591604435906001600160401b03821161015157610276916004016104ae565b3461015157610524366104db565b50505050606460405162461bcd60e51b815260206004820152601f60248201527f4461696c796c696d69743a20707265486f6f6b206e6f7420737570706f7274006044820152fd5b346101515761057a36610156565b50602060405160018152f35b346101515760031960403682011261015157600435906001600160401b0382116101515761016082600401918336030112610151576105db6105d66105cf6101448501846115c4565b36916115f6565b61175e565b518015610758576106506106456105f4610659936121ff565b61063961a8c065ffffffffffff6106326020610619604087015165ffffffffffff1690565b95019461062c865165ffffffffffff1690565b9061163c565b1610611654565b5165ffffffffffff1690565b65ffffffffffff1690565b62015180900490565b917f00000000000000000000000000000000000000000000000000000000000000008381556106a88460018301610690815461169f565b8091556106a060648601876115c4565b92909161199c565b6002600081815290830160205260409020549091906001600160a01b03166106cc57005b6002936106e061012461071f9501826115c4565b905015610737575b50600361070091016002600052602052604060002090565b93600090600186018181541460001461073157505050828401546116ad565b9161072d81548411156116ba565b0155005b556116ad565b610750610700929361074a600393611e8f565b906116ad565b9291506106e8565b60405162461bcd60e51b815260206004820152602760248201527f4461696c796c696d69743a207369676e61747572652074696d6572616e6765206044820152661a5b9d985b1a5960ca1b6064820152608490fd5b34610151576107bb366104db565b620151809391934204937f000000000000000000000000000000000000000000000000000000000000000093801515806108ea575b610899575b506108038360028601611712565b61080957005b8261082e6105cf848061082861082261083498886117d4565b906117ff565b956117e2565b91611dd8565b80915061083d57005b610861610880926003600295019060018060a01b0316600052602052604060002090565b93600090600186018181541460001461088e57505050828401546116ad565b9161072d8154841115611b86565b5580848601556116ad565b60026108d46108b5600388016002600052602052604060002090565b92600089600186018181541460001461073157505050828401546116ad565b916108e281548411156116ba565b0155386107f5565b506002600081815290860160205260409020546001600160a01b031615156107f0565b3461015157600080600319360112610a3d577f0000000000000000000000000000000000000000000000000000000000000000546109485780f35b604051631235ec7560e21b81527f00000000000000000000000000000000000000000000000000000000000000006001600160a01b0316600482015260208160248185335af1908115610a38578291610a0a575b506109d1576109a96114e4565b337fb018677f022b0c5bc27076ff638a4f85937b72fa295b96228511b191ac68fc058280a280f35b60405162461bcd60e51b815260206004820152601160248201527030baba3437b934bd32b21038363ab3b4b760791b6044820152606490fd5b610a2b915060203d8111610a31575b610a238183610e93565b810190610eb9565b3861099c565b503d610a19565b610ed1565b80fd5b34610151577f5861200cd6d281c28484d230b2b37eb5d63817354dcd9b16a462971421318aa36102f7610a7236610230565b906040949294516020810190610a9d81610a8f86868b8b88611f2f565b03601f198101835282610e93565b51902060005260017f00000000000000000000000000000000000000000000000000000000000000000160205260406000206001600160401b0319815416905560405194859485611f2f565b34610151576020366003190112610151576004356001600160401b03811161015157610b199036906004016104ae565b7f00000000000000000000000000000000000000000000000000000000000000005415610b4257005b604051631235ec7560e21b81527f00000000000000000000000000000000000000000000000000000000000000006001600160a01b031660048201526020816024816000335af1908115610a3857600091610c0c575b5015610bcf57610ba791610f38565b337f23d8d4885a34928c88f35c93e72488e155fbb7644d2812d92b0216e238da32f2600080a2005b60405162461bcd60e51b81526020600482015260156024820152743737ba1030baba3437b934bd32b21038363ab3b4b760591b6044820152606490fd5b610c24915060203d8111610a3157610a238183610e93565b38610b98565b3461015157610c3836610230565b929060408051610c6160209182810190610c5981610a8f8b898c8c88611f2f565b519020612139565b610c6c86861461120f565b7f000000000000000000000000000000000000000000000000000000000000000060009060028101915b878110610ccf5784517f75bb2afda41bd6ae78da0773e0f5d6c9210fbf8dfb4e24a52cdf36cedc9734bd90806102f78c8a8d8d85611f2f565b80610cde610d14928b89611ec9565b35610cf061032c610327848d8d611ec9565b610cfa8187611712565b15610d385781610d1957610d0f915085611fb8565b611271565b610c96565b6001600160a01b03166000908152600385016020526040902055611271565b9080610d46575b5050611271565b610d9782610d57610dc694896113b9565b610d5f6110af565b92835260008984015260008a8401526000606084015260006080840152600387019060018060a01b0316600052602052604060002090565b906080600491805184556020810151600185015560408101516002850155606081015160038501550151910155565b3880610d3f565b3461015157610ddb36610230565b9290610e016040516020810190610df981610a8f89878a8a88611f2f565b5190206120bd565b15610e38577f31dc429d4fbe2d83f018f4f3160db5324d6935488bd6cf176edf6822f8ce0cfb936102f79160405194859485611f2f565b60405162461bcd60e51b815260206004820152601860248201527f536166654c6f636b3a20616c7265616479206c6f636b656400000000000000006044820152606490fd5b634e487b7160e01b600052604160045260246000fd5b90601f801991011681019081106001600160401b03821117610eb457604052565b610e7d565b90816020910312610151575180151581036101515790565b6040513d6000823e3d90fd5b60038110156101b057600114610ef257600290565b600090565b15610efe57565b60405162461bcd60e51b81526020600482015260126024820152711bdb9b1e4819195b1959d85d194818d85b1b60721b6044820152606490fd5b909190610f70307f00000000000000000000000000000000000000000000000000000000000000006001600160a01b03161415610ef7565b7f000000000000000000000000000000000000000000000000000000000000000092835415610fa0575b50509050565b90610fb59162015180420485558101906111ca565b90610fc3815183511461120f565b60028401936003019160005b825181101561106e5780610d0f610fe9611069938561129b565b51610ff58115156112b4565b611018611012611005858961129b565b516001600160a01b031690565b8a6113b9565b6110206110af565b90815260006020820152600060408201526000606082015260006080820152610d9761104f611005858961129b565b6001600160a01b0316600090815260208990526040902090565b610fcf565b5091507f75bb2afda41bd6ae78da0773e0f5d6c9210fbf8dfb4e24a52cdf36cedc9734bd9293506110a460405192839283611300565b0390a1803880610f9a565b6040519060a082018281106001600160401b03821117610eb457604052565b60405190604082018281106001600160401b03821117610eb457604052565b6001600160401b038111610eb45760051b60200190565b81601f820112156101515780359161111b836110ed565b926111296040519485610e93565b808452602092838086019260051b820101928311610151578301905b828210611153575050505090565b8380918335611161816101b5565b815201910190611145565b81601f8201121561015157803591611183836110ed565b926111916040519485610e93565b808452602092838086019260051b820101928311610151578301905b8282106111bb575050505090565b813581529083019083016111ad565b919091604081840312610151576001600160401b0392813584811161015157816111f5918401611104565b9360208301359081116101515761120c920161116c565b90565b1561121657565b60405162461bcd60e51b815260206004820152601860248201527f4461696c796c696d69743a20696e76616c6964206461746100000000000000006044820152606490fd5b634e487b7160e01b600052601160045260246000fd5b60001981146112805760010190565b61125b565b634e487b7160e01b600052603260045260246000fd5b80518210156112af5760209160051b010190565b611285565b156112bb57565b60405162461bcd60e51b815260206004820152601960248201527f4461696c796c696d69743a20696e76616c6964206c696d6974000000000000006044820152606490fd5b6040810190604081528251809252606081019160208094019060005b81811061135e575050508281830391015281808451928381520193019160005b82811061134a575050505090565b83518552938101939281019260010161133c565b82516001600160a01b03168552938501939185019160010161131c565b1561138257565b60405162461bcd60e51b815260206004820152600f60248201526e696e76616c6964206164647265737360881b6044820152606490fd5b6001600160a01b036113cf60018483161161137b565b6001600160a01b03831660009081526020839052604090205481166114a657611412611405836001600052602052604060002090565b546001600160a01b031690565b908116611485575081816114596114839461143a611470956001600052602052604060002090565b80546001600160a01b0319166001600160a01b03909216919091179055565b9060018060a01b0316600052602052604060002090565b80546001600160a01b0319166001179055565b565b9082816114596114839561143a61143a956001600052602052604060002090565b60405162461bcd60e51b81526020600482015260166024820152756164647265737320616c72656164792065786973747360501b6044820152606490fd5b6001600160a01b0361151a307f000000000000000000000000000000000000000000000000000000000000000083161415610ef7565b7f00000000000000000000000000000000000000000000000000000000000000008054611545575050565b80600060029255019080611563836001600052602052604060002090565b54165b600182821611611596575050611586906001600052602052604060002090565b80546001600160a01b0319169055565b6001600160a01b0316600090815260208390526040902080546001600160a01b031916815581905416611566565b903590601e198136030182121561015157018035906001600160401b0382116101515760200191813603831361015157565b9291926001600160401b038211610eb4576040519161161f601f8201601f191660200184610e93565b829481845281830111610151578281602093846000960137010152565b65ffffffffffff918216908216039190821161128057565b1561165b57565b606460405162461bcd60e51b815260206004820152602060248201527f4461696c796c696d69743a20657863656564206d61782074696d6572616e67656044820152fd5b906001820180921161128057565b9190820180921161128057565b156116c157565b60405162461bcd60e51b815260206004820152602360248201527f4461696c796c696d69743a20455448206461696c79206c696d697420726561636044820152621a195960ea1b6064820152608490fd5b6001600160a01b039161172d9161145960018584161161137b565b5416151590565b60405190604082018281106001600160401b03821117610eb4576040526060602083600081520152565b611766611734565b508051604103611785576117786110ce565b9060008252602082015290565b600181015160ff16919082156117a2578260011461015157600080fd5b909150606160218201519160416060526041810151608052015160a0526117c76110ce565b9081526060602082015290565b906004116101515790600490565b909291928360041161015157831161015157600401916003190190565b6001600160e01b0319903581811693926004811061181c57505050565b60040360031b82901b16169150565b9080601f830112156101515781602061120c933591016115f6565b9080601f830112156101515781359061185e826110ed565b9261186c6040519485610e93565b828452602092838086019160051b8301019280841161015157848301915b84831061189a5750505050505090565b82356001600160401b0381116101515786916118bb8484809489010161182b565b81520192019161188a565b9091606082840312610151576001600160401b0391803583811161015157846118f0918301611104565b936020820135848111610151578161190991840161116c565b9360408301359081116101515761120c9201611846565b919091604081840312610151576001600160401b03928135848111610151578161194b918401611104565b9360208301359081116101515761120c9201611846565b91606083830312610151578235611978816101b5565b9260208101359260408201356001600160401b0381116101515761120c920161182b565b909193926000946119c06119b083836117d4565b6001600160e01b031992916117ff565b16635b0e93fb60e11b8103611a23575061120c93949550816119ed926119e5926117e2565b810190611962565b909490926001600160a01b03909216917f0000000000000000000000000000000000000000000000000000000000000000611be0565b9293926318dfb3c760e01b8103611ab1575081611a4b92611a43926117e2565b810190611920565b92907f00000000000000000000000000000000000000000000000000000000000000009560005b8251811015611aa85780610d0f611a8f611005611aa3948761129b565b611a99838a61129b565b519088888d611be0565b611a72565b50955050505050565b929593926323f0ed1560e11b8103611b5f575081611ada92611ad2926117e2565b8101906118c6565b919590927f0000000000000000000000000000000000000000000000000000000000000000936000955b8851871015611b5557611b4989611b4f92611b44611b306110058c611b29818a61129b565b519561129b565b611b3a8c8b61129b565b519089898d611be0565b6116ad565b96611271565b95611b04565b9750505050505050565b93959363366093ef60e21b14611b755750505050565b61120c94955090806106a0926117e2565b15611b8d57565b60405162461bcd60e51b815260206004820152602560248201527f4461696c796c696d69743a20746f6b656e206461696c79206c696d69742072656044820152641858da195960da1b6064820152608490fd5b93909281516004811180611cb8575b611bfc575b505050505050565b6020611c179301519060031901806060526024608037611d35565b909181611c25575b80611bf4565b611c4a611c73936003611c7c97019060018060a01b0316600052602052604060002090565b936003850181815403611c8e575b50506001840181815403611c86575b505060048301546116ad565b90541015611b86565b3880808080611c1f565b553880611c67565b5560018401548103611cac57600284015460048501555b3880611c58565b60006004850155611ca5565b50611cc68260028801611712565b611bef565b606090607f19011261015157608051611ce3816101b5565b9060a051611cf0816101b5565b9060c05190565b604090607f19011261015157608051611d0f816101b5565b9060a05190565b91908260409103126101515760208251611d2f816101b5565b92015190565b60009081906001600160e01b03191663a9059cbb60e01b8103611d6957505050611d63608060605101611cf7565b90509091565b63095ea7b360e01b8103611d965750505060406060511261015157611d8f6080516101b5565b60a0519091565b9193909290916323b872dd60e01b14611dac5750565b611dba608060605101611ccb565b92916001600160a01b031633149050611dd2575b5050565b93509150565b600093929084906001600160e01b03191663a9059cbb60e01b8103611e0f575050611d639192935060208082518301019101611d16565b63095ea7b360e01b8103611e35575050611d639192935060208082518301019101611d16565b909392906323b872dd60e01b14611e4a575050565b606082805181010312610151576060602083015192611e68846101b5565b611e7560408201516101b5565b015191336001600160a01b0390911603611dce5793509150565b60808101359060a081013582018092116112805760c081013582018092116112805760e00135908181029181830414901517156112805790565b91908110156112af5760051b0190565b3561120c816101b5565b15611eea57565b60405162461bcd60e51b815260206004820152601e60248201527f4461696c796c696d69743a20657863656564206461696c79206c696d697400006044820152606490fd5b90918060408301604084525260608201929060005b818110611f79575050508082036020909101528281526001600160fb1b0383116101515760209260051b809284830137010190565b9091936001908535611f8a816101b5565b828060a01b03168152602080910195019101919091611f44565b6001600160a01b03811661120c5750600290565b919091611fc58382611712565b1561205157600180805b611fda575050509050565b6001600160a01b0381811660009081526020859052604090205481169190868116831461200957505081611fcf565b61158695965084935061143a906120368461145995979060018060a01b0316600052602052604060002090565b541691849060018060a01b0316600052602052604060002090565b60405162461bcd60e51b815260206004820152601260248201527161646472657373206e6f742065786973747360701b6044820152606490fd5b61209b6103cc6201518092611fa4565b91046001820154036120b757600201546001600160801b031690565b50600090565b7f00000000000000000000000000000000000000000000000000000000000000006001810182600052806020526001600160401b039182604060002054166121305782905416824216019282841161128057600052602052604060002091166001600160401b0319825416179055600190565b50505050600090565b6121429061218e565b1561214957565b60405162461bcd60e51b815260206004820152601960248201527f536166654c6f636b3a206e6f7420756e6c6f636b2074696d65000000000000006044820152606490fd5b60005260017f000000000000000000000000000000000000000000000000000000000000000001602052604060002080546001600160401b0380821680159182156121f3575b50506121ec5767ffffffffffffffff19169055600190565b5050600090565b421610905038806121d4565b604080516001600160401b0392906060810184811182821017610eb45760009184918252828152826020820152015265ffffffffffff90818160a01c16908115612274575b8351946060860190811186821017610eb45784526001600160a01b038116855260d01c6020850152169082015290565b82915061224456fea2646970667358221220725b75e42380aeb345cf881c1b06118fd565769d7cbbd157ed2e7437ede4879064736f6c63430008130033",
    "linkReferences": {}
  },
  "methodIdentifiers": {
    "cancelSetDailyLimit(address[],uint256[])": "e5810adb",
    "comfirmSetDailyLimit(address[],uint256[])": "fda03237",
    "getDailyLimit(address)": "58f2ef17",
    "getHookCallType(uint8)": "310ed931",
    "getSafeLockPeriod()": "914643ac",
    "getSafeLockStatus(bytes32)": "8a7f1b55",
    "getSpentToday(address)": "49ff658e",
    "guardHook((address,uint256,bytes,bytes,uint256,uint256,uint256,uint256,uint256,bytes,bytes),bytes32)": "bccbbf94",
    "isHookCall(uint8)": "ba38419a",
    "postHook(address,uint256,bytes)": "ca5ce119",
    "preHook(address,uint256,bytes)": "aa32a3f0",
    "preSetDailyLimit(address[],uint256[])": "ffaf02fc",
    "reduceDailyLimits(address[],uint256[])": "5709cd58",
    "supportsInterface(bytes4)": "01ffc9a7",
    "walletDeInit()": "e335a37a",
    "walletInit(bytes)": "f361cef2"
  },
  "id": 45
}