{
  "abi": [
    {
      "inputs": [],
      "stateMutability": "nonpayable",
      "type": "constructor"
    },
    {
      "anonymous": false,
      "inputs": [
        {
          "indexed": false,
          "internalType": "address[]",
          "name": "token",
          "type": "address[]"
        },
        {
          "indexed": false,
          "internalType": "uint256[]",
          "name": "limit",
          "type": "uint256[]"
        }
      ],
      "name": "CancelSetDailyLimit",
      "type": "event"
    },
    {
      "anonymous": false,
      "inputs": [
        {
          "indexed": false,
          "internalType": "address[]",
          "name": "token",
          "type": "address[]"
        },
        {
          "indexed": false,
          "internalType": "uint256[]",
          "name": "limit",
          "type": "uint256[]"
        }
      ],
      "name": "DailyLimitChanged",
      "type": "event"
    },
    {
      "anonymous": false,
      "inputs": [
        {
          "indexed": true,
          "internalType": "address",
          "name": "wallet",
          "type": "address"
        }
      ],
      "name": "PluginDeInit",
      "type": "event"
    },
    {
      "anonymous": false,
      "inputs": [
        {
          "indexed": true,
          "internalType": "address",
          "name": "wallet",
          "type": "address"
        }
      ],
      "name": "PluginInit",
      "type": "event"
    },
    {
      "anonymous": false,
      "inputs": [
        {
          "indexed": false,
          "internalType": "address[]",
          "name": "token",
          "type": "address[]"
        },
        {
          "indexed": false,
          "internalType": "uint256[]",
          "name": "limit",
          "type": "uint256[]"
        }
      ],
      "name": "PreSetDailyLimit",
      "type": "event"
    },
    {
      "inputs": [
        {
          "internalType": "address[]",
          "name": "token",
          "type": "address[]"
        },
        {
          "internalType": "uint256[]",
          "name": "limit",
          "type": "uint256[]"
        }
      ],
      "name": "cancelSetDailyLimit",
      "outputs": [],
      "stateMutability": "nonpayable",
      "type": "function"
    },
    {
      "inputs": [
        {
          "internalType": "address[]",
          "name": "token",
          "type": "address[]"
        },
        {
          "internalType": "uint256[]",
          "name": "limit",
          "type": "uint256[]"
        }
      ],
      "name": "comfirmSetDailyLimit",
      "outputs": [],
      "stateMutability": "nonpayable",
      "type": "function"
    },
    {
      "inputs": [
        {
          "internalType": "address",
          "name": "token",
          "type": "address"
        }
      ],
      "name": "getDailyLimit",
      "outputs": [
        {
          "internalType": "uint256",
          "name": "",
          "type": "uint256"
        }
      ],
      "stateMutability": "view",
      "type": "function"
    },
    {
      "inputs": [
        {
          "internalType": "enum IPlugin.HookType",
          "name": "hookType",
          "type": "uint8"
        }
      ],
      "name": "getHookCallType",
      "outputs": [
        {
          "internalType": "enum CallHelper.CallType",
          "name": "calltype",
          "type": "uint8"
        }
      ],
      "stateMutability": "view",
      "type": "function"
    },
    {
      "inputs": [],
      "name": "getSafeLockPeriod",
      "outputs": [
        {
          "internalType": "uint64",
          "name": "",
          "type": "uint64"
        }
      ],
      "stateMutability": "view",
      "type": "function"
    },
    {
      "inputs": [
        {
          "internalType": "bytes32",
          "name": "_safeLockHash",
          "type": "bytes32"
        }
      ],
      "name": "getSafeLockStatus",
      "outputs": [
        {
          "internalType": "uint64",
          "name": "unLockTime",
          "type": "uint64"
        }
      ],
      "stateMutability": "view",
      "type": "function"
    },
    {
      "inputs": [
        {
          "internalType": "address",
          "name": "token",
          "type": "address"
        }
      ],
      "name": "getSpentToday",
      "outputs": [
        {
          "internalType": "uint256",
          "name": "",
          "type": "uint256"
        }
      ],
      "stateMutability": "view",
      "type": "function"
    },
    {
      "inputs": [
        {
          "components": [
            {
              "internalType": "address",
              "name": "sender",
              "type": "address"
            },
            {
              "internalType": "uint256",
              "name": "nonce",
              "type": "uint256"
            },
            {
              "internalType": "bytes",
              "name": "initCode",
              "type": "bytes"
            },
            {
              "internalType": "bytes",
              "name": "callData",
              "type": "bytes"
            },
            {
              "internalType": "uint256",
              "name": "callGasLimit",
              "type": "uint256"
            },
            {
              "internalType": "uint256",
              "name": "verificationGasLimit",
              "type": "uint256"
            },
            {
              "internalType": "uint256",
              "name": "preVerificationGas",
              "type": "uint256"
            },
            {
              "internalType": "uint256",
              "name": "maxFeePerGas",
              "type": "uint256"
            },
            {
              "internalType": "uint256",
              "name": "maxPriorityFeePerGas",
              "type": "uint256"
            },
            {
              "internalType": "bytes",
              "name": "paymasterAndData",
              "type": "bytes"
            },
            {
              "internalType": "bytes",
              "name": "signature",
              "type": "bytes"
            }
          ],
          "internalType": "struct UserOperation",
          "name": "userOp",
          "type": "tuple"
        },
        {
          "internalType": "bytes32",
          "name": "userOpHash",
          "type": "bytes32"
        }
      ],
      "name": "guardHook",
      "outputs": [],
      "stateMutability": "nonpayable",
      "type": "function"
    },
    {
      "inputs": [
        {
          "internalType": "enum IPlugin.HookType",
          "name": "hookType",
          "type": "uint8"
        }
      ],
      "name": "isHookCall",
      "outputs": [
        {
          "internalType": "bool",
          "name": "",
          "type": "bool"
        }
      ],
      "stateMutability": "view",
      "type": "function"
    },
    {
      "inputs": [
        {
          "internalType": "address",
          "name": "target",
          "type": "address"
        },
        {
          "internalType": "uint256",
          "name": "value",
          "type": "uint256"
        },
        {
          "internalType": "bytes",
          "name": "data",
          "type": "bytes"
        }
      ],
      "name": "postHook",
      "outputs": [],
      "stateMutability": "nonpayable",
      "type": "function"
    },
    {
      "inputs": [
        {
          "internalType": "address",
          "name": "target",
          "type": "address"
        },
        {
          "internalType": "uint256",
          "name": "value",
          "type": "uint256"
        },
        {
          "internalType": "bytes",
          "name": "data",
          "type": "bytes"
        }
      ],
      "name": "preHook",
      "outputs": [],
      "stateMutability": "nonpayable",
      "type": "function"
    },
    {
      "inputs": [
        {
          "internalType": "address[]",
          "name": "token",
          "type": "address[]"
        },
        {
          "internalType": "uint256[]",
          "name": "limit",
          "type": "uint256[]"
        }
      ],
      "name": "preSetDailyLimit",
      "outputs": [],
      "stateMutability": "nonpayable",
      "type": "function"
    },
    {
      "inputs": [
        {
          "internalType": "address[]",
          "name": "token",
          "type": "address[]"
        },
        {
          "internalType": "uint256[]",
          "name": "limit",
          "type": "uint256[]"
        }
      ],
      "name": "reduceDailyLimits",
      "outputs": [],
      "stateMutability": "nonpayable",
      "type": "function"
    },
    {
      "inputs": [
        {
          "internalType": "bytes4",
          "name": "interfaceId",
          "type": "bytes4"
        }
      ],
      "name": "supportsInterface",
      "outputs": [
        {
          "internalType": "bool",
          "name": "",
          "type": "bool"
        }
      ],
      "stateMutability": "view",
      "type": "function"
    },
    {
      "inputs": [],
      "name": "walletDeInit",
      "outputs": [],
      "stateMutability": "nonpayable",
      "type": "function"
    },
    {
      "inputs": [
        {
          "internalType": "bytes",
          "name": "data",
          "type": "bytes"
        }
      ],
      "name": "walletInit",
      "outputs": [],
      "stateMutability": "nonpayable",
      "type": "function"
    }
  ],
  "bytecode": {
    "object": "0x60e06040523480156200001157600080fd5b50604080518082018252601f81527f504c5547494e5f4441494c594c494d49545f534146454c4f434b5f534c4f54006020808301919091527f2821893fd1bf7f1c198c0a8fba5c24618af25d872b866b4b63501a5c292957c16080523060a052915190916202a30091620000889184910162000148565b60408051601f19818403018152919052805160209091012060c0526001600160401b038116620001165760405162461bcd60e51b815260206004820152602f60248201527f536166654c6f636b3a20736166654c6f636b506572696f64206d75737420626560448201526e02067726561746572207468616e203608c1b606482015260840160405180910390fd5b806200012160c05190565b80546001600160401b0319166001600160401b039290921691909117905550620001799050565b6000825160005b818110156200016b57602081860181015185830152016200014f565b506000920191825250919050565b60805160a05160c0516128096200022e600039600081816101be0152818161020c01528181610ae101528181611c6b0152611cf90152600081816109ad01528181610b94015281816114d401526115790152600081816103540152818161062b015281816107b60152818161096c01528181610b5401528181610ceb01528181610ee901528181610f7901528181611138015281816111ad0152818161127a0152818161153901526115de01526128096000f3fe608060405234801561001057600080fd5b50600436106101005760003560e01c8063ba38419a11610097578063e5810adb11610066578063e5810adb1461028f578063f361cef2146102a2578063fda03237146102b5578063ffaf02fc146102c857600080fd5b8063ba38419a1461024d578063bccbbf9414610261578063ca5ce11914610274578063e335a37a1461028757600080fd5b806358f2ef17116100d357806358f2ef17146101945780638a7f1b55146101a7578063914643ac1461020a578063aa32a3f01461023a57600080fd5b806301ffc9a714610105578063310ed9311461013e57806349ff658e1461015e5780635709cd581461017f575b600080fd5b610129610113366004611d8a565b6001600160e01b031916632bc9b2eb60e11b1490565b60405190151581526020015b60405180910390f35b61015161014c366004611db4565b6102db565b6040516101359190611deb565b61017161016c366004611e28565b610306565b604051908152602001610135565b61019261018d366004611e90565b61032a565b005b6101716101a2366004611e28565b6104e6565b6101f26101b5366004611efb565b600090815260017f00000000000000000000000000000000000000000000000000000000000000000160205260409020546001600160401b031690565b6040516001600160401b039091168152602001610135565b7f0000000000000000000000000000000000000000000000000000000000000000546001600160401b03166101f2565b610192610248366004611f55565b6104f7565b61012961025b366004611db4565b50600190565b61019261026f366004611fa4565b61053f565b610192610282366004611f55565b6107a7565b610192610966565b61019261029d366004611e90565b610aa3565b6101926102b0366004611fee565b610b4e565b6101926102c3366004611e90565b610c90565b6101926102d6366004611e90565b610e6a565b600060018260028111156102f1576102f1611dd5565b036102fe57506000919050565b506002919050565b60006103128242610ed9565b6fffffffffffffffffffffffffffffffff1692915050565b8281146103525760405162461bcd60e51b81526004016103499061202f565b60405180910390fd5b7f000000000000000000000000000000000000000000000000000000000000000060005b848110156104a157600084848381811061039257610392612066565b905060200201359050600081116103eb5760405162461bcd60e51b815260206004820152601a60248201527f4461696c796c696d69743a20696e76616c696420616d6f756e740000000000006044820152606401610349565b600061041c88888581811061040257610402612066565b90506020020160208101906104179190611e28565b610f5e565b6001600160a01b03811660009081526003860160205260409020805491925090831061048a5760405162461bcd60e51b815260206004820152601e60248201527f4461696c796c696d69743a20657863656564206461696c79206c696d697400006044820152606401610349565b91909155508061049981612092565b915050610376565b507f75bb2afda41bd6ae78da0773e0f5d6c9210fbf8dfb4e24a52cdf36cedc9734bd858585856040516104d794939291906120ab565b60405180910390a15050505050565b60006104f182610f75565b92915050565b60405162461bcd60e51b815260206004820152601f60248201527f4461696c796c696d69743a20707265486f6f6b206e6f7420737570706f7274006044820152606401610349565b600061058c610552610140850185612129565b8080601f016020809104026020016040519081016040528093929190818152602001838380828437600092019190915250610fc692505050565b519050801561074a5760006105a082611059565b905061a8c0816020015182604001516105b9919061216f565b65ffffffffffff161061060e5760405162461bcd60e51b815260206004820181905260248201527f4461696c796c696d69743a20657863656564206d61782074696d6572616e67656044820152606401610349565b6000610625826020015165ffffffffffff166110ca565b905060007f000000000000000000000000000000000000000000000000000000000000000082815560018082018054929350909160009061066790849061218e565b9091555050600181015460009061068b908461068660608b018b612129565b6110d9565b905061069b600283810190611370565b156107415760006106b0610120890189612129565b90506000036106d1576106c2886113c3565b90506106ce818361218e565b91505b60026000908152600384016020526040812060018101549091908690036106fd57506002810154610705565b600182018690555b6000610711858361218e565b83549091508111156107355760405162461bcd60e51b8152600401610349906121a1565b60029092019190915550505b50505050505050565b60405162461bcd60e51b815260206004820152602760248201527f4461696c796c696d69743a207369676e61747572652074696d6572616e6765206044820152661a5b9d985b1a5960ca1b6064820152608401610349565b505050565b60006107b2426110ca565b90507f000000000000000000000000000000000000000000000000000000000000000084158015906107ed57506107ed600282810190611370565b1561086157600260009081526003820160205260408120600181015490919084900361081e57506002810154610826565b600182018490555b6000610832888361218e565b83549091508111156108565760405162461bcd60e51b8152600401610349906121a1565b600290920191909155505b61086e6002820187611370565b1561095e5760006108d661088560048387896121e4565b61088e9161220e565b8861089c876004818b6121e4565b8080601f0160208091040260200160405190810160405280939291908181526020018383808284376000920191909152506113fe92505050565b9150508015610741576001600160a01b03871660009081526003830160205260408120600181015490919085900361091357506002810154610922565b60018201859055600060028301555b600061092e848361218e565b83549091508111156109525760405162461bcd60e51b81526004016103499061223e565b60029092019190915550505b505050505050565b336109917f000000000000000000000000000000000000000000000000000000000000000054151590565b15610aa057604051631235ec7560e21b81526001600160a01b037f0000000000000000000000000000000000000000000000000000000000000000811660048301528216906348d7b1d4906024016020604051808303816000875af11580156109fe573d6000803e3d6000fd5b505050506040513d601f19601f82011682018060405250810190610a229190612283565b15610a635760405162461bcd60e51b815260206004820152601160248201527030baba3437b934bd32b21038363ab3b4b760791b6044820152606401610349565b610a6b6114ca565b6040516001600160a01b038216907fb018677f022b0c5bc27076ff638a4f85937b72fa295b96228511b191ac68fc0590600090a25b50565b600084848484604051602001610abc94939291906120ab565b604051602081830303815290604052805190602001209050610b1981600090815260017f00000000000000000000000000000000000000000000000000000000000000000160205260409020805467ffffffffffffffff19169055565b7f5861200cd6d281c28484d230b2b37eb5d63817354dcd9b16a462971421318aa3858585856040516104d794939291906120ab565b33610b797f000000000000000000000000000000000000000000000000000000000000000054151590565b6107a257604051631235ec7560e21b81526001600160a01b037f0000000000000000000000000000000000000000000000000000000000000000811660048301528216906348d7b1d4906024016020604051808303816000875af1158015610be5573d6000803e3d6000fd5b505050506040513d601f19601f82011682018060405250810190610c099190612283565b610c4d5760405162461bcd60e51b81526020600482015260156024820152743737ba1030baba3437b934bd32b21038363ab3b4b760591b6044820152606401610349565b610c57838361156f565b6040516001600160a01b038216907f23d8d4885a34928c88f35c93e72488e155fbb7644d2812d92b0216e238da32f290600090a2505050565b600084848484604051602001610ca994939291906120ab565b604051602081830303815290604052805190602001209050610cca816117d4565b838214610ce95760405162461bcd60e51b81526004016103499061202f565b7f000000000000000000000000000000000000000000000000000000000000000060005b85811015610e24576000858583818110610d2957610d29612066565b9050602002013590506000610d4989898581811061040257610402612066565b9050610d586002850182611370565b15610d995781600003610d7757610d726002850182611829565b610e0f565b6001600160a01b03811660009081526003850160205260409020829055610e0f565b8115610e0f57610dac6002850182611962565b6040805160a0810182528381526000602080830182815283850183815260608501848152608086018581526001600160a01b03891686526003808d0190955296909420945185559051600185015551600284015590519082015590516004909101555b50508080610e1c90612092565b915050610d0d565b507f75bb2afda41bd6ae78da0773e0f5d6c9210fbf8dfb4e24a52cdf36cedc9734bd86868686604051610e5a94939291906120ab565b60405180910390a1505050505050565b600084848484604051602001610e8394939291906120ab565b604051602081830303815290604052805190602001209050610ea481611a94565b7f31dc429d4fbe2d83f018f4f3160db5324d6935488bd6cf176edf6822f8ce0cfb858585856040516104d794939291906120ab565b600080610ee5836110ca565b90507f000000000000000000000000000000000000000000000000000000000000000060006003820181610f1888610f5e565b6001600160a01b03166001600160a01b03168152602001908152602001600020905082816001015414610f5157600093505050506104f1565b6002015495945050505050565b60006001600160a01b038216156102fe57816104f1565b60007f00000000000000000000000000000000000000000000000000000000000000006003016000610fa684610f5e565b6001600160a01b0316815260208101919091526040016000205492915050565b6040805180820190915260008152606060208201528151604103610ffe57506040805180820190915260008152602081019190915290565b6000606060ff6001850151168060008114611020576001811461010057600080fd5b60218601519350604183526041860151602084015260618601516040840152505060408051808201909152918252602082015292915050565b60408051606081018252600080825260208201819052918101919091528160a081901c65ffffffffffff8116600003611095575065ffffffffffff5b604080516060810182526001600160a01b03909316835260d09490941c602083015265ffffffffffff16928101929092525090565b60006104f162015180836122a5565b6000806110e960048285876121e4565b6110f29161220e565b90506324f16c0560e11b6001600160e01b031982160161116d576000808061111d866004818a6121e4565b81019061112a919061237c565b92509250925061116361115a7f000000000000000000000000000000000000000000000000000000000000000090565b8a8a8685611ae9565b5092506113669050565b63e7204c3960e01b6001600160e01b03198216016112375760008061119585600481896121e4565b8101906111a291906124ea565b9150915060006111cf7f000000000000000000000000000000000000000000000000000000000000000090565b905060005b835181101561122e5761121c828b8b8785815181106111f5576111f5612066565b602002602001015187868151811061120f5761120f612066565b6020026020010151611ae9565b8061122681612092565b9150506111d4565b50505050611366565b635c0f12eb60e11b6001600160e01b03198216016113245760008080611260866004818a6121e4565b81019061126d91906125a8565b925092509250600061129c7f000000000000000000000000000000000000000000000000000000000000000090565b905060005b845181101561131a5760008482815181106112be576112be612066565b602002602001015190506112fa838d8d8986815181106112e0576112e0612066565b602002602001015188878151811061120f5761120f612066565b611304818961218e565b975050808061131290612092565b9150506112a1565b5050505050611366565b63099f6c1160e21b6001600160e01b03198216016113665736600061134c85600481896121e4565b9150915061135c888884846110d9565b9350505050611368565b505b949350505050565b6000816001816001600160a01b03161161139c5760405162461bcd60e51b815260040161034990612625565b6001600160a01b0383811660009081526020869052604090205416151591505b5092915050565b60008060c08301356113dd60a0850135608086013561218e565b6113e7919061218e565b90506113f760e08401358261264e565b9392505050565b6000806356fa634560e01b6001600160e01b0319861601611439578280602001905181019061142d9190612665565b85935091506114c29050565b63f6a1584d60e01b6001600160e01b0319861601611465578280602001905181019061142d9190612665565b63dc478d2360e01b6001600160e01b03198616016114c257600080848060200190518101906114949190612693565b92505091506114a03390565b6001600160a01b0316826001600160a01b0316036114bf578593508092505b50505b935093915050565b6001600160a01b037f00000000000000000000000000000000000000000000000000000000000000001630036115375760405162461bcd60e51b81526020600482015260126024820152711bdb9b1e4819195b1959d85d194818d85b1b60721b6044820152606401610349565b7f0000000000000000000000000000000000000000000000000000000000000000805415610aa05760008155610aa060028201611bec565b6001600160a01b037f00000000000000000000000000000000000000000000000000000000000000001630036115dc5760405162461bcd60e51b81526020600482015260126024820152711bdb9b1e4819195b1959d85d194818d85b1b60721b6044820152606401610349565b7f000000000000000000000000000000000000000000000000000000000000000080546000036107a25761160f426110ca565b8155600080611620848601866126d6565b9150915080518251146116455760405162461bcd60e51b81526004016103499061202f565b60005b82518110156117a257600082828151811061166557611665612066565b60200260200101519050600081116116bf5760405162461bcd60e51b815260206004820152601960248201527f4461696c796c696d69743a20696e76616c6964206c696d6974000000000000006044820152606401610349565b6116ee8483815181106116d4576116d4612066565b60200260200101518660020161196290919063ffffffff16565b6040518060a00160405280828152602001600081526020016000815260200160008152602001600081525085600301600086858151811061173157611731612066565b60200260200101516001600160a01b03166001600160a01b03168152602001908152602001600020600082015181600001556020820151816001015560408201518160020155606082015181600301556080820151816004015590505050808061179a90612092565b915050611648565b507f75bb2afda41bd6ae78da0773e0f5d6c9210fbf8dfb4e24a52cdf36cedc9734bd82826040516104d792919061272f565b6117dd81611c64565b610aa05760405162461bcd60e51b815260206004820152601960248201527f536166654c6f636b3a206e6f7420756e6c6f636b2074696d65000000000000006044820152606401610349565b806001816001600160a01b0316116118535760405162461bcd60e51b815260040161034990612625565b6001600160a01b03828116600090815260208590526040902054166118af5760405162461bcd60e51b815260206004820152601260248201527161646472657373206e6f742065786973747360701b6044820152606401610349565b60016000908152602084905260409020546001600160a01b03165b6001600160a01b03811660011461195c57826001600160a01b0316816001600160a01b03160361193c576001600160a01b038084166000818152602087905260408082208054958516835290822080546001600160a01b03199081169690951695909517909455528154169055505050565b6001600160a01b03908116600090815260208590526040902054166118ca565b50505050565b806001816001600160a01b03161161198c5760405162461bcd60e51b815260040161034990612625565b6001600160a01b0382811660009081526020859052604090205416156119ed5760405162461bcd60e51b81526020600482015260166024820152756164647265737320616c72656164792065786973747360501b6044820152606401610349565b60016000908152602084905260409020546001600160a01b031680611a4e57600160008181526020869052604080822080546001600160a01b0388166001600160a01b0319918216811790925590835291208054909116909117905561195c565b60016000908152602094909452604080852080546001600160a01b039586166001600160a01b031991821681179092559086529420805491909316931692909217905550565b611a9d81611cf2565b610aa05760405162461bcd60e51b815260206004820152601860248201527f536166654c6f636b3a20616c7265616479206c6f636b656400000000000000006044820152606401610349565b8051600481118015611b035750611b036002870184611370565b1561095e57602082015160031982016060818152906024608037600080611b2b8488856113fe565b90925090508015611be0576001600160a01b03821660009081526003808c016020526040909120908101548a14611b8657600381018a90556001810154899003611b7e5760028101546004820155611b86565b600060048201555b600089826001015403611b9e57506002810154611ba6565b600182018a90555b6000838360040154611bb8919061218e565b8354909150811115611bdc5760405162461bcd60e51b81526004016103499061223e565b5050505b50505050505050505050565b60016000908152602082905260409020546001600160a01b03165b6001600160a01b038116600114611c42576001600160a01b0316600090815260208290526040812080546001600160a01b0319169055611c07565b50600160009081526020919091526040902080546001600160a01b0319169055565b60008181527f000000000000000000000000000000000000000000000000000000000000000060018101602081905260408320546001600160401b0316801580611cbf5750426001600160401b0316816001600160401b0316115b15611ccf57506000949350505050565b506000938452602052505060409020805467ffffffffffffffff19169055600190565b60008181527f000000000000000000000000000000000000000000000000000000000000000060018101602081905260408320546001600160401b031615611d3e575060009392505050565b8154611d53906001600160401b0316426127b3565b60009485526020919091526040909320805467ffffffffffffffff19166001600160401b0390941693909317909255506001919050565b600060208284031215611d9c57600080fd5b81356001600160e01b0319811681146113f757600080fd5b600060208284031215611dc657600080fd5b8135600381106113f757600080fd5b634e487b7160e01b600052602160045260246000fd5b6020810160048310611e0d57634e487b7160e01b600052602160045260246000fd5b91905290565b6001600160a01b0381168114610aa057600080fd5b600060208284031215611e3a57600080fd5b81356113f781611e13565b60008083601f840112611e5757600080fd5b5081356001600160401b03811115611e6e57600080fd5b6020830191508360208260051b8501011115611e8957600080fd5b9250929050565b60008060008060408587031215611ea657600080fd5b84356001600160401b0380821115611ebd57600080fd5b611ec988838901611e45565b90965094506020870135915080821115611ee257600080fd5b50611eef87828801611e45565b95989497509550505050565b600060208284031215611f0d57600080fd5b5035919050565b60008083601f840112611f2657600080fd5b5081356001600160401b03811115611f3d57600080fd5b602083019150836020828501011115611e8957600080fd5b60008060008060608587031215611f6b57600080fd5b8435611f7681611e13565b93506020850135925060408501356001600160401b03811115611f9857600080fd5b611eef87828801611f14565b60008060408385031215611fb757600080fd5b82356001600160401b03811115611fcd57600080fd5b83016101608186031215611fe057600080fd5b946020939093013593505050565b6000806020838503121561200157600080fd5b82356001600160401b0381111561201757600080fd5b61202385828601611f14565b90969095509350505050565b60208082526018908201527f4461696c796c696d69743a20696e76616c696420646174610000000000000000604082015260600190565b634e487b7160e01b600052603260045260246000fd5b634e487b7160e01b600052601160045260246000fd5b6000600182016120a4576120a461207c565b5060010190565b6040808252810184905260008560608301825b878110156120ee5782356120d181611e13565b6001600160a01b03168252602092830192909101906001016120be565b5083810360208501528481526001600160fb1b0385111561210e57600080fd5b8460051b915081866020830137016020019695505050505050565b6000808335601e1984360301811261214057600080fd5b8301803591506001600160401b0382111561215a57600080fd5b602001915036819003821315611e8957600080fd5b65ffffffffffff8281168282160390808211156113bc576113bc61207c565b808201808211156104f1576104f161207c565b60208082526023908201527f4461696c796c696d69743a20455448206461696c79206c696d697420726561636040820152621a195960ea1b606082015260800190565b600080858511156121f457600080fd5b8386111561220157600080fd5b5050820193919092039150565b6001600160e01b031981358181169160048510156122365780818660040360031b1b83161692505b505092915050565b60208082526025908201527f4461696c796c696d69743a20746f6b656e206461696c79206c696d69742072656040820152641858da195960da1b606082015260800190565b60006020828403121561229557600080fd5b815180151581146113f757600080fd5b6000826122c257634e487b7160e01b600052601260045260246000fd5b500490565b634e487b7160e01b600052604160045260246000fd5b604051601f8201601f191681016001600160401b0381118282101715612305576123056122c7565b604052919050565b600082601f83011261231e57600080fd5b81356001600160401b03811115612337576123376122c7565b61234a601f8201601f19166020016122dd565b81815284602083860101111561235f57600080fd5b816020850160208301376000918101602001919091529392505050565b60008060006060848603121561239157600080fd5b833561239c81611e13565b92506020840135915060408401356001600160401b038111156123be57600080fd5b6123ca8682870161230d565b9150509250925092565b60006001600160401b038211156123ed576123ed6122c7565b5060051b60200190565b600082601f83011261240857600080fd5b8135602061241d612418836123d4565b6122dd565b82815260059290921b8401810191818101908684111561243c57600080fd5b8286015b8481101561246057803561245381611e13565b8352918301918301612440565b509695505050505050565b600082601f83011261247c57600080fd5b8135602061248c612418836123d4565b82815260059290921b840181019181810190868411156124ab57600080fd5b8286015b848110156124605780356001600160401b038111156124ce5760008081fd5b6124dc8986838b010161230d565b8452509183019183016124af565b600080604083850312156124fd57600080fd5b82356001600160401b038082111561251457600080fd5b612520868387016123f7565b9350602085013591508082111561253657600080fd5b506125438582860161246b565b9150509250929050565b600082601f83011261255e57600080fd5b8135602061256e612418836123d4565b82815260059290921b8401810191818101908684111561258d57600080fd5b8286015b848110156124605780358352918301918301612591565b6000806000606084860312156125bd57600080fd5b83356001600160401b03808211156125d457600080fd5b6125e0878388016123f7565b945060208601359150808211156125f657600080fd5b6126028783880161254d565b9350604086013591508082111561261857600080fd5b506123ca8682870161246b565b6020808252600f908201526e696e76616c6964206164647265737360881b604082015260600190565b80820281158282048414176104f1576104f161207c565b6000806040838503121561267857600080fd5b825161268381611e13565b6020939093015192949293505050565b6000806000606084860312156126a857600080fd5b83516126b381611e13565b60208501519093506126c481611e13565b80925050604084015190509250925092565b600080604083850312156126e957600080fd5b82356001600160401b038082111561270057600080fd5b61270c868387016123f7565b9350602085013591508082111561272257600080fd5b506125438582860161254d565b604080825283519082018190526000906020906060840190828701845b828110156127715781516001600160a01b03168452928401929084019060010161274c565b5050508381038285015284518082528583019183019060005b818110156127a65783518352928401929184019160010161278a565b5090979650505050505050565b6001600160401b038181168382160190808211156113bc576113bc61207c56fea264697066735822122045b16e205a35efd17dbbf181a6ae1f9ecc1882c92173cc3c7c0174942ab41f6764736f6c63430008110033",
    "linkReferences": {}
  },
  "methodIdentifiers": {
    "cancelSetDailyLimit(address[],uint256[])": "e5810adb",
    "comfirmSetDailyLimit(address[],uint256[])": "fda03237",
    "getDailyLimit(address)": "58f2ef17",
    "getHookCallType(uint8)": "310ed931",
    "getSafeLockPeriod()": "914643ac",
    "getSafeLockStatus(bytes32)": "8a7f1b55",
    "getSpentToday(address)": "49ff658e",
    "guardHook((address,uint256,bytes,bytes,uint256,uint256,uint256,uint256,uint256,bytes,bytes),bytes32)": "bccbbf94",
    "isHookCall(uint8)": "ba38419a",
    "postHook(address,uint256,bytes)": "ca5ce119",
    "preHook(address,uint256,bytes)": "aa32a3f0",
    "preSetDailyLimit(address[],uint256[])": "ffaf02fc",
    "reduceDailyLimits(address[],uint256[])": "5709cd58",
    "supportsInterface(bytes4)": "01ffc9a7",
    "walletDeInit()": "e335a37a",
    "walletInit(bytes)": "f361cef2"
  },
  "id": 40
}