{
  "abi": [
    {
      "inputs": [],
      "stateMutability": "nonpayable",
      "type": "constructor"
    },
    {
      "anonymous": false,
      "inputs": [
        {
          "indexed": true,
          "internalType": "address",
          "name": "wallet",
          "type": "address"
        }
      ],
      "name": "PluginDeInit",
      "type": "event"
    },
    {
      "anonymous": false,
      "inputs": [
        {
          "indexed": true,
          "internalType": "address",
          "name": "wallet",
          "type": "address"
        }
      ],
      "name": "PluginInit",
      "type": "event"
    },
    {
      "anonymous": false,
      "inputs": [
        {
          "indexed": true,
          "internalType": "address",
          "name": "newLogic",
          "type": "address"
        },
        {
          "indexed": true,
          "internalType": "address",
          "name": "oldLogic",
          "type": "address"
        }
      ],
      "name": "Upgrade",
      "type": "event"
    },
    {
      "inputs": [
        {
          "internalType": "enum IPlugin.HookType",
          "name": "hookType",
          "type": "uint8"
        }
      ],
      "name": "getHookCallType",
      "outputs": [
        {
          "internalType": "enum CallHelper.CallType",
          "name": "calltype",
          "type": "uint8"
        }
      ],
      "stateMutability": "view",
      "type": "function"
    },
    {
      "inputs": [
        {
          "components": [
            {
              "internalType": "address",
              "name": "sender",
              "type": "address"
            },
            {
              "internalType": "uint256",
              "name": "nonce",
              "type": "uint256"
            },
            {
              "internalType": "bytes",
              "name": "initCode",
              "type": "bytes"
            },
            {
              "internalType": "bytes",
              "name": "callData",
              "type": "bytes"
            },
            {
              "internalType": "uint256",
              "name": "callGasLimit",
              "type": "uint256"
            },
            {
              "internalType": "uint256",
              "name": "verificationGasLimit",
              "type": "uint256"
            },
            {
              "internalType": "uint256",
              "name": "preVerificationGas",
              "type": "uint256"
            },
            {
              "internalType": "uint256",
              "name": "maxFeePerGas",
              "type": "uint256"
            },
            {
              "internalType": "uint256",
              "name": "maxPriorityFeePerGas",
              "type": "uint256"
            },
            {
              "internalType": "bytes",
              "name": "paymasterAndData",
              "type": "bytes"
            },
            {
              "internalType": "bytes",
              "name": "signature",
              "type": "bytes"
            }
          ],
          "internalType": "struct UserOperation",
          "name": "userOp",
          "type": "tuple"
        },
        {
          "internalType": "bytes32",
          "name": "userOpHash",
          "type": "bytes32"
        }
      ],
      "name": "guardHook",
      "outputs": [],
      "stateMutability": "nonpayable",
      "type": "function"
    },
    {
      "inputs": [
        {
          "internalType": "enum IPlugin.HookType",
          "name": "hookType",
          "type": "uint8"
        }
      ],
      "name": "isHookCall",
      "outputs": [
        {
          "internalType": "bool",
          "name": "",
          "type": "bool"
        }
      ],
      "stateMutability": "view",
      "type": "function"
    },
    {
      "inputs": [
        {
          "internalType": "address",
          "name": "target",
          "type": "address"
        },
        {
          "internalType": "uint256",
          "name": "value",
          "type": "uint256"
        },
        {
          "internalType": "bytes",
          "name": "data",
          "type": "bytes"
        }
      ],
      "name": "postHook",
      "outputs": [],
      "stateMutability": "nonpayable",
      "type": "function"
    },
    {
      "inputs": [
        {
          "internalType": "address",
          "name": "target",
          "type": "address"
        },
        {
          "internalType": "uint256",
          "name": "value",
          "type": "uint256"
        },
        {
          "internalType": "bytes",
          "name": "data",
          "type": "bytes"
        }
      ],
      "name": "preHook",
      "outputs": [],
      "stateMutability": "nonpayable",
      "type": "function"
    },
    {
      "inputs": [
        {
          "internalType": "bytes4",
          "name": "interfaceId",
          "type": "bytes4"
        }
      ],
      "name": "supportsInterface",
      "outputs": [
        {
          "internalType": "bool",
          "name": "",
          "type": "bool"
        }
      ],
      "stateMutability": "view",
      "type": "function"
    },
    {
      "inputs": [],
      "name": "upgrade",
      "outputs": [],
      "stateMutability": "nonpayable",
      "type": "function"
    },
    {
      "inputs": [],
      "name": "walletDeInit",
      "outputs": [],
      "stateMutability": "nonpayable",
      "type": "function"
    },
    {
      "inputs": [
        {
          "internalType": "bytes",
          "name": "data",
          "type": "bytes"
        }
      ],
      "name": "walletInit",
      "outputs": [],
      "stateMutability": "nonpayable",
      "type": "function"
    }
  ],
  "bytecode": {
    "object": "0x60c0806040523461006a577fef6e73ce9cbb8cc7626ccdf51a34e82df5b471758c572b4c1076082f3fa3a8f66080523060a0526107159081610070823960805181818160ba01528181610276015261040d015260a05181818160fe015281816102bb01526103bf0152f35b600080fdfe608060408181526004908136101561001657600080fd5b600092833560e01c90816301ffc9a71461056757508063310ed93114610541578063aa32a3f0146104e1578063ba38419a1461051a578063bccbbf94146104e6578063ca5ce119146104e1578063d55ec6971461039f578063e335a37a146102615763f361cef21461008757600080fd5b3461025d576020908160031936011261025957823567ffffffffffffffff81116101df576100b8903690850161059e565b7f0000000000000000000000000000000000000000000000000000000000000000546001600160a01b039291908316156100f0578680f35b8351631235ec7560e21b81527f000000000000000000000000000000000000000000000000000000000000000084168782018190529086816024818c335af190811561024f578991610222575b50156101e7578591610152849230141561066b565b810103126101e357359081168091036101df57606494506101a2575162461bcd60e51b81529182015260156024820152746c6f6769632061646472657373206973207a65726f60581b6044820152fd5b5162461bcd60e51b815291820152601960248201527f6c6f6769632061646472657373206973206e6f74207a65726f000000000000006044820152fd5b8480fd5b8580fd5b845162461bcd60e51b815280880187905260156024820152743737ba1030baba3437b934bd32b21038363ab3b4b760591b6044820152606490fd5b6102429150873d8911610248575b61023a818361061b565b810190610653565b3861013d565b503d610230565b86513d8b823e3d90fd5b8380fd5b8280fd5b5091903461039b578160031936011261039b577f0000000000000000000000000000000000000000000000000000000000000000805490916001600160a01b039182166102ac578380f35b845191631235ec7560e21b83527f00000000000000000000000000000000000000000000000000000000000000001691828282015260208160248188335af1908115610391578591610373575b5061033c575082935061030e9030141561066b565b55337fb018677f022b0c5bc27076ff638a4f85937b72fa295b96228511b191ac68fc058280a2803880808380f35b606490602086519162461bcd60e51b8352820152601160248201527030baba3437b934bd32b21038363ab3b4b760791b6044820152fd5b61038b915060203d81116102485761023a818361061b565b386102f9565b86513d87823e3d90fd5b5080fd5b50903461025d578260031936011261025d576001600160a01b036103e7307f00000000000000000000000000000000000000000000000000000000000000008316141561066b565b7f360894a13ba1a3210667c828492db98dca3e2076cc3735a920a3ca505d382bbc8054927f000000000000000000000000000000000000000000000000000000000000000054928084169416948486146104a657841561046b575050557fd23ce5645530506727523fe6d7939e72bb49102454460bc72f0f5baec60ac7188380a380f35b906020606492519162461bcd60e51b835282015260156024820152746c6f6769632061646472657373206973207a65726f60581b6044820152fd5b906020606492519162461bcd60e51b835282015260156024820152746c6f67696320616464726573732069732073616d6560581b6044820152fd5b6105d1565b50903461025d57600319913683011261025d57359067ffffffffffffffff821161025d576101609136030112156106ac5780fd5b50903461025d57602036600319011261025d5760039035101561039b576020905160018152f35b50903461025d57602036600319011261025d5760039035101561039b5751908152602090f35b8490843461025d57602036600319011261025d573563ffffffff60e01b811680910361025d57632bc9b2eb60e11b14815260209150f35b9181601f840112156105cc5782359167ffffffffffffffff83116105cc57602083818601950101116105cc57565b600080fd5b346105cc5760603660031901126105cc576004356001600160a01b038116036105cc5760443567ffffffffffffffff81116105cc5761061490369060040161059e565b50506106ac565b90601f8019910116810190811067ffffffffffffffff82111761063d57604052565b634e487b7160e01b600052604160045260246000fd5b908160209103126105cc575180151581036105cc5790565b1561067257565b60405162461bcd60e51b81526020600482015260126024820152711bdb9b1e4819195b1959d85d194818d85b1b60721b6044820152606490fd5b60405162461bcd60e51b815260206004820152600b60248201526a1b9bdd081cdd5c1c1bdc9d60aa1b6044820152606490fdfea26469706673582212204efe60623d08dab619f5bcaf640ae01004cffbb9879be9397199d4fcf3c51c5f64736f6c63430008130033",
    "linkReferences": {}
  },
  "methodIdentifiers": {
    "getHookCallType(uint8)": "310ed931",
    "guardHook((address,uint256,bytes,bytes,uint256,uint256,uint256,uint256,uint256,bytes,bytes),bytes32)": "bccbbf94",
    "isHookCall(uint8)": "ba38419a",
    "postHook(address,uint256,bytes)": "ca5ce119",
    "preHook(address,uint256,bytes)": "aa32a3f0",
    "supportsInterface(bytes4)": "01ffc9a7",
    "upgrade()": "d55ec697",
    "walletDeInit()": "e335a37a",
    "walletInit(bytes)": "f361cef2"
  },
  "id": 48
}