{
  "abi": [
    {
      "inputs": [],
      "stateMutability": "nonpayable",
      "type": "constructor"
    },
    {
      "anonymous": false,
      "inputs": [
        {
          "indexed": true,
          "internalType": "address",
          "name": "wallet",
          "type": "address"
        }
      ],
      "name": "PluginDeInit",
      "type": "event"
    },
    {
      "anonymous": false,
      "inputs": [
        {
          "indexed": true,
          "internalType": "address",
          "name": "wallet",
          "type": "address"
        }
      ],
      "name": "PluginInit",
      "type": "event"
    },
    {
      "anonymous": false,
      "inputs": [
        {
          "indexed": true,
          "internalType": "address",
          "name": "newLogic",
          "type": "address"
        },
        {
          "indexed": true,
          "internalType": "address",
          "name": "oldLogic",
          "type": "address"
        }
      ],
      "name": "Upgrade",
      "type": "event"
    },
    {
      "inputs": [
        {
          "internalType": "enum IPlugin.HookType",
          "name": "hookType",
          "type": "uint8"
        }
      ],
      "name": "getHookCallType",
      "outputs": [
        {
          "internalType": "enum CallHelper.CallType",
          "name": "calltype",
          "type": "uint8"
        }
      ],
      "stateMutability": "view",
      "type": "function"
    },
    {
      "inputs": [
        {
          "components": [
            {
              "internalType": "address",
              "name": "sender",
              "type": "address"
            },
            {
              "internalType": "uint256",
              "name": "nonce",
              "type": "uint256"
            },
            {
              "internalType": "bytes",
              "name": "initCode",
              "type": "bytes"
            },
            {
              "internalType": "bytes",
              "name": "callData",
              "type": "bytes"
            },
            {
              "internalType": "uint256",
              "name": "callGasLimit",
              "type": "uint256"
            },
            {
              "internalType": "uint256",
              "name": "verificationGasLimit",
              "type": "uint256"
            },
            {
              "internalType": "uint256",
              "name": "preVerificationGas",
              "type": "uint256"
            },
            {
              "internalType": "uint256",
              "name": "maxFeePerGas",
              "type": "uint256"
            },
            {
              "internalType": "uint256",
              "name": "maxPriorityFeePerGas",
              "type": "uint256"
            },
            {
              "internalType": "bytes",
              "name": "paymasterAndData",
              "type": "bytes"
            },
            {
              "internalType": "bytes",
              "name": "signature",
              "type": "bytes"
            }
          ],
          "internalType": "struct UserOperation",
          "name": "userOp",
          "type": "tuple"
        },
        {
          "internalType": "bytes32",
          "name": "userOpHash",
          "type": "bytes32"
        }
      ],
      "name": "guardHook",
      "outputs": [],
      "stateMutability": "nonpayable",
      "type": "function"
    },
    {
      "inputs": [
        {
          "internalType": "enum IPlugin.HookType",
          "name": "hookType",
          "type": "uint8"
        }
      ],
      "name": "isHookCall",
      "outputs": [
        {
          "internalType": "bool",
          "name": "",
          "type": "bool"
        }
      ],
      "stateMutability": "view",
      "type": "function"
    },
    {
      "inputs": [
        {
          "internalType": "address",
          "name": "target",
          "type": "address"
        },
        {
          "internalType": "uint256",
          "name": "value",
          "type": "uint256"
        },
        {
          "internalType": "bytes",
          "name": "data",
          "type": "bytes"
        }
      ],
      "name": "postHook",
      "outputs": [],
      "stateMutability": "nonpayable",
      "type": "function"
    },
    {
      "inputs": [
        {
          "internalType": "address",
          "name": "target",
          "type": "address"
        },
        {
          "internalType": "uint256",
          "name": "value",
          "type": "uint256"
        },
        {
          "internalType": "bytes",
          "name": "data",
          "type": "bytes"
        }
      ],
      "name": "preHook",
      "outputs": [],
      "stateMutability": "nonpayable",
      "type": "function"
    },
    {
      "inputs": [
        {
          "internalType": "bytes4",
          "name": "interfaceId",
          "type": "bytes4"
        }
      ],
      "name": "supportsInterface",
      "outputs": [
        {
          "internalType": "bool",
          "name": "",
          "type": "bool"
        }
      ],
      "stateMutability": "view",
      "type": "function"
    },
    {
      "inputs": [],
      "name": "upgrade",
      "outputs": [],
      "stateMutability": "nonpayable",
      "type": "function"
    },
    {
      "inputs": [],
      "name": "walletDeInit",
      "outputs": [],
      "stateMutability": "nonpayable",
      "type": "function"
    },
    {
      "inputs": [
        {
          "internalType": "bytes",
          "name": "data",
          "type": "bytes"
        }
      ],
      "name": "walletInit",
      "outputs": [],
      "stateMutability": "nonpayable",
      "type": "function"
    }
  ],
  "bytecode": {
    "object": "0x60c060405234801561001057600080fd5b507fef6e73ce9cbb8cc7626ccdf51a34e82df5b471758c572b4c1076082f3fa3a8f66080523060a05260805160a0516109ae61008f60003960008181610191015281816102f30152818161040e015281816105c30152610631015260008181610202015281816105850152818161060501526106dc01526109ae6000f3fe608060405234801561001057600080fd5b50600436106100935760003560e01c8063bccbbf9411610066578063bccbbf941461011b578063ca5ce119146100f2578063d55ec69714610129578063e335a37a14610131578063f361cef21461013957600080fd5b806301ffc9a714610098578063310ed931146100d1578063aa32a3f0146100f2578063ba38419a14610107575b600080fd5b6100bc6100a636600461074c565b6001600160e01b031916632bc9b2eb60e11b1490565b60405190151581526020015b60405180910390f35b6100e56100df36600461077d565b50600090565b6040516100c8919061079e565b610105610100366004610824565b61014c565b005b6100bc61011536600461077d565b50600190565b610105610100366004610880565b610105610187565b6101056102cd565b6101056101473660046108cb565b6103e9565b60405162461bcd60e51b815260206004820152600b60248201526a1b9bdd081cdd5c1c1bdc9d60aa1b60448201526064015b60405180910390fd5b6001600160a01b037f00000000000000000000000000000000000000000000000000000000000000001630036101cf5760405162461bcd60e51b815260040161017e9061090d565b60006101f97f360894a13ba1a3210667c828492db98dca3e2076cc3735a920a3ca505d382bbc5490565b905060006102257f00000000000000000000000000000000000000000000000000000000000000005490565b9050806001600160a01b0316826001600160a01b0316036102805760405162461bcd60e51b81526020600482015260156024820152746c6f67696320616464726573732069732073616d6560581b604482015260640161017e565b6102898161050b565b816001600160a01b0316816001600160a01b03167fd23ce5645530506727523fe6d7939e72bb49102454460bc72f0f5baec60ac71860405160405180910390a35050565b336102d78161057d565b156103e657604051631235ec7560e21b81526001600160a01b037f0000000000000000000000000000000000000000000000000000000000000000811660048301528216906348d7b1d4906024016020604051808303816000875af1158015610344573d6000803e3d6000fd5b505050506040513d601f19601f820116820180604052508101906103689190610939565b156103a95760405162461bcd60e51b815260206004820152601160248201527030baba3437b934bd32b21038363ab3b4b760791b604482015260640161017e565b6103b16105b9565b6040516001600160a01b038216907fb018677f022b0c5bc27076ff638a4f85937b72fa295b96228511b191ac68fc0590600090a25b50565b336103f38161057d565b61050657604051631235ec7560e21b81526001600160a01b037f0000000000000000000000000000000000000000000000000000000000000000811660048301528216906348d7b1d4906024016020604051808303816000875af115801561045f573d6000803e3d6000fd5b505050506040513d601f19601f820116820180604052508101906104839190610939565b6104c75760405162461bcd60e51b81526020600482015260156024820152743737ba1030baba3437b934bd32b21038363ab3b4b760591b604482015260640161017e565b6104d18383610627565b6040516001600160a01b038216907f23d8d4885a34928c88f35c93e72488e155fbb7644d2812d92b0216e238da32f290600090a25b505050565b6001600160a01b0381166105595760405162461bcd60e51b81526020600482015260156024820152746c6f6769632061646472657373206973207a65726f60581b604482015260640161017e565b7f360894a13ba1a3210667c828492db98dca3e2076cc3735a920a3ca505d382bbc55565b6000806105a87f00000000000000000000000000000000000000000000000000000000000000005490565b6001600160a01b0316141592915050565b6001600160a01b037f00000000000000000000000000000000000000000000000000000000000000001630036106015760405162461bcd60e51b815260040161017e9061090d565b60007f000000000000000000000000000000000000000000000000000000000000000055565b6001600160a01b037f000000000000000000000000000000000000000000000000000000000000000016300361066f5760405162461bcd60e51b815260040161017e9061090d565b600061067d8284018461095b565b90506001600160a01b038116156106d65760405162461bcd60e51b815260206004820152601960248201527f6c6f6769632061646472657373206973206e6f74207a65726f00000000000000604482015260640161017e565b610506817f00000000000000000000000000000000000000000000000000000000000000006001600160a01b0382166107495760405162461bcd60e51b81526020600482015260156024820152746c6f6769632061646472657373206973207a65726f60581b604482015260640161017e565b55565b60006020828403121561075e57600080fd5b81356001600160e01b03198116811461077657600080fd5b9392505050565b60006020828403121561078f57600080fd5b81356003811061077657600080fd5b60208101600483106107c057634e487b7160e01b600052602160045260246000fd5b91905290565b6001600160a01b03811681146103e657600080fd5b60008083601f8401126107ed57600080fd5b50813567ffffffffffffffff81111561080557600080fd5b60208301915083602082850101111561081d57600080fd5b9250929050565b6000806000806060858703121561083a57600080fd5b8435610845816107c6565b935060208501359250604085013567ffffffffffffffff81111561086857600080fd5b610874878288016107db565b95989497509550505050565b6000806040838503121561089357600080fd5b823567ffffffffffffffff8111156108aa57600080fd5b830161016081860312156108bd57600080fd5b946020939093013593505050565b600080602083850312156108de57600080fd5b823567ffffffffffffffff8111156108f557600080fd5b610901858286016107db565b90969095509350505050565b6020808252601290820152711bdb9b1e4819195b1959d85d194818d85b1b60721b604082015260600190565b60006020828403121561094b57600080fd5b8151801515811461077657600080fd5b60006020828403121561096d57600080fd5b8135610776816107c656fea264697066735822122051b62bea1bd8505b6167c49110343c976be4ccbe27931bf0759fe0038ceca9da64736f6c63430008110033",
    "linkReferences": {}
  },
  "methodIdentifiers": {
    "getHookCallType(uint8)": "310ed931",
    "guardHook((address,uint256,bytes,bytes,uint256,uint256,uint256,uint256,uint256,bytes,bytes),bytes32)": "bccbbf94",
    "isHookCall(uint8)": "ba38419a",
    "postHook(address,uint256,bytes)": "ca5ce119",
    "preHook(address,uint256,bytes)": "aa32a3f0",
    "supportsInterface(bytes4)": "01ffc9a7",
    "upgrade()": "d55ec697",
    "walletDeInit()": "e335a37a",
    "walletInit(bytes)": "f361cef2"
  },
  "id": 43
}