{
  "abi": [
    {
      "inputs": [
        {
          "internalType": "contract IEntryPoint",
          "name": "anEntryPoint",
          "type": "address"
        },
        {
          "internalType": "address",
          "name": "defaultModuleManager",
          "type": "address"
        }
      ],
      "stateMutability": "nonpayable",
      "type": "constructor"
    },
    {
      "anonymous": false,
      "inputs": [
        {
          "indexed": true,
          "internalType": "bytes32",
          "name": "hash",
          "type": "bytes32"
        }
      ],
      "name": "ApproveHash",
      "type": "event"
    },
    {
      "anonymous": false,
      "inputs": [
        {
          "indexed": true,
          "internalType": "address",
          "name": "fallbackContract",
          "type": "address"
        }
      ],
      "name": "FallbackChanged",
      "type": "event"
    },
    {
      "anonymous": false,
      "inputs": [
        {
          "indexed": false,
          "internalType": "uint8",
          "name": "version",
          "type": "uint8"
        }
      ],
      "name": "Initialized",
      "type": "event"
    },
    {
      "anonymous": false,
      "inputs": [
        {
          "indexed": true,
          "internalType": "address",
          "name": "module",
          "type": "address"
        },
        {
          "indexed": false,
          "internalType": "bytes4[]",
          "name": "selectors",
          "type": "bytes4[]"
        }
      ],
      "name": "ModuleAdded",
      "type": "event"
    },
    {
      "anonymous": false,
      "inputs": [
        {
          "indexed": true,
          "internalType": "address",
          "name": "module",
          "type": "address"
        }
      ],
      "name": "ModuleRemoved",
      "type": "event"
    },
    {
      "anonymous": false,
      "inputs": [
        {
          "indexed": true,
          "internalType": "address",
          "name": "module",
          "type": "address"
        }
      ],
      "name": "ModuleRemovedWithError",
      "type": "event"
    },
    {
      "anonymous": false,
      "inputs": [
        {
          "indexed": true,
          "internalType": "address",
          "name": "owner",
          "type": "address"
        }
      ],
      "name": "OwnerAdded",
      "type": "event"
    },
    {
      "anonymous": false,
      "inputs": [],
      "name": "OwnerCleared",
      "type": "event"
    },
    {
      "anonymous": false,
      "inputs": [
        {
          "indexed": true,
          "internalType": "address",
          "name": "owner",
          "type": "address"
        }
      ],
      "name": "OwnerRemoved",
      "type": "event"
    },
    {
      "anonymous": false,
      "inputs": [
        {
          "indexed": true,
          "internalType": "address",
          "name": "plugin",
          "type": "address"
        }
      ],
      "name": "PluginAdded",
      "type": "event"
    },
    {
      "anonymous": false,
      "inputs": [
        {
          "indexed": true,
          "internalType": "address",
          "name": "plugin",
          "type": "address"
        }
      ],
      "name": "PluginRemoved",
      "type": "event"
    },
    {
      "anonymous": false,
      "inputs": [
        {
          "indexed": true,
          "internalType": "address",
          "name": "plugin",
          "type": "address"
        }
      ],
      "name": "PluginRemovedWithError",
      "type": "event"
    },
    {
      "anonymous": false,
      "inputs": [
        {
          "indexed": true,
          "internalType": "bytes32",
          "name": "hash",
          "type": "bytes32"
        }
      ],
      "name": "RejectHash",
      "type": "event"
    },
    {
      "stateMutability": "payable",
      "type": "fallback"
    },
    {
      "inputs": [],
      "name": "addDeposit",
      "outputs": [],
      "stateMutability": "payable",
      "type": "function"
    },
    {
      "inputs": [
        {
          "internalType": "address",
          "name": "owner",
          "type": "address"
        }
      ],
      "name": "addOwner",
      "outputs": [],
      "stateMutability": "nonpayable",
      "type": "function"
    },
    {
      "inputs": [
        {
          "internalType": "bytes32",
          "name": "hash",
          "type": "bytes32"
        }
      ],
      "name": "approveHash",
      "outputs": [],
      "stateMutability": "nonpayable",
      "type": "function"
    },
    {
      "inputs": [],
      "name": "defaultModuleManager",
      "outputs": [
        {
          "internalType": "address",
          "name": "",
          "type": "address"
        }
      ],
      "stateMutability": "view",
      "type": "function"
    },
    {
      "inputs": [],
      "name": "entryPoint",
      "outputs": [
        {
          "internalType": "contract IEntryPoint",
          "name": "",
          "type": "address"
        }
      ],
      "stateMutability": "view",
      "type": "function"
    },
    {
      "inputs": [
        {
          "internalType": "contract IPlugin",
          "name": "target",
          "type": "address"
        },
        {
          "internalType": "bytes",
          "name": "data",
          "type": "bytes"
        }
      ],
      "name": "execDelegateCall",
      "outputs": [],
      "stateMutability": "nonpayable",
      "type": "function"
    },
    {
      "inputs": [
        {
          "internalType": "bytes",
          "name": "data",
          "type": "bytes"
        }
      ],
      "name": "execFromModule",
      "outputs": [],
      "stateMutability": "nonpayable",
      "type": "function"
    },
    {
      "inputs": [
        {
          "internalType": "address",
          "name": "dest",
          "type": "address"
        },
        {
          "internalType": "uint256",
          "name": "value",
          "type": "uint256"
        },
        {
          "internalType": "bytes",
          "name": "func",
          "type": "bytes"
        }
      ],
      "name": "execute",
      "outputs": [],
      "stateMutability": "nonpayable",
      "type": "function"
    },
    {
      "inputs": [
        {
          "internalType": "address[]",
          "name": "dest",
          "type": "address[]"
        },
        {
          "internalType": "bytes[]",
          "name": "func",
          "type": "bytes[]"
        }
      ],
      "name": "executeBatch",
      "outputs": [],
      "stateMutability": "nonpayable",
      "type": "function"
    },
    {
      "inputs": [
        {
          "internalType": "address[]",
          "name": "dest",
          "type": "address[]"
        },
        {
          "internalType": "uint256[]",
          "name": "value",
          "type": "uint256[]"
        },
        {
          "internalType": "bytes[]",
          "name": "func",
          "type": "bytes[]"
        }
      ],
      "name": "executeBatch",
      "outputs": [],
      "stateMutability": "nonpayable",
      "type": "function"
    },
    {
      "inputs": [],
      "name": "getDeposit",
      "outputs": [
        {
          "internalType": "uint256",
          "name": "",
          "type": "uint256"
        }
      ],
      "stateMutability": "view",
      "type": "function"
    },
    {
      "inputs": [
        {
          "internalType": "address",
          "name": "owner",
          "type": "address"
        }
      ],
      "name": "getNonce",
      "outputs": [
        {
          "internalType": "uint256",
          "name": "",
          "type": "uint256"
        }
      ],
      "stateMutability": "view",
      "type": "function"
    },
    {
      "inputs": [],
      "name": "getNonce",
      "outputs": [
        {
          "internalType": "uint256",
          "name": "",
          "type": "uint256"
        }
      ],
      "stateMutability": "view",
      "type": "function"
    },
    {
      "inputs": [
        {
          "internalType": "address",
          "name": "anOwner",
          "type": "address"
        },
        {
          "internalType": "address",
          "name": "defalutCallbackHandler",
          "type": "address"
        },
        {
          "components": [
            {
              "internalType": "contract IModule",
              "name": "module",
              "type": "address"
            },
            {
              "internalType": "bytes4[]",
              "name": "selectors",
              "type": "bytes4[]"
            },
            {
              "internalType": "bytes",
              "name": "initData",
              "type": "bytes"
            }
          ],
          "internalType": "struct IModuleManager.Module[]",
          "name": "modules",
          "type": "tuple[]"
        },
        {
          "components": [
            {
              "internalType": "contract IPlugin",
              "name": "plugin",
              "type": "address"
            },
            {
              "internalType": "bytes",
              "name": "initData",
              "type": "bytes"
            }
          ],
          "internalType": "struct IPluginManager.Plugin[]",
          "name": "plugins",
          "type": "tuple[]"
        }
      ],
      "name": "initialize",
      "outputs": [],
      "stateMutability": "nonpayable",
      "type": "function"
    },
    {
      "inputs": [
        {
          "internalType": "address",
          "name": "module",
          "type": "address"
        }
      ],
      "name": "isAuthorizedModule",
      "outputs": [
        {
          "internalType": "bool",
          "name": "",
          "type": "bool"
        }
      ],
      "stateMutability": "nonpayable",
      "type": "function"
    },
    {
      "inputs": [
        {
          "internalType": "address",
          "name": "plugin",
          "type": "address"
        }
      ],
      "name": "isAuthorizedPlugin",
      "outputs": [
        {
          "internalType": "bool",
          "name": "",
          "type": "bool"
        }
      ],
      "stateMutability": "nonpayable",
      "type": "function"
    },
    {
      "inputs": [
        {
          "internalType": "address",
          "name": "addr",
          "type": "address"
        }
      ],
      "name": "isOwner",
      "outputs": [
        {
          "internalType": "bool",
          "name": "",
          "type": "bool"
        }
      ],
      "stateMutability": "view",
      "type": "function"
    },
    {
      "inputs": [
        {
          "internalType": "bytes32",
          "name": "hash",
          "type": "bytes32"
        },
        {
          "internalType": "bytes",
          "name": "signature",
          "type": "bytes"
        }
      ],
      "name": "isValidSignature",
      "outputs": [
        {
          "internalType": "bytes4",
          "name": "magicValue",
          "type": "bytes4"
        }
      ],
      "stateMutability": "view",
      "type": "function"
    },
    {
      "inputs": [],
      "name": "listModule",
      "outputs": [
        {
          "internalType": "address[]",
          "name": "modules",
          "type": "address[]"
        },
        {
          "internalType": "bytes4[][]",
          "name": "selectors",
          "type": "bytes4[][]"
        }
      ],
      "stateMutability": "view",
      "type": "function"
    },
    {
      "inputs": [
        {
          "internalType": "address",
          "name": "from",
          "type": "address"
        },
        {
          "internalType": "uint256",
          "name": "limit",
          "type": "uint256"
        }
      ],
      "name": "listOwner",
      "outputs": [
        {
          "internalType": "address[]",
          "name": "owners",
          "type": "address[]"
        }
      ],
      "stateMutability": "view",
      "type": "function"
    },
    {
      "inputs": [],
      "name": "listPlugin",
      "outputs": [
        {
          "internalType": "address[]",
          "name": "plugins",
          "type": "address[]"
        }
      ],
      "stateMutability": "view",
      "type": "function"
    },
    {
      "inputs": [
        {
          "internalType": "bytes32",
          "name": "hash",
          "type": "bytes32"
        }
      ],
      "name": "rejectHash",
      "outputs": [],
      "stateMutability": "nonpayable",
      "type": "function"
    },
    {
      "inputs": [
        {
          "internalType": "address",
          "name": "owner",
          "type": "address"
        }
      ],
      "name": "removeOwner",
      "outputs": [],
      "stateMutability": "nonpayable",
      "type": "function"
    },
    {
      "inputs": [
        {
          "internalType": "address",
          "name": "oldOwner",
          "type": "address"
        },
        {
          "internalType": "address",
          "name": "newOwner",
          "type": "address"
        }
      ],
      "name": "replaceOwner",
      "outputs": [],
      "stateMutability": "nonpayable",
      "type": "function"
    },
    {
      "inputs": [
        {
          "internalType": "address",
          "name": "newOwner",
          "type": "address"
        }
      ],
      "name": "resetOwner",
      "outputs": [],
      "stateMutability": "nonpayable",
      "type": "function"
    },
    {
      "inputs": [
        {
          "internalType": "address",
          "name": "fallbackContract",
          "type": "address"
        }
      ],
      "name": "setFallbackHandler",
      "outputs": [],
      "stateMutability": "nonpayable",
      "type": "function"
    },
    {
      "inputs": [
        {
          "components": [
            {
              "internalType": "address",
              "name": "sender",
              "type": "address"
            },
            {
              "internalType": "uint256",
              "name": "nonce",
              "type": "uint256"
            },
            {
              "internalType": "bytes",
              "name": "initCode",
              "type": "bytes"
            },
            {
              "internalType": "bytes",
              "name": "callData",
              "type": "bytes"
            },
            {
              "internalType": "uint256",
              "name": "callGasLimit",
              "type": "uint256"
            },
            {
              "internalType": "uint256",
              "name": "verificationGasLimit",
              "type": "uint256"
            },
            {
              "internalType": "uint256",
              "name": "preVerificationGas",
              "type": "uint256"
            },
            {
              "internalType": "uint256",
              "name": "maxFeePerGas",
              "type": "uint256"
            },
            {
              "internalType": "uint256",
              "name": "maxPriorityFeePerGas",
              "type": "uint256"
            },
            {
              "internalType": "bytes",
              "name": "paymasterAndData",
              "type": "bytes"
            },
            {
              "internalType": "bytes",
              "name": "signature",
              "type": "bytes"
            }
          ],
          "internalType": "struct UserOperation",
          "name": "userOp",
          "type": "tuple"
        },
        {
          "internalType": "bytes32",
          "name": "userOpHash",
          "type": "bytes32"
        },
        {
          "internalType": "uint256",
          "name": "missingAccountFunds",
          "type": "uint256"
        }
      ],
      "name": "validateUserOp",
      "outputs": [
        {
          "internalType": "uint256",
          "name": "validationData",
          "type": "uint256"
        }
      ],
      "stateMutability": "nonpayable",
      "type": "function"
    },
    {
      "inputs": [
        {
          "internalType": "address payable",
          "name": "withdrawAddress",
          "type": "address"
        },
        {
          "internalType": "uint256",
          "name": "amount",
          "type": "uint256"
        }
      ],
      "name": "withdrawDepositTo",
      "outputs": [],
      "stateMutability": "nonpayable",
      "type": "function"
    },
    {
      "stateMutability": "payable",
      "type": "receive"
    }
  ],
  "bytecode": {
    "object": "0x60c06040523480156200001157600080fd5b50604051620046dc380380620046dc833981016040819052620000349162000134565b6001600160a01b03808316608052811660a0526200005162000059565b505062000173565b600054610100900460ff1615620000c65760405162461bcd60e51b815260206004820152602760248201527f496e697469616c697a61626c653a20636f6e747261637420697320696e697469604482015266616c697a696e6760c81b606482015260840160405180910390fd5b60005460ff908116101562000119576000805460ff191660ff9081179091556040519081527f7f26b83ff96e1f2b6a682f133852f6798a09c465da95921460cefb38474024989060200160405180910390a15b565b6001600160a01b03811681146200013157600080fd5b50565b600080604083850312156200014857600080fd5b825162000155816200011b565b602084015190925062000168816200011b565b809150509250929050565b60805160a0516144fd620001df6000396000818161048c015281816119520152611f210152600081816104220152818161084f015281816109d701528181610a5801528181610cbb01528181610d4e015281816115570152818161173a01526119aa01526144fd6000f3fe6080604052600436106101bb5760003560e01c806373cc802a116100ec578063d4d9bdcd1161008a578063e3b5747511610064578063e3b5747514610538578063f08a032314610558578063f99a98b914610578578063fac783e314610598576101c2565b8063d4d9bdcd146104d8578063d9824fbc146104f8578063e20056e614610518576101c2565b8063b61d27f6116100c6578063b61d27f61461045a578063be8a76091461047a578063c399ec88146104ae578063d087d288146104c3576101c2565b806373cc802a146103d35780637988977e146103f3578063b0d691fe14610413576101c2565b80633a871cdd116101595780634a58db19116101335780634a58db19146103685780634d44560d146103705780636bbd74d3146103905780637065cb48146103b3576101c2565b80633a871cdd1461030857806347e1da2a1461032857806348d7b1d414610348576101c2565b80632d0335ab116101955780632d0335ab146102685780632d17aa33146102965780632f54bf6e146102b8578063399dd463146102e8576101c2565b80631626ba7e146101ea578063173825d91461022857806318dfb3c714610248576101c2565b366101c257005b60013660008037600080366000845afa3d6000803e8080156101e3573d6000f35b3d6000fd5b005b3480156101f657600080fd5b5061020a610205366004613695565b6105b8565b6040516001600160e01b031990911681526020015b60405180910390f35b34801561023457600080fd5b506101e86102433660046136fb565b6106bf565b34801561025457600080fd5b506101e861026336600461375c565b610794565b34801561027457600080fd5b506102886102833660046136fb565b61084a565b60405190815260200161021f565b3480156102a257600080fd5b506102ab6108ee565b60405161021f919061380b565b3480156102c457600080fd5b506102d86102d33660046136fb565b610912565b604051901515815260200161021f565b3480156102f457600080fd5b506102d86103033660046136fb565b61091d565b34801561031457600080fd5b5061028861032336600461381e565b610928565b34801561033457600080fd5b506101e8610343366004613871565b610947565b34801561035457600080fd5b506102d86103633660046136fb565b6109ca565b6101e86109d5565b34801561037c57600080fd5b506101e861038b36600461390a565b610a4e565b34801561039c57600080fd5b506103a5610adf565b60405161021f929190613970565b3480156103bf57600080fd5b506101e86103ce3660046136fb565b610baa565b3480156103df57600080fd5b506101e86103ee3660046136fb565b610c01565b3480156103ff57600080fd5b506101e861040e3660046139e2565b610c1d565b34801561041f57600080fd5b507f00000000000000000000000000000000000000000000000000000000000000005b6040516001600160a01b03909116815260200161021f565b34801561046657600080fd5b506101e8610475366004613a5c565b610c4c565b34801561048657600080fd5b506104427f000000000000000000000000000000000000000000000000000000000000000081565b3480156104ba57600080fd5b50610288610c9b565b3480156104cf57600080fd5b50610288610d27565b3480156104e457600080fd5b506101e86104f3366004613aab565b610d7d565b34801561050457600080fd5b506101e8610513366004613ac4565b610e50565b34801561052457600080fd5b506101e8610533366004613b05565b6110d4565b34801561054457600080fd5b506101e8610553366004613aab565b611161565b34801561056457600080fd5b506101e86105733660046136fb565b611232565b34801561058457600080fd5b506102ab61059336600461390a565b61127a565b3480156105a457600080fd5b506101e86105b3366004613b3e565b611295565b805160009015610657576000806105cf858561146a565b91509150806105eb57506001600160e01b031991506106b99050565b81156106455760006105fc836114db565b90506000816040015165ffffffffffff164211806106255750816020015165ffffffffffff1642105b9050801561064257506001600160e11b031993506106b992505050565b50505b50630b135d3f60e11b91506106b99050565b60008381527f85b0144f2a9423c7a6aa2d14ed97c6169ecf5e55be5627ab77683b168d9ad18a602081905260409091205460018190036106a35750630b135d3f60e11b91506106b99050565b506001600160e01b031991506106b99050565b50505b92915050565b6106c761154c565b6106df600080516020614468833981519152826115fd565b60016000526000805160206144688339815191526020527f322be270ffc629a4590bd7d1b272b01c02bb68141b269eb08eaa21a9e45e1918546001600160a01b031661075d5760405162461bcd60e51b815260206004820152600860248201526737379037bbb732b960c11b60448201526064015b60405180910390fd5b6040516001600160a01b038216907f58619076adf5bb0943d100ef88d52d7c3fd691b19d3a9071b555b651fbf418da90600090a250565b61079c61172f565b60005b83811015610843576108318585838181106107bc576107bc613bb3565b90506020020160208101906107d191906136fb565b60008585858181106107e5576107e5613bb3565b90506020028101906107f79190613bc9565b8080601f0160208091040260200160405190810160405280939291908181526020018383808284376000920191909152506117b792505050565b8061083b81613c0f565b91505061079f565b5050505050565b6000817f0000000000000000000000000000000000000000000000000000000000000000604051631aab3f0d60e11b81523060048201526001600160c01b03831660248201526001600160a01b0391909116906335567e1a90604401602060405180830381865afa1580156108c3573d6000803e3d6000fd5b505050506040513d601f19601f820116820180604052508101906108e79190613c36565b9392505050565b606060008051602061448883398151915261090c81600160ff61183d565b91505090565b60006106b982611928565b60006106b982611944565b600061093261199f565b61093c8484611a19565b90506108e782611a64565b61094f61172f565b60005b858110156109c1576109af87878381811061096f5761096f613bb3565b905060200201602081019061098491906136fb565b86868481811061099657610996613bb3565b905060200201358585858181106107e5576107e5613bb3565b806109b981613c0f565b915050610952565b50505050505050565b60006106b982611ab1565b7f000000000000000000000000000000000000000000000000000000000000000060405163b760faf960e01b81523060048201526001600160a01b03919091169063b760faf99034906024016000604051808303818588803b158015610a3a57600080fd5b505af1158015610843573d6000803e3d6000fd5b610a5661154c565b7f000000000000000000000000000000000000000000000000000000000000000060405163040b850f60e31b81526001600160a01b03848116600483015260248201849052919091169063205c287890604401600060405180830381600087803b158015610ac357600080fd5b505af1158015610ad7573d6000803e3d6000fd5b505050505050565b606080600080516020614448833981519152610afe81600160ff61183d565b92506000805160206144a883398151915260005b8451811015610ba357610b73600160e01b60ff8016846000898681518110610b3c57610b3c613bb3565b60200260200101516001600160a01b03166001600160a01b03168152602001908152602001600020611acb9092919063ffffffff16565b848281518110610b8557610b85613bb3565b60200260200101819052508080610b9b90613c0f565b915050610b12565b5050509091565b610bb261154c565b610bca60008051602061446883398151915282611bb2565b6040516001600160a01b038216907f994a936646fe87ffe4f1e469d3d6aa417d6b855598397f323de5b449f765f0c390600090a250565b610c0961154c565b610c11611ce4565b610c1a81610baa565b50565b610c2561172f565b610c2e82611ab1565b610c3757600080fd5b610c4360028383611d26565b5050565b905090565b610c5461172f565b610c95848484848080601f0160208091040260200160405190810160405280939291908181526020018383808284376000920191909152506117b792505050565b50505050565b6040516370a0823160e01b81523060048201526000906001600160a01b037f000000000000000000000000000000000000000000000000000000000000000016906370a08231906024015b602060405180830381865afa158015610d03573d6000803e3d6000fd5b505050506040513d601f19601f82011682018060405250810190610c479190613c36565b604051631aab3f0d60e11b8152306004820152600060248201819052906001600160a01b037f000000000000000000000000000000000000000000000000000000000000000016906335567e1a90604401610ce6565b610d8561154c565b60008181527f85b0144f2a9423c7a6aa2d14ed97c6169ecf5e55be5627ab77683b168d9ad18a6020819052604090912054600103610e135760405162461bcd60e51b815260206004820152602560248201527f4552433132373148616e646c65723a206861736820616c7265616479206170706044820152641c9bdd995960da1b6064820152608401610754565b600082815260208290526040808220600190555183917fb81b2902afc22dd4d06e3b4818a47a4b34c45475ecd4ca76c06f1a043383c0dc91a25050565b6000610e5f6004828486613c4f565b610e6891613c79565b9050610e743382611f13565b610ec05760405162461bcd60e51b815260206004820152601c60248201527f756e617574686f72697a6564206d6f64756c652073656c6563746f72000000006044820152606401610754565b6331aab5a560e21b6001600160e01b0319821601610eff576000610ee78360048187613c4f565b810190610ef49190613dbf565b9050610c9581612021565b635f9cdb9f60e01b6001600160e01b0319821601610f3e576000610f268360048187613c4f565b810190610f3391906136fb565b9050610c9581612167565b6334c9e25b60e01b6001600160e01b0319821601610f7d576000610f658360048187613c4f565b810190610f729190613e6c565b9050610c9581612273565b6316c9a92760e21b6001600160e01b0319821601610fbc576000610fa48360048187613c4f565b810190610fb191906136fb565b9050610c9581612382565b6324f16c0560e11b6001600160e01b03198216016110035760008080610fe58560048189613c4f565b810190610ff29190613ea0565b925092509250610ad78383836123d3565b63e7204c3960e01b6001600160e01b03198216016110465760008061102b8460048188613c4f565b8101906110389190613fe6565b9150915061084382826123e7565b635c0f12eb60e11b6001600160e01b031982160161108d576000808061106f8560048189613c4f565b81019061107c919061403f565b925092509250610ad7838383612499565b6110cf60013085858080601f016020809104026020016040519081016040528093929190818152602001838380828437600092019190915250611d2692505050565b505050565b6110dc61154c565b6110f56000805160206144688339815191528383612563565b6040516001600160a01b038316907f58619076adf5bb0943d100ef88d52d7c3fd691b19d3a9071b555b651fbf418da90600090a26040516001600160a01b038216907f994a936646fe87ffe4f1e469d3d6aa417d6b855598397f323de5b449f765f0c390600090a25050565b61116961154c565b60008181527f85b0144f2a9423c7a6aa2d14ed97c6169ecf5e55be5627ab77683b168d9ad18a602081905260408220549091036111f65760405162461bcd60e51b815260206004820152602560248201527f4552433132373148616e646c65723a206861736820616c72656164792072656a6044820152641958dd195960da1b6064820152608401610754565b6000828152602082905260408082208290555183917f0d31c89d07093fc009d6c745ee3e051da71c10b1658fc4d17432a8698998f61691a25050565b61123a61154c565b61124381612743565b6040516001600160a01b038216907f224b1729706adad5b4d1b21d074290607c8c0c85c0a46f099cf1a072a408354190600090a250565b60606108e7600080516020614468833981519152848461183d565b600054610100900460ff16158080156112b55750600054600160ff909116105b806112cf5750303b1580156112cf575060005460ff166001145b6113325760405162461bcd60e51b815260206004820152602e60248201527f496e697469616c697a61626c653a20636f6e747261637420697320616c72656160448201526d191e481a5b9a5d1a585b1a5e995960921b6064820152608401610754565b6000805460ff191660011790558015611355576000805461ff0019166101001790555b61135e87610baa565b6001600160a01b038616156113765761137686612743565b60005b848110156113c8576113b686868381811061139657611396613bb3565b90506020028101906113a89190614110565b6113b190614130565b612021565b806113c081613c0f565b915050611379565b5060005b8281101561141b576114098484838181106113e9576113e9613bb3565b90506020028101906113fb919061413c565b61140490614152565b612273565b8061141381613c0f565b9150506113cc565b5080156109c1576000805461ff0019169055604051600181527f7f26b83ff96e1f2b6a682f133852f6798a09c465da95921460cefb38474024989060200160405180910390a150505050505050565b600080600061147884612784565b805193509050600061148a8683612821565b905060008061149d83856020015161286d565b909250905060008160048111156114b6576114b661415e565b146114c457600094506114d0565b6114cd82611928565b94505b505050509250929050565b60408051606081018252600080825260208201819052918101919091528160a081901c65ffffffffffff8116600003611517575065ffffffffffff5b604080516060810182526001600160a01b03909316835260d09490941c602083015265ffffffffffff16928101929092525090565b336001600160a01b037f00000000000000000000000000000000000000000000000000000000000000001681148061158c57506001600160a01b03811630145b8061159b575061159b81611928565b610c1a5760405162461bcd60e51b815260206004820152602860248201527f726571756972652066726f6d20456e747279706f696e74206f72206f776e65726044820152671037b91039b2b63360c11b6064820152608401610754565b919050565b806001816001600160a01b0316116116275760405162461bcd60e51b815260040161075490614174565b6001600160a01b03828116600090815260208590526040902054166116835760405162461bcd60e51b815260206004820152601260248201527161646472657373206e6f742065786973747360701b6044820152606401610754565b60016000908152602084905260409020546001600160a01b03165b6001600160a01b038116600114610c9557826001600160a01b0316816001600160a01b03160361170f576001600160a01b03838116600081815260208790526040808220805495851683529082208054959094166001600160a01b0319958616179093555280549091169055505050565b6001600160a01b039081166000908152602085905260409020541661169e565b336001600160a01b037f00000000000000000000000000000000000000000000000000000000000000001681148061176b575061176b81611928565b610c1a5760405162461bcd60e51b815260206004820181905260248201527f726571756972652066726f6d20456e747279706f696e74206f72206f776e65726044820152606401610754565b6117c28383836128b2565b600080846001600160a01b031684846040516117de91906141c1565b60006040518083038185875af1925050503d806000811461181b576040519150601f19603f3d011682016040523d82523d6000602084013e611820565b606091505b50915091508161183257805160208201fd5b610843858585612aa9565b60606000826001600160401b03811115611859576118596135b8565b604051908082528060200260200182016040528015611882578160200160208202803683370190505b506001600160a01b0380861660009081526020889052604081205492935091165b6001600160a01b0381166001148015906118bc57508482105b1561191d57808383815181106118d4576118d4613bb3565b6001600160a01b0390921660209283029190910190910152816118f681613c0f565b6001600160a01b03928316600090815260208a9052604090205490935090911690506118a3565b509095945050505050565b60006106b9826000805160206144688339815191525b90612ca1565b6000816001600160a01b03167f00000000000000000000000000000000000000000000000000000000000000006001600160a01b03160361198757506001919050565b6106b98260008051602061444883398151915261193e565b336001600160a01b037f00000000000000000000000000000000000000000000000000000000000000001614611a175760405162461bcd60e51b815260206004820152601c60248201527f6163636f756e743a206e6f742066726f6d20456e747279506f696e74000000006044820152606401610754565b565b600080611a3383611a2e610140870187613bc9565b612cf1565b90925090508015611a4b57611a488484612def565b90505b80611a57576001611a5a565b60005b9091179392505050565b8015610c1a57604051600090339060001990849084818181858888f193505050503d8060008114610843576040519150601f19603f3d011682016040523d82523d6000602084013e610843565b60006106b98260008051602061448883398151915261193e565b60606000826001600160401b03811115611ae757611ae76135b8565b604051908082528060200260200182016040528015611b10578160200160208202803683370190505b506001600160e01b031985166000908152602087905260408120549192509060e01b5b6001600160e01b03198116600160e01b14801590611b5057508482105b1561191d5780838381518110611b6857611b68613bb3565b6001600160e01b03199092166020928302919091019091015281611b8b81613c0f565b6001600160e01b03199092166000908152602089905260409020549192505060e01b611b33565b806001816001600160a01b031611611bdc5760405162461bcd60e51b815260040161075490614174565b6001600160a01b038281166000908152602085905260409020541615611c3d5760405162461bcd60e51b81526020600482015260166024820152756164647265737320616c72656164792065786973747360501b6044820152606401610754565b60016000908152602084905260409020546001600160a01b031680611c9e57600160008181526020869052604080822080546001600160a01b0388166001600160a01b03199182168117909255908352912080549091169091179055610c95565b60016000908152602094909452604080852080546001600160a01b039586166001600160a01b031991821681179092559086529420805491909316931692909217905550565b611cfb600080516020614468833981519152612ff0565b6040517fe8914930ff5a10c90f8c16e9d4953a65c1435787664c6962e964f2013a0e500a90600090a1565b60006001846003811115611d3c57611d3c61415e565b03611da657826001600160a01b031682604051611d5991906141c1565b6000604051808303816000865af19150503d8060008114611d96576040519150601f19603f3d011682016040523d82523d6000602084013e611d9b565b606091505b505080915050611ec6565b6002846003811115611dba57611dba61415e565b03611e1257826001600160a01b031682604051611dd791906141c1565b600060405180830381855af49150503d8060008114611d96576040519150601f19603f3d011682016040523d82523d6000602084013e611d9b565b6003846003811115611e2657611e2661415e565b03611e7e57826001600160a01b031682604051611e4391906141c1565b600060405180830381855afa9150503d8060008114611d96576040519150601f19603f3d011682016040523d82523d6000602084013e611d9b565b60405162461bcd60e51b815260206004820152601d60248201527f43616c6c48656c7065723a20494e56414c49445f43414c4c5f545950450000006044820152606401610754565b80610c955760405162461bcd60e51b815260206004820152601760248201527f43616c6c48656c7065723a2043414c4c5f4641494c45440000000000000000006044820152606401610754565b6000826001600160a01b03167f00000000000000000000000000000000000000000000000000000000000000006001600160a01b0316148015611fb657506001600160e01b03198216630e554a5b60e21b1480611f8057506001600160e01b0319821663a063246160e01b145b80611f9b57506001600160e01b0319821663cb361da560e01b145b80611fb657506001600160e01b0319821663293656d960e21b145b15611fc3575060016106b9565b611fdb8360008051602061444883398151915261193e565b611fe7575060006106b9565b6001600160a01b03831660009081526000805160206144a8833981519152602081905260409091206120199084613068565b949350505050565b6000816020015151116120685760405162461bcd60e51b815260206004820152600f60248201526e73656c6563746f727320656d70747960881b6044820152606401610754565b80516000805160206144488339815191526120838183611bb2565b6020838101516001600160a01b03841660009081526000805160206144a883398151915292839052604090206120b8916130da565b835160408086015190516379b0e77960e11b81526001600160a01b039092169163f361cef2916120ea916004016141ff565b600060405180830381600087803b15801561210457600080fd5b505af1158015612118573d6000803e3d6000fd5b50505050826001600160a01b03167f02d0c334c706cd2f08faf7bc03674fc7f3970dd8921776c655069cde33b7fb2985602001516040516121599190614212565b60405180910390a250505050565b60008051602061444883398151915261218081836115fd565b6001600160a01b03821660009081526000805160206144a8833981519152602081905260409091206121b190613161565b826001600160a01b031663e335a37a6040518163ffffffff1660e01b8152600401600060405180830381600087803b1580156121ec57600080fd5b505af19250505080156121fd575060015b61223a576040516001600160a01b038416907f042e9909bdebf41f90bca04e7933acfcec4f616b7834547cd1973db2d467c7ce90600090a2505050565b6040516001600160a01b038416907f0a1ee69f55c33d8467c69ca59ce2007a737a88603d75392972520bf67cb513b890600090a2505050565b80516001600160a01b03811615612330576040516301ffc9a760e01b8152632bc9b2eb60e11b60048201526001600160a01b038216906301ffc9a790602401602060405180830381865afa1580156122cf573d6000803e3d6000fd5b505050506040513d601f19601f820116820180604052508101906122f39190614225565b6123305760405162461bcd60e51b815260206004820152600e60248201526d3ab735b737bbb71038363ab3b4b760911b6044820152606401610754565b6000805160206144888339815191526123498183611bb2565b6040516001600160a01b038316907f49c5bdfe3f492f82069fd409e316805f181989678a8f5e036fa91c572900184c90600090a2505050565b60008051602061448883398151915261239b81836115fd565b6040516001600160a01b038316907f51284fda28afcf93bd679c4a813b5933700648505545b368f84bc5697a63e82b90600090a25050565b6123dc836131d8565b6110cf8383836117b7565b805182511461242e5760405162461bcd60e51b815260206004820152601360248201527277726f6e67206172726179206c656e6774687360681b6044820152606401610754565b60005b82518110156110cf57600083828151811061244e5761244e613bb3565b60200260200101519050612461816131d8565b61248681600085858151811061247957612479613bb3565b60200260200101516117b7565b508061249181613c0f565b915050612431565b805183511480156124ab575081518351145b6124ed5760405162461bcd60e51b815260206004820152601360248201527277726f6e67206172726179206c656e6774687360681b6044820152606401610754565b60005b8351811015610c9557600084828151811061250d5761250d613bb3565b60200260200101519050612520816131d8565b6125508185848151811061253657612536613bb3565b602002602001015185858151811061247957612479613bb3565b508061255b81613c0f565b9150506124f0565b816001816001600160a01b03161161258d5760405162461bcd60e51b815260040161075490614174565b816001816001600160a01b0316116125b75760405162461bcd60e51b815260040161075490614174565b6001600160a01b03848116600090815260208790526040902054166126175760405162461bcd60e51b81526020600482015260166024820152756f6c642061646472657373206e6f742065786973747360501b6044820152606401610754565b6001600160a01b03838116600090815260208790526040902054161561267f5760405162461bcd60e51b815260206004820152601a60248201527f6e6577206164647265737320616c7265616479206578697374730000000000006044820152606401610754565b60016000908152602086905260409020546001600160a01b03165b6001600160a01b038116600114610ad757846001600160a01b0316816001600160a01b031603612723576001600160a01b0390811660009081526020879052604080822080548488166001600160a01b03199182168117909255888516808552838520805493865293852080548316939096169290921790945590915280549091169055610843565b6001600160a01b039081166000908152602087905260409020541661269a565b7f85b0144f2a9423c7a6aa2d14ed97c6169ecf5e55be5627ab77683b168d9ad15780546001600160a01b0319166001600160a01b0392909216919091179055565b60408051808201909152600081526060602082015281516041036127bc57506040805180820190915260008152602081019190915290565b6000606060ff60018501511680600081146127de576001811461280257600080fd5b60218601519350604183526041860151602084015260618601516040840152612807565b600080fd5b505060408051808201909152918252602082015292915050565b805160009081036128335750816106b9565b815160405161284f918591602001918252602082015260400190565b60405160208183030381529060405280519060200120905092915050565b60008082516041036128a35760208301516040840151606085015160001a61289787828585613224565b945094505050506128ab565b506000905060025b9250929050565b60008051602061448883398151915260006128d082600160ff61183d565b905060005b8151811015610ad7578181815181106128f0576128f0613bb3565b60200260200101516001600160a01b031663ba38419a60016040518263ffffffff1660e01b81526004016129249190614247565b602060405180830381865afa158015612941573d6000803e3d6000fd5b505050506040513d601f19601f820116820180604052508101906129659190614225565b15612a97576000612a5483838151811061298157612981613bb3565b60200260200101516001600160a01b031663310ed93160016040518263ffffffff1660e01b81526004016129b59190614247565b602060405180830381865afa1580156129d2573d6000803e3d6000fd5b505050506040513d601f19601f820116820180604052508101906129f6919061426f565b848481518110612a0857612a08613bb3565b6020026020010151898989604051602401612a2593929190614290565b60408051601f198184030181529190526020810180516001600160e01b0316630aa32a3f60e41b1790526132e8565b50905080612a955760405162461bcd60e51b815260206004820152600e60248201526d1c1c99521bdbdac819985a5b195960921b6044820152606401610754565b505b80612aa181613c0f565b9150506128d5565b6000805160206144888339815191526000612ac782600160ff61183d565b905060005b8151811015610ad757818181518110612ae757612ae7613bb3565b60200260200101516001600160a01b031663ba38419a60026040518263ffffffff1660e01b8152600401612b1b9190614247565b602060405180830381865afa158015612b38573d6000803e3d6000fd5b505050506040513d601f19601f82011682018060405250810190612b5c9190614225565b15612c8f576000612c4b838381518110612b7857612b78613bb3565b60200260200101516001600160a01b031663310ed93160026040518263ffffffff1660e01b8152600401612bac9190614247565b602060405180830381865afa158015612bc9573d6000803e3d6000fd5b505050506040513d601f19601f82011682018060405250810190612bed919061426f565b848481518110612bff57612bff613bb3565b6020026020010151898989604051602401612c1c93929190614290565b60408051601f198184030181529190526020810180516001600160e01b031663ca5ce11960e01b1790526132e8565b50905080612c8d5760405162461bcd60e51b815260206004820152600f60248201526e1c1bdcdd121bdbdac819985a5b1959608a1b6044820152606401610754565b505b80612c9981613c0f565b915050612acc565b6000816001816001600160a01b031611612ccd5760405162461bcd60e51b815260040161075490614174565b50506001600160a01b03908116600090815260209290925260409091205416151590565b6000806000612d3585858080601f01602080910402602001604051908101604052809392919081815260200183838082843760009201919091525061278492505050565b8051935090506000612d9d612d4a8884612821565b6040517f19457468657265756d205369676e6564204d6573736167653a0a3332000000006020820152603c8101829052600090605c01604051602081830303815290604052805190602001209050919050565b9050600080612db083856020015161286d565b90925090506000816004811115612dc957612dc961415e565b14612dd75760009450612de3565b612de082611928565b94505b50505050935093915050565b600060008051602061448883398151915281612e0e82600160ff61183d565b905060005b8151811015612fe757818181518110612e2e57612e2e613bb3565b60200260200101516001600160a01b031663ba38419a60006040518263ffffffff1660e01b8152600401612e629190614247565b602060405180830381865afa158015612e7f573d6000803e3d6000fd5b505050506040513d601f19601f82011682018060405250810190612ea39190614225565b15612fd5576000612f90838381518110612ebf57612ebf613bb3565b60200260200101516001600160a01b031663310ed93160006040518263ffffffff1660e01b8152600401612ef39190614247565b602060405180830381865afa158015612f10573d6000803e3d6000fd5b505050506040513d601f19601f82011682018060405250810190612f34919061426f565b848481518110612f4657612f46613bb3565b60200260200101518989604051602401612f6192919061432e565b60408051601f198184030181529190526020810180516001600160e01b0316632f32efe560e21b1790526132e8565b50905080612fd35760405162461bcd60e51b815260206004820152601060248201526f19dd585c99121bdbdac819985a5b195960821b6044820152606401610754565b505b80612fdf81613c0f565b915050612e13565b50505092915050565b60016000908152602082905260409020546001600160a01b03165b6001600160a01b038116600114613046576001600160a01b0316600090815260208290526040812080546001600160a01b031916905561300b565b50600160009081526020919091526040902080546001600160a01b0319169055565b600081600160e082901c116130b25760405162461bcd60e51b815260206004820152601060248201526f1bdb9b1e481cd8599948189e5d195ccd60821b6044820152606401610754565b50506001600160e01b0319908116600090815260209290925260409091205460e01b16151590565b60008151116131205760405162461bcd60e51b815260206004820152601260248201527173656c6563746f727320697320656d70747960701b6044820152606401610754565b60005b81518110156110cf5761314f8383838151811061314257613142613bb3565b602002602001015161344a565b8061315981613c0f565b915050613123565b600160e01b60009081526020829052604090205460e01b5b6001600160e01b03198116600160e01b146131b6576001600160e01b0319166000908152602082905260408120805463ffffffff19169055613179565b50600160e01b600090815260209190915260409020805463ffffffff19169055565b306001600160a01b03821603610c1a5760405162461bcd60e51b815260206004820152601160248201527031b0b7103737ba1031b0b6361039b2b63360791b6044820152606401610754565b6000807f7fffffffffffffffffffffffffffffff5d576e7357a4501ddfe92f46681b20a083111561325b57506000905060036132df565b6040805160008082526020820180845289905260ff881692820192909252606081018690526080810185905260019060a0016020604051602081039080840390855afa1580156132af573d6000803e3d6000fd5b5050604051601f1901519150506001600160a01b0381166132d8576000600192509250506132df565b9150600090505b94509492505050565b6000606060018560038111156133005761330061415e565b0361336a57836001600160a01b03168360405161331d91906141c1565b6000604051808303816000865af19150503d806000811461335a576040519150601f19603f3d011682016040523d82523d6000602084013e61335f565b606091505b509092509050613442565b600285600381111561337e5761337e61415e565b036133d657836001600160a01b03168360405161339b91906141c1565b600060405180830381855af49150503d806000811461335a576040519150601f19603f3d011682016040523d82523d6000602084013e61335f565b60038560038111156133ea576133ea61415e565b03611e7e57836001600160a01b03168360405161340791906141c1565b600060405180830381855afa9150503d806000811461335a576040519150601f19603f3d011682016040523d82523d6000602084013e61335f565b935093915050565b80600160e082901c116134925760405162461bcd60e51b815260206004820152601060248201526f1bdb9b1e481cd8599948189e5d195ccd60821b6044820152606401610754565b6001600160e01b031980831660009081526020859052604090205460e01b16156134fe5760405162461bcd60e51b815260206004820152601760248201527f73656c6563746f7220616c7265616479206578697374730000000000000000006044820152606401610754565b600160e01b60009081526020849052604081205460e01b906001600160e01b03198216900361356d57600160e01b600090815260208590526040808220805460e087901c63ffffffff19918216179091556001600160e01b031986168352912080549091166001179055610c95565b600160e01b60009081526020949094526040808520805460e086811c63ffffffff19928316179092556001600160e01b03199095168652942080549190941c92169190911790915550565b634e487b7160e01b600052604160045260246000fd5b604051606081016001600160401b03811182821017156135f0576135f06135b8565b60405290565b604051601f8201601f191681016001600160401b038111828210171561361e5761361e6135b8565b604052919050565b600082601f83011261363757600080fd5b81356001600160401b03811115613650576136506135b8565b613663601f8201601f19166020016135f6565b81815284602083860101111561367857600080fd5b816020850160208301376000918101602001919091529392505050565b600080604083850312156136a857600080fd5b8235915060208301356001600160401b038111156136c557600080fd5b6136d185828601613626565b9150509250929050565b6001600160a01b0381168114610c1a57600080fd5b80356115f8816136db565b60006020828403121561370d57600080fd5b81356108e7816136db565b60008083601f84011261372a57600080fd5b5081356001600160401b0381111561374157600080fd5b6020830191508360208260051b85010111156128ab57600080fd5b6000806000806040858703121561377257600080fd5b84356001600160401b038082111561378957600080fd5b61379588838901613718565b909650945060208701359150808211156137ae57600080fd5b506137bb87828801613718565b95989497509550505050565b600081518084526020808501945080840160005b838110156138005781516001600160a01b0316875295820195908201906001016137db565b509495945050505050565b6020815260006108e760208301846137c7565b60008060006060848603121561383357600080fd5b83356001600160401b0381111561384957600080fd5b8401610160818703121561385c57600080fd5b95602085013595506040909401359392505050565b6000806000806000806060878903121561388a57600080fd5b86356001600160401b03808211156138a157600080fd5b6138ad8a838b01613718565b909850965060208901359150808211156138c657600080fd5b6138d28a838b01613718565b909650945060408901359150808211156138eb57600080fd5b506138f889828a01613718565b979a9699509497509295939492505050565b6000806040838503121561391d57600080fd5b8235613928816136db565b946020939093013593505050565b600081518084526020808501945080840160005b838110156138005781516001600160e01b0319168752958201959082019060010161394a565b60408152600061398360408301856137c7565b6020838203818501528185518084528284019150828160051b85010183880160005b838110156139d357601f198784030185526139c1838351613936565b948601949250908501906001016139a5565b50909998505050505050505050565b600080604083850312156139f557600080fd5b8235613a00816136db565b915060208301356001600160401b038111156136c557600080fd5b60008083601f840112613a2d57600080fd5b5081356001600160401b03811115613a4457600080fd5b6020830191508360208285010111156128ab57600080fd5b60008060008060608587031215613a7257600080fd5b8435613a7d816136db565b93506020850135925060408501356001600160401b03811115613a9f57600080fd5b6137bb87828801613a1b565b600060208284031215613abd57600080fd5b5035919050565b60008060208385031215613ad757600080fd5b82356001600160401b03811115613aed57600080fd5b613af985828601613a1b565b90969095509350505050565b60008060408385031215613b1857600080fd5b8235613b23816136db565b91506020830135613b33816136db565b809150509250929050565b60008060008060008060808789031215613b5757600080fd5b8635613b62816136db565b95506020870135613b72816136db565b945060408701356001600160401b0380821115613b8e57600080fd5b613b9a8a838b01613718565b909650945060608901359150808211156138eb57600080fd5b634e487b7160e01b600052603260045260246000fd5b6000808335601e19843603018112613be057600080fd5b8301803591506001600160401b03821115613bfa57600080fd5b6020019150368190038213156128ab57600080fd5b600060018201613c2f57634e487b7160e01b600052601160045260246000fd5b5060010190565b600060208284031215613c4857600080fd5b5051919050565b60008085851115613c5f57600080fd5b83861115613c6c57600080fd5b5050820193919092039150565b6001600160e01b031981358181169160048510156106b65760049490940360031b84901b1690921692915050565b60006001600160401b03821115613cc057613cc06135b8565b5060051b60200190565b600060608284031215613cdc57600080fd5b613ce46135ce565b90508135613cf1816136db565b81526020828101356001600160401b0380821115613d0e57600080fd5b818501915085601f830112613d2257600080fd5b8135613d35613d3082613ca7565b6135f6565b81815260059190911b83018401908481019088831115613d5457600080fd5b938501935b82851015613d895784356001600160e01b031981168114613d7a5760008081fd5b82529385019390850190613d59565b80868801525050506040850135925080831115613da557600080fd5b5050613db384828501613626565b60408301525092915050565b600060208284031215613dd157600080fd5b81356001600160401b03811115613de757600080fd5b61201984828501613cca565b600060408284031215613e0557600080fd5b604051604081016001600160401b038282108183111715613e2857613e286135b8565b8160405282935084359150613e3c826136db565b90825260208401359080821115613e5257600080fd5b50613e5f85828601613626565b6020830152505092915050565b600060208284031215613e7e57600080fd5b81356001600160401b03811115613e9457600080fd5b61201984828501613df3565b600080600060608486031215613eb557600080fd5b8335613ec0816136db565b92506020840135915060408401356001600160401b03811115613ee257600080fd5b613eee86828701613626565b9150509250925092565b600082601f830112613f0957600080fd5b81356020613f19613d3083613ca7565b82815260059290921b84018101918181019086841115613f3857600080fd5b8286015b84811015613f5c578035613f4f816136db565b8352918301918301613f3c565b509695505050505050565b600082601f830112613f7857600080fd5b81356020613f88613d3083613ca7565b82815260059290921b84018101918181019086841115613fa757600080fd5b8286015b84811015613f5c5780356001600160401b03811115613fca5760008081fd5b613fd88986838b0101613626565b845250918301918301613fab565b60008060408385031215613ff957600080fd5b82356001600160401b038082111561401057600080fd5b61401c86838701613ef8565b9350602085013591508082111561403257600080fd5b506136d185828601613f67565b60008060006060848603121561405457600080fd5b83356001600160401b038082111561406b57600080fd5b61407787838801613ef8565b945060209150818601358181111561408e57600080fd5b8601601f8101881361409f57600080fd5b80356140ad613d3082613ca7565b81815260059190911b8201840190848101908a8311156140cc57600080fd5b928501925b828410156140ea578335825292850192908501906140d1565b9650505050604086013591508082111561410357600080fd5b50613eee86828701613f67565b60008235605e1983360301811261412657600080fd5b9190910192915050565b60006106b93683613cca565b60008235603e1983360301811261412657600080fd5b60006106b93683613df3565b634e487b7160e01b600052602160045260246000fd5b6020808252600f908201526e696e76616c6964206164647265737360881b604082015260600190565b60005b838110156141b85781810151838201526020016141a0565b50506000910152565b6000825161412681846020870161419d565b600081518084526141eb81602086016020860161419d565b601f01601f19169290920160200192915050565b6020815260006108e760208301846141d3565b6020815260006108e76020830184613936565b60006020828403121561423757600080fd5b815180151581146108e757600080fd5b602081016003831061426957634e487b7160e01b600052602160045260246000fd5b91905290565b60006020828403121561428157600080fd5b8151600481106108e757600080fd5b60018060a01b03841681528260208201526060604082015260006142b760608301846141d3565b95945050505050565b6000808335601e198436030181126142d757600080fd5b83016020810192503590506001600160401b038111156142f657600080fd5b8036038213156128ab57600080fd5b81835281816020850137506000828201602090810191909152601f909101601f19169091010190565b6040815261434f60408201614342856136f0565b6001600160a01b03169052565b60208301356060820152600061436860408501856142c0565b6101608060808601526143806101a086018385614305565b925061438f60608801886142c0565b9250603f19808786030160a08801526143a9858584614305565b9450608089013560c088015260a089013560e0880152610100935060c089013584880152610120915060e089013582880152610140848a0135818901526143f2838b018b6142c0565b9550925081888703018489015261440a868685614305565b9550614418818b018b6142c0565b955093505080878603016101808801525050614435838383614305565b9350505050826020830152939250505056fe85b0144f2a9423c7a6aa2d14ed97c6169ecf5e55be5627ab77683b168d9ad1bd85b0144f2a9423c7a6aa2d14ed97c6169ecf5e55be5627ab77683b168d9ad15685b0144f2a9423c7a6aa2d14ed97c6169ecf5e55be5627ab77683b168d9ad1f185b0144f2a9423c7a6aa2d14ed97c6169ecf5e55be5627ab77683b168d9ad1bea2646970667358221220ed046c6df8ceb13105451e8c078b3925c378e888b133ac1e9613045fc814f86964736f6c63430008110033",
    "linkReferences": {}
  },
  "methodIdentifiers": {
    "addDeposit()": "4a58db19",
    "addOwner(address)": "7065cb48",
    "approveHash(bytes32)": "d4d9bdcd",
    "defaultModuleManager()": "be8a7609",
    "entryPoint()": "b0d691fe",
    "execDelegateCall(address,bytes)": "7988977e",
    "execFromModule(bytes)": "d9824fbc",
    "execute(address,uint256,bytes)": "b61d27f6",
    "executeBatch(address[],bytes[])": "18dfb3c7",
    "executeBatch(address[],uint256[],bytes[])": "47e1da2a",
    "getDeposit()": "c399ec88",
    "getNonce()": "d087d288",
    "getNonce(address)": "2d0335ab",
    "initialize(address,address,(address,bytes4[],bytes)[],(address,bytes)[])": "fac783e3",
    "isAuthorizedModule(address)": "399dd463",
    "isAuthorizedPlugin(address)": "48d7b1d4",
    "isOwner(address)": "2f54bf6e",
    "isValidSignature(bytes32,bytes)": "1626ba7e",
    "listModule()": "6bbd74d3",
    "listOwner(address,uint256)": "f99a98b9",
    "listPlugin()": "2d17aa33",
    "rejectHash(bytes32)": "e3b57475",
    "removeOwner(address)": "173825d9",
    "replaceOwner(address,address)": "e20056e6",
    "resetOwner(address)": "73cc802a",
    "setFallbackHandler(address)": "f08a0323",
    "validateUserOp((address,uint256,bytes,bytes,uint256,uint256,uint256,uint256,uint256,bytes,bytes),bytes32,uint256)": "3a871cdd",
    "withdrawDepositTo(address,uint256)": "4d44560d"
  },
  "id": 0
}