{
  "abi": [
    {
      "inputs": [
        {
          "internalType": "contract IEntryPoint",
          "name": "_EntryPoint",
          "type": "address"
        },
        {
          "internalType": "address",
          "name": "_DefaultModuleManager",
          "type": "address"
        }
      ],
      "stateMutability": "nonpayable",
      "type": "constructor"
    },
    {
      "anonymous": false,
      "inputs": [
        {
          "indexed": true,
          "internalType": "bytes32",
          "name": "hash",
          "type": "bytes32"
        }
      ],
      "name": "ApproveHash",
      "type": "event"
    },
    {
      "anonymous": false,
      "inputs": [
        {
          "indexed": true,
          "internalType": "address",
          "name": "fallbackContract",
          "type": "address"
        }
      ],
      "name": "FallbackChanged",
      "type": "event"
    },
    {
      "anonymous": false,
      "inputs": [
        {
          "indexed": false,
          "internalType": "uint8",
          "name": "version",
          "type": "uint8"
        }
      ],
      "name": "Initialized",
      "type": "event"
    },
    {
      "anonymous": false,
      "inputs": [
        {
          "indexed": true,
          "internalType": "address",
          "name": "module",
          "type": "address"
        },
        {
          "indexed": false,
          "internalType": "bytes4[]",
          "name": "selectors",
          "type": "bytes4[]"
        }
      ],
      "name": "ModuleAdded",
      "type": "event"
    },
    {
      "anonymous": false,
      "inputs": [
        {
          "indexed": true,
          "internalType": "address",
          "name": "module",
          "type": "address"
        }
      ],
      "name": "ModuleRemoved",
      "type": "event"
    },
    {
      "anonymous": false,
      "inputs": [
        {
          "indexed": true,
          "internalType": "address",
          "name": "module",
          "type": "address"
        }
      ],
      "name": "ModuleRemovedWithError",
      "type": "event"
    },
    {
      "anonymous": false,
      "inputs": [
        {
          "indexed": true,
          "internalType": "address",
          "name": "owner",
          "type": "address"
        }
      ],
      "name": "OwnerAdded",
      "type": "event"
    },
    {
      "anonymous": false,
      "inputs": [],
      "name": "OwnerCleared",
      "type": "event"
    },
    {
      "anonymous": false,
      "inputs": [
        {
          "indexed": true,
          "internalType": "address",
          "name": "owner",
          "type": "address"
        }
      ],
      "name": "OwnerRemoved",
      "type": "event"
    },
    {
      "anonymous": false,
      "inputs": [
        {
          "indexed": true,
          "internalType": "address",
          "name": "plugin",
          "type": "address"
        }
      ],
      "name": "PluginAdded",
      "type": "event"
    },
    {
      "anonymous": false,
      "inputs": [
        {
          "indexed": true,
          "internalType": "address",
          "name": "plugin",
          "type": "address"
        }
      ],
      "name": "PluginRemoved",
      "type": "event"
    },
    {
      "anonymous": false,
      "inputs": [
        {
          "indexed": true,
          "internalType": "address",
          "name": "plugin",
          "type": "address"
        }
      ],
      "name": "PluginRemovedWithError",
      "type": "event"
    },
    {
      "anonymous": false,
      "inputs": [
        {
          "indexed": true,
          "internalType": "bytes32",
          "name": "hash",
          "type": "bytes32"
        }
      ],
      "name": "RejectHash",
      "type": "event"
    },
    {
      "stateMutability": "payable",
      "type": "fallback"
    },
    {
      "inputs": [],
      "name": "addDeposit",
      "outputs": [],
      "stateMutability": "payable",
      "type": "function"
    },
    {
      "inputs": [
        {
          "internalType": "address",
          "name": "owner",
          "type": "address"
        }
      ],
      "name": "addOwner",
      "outputs": [],
      "stateMutability": "nonpayable",
      "type": "function"
    },
    {
      "inputs": [
        {
          "internalType": "bytes32",
          "name": "hash",
          "type": "bytes32"
        }
      ],
      "name": "approveHash",
      "outputs": [],
      "stateMutability": "nonpayable",
      "type": "function"
    },
    {
      "inputs": [],
      "name": "defaultModuleManager",
      "outputs": [
        {
          "internalType": "address",
          "name": "",
          "type": "address"
        }
      ],
      "stateMutability": "view",
      "type": "function"
    },
    {
      "inputs": [],
      "name": "entryPoint",
      "outputs": [
        {
          "internalType": "contract IEntryPoint",
          "name": "",
          "type": "address"
        }
      ],
      "stateMutability": "view",
      "type": "function"
    },
    {
      "inputs": [
        {
          "internalType": "contract IPlugin",
          "name": "target",
          "type": "address"
        },
        {
          "internalType": "bytes",
          "name": "data",
          "type": "bytes"
        }
      ],
      "name": "execDelegateCall",
      "outputs": [],
      "stateMutability": "nonpayable",
      "type": "function"
    },
    {
      "inputs": [
        {
          "internalType": "bytes",
          "name": "data",
          "type": "bytes"
        }
      ],
      "name": "execFromModule",
      "outputs": [],
      "stateMutability": "nonpayable",
      "type": "function"
    },
    {
      "inputs": [
        {
          "internalType": "address",
          "name": "dest",
          "type": "address"
        },
        {
          "internalType": "uint256",
          "name": "value",
          "type": "uint256"
        },
        {
          "internalType": "bytes",
          "name": "func",
          "type": "bytes"
        }
      ],
      "name": "execute",
      "outputs": [],
      "stateMutability": "nonpayable",
      "type": "function"
    },
    {
      "inputs": [
        {
          "internalType": "address[]",
          "name": "dest",
          "type": "address[]"
        },
        {
          "internalType": "bytes[]",
          "name": "func",
          "type": "bytes[]"
        }
      ],
      "name": "executeBatch",
      "outputs": [],
      "stateMutability": "nonpayable",
      "type": "function"
    },
    {
      "inputs": [
        {
          "internalType": "address[]",
          "name": "dest",
          "type": "address[]"
        },
        {
          "internalType": "uint256[]",
          "name": "value",
          "type": "uint256[]"
        },
        {
          "internalType": "bytes[]",
          "name": "func",
          "type": "bytes[]"
        }
      ],
      "name": "executeBatch",
      "outputs": [],
      "stateMutability": "nonpayable",
      "type": "function"
    },
    {
      "inputs": [],
      "name": "getDeposit",
      "outputs": [
        {
          "internalType": "uint256",
          "name": "",
          "type": "uint256"
        }
      ],
      "stateMutability": "view",
      "type": "function"
    },
    {
      "inputs": [
        {
          "internalType": "address",
          "name": "owner",
          "type": "address"
        }
      ],
      "name": "getNonce",
      "outputs": [
        {
          "internalType": "uint256",
          "name": "",
          "type": "uint256"
        }
      ],
      "stateMutability": "view",
      "type": "function"
    },
    {
      "inputs": [],
      "name": "getNonce",
      "outputs": [
        {
          "internalType": "uint256",
          "name": "",
          "type": "uint256"
        }
      ],
      "stateMutability": "view",
      "type": "function"
    },
    {
      "inputs": [
        {
          "internalType": "address",
          "name": "anOwner",
          "type": "address"
        },
        {
          "internalType": "address",
          "name": "defalutCallbackHandler",
          "type": "address"
        },
        {
          "components": [
            {
              "internalType": "contract IModule",
              "name": "module",
              "type": "address"
            },
            {
              "internalType": "bytes4[]",
              "name": "selectors",
              "type": "bytes4[]"
            },
            {
              "internalType": "bytes",
              "name": "initData",
              "type": "bytes"
            }
          ],
          "internalType": "struct IModuleManager.Module[]",
          "name": "modules",
          "type": "tuple[]"
        },
        {
          "components": [
            {
              "internalType": "contract IPlugin",
              "name": "plugin",
              "type": "address"
            },
            {
              "internalType": "bytes",
              "name": "initData",
              "type": "bytes"
            }
          ],
          "internalType": "struct IPluginManager.Plugin[]",
          "name": "plugins",
          "type": "tuple[]"
        }
      ],
      "name": "initialize",
      "outputs": [],
      "stateMutability": "nonpayable",
      "type": "function"
    },
    {
      "inputs": [
        {
          "internalType": "address",
          "name": "module",
          "type": "address"
        }
      ],
      "name": "isAuthorizedModule",
      "outputs": [
        {
          "internalType": "bool",
          "name": "",
          "type": "bool"
        }
      ],
      "stateMutability": "nonpayable",
      "type": "function"
    },
    {
      "inputs": [
        {
          "internalType": "address",
          "name": "plugin",
          "type": "address"
        }
      ],
      "name": "isAuthorizedPlugin",
      "outputs": [
        {
          "internalType": "bool",
          "name": "",
          "type": "bool"
        }
      ],
      "stateMutability": "nonpayable",
      "type": "function"
    },
    {
      "inputs": [
        {
          "internalType": "address",
          "name": "addr",
          "type": "address"
        }
      ],
      "name": "isOwner",
      "outputs": [
        {
          "internalType": "bool",
          "name": "",
          "type": "bool"
        }
      ],
      "stateMutability": "view",
      "type": "function"
    },
    {
      "inputs": [
        {
          "internalType": "bytes32",
          "name": "hash",
          "type": "bytes32"
        },
        {
          "internalType": "bytes",
          "name": "signature",
          "type": "bytes"
        }
      ],
      "name": "isValidSignature",
      "outputs": [
        {
          "internalType": "bytes4",
          "name": "magicValue",
          "type": "bytes4"
        }
      ],
      "stateMutability": "view",
      "type": "function"
    },
    {
      "inputs": [],
      "name": "listModule",
      "outputs": [
        {
          "internalType": "address[]",
          "name": "modules",
          "type": "address[]"
        },
        {
          "internalType": "bytes4[][]",
          "name": "selectors",
          "type": "bytes4[][]"
        }
      ],
      "stateMutability": "view",
      "type": "function"
    },
    {
      "inputs": [],
      "name": "listOwner",
      "outputs": [
        {
          "internalType": "address[]",
          "name": "owners",
          "type": "address[]"
        }
      ],
      "stateMutability": "view",
      "type": "function"
    },
    {
      "inputs": [],
      "name": "listPlugin",
      "outputs": [
        {
          "internalType": "address[]",
          "name": "plugins",
          "type": "address[]"
        }
      ],
      "stateMutability": "view",
      "type": "function"
    },
    {
      "inputs": [
        {
          "internalType": "bytes32",
          "name": "hash",
          "type": "bytes32"
        }
      ],
      "name": "rejectHash",
      "outputs": [],
      "stateMutability": "nonpayable",
      "type": "function"
    },
    {
      "inputs": [
        {
          "internalType": "address",
          "name": "owner",
          "type": "address"
        }
      ],
      "name": "removeOwner",
      "outputs": [],
      "stateMutability": "nonpayable",
      "type": "function"
    },
    {
      "inputs": [
        {
          "internalType": "address",
          "name": "oldOwner",
          "type": "address"
        },
        {
          "internalType": "address",
          "name": "newOwner",
          "type": "address"
        }
      ],
      "name": "replaceOwner",
      "outputs": [],
      "stateMutability": "nonpayable",
      "type": "function"
    },
    {
      "inputs": [
        {
          "internalType": "address",
          "name": "newOwner",
          "type": "address"
        }
      ],
      "name": "resetOwner",
      "outputs": [],
      "stateMutability": "nonpayable",
      "type": "function"
    },
    {
      "inputs": [
        {
          "internalType": "address",
          "name": "fallbackContract",
          "type": "address"
        }
      ],
      "name": "setFallbackHandler",
      "outputs": [],
      "stateMutability": "nonpayable",
      "type": "function"
    },
    {
      "inputs": [
        {
          "components": [
            {
              "internalType": "address",
              "name": "sender",
              "type": "address"
            },
            {
              "internalType": "uint256",
              "name": "nonce",
              "type": "uint256"
            },
            {
              "internalType": "bytes",
              "name": "initCode",
              "type": "bytes"
            },
            {
              "internalType": "bytes",
              "name": "callData",
              "type": "bytes"
            },
            {
              "internalType": "uint256",
              "name": "callGasLimit",
              "type": "uint256"
            },
            {
              "internalType": "uint256",
              "name": "verificationGasLimit",
              "type": "uint256"
            },
            {
              "internalType": "uint256",
              "name": "preVerificationGas",
              "type": "uint256"
            },
            {
              "internalType": "uint256",
              "name": "maxFeePerGas",
              "type": "uint256"
            },
            {
              "internalType": "uint256",
              "name": "maxPriorityFeePerGas",
              "type": "uint256"
            },
            {
              "internalType": "bytes",
              "name": "paymasterAndData",
              "type": "bytes"
            },
            {
              "internalType": "bytes",
              "name": "signature",
              "type": "bytes"
            }
          ],
          "internalType": "struct UserOperation",
          "name": "userOp",
          "type": "tuple"
        },
        {
          "internalType": "bytes32",
          "name": "userOpHash",
          "type": "bytes32"
        },
        {
          "internalType": "uint256",
          "name": "missingAccountFunds",
          "type": "uint256"
        }
      ],
      "name": "validateUserOp",
      "outputs": [
        {
          "internalType": "uint256",
          "name": "validationData",
          "type": "uint256"
        }
      ],
      "stateMutability": "nonpayable",
      "type": "function"
    },
    {
      "inputs": [
        {
          "internalType": "address payable",
          "name": "withdrawAddress",
          "type": "address"
        },
        {
          "internalType": "uint256",
          "name": "amount",
          "type": "uint256"
        }
      ],
      "name": "withdrawDepositTo",
      "outputs": [],
      "stateMutability": "nonpayable",
      "type": "function"
    },
    {
      "stateMutability": "payable",
      "type": "receive"
    }
  ],
  "bytecode": {
    "object": "0x60c0346200017e57601f620041ec38819003918201601f19168301916001600160401b03831184841017620001835780849260409485528339810103126200017e5780516001600160a01b039182821682036200017e576020015191821682036200017e5760805260a05260005460ff8160081c16620001295760ff80821610620000ed575b60405161405290816200019a82396080518181816105070152818161074e0152818161098c01528181610a2601528181610eae01528181610fd0015281816110640152818161190f01526119be015260a051818181610f7501528181611f04015261267b0152f35b60ff90811916176000557f7f26b83ff96e1f2b6a682f133852f6798a09c465da95921460cefb3847402498602060405160ff8152a13862000085565b60405162461bcd60e51b815260206004820152602760248201527f496e697469616c697a61626c653a20636f6e747261637420697320696e697469604482015266616c697a696e6760c81b6064820152608490fd5b600080fd5b634e487b7160e01b600052604160045260246000fdfe60806040526004361015610015575b36611eb657005b60003560e01c80631626ba7e146101d5578063173825d9146101d057806318dfb3c7146101cb5780632d0335ab146101c65780632d17aa33146101c15780632f54bf6e146101bc578063399dd463146101b75780633a871cdd146101b257806347e1da2a146101ad57806348d7b1d4146101a85780634a58db19146101a35780634d44560d1461019e5780636bbd74d3146101995780637065cb481461019457806373cc802a1461018f5780637988977e1461018a578063a52afc2014610185578063b0d691fe14610180578063b61d27f61461017b578063be8a760914610176578063c399ec8814610171578063d087d2881461016c578063d4d9bdcd14610167578063d9824fbc14610162578063e20056e61461015d578063e3b5747514610158578063f08a0323146101535763fac783e30361000e57611527565b6114c9565b6113ee565b611358565b611194565b6110b0565b611031565b610fa4565b610f5f565b610f0a565b610e98565b610d7f565b610d03565b610c4b565b610c1c565b610b3d565b6109f5565b61097d565b610956565b61089e565b610714565b6106ed565b6106bc565b6105e4565b6104bf565b61041e565b61034f565b6102e3565b634e487b7160e01b600052604160045260246000fd5b6001600160401b03811161020357604052565b6101da565b606081019081106001600160401b0382111761020357604052565b604081019081106001600160401b0382111761020357604052565b90601f801991011681019081106001600160401b0382111761020357604052565b6040519061026c82610223565b565b6001600160401b03811161020357601f01601f191660200190565b9291926102958261026e565b916102a3604051938461023e565b8294818452818301116102c0578281602093846000960137010152565b600080fd5b9080601f830112156102c0578160206102e093359101610289565b90565b346102c05760403660031901126102c0576024356001600160401b0381116102c05761032061031860209236906004016102c5565b600435612e9a565b6040516001600160e01b03199091168152f35b6001600160a01b038116036102c057565b359061026c82610333565b346102c05760203660031901126102c05760043561036c81610333565b61037461190c565b61037d816132c9565b6001600160a01b03908161038f611f83565b5416156103be57167f58619076adf5bb0943d100ef88d52d7c3fd691b19d3a9071b555b651fbf418da600080a2005b60405162461bcd60e51b815260206004820152600860248201526737379037bbb732b960c11b6044820152606490fd5b9181601f840112156102c0578235916001600160401b0383116102c0576020808501948460051b0101116102c057565b346102c05760403660031901126102c0576001600160401b036004358181116102c05761044f9036906004016103ee565b916024359081116102c0576104689036906004016103ee565b91906104726119bb565b60005b84811061047e57005b806104b56104906104ba938887611a48565b3561049a81610333565b6104af6104a8848988611a8a565b3691610289565b90611ad5565b6116c2565b610475565b346102c05760203660031901126102c0576004356104dc81610333565b604051631aab3f0d60e11b81523060048201526001600160c01b0390911660248201526020816044817f00000000000000000000000000000000000000000000000000000000000000006001600160a01b03165afa80156105865761055491600091610558575b506040519081529081906020820190565b0390f35b610579915060203d811161057f575b610571818361023e565b8101906118f1565b38610543565b503d610567565b611900565b60009103126102c057565b90815180825260208080930193019160005b8281106105b6575050505090565b83516001600160a01b0316855293810193928101926001016105a8565b9060206102e0928181520190610596565b346102c0576000806003193601126106b9576105fe61350c565b610607816116fd565b906040906106178251938461023e565b808352601f19610626826116fd565b019360209436868601378091600195868352600080516020613f9d8339815191529182825260018060a01b039488868887205416905b61066e575b8751806105548b826105d3565b8616898111806106b0575b156106ab5790818a979695949392610691838c6121db565b52855283835286868987205416910191929394959661065c565b610661565b50828210610679565b80fd5b346102c05760203660031901126102c05760206106e36004356106de81610333565b613464565b6040519015158152f35b346102c05760203660031901126102c05760206106e360043561070f81610333565b611f02565b346102c0576003196060368201126102c057600435906001600160401b0382116102c057610160826004019183360301126102c0576024357f00000000000000000000000000000000000000000000000000000000000000006001600160a01b03163303610859576107976107926104a86101446000960185611a58565b613ae1565b926107f284519460206107aa8286612fba565b604051828101917f19457468657265756d205369676e6564204d6573736167653a0a3332000000008352603c820152603c81526107e681610208565b51902091015190613eac565b600581101561085457156108445750915b82610833575b50501561082b576000905b61081f604435613e2f565b60405191178152602090f35b600190610814565b61083d9250613cdf565b3880610809565b61084e9150613464565b91610803565b612ae8565b60405162461bcd60e51b815260206004820152601c60248201527f6163636f756e743a206e6f742066726f6d20456e747279506f696e74000000006044820152606490fd5b346102c05760603660031901126102c0576001600160401b036004358181116102c0576108cf9036906004016103ee565b6024358381116102c0576108e79036906004016103ee565b936044359081116102c0576109009036906004016103ee565b926109096119bb565b60005b81811061091557005b806104b561092761095193858a611a48565b3561093181610333565b61093c838b89611a48565b3561094b6104a8858b8a611a8a565b91611cb5565b61090c565b346102c05760203660031901126102c05760206106e360043561097881610333565b61349c565b6000806003193601126106b9577f00000000000000000000000000000000000000000000000000000000000000006001600160a01b031681813b156106b95760405163b760faf960e01b8152306004820152918290602490829034905af18015610586576109e9575080f35b6109f2906101f0565b80f35b346102c057600060403660031901126106b957600435610a1481610333565b610a1c61190c565b6001600160a01b037f0000000000000000000000000000000000000000000000000000000000000000811691839190833b15610a865760449083604051958694859363040b850f60e31b855216600484015260243560248401525af18015610586576109e9575080f35b8280fd5b90815180825260208080930193019160005b828110610aaa575050505090565b83516001600160e01b03191685529381019392810192600101610a9c565b90610adb90604083526040830190610596565b818103602092830152606051808252600581901b8201830192608092600090828101905b848310610b0f5750505050505090565b9091929394958480610b2d600193601f198682030187528a51610a8a565b9801930193019194939290610aff565b346102c0576000806003193601126106b957610b5f610b5a613582565b6135f2565b81905b8051831015610c0c5790610b886001600160a01b03610b8185856121db565b5116611fbe565b9181610ba184600160e01b600052602052604060002090565b549260e093841b5b6001908181871c1115610bd9576001600160e01b031916600090815260208790526040902054851b910190610ba9565b5050610c069350610bed9194959295613a19565b610bf6826121c8565b52610c00816121c8565b506116c2565b91610b62565b6105549060405191829182610ac8565b346102c05760203660031901126102c057610c49600435610c3c81610333565b610c4461190c565b6128bc565b005b346102c05760203660031901126102c057600435610c6881610333565b610c7061190c565b6001600160a01b039081610c82611f83565b54165b600183821611610cdb57610c4982610cae610c9e611f83565b80546001600160a01b0319169055565b7fe8914930ff5a10c90f8c16e9d4953a65c1435787664c6962e964f2013a0e500a600080a1610c4461190c565b610cfc81610ce98593611ff7565b80546001600160a01b0319169055611ff7565b5416610c85565b346102c05760403660031901126102c057600435610d2081610333565b6024356001600160401b0381116102c057610d3f9036906004016102c5565b90610d486119bb565b6001600160a01b031690610d5b8261349c565b156102c057600081610c499360208394519201905af4610d79611aa5565b50613811565b346102c0576000806003193601126106b9576001808252600080516020613f7d833981519152602081815260408085205493949390926001600160a01b0392859287908516815b610e5f575b5050610dd6866116fd565b95610de38651978861023e565b808752601f19610df2826116fd565b0136838901378388855283835288868887205416905b610e19578751806105548b826105d3565b861689811180610e56575b156106ab5790818a979695949392610e3c838c6121db565b528552838352868689872054169101919293949596610e08565b50828210610e24565b94809493929791951685811115610e8c578352818752848487852054169101949081979293949597610dc6565b96919293949096610dcb565b346102c05760003660031901126102c0576040517f00000000000000000000000000000000000000000000000000000000000000006001600160a01b03168152602090f35b9181601f840112156102c0578235916001600160401b0383116102c057602083818601950101116102c057565b346102c05760603660031901126102c057600435610f2781610333565b604435906001600160401b0382116102c057610f55610f4d610c49933690600401610edd565b6104a86119bb565b9060243590611cb5565b346102c05760003660031901126102c0576040517f00000000000000000000000000000000000000000000000000000000000000006001600160a01b03168152602090f35b346102c05760003660031901126102c0576040516370a0823160e01b81523060048201526020816024817f00000000000000000000000000000000000000000000000000000000000000006001600160a01b03165afa801561058657602091600091611014575b50604051908152f35b61102b9150823d811161057f57610571818361023e565b3861100b565b346102c05760003660031901126102c057604051631aab3f0d60e11b8152306004820152600060248201526020816044817f00000000000000000000000000000000000000000000000000000000000000006001600160a01b03165afa8015610586576105549160009161055857506040519081529081906020820190565b346102c05760203660031901126102c0576004356110cc61190c565b600090808252600080516020613fbd83398151915260205260016040832054146111415761111a61111482600052600080516020613fbd833981519152602052604060002090565b60019055565b7fb81b2902afc22dd4d06e3b4818a47a4b34c45475ecd4ca76c06f1a043383c0dc8280a280f35b60405162461bcd60e51b815260206004820152602560248201527f4552433132373148616e646c65723a206861736820616c7265616479206170706044820152641c9bdd995960da1b6064820152608490fd5b346102c05760203660031901126102c0576004356001600160401b0381116102c0576111c4903690600401610edd565b906111d86111d283836121ef565b9061221a565b6111ea6111e58233612679565b612246565b6001600160e01b031916630e554a5b60e21b8103611221575061121482610c499361121c936121fd565b8101906124db565b6120ce565b63a063246160e01b810361125d575061124c61124483610c4994611258946121fd565b8101906124a1565b6001600160a01b031690565b61277b565b63cb361da560e01b810361128a575061127d82610c4993611285936121fd565b8101906124b6565b6129e4565b63293656d960e21b81036112b2575061124c61124483610c49946112ad946121fd565b612aaf565b635b0e93fb60e11b81036112e957506112d282610c49936112da936121fd565b810190612467565b916001600160a01b0316612500565b6318dfb3c760e01b8103611317575061130982610c4993611311936121fd565b810190612425565b906125a0565b6323f0ed1560e11b036113435761133582610c499361133d936121fd565b81019061237a565b916125fc565b61135290610c49923691610289565b3061385d565b346102c05760403660031901126102c05760043561137581610333565b60243561138181610333565b61138961190c565b6113938183613201565b6000916001600160a01b03919082167f58619076adf5bb0943d100ef88d52d7c3fd691b19d3a9071b555b651fbf418da8480a2167f994a936646fe87ffe4f1e469d3d6aa417d6b855598397f323de5b449f765f0c38280a280f35b346102c05760203660031901126102c05760043561140a61190c565b600090808252600080516020613fbd833981519152602052604082205415611476578161144e82600052600080516020613fbd833981519152602052604060002090565b557f0d31c89d07093fc009d6c745ee3e051da71c10b1658fc4d17432a8698998f6168280a280f35b60405162461bcd60e51b815260206004820152602560248201527f4552433132373148616e646c65723a206861736820616c72656164792072656a6044820152641958dd195960da1b6064820152608490fd5b346102c05760203660031901126102c0576004356114e681610333565b6114ee61190c565b6114f781611e2f565b6001600160a01b03167f224b1729706adad5b4d1b21d074290607c8c0c85c0a46f099cf1a072a4083541600080a2005b346102c05760803660031901126102c05760043561154481610333565b60243561155081610333565b6001600160401b03906044358281116102c0576115719036906004016103ee565b6064929192359384116102c05761158f6115d39436906004016103ee565b939092600054966115b760ff8960081c16158099819a611651575b8115611631575b5061165f565b876115ca600160ff196000541617600055565b6116185761185a565b6115d957005b6115e961ff001960005416600055565b604051600181527f7f26b83ff96e1f2b6a682f133852f6798a09c465da95921460cefb384740249890602090a1005b61162c61010061ff00196000541617600055565b61185a565b303b15915081611643575b50386115b1565b6001915060ff16143861163c565b600160ff82161091506115aa565b1561166657565b60405162461bcd60e51b815260206004820152602e60248201527f496e697469616c697a61626c653a20636f6e747261637420697320616c72656160448201526d191e481a5b9a5d1a585b1a5e995960921b6064820152608490fd5b60001981146116d15760010190565b634e487b7160e01b600052601160045260246000fd5b634e487b7160e01b600052603260045260246000fd5b6001600160401b0381116102035760051b60200190565b91906060838203126102c0576040519061172d82610208565b8193803561173a81610333565b83526001600160401b03916020828101358481116102c05783019082601f830112156102c05781359161176c836116fd565b9261177a604051948561023e565b808452828085019160051b830101918583116102c0578301905b8282106117bf5750505085015260408201359283116102c0576040926117ba92016102c5565b910152565b81356001600160e01b0319811681036102c0578152908301908301611794565b91908110156118015760051b81013590603e19813603018212156102c0570190565b6116e7565b91906040838203126102c0576040519061181f82610223565b8193803561182c81610333565b83526020810135916001600160401b0383116102c0576020926117ba92016102c5565b6102e0903690611806565b611869909594959392936128bc565b6001600160a01b0381166118e2575b5060005b8181106118b45750505060005b81811061189557505050565b806104b56112856118aa6118af9486886117df565b61184f565b611889565b8060051b83013590605e19843603018212156102c0576104b561121c6118dd9336908701611714565b61187c565b6118eb90611e2f565b38611878565b908160209103126102c0575190565b6040513d6000823e3d90fd5b337f00000000000000000000000000000000000000000000000000000000000000006001600160a01b03161480156119b2575b80156119a3575b1561194d57565b60405162461bcd60e51b815260206004820152602860248201527f726571756972652066726f6d20456e747279706f696e74206f72206f776e65726044820152671037b91039b2b63360c11b6064820152608490fd5b506119ad33613464565b611946565b5030331461193f565b337f00000000000000000000000000000000000000000000000000000000000000006001600160a01b0316148015611a39575b156119f557565b606460405162461bcd60e51b815260206004820152602060248201527f726571756972652066726f6d20456e747279706f696e74206f72206f776e65726044820152fd5b50611a4333613464565b6119ee565b91908110156118015760051b0190565b903590601e19813603018212156102c057018035906001600160401b0382116102c0576020019181360383136102c057565b9082101561180157611aa19160051b810190611a58565b9091565b3d15611ad0573d90611ab68261026e565b91611ac4604051938461023e565b82523d6000602084013e565b606090565b9190611ae7611ae261350c565b6136a3565b9060005b8251811015611c8357611b1461124c61124c611b0784876121db565b516001600160a01b031690565b90604091825190635d1c20cd60e11b825260209182816004938180611b40878201906001602083019252565b03915afa90811561058657600091611c56575b50611b6a575b5050611b6591506116c2565b611aeb565b9080611ba192611b8361124c61124c611b07888c6121db565b8651808096819463310ed93160e01b83528201906001602083019252565b03915afa90811561058657611b659487611c08938b938988611c0e98600094611c15575b5090611bdb611b07611bf593611c0396976121db565b9551968793630aa32a3f60e41b9085015260248401612b16565b03601f19810185528461023e565b613758565b50612b63565b3880611b59565b611c039450611b07611bf59392611c44611bdb93873d8911611c4f575b611c3c818361023e565b810190612afe565b965092935050611bc5565b503d611c32565b611c769150833d8511611c7c575b611c6e818361023e565b8101906129cc565b38611b53565b503d611c64565b50905060008082516020840182875af192611c9c611aa5565b9315611cad5761026c929350612bde565b835160208501fd5b929190611cc3611ae261350c565b60005b8151811015611dfe57611ce261124c61124c611b0784866121db565b90604091825190635d1c20cd60e11b825260209182816004938180611d0e878201906001602083019252565b03915afa90811561058657600091611de1575b50611d38575b5050611d3391506116c2565b611cc6565b9080611d5192611b8361124c61124c611b07888b6121db565b03915afa90811561058657611d339486611c08938c938b8b89611da799600095611dae575b5090611d8d611b07611bf59493611c0397986121db565b9651978894630aa32a3f60e41b9086015260248501612b3f565b3880611d27565b611c039550611b07611bf5949392611dd5611d8d93883d8a11611c4f57611c3c818361023e565b97509293945050611d76565b611df89150833d8511611c7c57611c6e818361023e565b38611d21565b505060008083516020850184885af193611e16611aa5565b9415611e275761026c939450612d47565b845160208601fd5b6001600160a01b03168015611e72577f85b0144f2a9423c7a6aa2d14ed97c6169ecf5e55be5627ab77683b168d9ad15780546001600160a01b0319169091179055565b606460405162461bcd60e51b815260206004820152602060248201527f66616c6c6261636b436f6e7472616374206973207a65726f20616464726573736044820152fd5b7f85b0144f2a9423c7a6aa2d14ed97c6169ecf5e55be5627ab77683b168d9ad15754600090819081906001600160a01b0316368280378136915afa3d82803e15611efe573d90f35b3d90fd5b7f00000000000000000000000000000000000000000000000000000000000000006001600160a01b0390811690821614611f3f576102e0906134d4565b50600190565b15611f4c57565b60405162461bcd60e51b815260206004820152600f60248201526e73656c6563746f727320656d70747960881b6044820152606490fd5b6001600052600080516020613f7d8339815191526020527f322be270ffc629a4590bd7d1b272b01c02bb68141b269eb08eaa21a9e45e191890565b6001600160a01b031660009081527f85b0144f2a9423c7a6aa2d14ed97c6169ecf5e55be5627ab77683b168d9ad1be6020526040902090565b6001600160a01b03166000908152600080516020613f7d8339815191526020526040902090565b6001600160a01b03166000908152600080516020613f5d8339815191526020526040902090565b6001600160a01b03166000908152600080516020613f9d8339815191526020526040902090565b919082519283825260005b848110612098575050826000602080949584010152601f8019910116010190565b602081830181015184830182015201612077565b9060206102e092818152019061206c565b9060206102e0928181520190610a8a565b60208101906120e08251511515611f45565b80516120f4906001600160a01b031661124c565b916120fe83613026565b61211261210a84611fbe565b825190613877565b8151604090612129906001600160a01b031661124c565b92015191803b156102c0576040516379b0e77960e11b815292600091849182908490829061215a90600483016120ac565b03925af1908115610586577f02d0c334c706cd2f08faf7bc03674fc7f3970dd8921776c655069cde33b7fb29926121aa926121af575b50516040516001600160a01b0390941693918291826120bd565b0390a2565b806121bc6121c2926101f0565b8061058b565b38612190565b6060518110156118015760051b60800190565b80518210156118015760209160051b010190565b906004116102c05790600490565b90929192836004116102c05783116102c057600401916003190190565b6001600160e01b0319903581811693926004811061223757505050565b60040360031b82901b16169150565b1561224d57565b60405162461bcd60e51b815260206004820152601c60248201527f756e617574686f72697a6564206d6f64756c652073656c6563746f72000000006044820152606490fd5b81601f820112156102c0578035916122a9836116fd565b926122b7604051948561023e565b808452602092838086019260051b8201019283116102c0578301905b8282106122e1575050505090565b83809183356122ef81610333565b8152019101906122d3565b9080601f830112156102c057813590612312826116fd565b92612320604051948561023e565b828452602092838086019160051b830101928084116102c057848301915b84831061234e5750505050505090565b82356001600160401b0381116102c057869161236f848480948901016102c5565b81520192019161233e565b90916060828403126102c0576001600160401b039180358381116102c057846123a4918301612292565b936020808301358581116102c05783019082601f830112156102c0578135916123cc836116fd565b926123da604051948561023e565b808452828085019160051b830101918583116102c0578301905b82821061241657505050509360408301359081116102c0576102e092016122fa565b813581529083019083016123f4565b9190916040818403126102c0576001600160401b039281358481116102c05781612450918401612292565b9360208301359081116102c0576102e092016122fa565b916060838303126102c057823561247d81610333565b9260208101359260408201356001600160401b0381116102c0576102e092016102c5565b908160209103126102c057356102e081610333565b906020828203126102c05781356001600160401b0381116102c0576102e09201611806565b906020828203126102c05781356001600160401b0381116102c0576102e09201611714565b9061026c929161250f81612514565b611cb5565b6001600160a01b0316301461252557565b60405162461bcd60e51b815260206004820152601160248201527031b0b7103737ba1031b0b6361039b2b63360791b6044820152606490fd5b1561256557565b60405162461bcd60e51b815260206004820152601360248201527277726f6e67206172726179206c656e6774687360681b6044820152606490fd5b9190916125b0815184511461255e565b60005b81518110156125f6576125f1906104b56001600160a01b036125d583866121db565b51166125e081612514565b6125ea83886121db565b5190611ad5565b6125b3565b50509050565b92919092612616815183518114908161266e575b5061255e565b60005b815181101561266757612662906104b56001600160a01b0361263b83866121db565b511661264681612514565b61265083896121db565b5161265b84886121db565b5191611cb5565b612619565b5050509050565b905085511438612610565b7f00000000000000000000000000000000000000000000000000000000000000006001600160a01b039081169082161480612716575b61270f576126bc816134d4565b15612708576126cd6126fe91611fbe565b916126dd60018260e01c116139da565b63ffffffff60e01b929063ffffffff60e01b16600052602052604060002090565b5460e01b16151590565b5050600090565b5050600190565b506001600160e01b03198216630e554a5b60e21b811490811561276a575b8115612759575b8115612748575b506126af565b63293656d960e21b14905038612742565b63cb361da560e01b8114915061273b565b63a063246160e01b81149150612734565b61278481613358565b61278d81611fbe565b6127a481600160e01b600052602052604060002090565b5460e090811b5b600181831c1161286d5750506127ce90600160e01b600052602052604060002090565b805463ffffffff191690556001600160a01b0316803b156102c05760405163719ad1bd60e11b8152600090818160048183875af1908161285a575b5061283457807f042e9909bdebf41f90bca04e7933acfcec4f616b7834547cd1973db2d467c7ce91a2565b807f0a1ee69f55c33d8467c69ca59ce2007a737a88603d75392972520bf67cb513b891a2565b806121bc612867926101f0565b38612809565b8061288e6128b492859063ffffffff60e01b16600052602052604060002090565b805463ffffffff191690556001600160e01b031916600090815260208490526040902090565b54811b6127ab565b6001600160a01b0381811691906128d560018411612fe8565b806128df83611ff7565b541661298e576128fd6128f0611f83565b546001600160a01b031690565b908116612976575061293c8161293761294f93612918611f83565b80546001600160a01b0319166001600160a01b03909216919091179055565b611ff7565b80546001600160a01b0319166001179055565b7f994a936646fe87ffe4f1e469d3d6aa417d6b855598397f323de5b449f765f0c3600080a2565b6129188261293761298994612918611f83565b61294f565b60405162461bcd60e51b81526020600482015260166024820152756164647265737320616c72656164792065786973747360501b6044820152606490fd5b908160209103126102c0575180151581036102c05790565b516001600160a01b031680612a24575b6129fd816130f3565b7f49c5bdfe3f492f82069fd409e316805f181989678a8f5e036fa91c572900184c600080a2565b6040516301ffc9a760e01b8152632bc9b2eb60e11b6004820152602081602481855afa90811561058657600091612a91575b506129f45760405162461bcd60e51b815260206004820152600e60248201526d3ab735b737bbb71038363ab3b4b760911b6044820152606490fd5b612aa9915060203d8111611c7c57611c6e818361023e565b38612a56565b612ab8816133de565b6001600160a01b03167f51284fda28afcf93bd679c4a813b5933700648505545b368f84bc5697a63e82b600080a2565b634e487b7160e01b600052602160045260246000fd5b908160209103126102c0575160048110156102c05790565b6001600160a01b039091168152600060208201526060604082018190526102e09291019061206c565b6102e0939260609260018060a01b031682526020820152816040820152019061206c565b15612b6a57565b60405162461bcd60e51b815260206004820152600e60248201526d1c1c99521bdbdac819985a5b195960921b6044820152606490fd5b15612ba757565b60405162461bcd60e51b815260206004820152600f60248201526e1c1bdcdd121bdbdac819985a5b1959608a1b6044820152606490fd5b9190612beb611ae261350c565b9060005b825181101561266757612c0b61124c61124c611b0784876121db565b90604091825190635d1c20cd60e11b825260209182816004938180612c37878201906002602083019252565b03915afa90811561058657600091612d2a575b50612c61575b5050612c5c91506116c2565b612bef565b9080612c9892612c7a61124c61124c611b07888c6121db565b8651808096819463310ed93160e01b83528201906002602083019252565b03915afa90811561058657612c5c9487612cec938b938988612cf298600094612cf9575b5090612cd2611b07611bf593611c0396976121db565b955196879363ca5ce11960e01b9085015260248401612b16565b50612ba0565b3880612c50565b611c039450611b07611bf59392612d1f612cd293873d8911611c4f57611c3c818361023e565b965092935050612cbc565b612d419150833d8511611c7c57611c6e818361023e565b38612c4a565b9190612d54611ae261350c565b9260005b8451811015612e9357612d7461124c61124c611b0784896121db565b90604091825190635d1c20cd60e11b825260209182816004938180612da0878201906002602083019252565b03915afa8015610586578991600091612e76575b50612dcc575b505050612dc791506116c2565b612d58565b612e0291612de461124c61124c611b078888966121db565b8651808095819463310ed93160e01b83528201906002602083019252565b03915afa91821561058657612dc794612e5193612cec93600091612e59575b50612e2f611b07878d6121db565b91519263ca5ce11960e01b90840152611c0383611bf58c8c8c60248501612b3f565b388087612dba565b612e709150833d8511611c4f57611c3c818361023e565b38612e21565b612e8d9150843d8611611c7c57611c6e818361023e565b38612db4565b5050505050565b908051612ee25750612ec5600191600052600080516020613fbd833981519152602052604060002090565b5403612ed657630b135d3f60e11b90565b6001600160e01b031990565b612eeb91612f78565b15612f6b5780612f02575b50630b135d3f60e11b90565b612f0b90613e4d565b612f2c612f21604083015165ffffffffffff1690565b65ffffffffffff1690565b4211908115612f4d575b50612f415738612ef6565b6001600160e11b031990565b60200151612f63915065ffffffffffff16612f21565b421038612f36565b506001600160e01b031990565b9190612f86612f9d91613ae1565b6020612f9482805196612fba565b91015190613eac565b60058110156108545715612fb15750600090565b6102e090613464565b905180612fc5575090565b6040519060208201928352604082015260408152612fe281610208565b51902090565b15612fef57565b60405162461bcd60e51b815260206004820152600f60248201526e696e76616c6964206164647265737360881b6044820152606490fd5b6001600160a01b0361303c600183831611612fe8565b806130468361201e565b541661298e576001600052600080516020613f5d83398151915260205261307a600080516020613ffd8339815191526128f0565b9081166130be57506001600052600080516020613f5d83398151915260205261026c9061293c906130b981600080516020613ffd833981519152612918565b61201e565b6001600052600080516020613f5d83398151915260205261026c91612918906130b981600080516020613ffd83398151915284565b6001600160a01b03613109600183831611612fe8565b8061311383612045565b541661298e576001600052600080516020613f9d833981519152602052613147600080516020613fdd8339815191526128f0565b90811661318b57506001600052600080516020613f9d83398151915260205261026c9061293c9061318681600080516020613fdd833981519152612918565b612045565b6001600052600080516020613f9d83398151915260205261026c916129189061318681600080516020613fdd83398151915284565b156131c757565b60405162461bcd60e51b815260206004820152601260248201527161646472657373206e6f742065786973747360701b6044820152606490fd5b919061321461320f84613464565b6131c0565b61321d81613464565b61328457600180805b613231575050509050565b61323d6128f082611ff7565b906001600160a01b0380831690871614613258575081613226565b61026c94955081925092612918610c9e9461293761327b6128f061293796611ff7565b61291885611ff7565b60405162461bcd60e51b815260206004820152601a60248201527f6e6577206164647265737320616c7265616479206578697374730000000000006044820152606490fd5b6001600160a01b038082169291600191906132f89082906132ef90612937868911612fe8565b541615156131c0565b81805b613306575050509050565b6000908281168252600080516020613f7d83398151915260205260408381842054169287841461333957505050826132fb565b610c9e9697508395509081612918939461293796935220541691611ff7565b6001600160a01b0380821692916001919061337e9082906132ef906130b9868911612fe8565b81805b61338c575050509050565b6000908281168252600080516020613f5d8339815191526020526040838184205416928784146133bf5750505082613381565b610c9e969750839550908161291893946130b99693522054169161201e565b6001600160a01b038082169291600191906134049082906132ef90613186868911612fe8565b81805b613412575050509050565b6000908281168252600080516020613f9d8339815191526020526040838184205416928784146134455750505082613407565b610c9e9697508395509081612918939461318696935220541691612045565b6001600160a01b0390811661347b60018211612fe8565b600052600080516020613f7d83398151915260205260406000205416151590565b6001600160a01b039081166134b360018211612fe8565b600052600080516020613f9d83398151915260205260406000205416151590565b6001600160a01b039081166134eb60018211612fe8565b600052600080516020613f5d83398151915260205260406000205416151590565b60016000818152600080516020613f9d8339815191526020818152600080516020613fdd833981519152549293926001600160a01b039260409290918416855b61355a575b50505050505090565b84168581111561357d57958596600052828252858585600020541691019661354c565b613551565b60016000818152600080516020613f5d8339815191526020818152600080516020613ffd833981519152549293926001600160a01b039260409290918416855b6135cf5750505050505090565b84168581111561357d5795859660005282825285858560002054169101966135c2565b6135fb816116fd565b90604061360a8151938461023e565b818352601f19613619836116fd565b01916020923684860137600091600193848452600080516020613f5d8339815191529081815260018060a01b039386858588205416905b613660575b505050505050505090565b8516958787118061369a575b156136955786889761367e838c6121db565b526000528383528686866000205416910196613650565b613655565b5081811061366c565b6136ac816116fd565b9060406136bb8151938461023e565b818352601f196136ca836116fd565b01916020923684860137600091600193848452600080516020613f9d8339815191529081815260018060a01b039386858588205416905b61371057505050505050505090565b85169587871180613745575b156136955786889761372e838c6121db565b526000528383528686866000205416910196613701565b5081811061371c565b6004111561085457565b909160009283926137688161374e565b60018103613783575082602083519301915af1611aa1611aa5565b61378c8161374e565b600281036137a65750602082519201905af4611aa1611aa5565b60039193506137b48161374e565b036137cc578291602082519201905afa611aa1611aa5565b60405162461bcd60e51b815260206004820152601d60248201527f43616c6c48656c7065723a20494e56414c49445f43414c4c5f545950450000006044820152606490fd5b1561381857565b60405162461bcd60e51b815260206004820152601760248201527f43616c6c48656c7065723a2043414c4c5f4641494c45440000000000000000006044820152606490fd5b600061026c92819282602083519301915af1610d79611aa5565b919060005b81518110156125f65761388f81836121db565b519063ffffffff60e01b80831690806001946138b08660e092831c116139da565b6001600160e01b03198416600090815260208a90526040902054901b1661399d576138f26138eb88600160e01b600052602052604060002090565b5460e01b90565b90811661395d57506139478161392e6139579361391c8a600160e01b600052602052604060002090565b9060e01c63ffffffff19825416179055565b879063ffffffff60e01b16600052602052604060002090565b805463ffffffff19166001179055565b0161387c565b61391c8261397f6139989461391c8b600160e01b600052602052604060002090565b889063ffffffff60e01b16600052602052604060002090565b613957565b60405162461bcd60e51b815260206004820152601560248201527462797465733420616c72656164792065786973747360581b6044820152606490fd5b156139e157565b60405162461bcd60e51b815260206004820152601060248201526f1bdb9b1e481cd8599948189e5d195ccd60821b6044820152606490fd5b919091613a25836116fd565b90613a33604051928361023e565b838252601f19613a42856116fd565b01366020840137600090600160e01b82528060205260408220549260e093841b5b6001908181871c1180613abe575b15613ab457613aa990613a8486856121db565b63ffffffff60e01b82169052849063ffffffff60e01b16600052602052604060002090565b54851b930192613a63565b5090955050505050565b50878510613a71565b60405190613ad482610223565b6060602083600081520152565b613ae9613ac7565b508051604103613b0857613afb61025f565b9060008252602082015290565b600181015160ff1691908215613b2557826001146102c057600080fd5b909150606160218201519160416060526041810151608052015160a052613b4a61025f565b9081526060602082015290565b9035601e19823603018112156102c05701602081359101916001600160401b0382116102c05781360383136102c057565b908060209392818452848401376000828201840152601f01601f1916010190565b929190613c9b613c0660209260408752613bd660408801613bc983610344565b6001600160a01b03169052565b838101356060880152613c8b613bef6040830183613b57565b9390610160948560808c01526101a08b0191613b88565b91613c82613c2e613c1a6060840184613b57565b603f198d8803810160a08f01529691613b88565b608083013560c08c015260a083013560e08c01528a6101009660c085013588830152613c7261012060e087013581850152610140998701358a850152860186613b57565b9290918882860301910152613b88565b93810190613b57565b9188840301610180890152613b88565b930152565b15613ca757565b60405162461bcd60e51b815260206004820152601060248201526f19dd585c99121bdbdac819985a5b195960821b6044820152606490fd5b9190600092600090613cf2611ae261350c565b825b8151811015612e9357613d1061124c61124c611b0784866121db565b90604091825190635d1c20cd60e11b825260209182816004938180613d3c878201906000602083019252565b03915afa908115610586578891613e12575b50613d65575b5050613d6091506116c2565b613cf4565b81613d9b91613d7d61124c61124c611b07888b6121db565b8651808095819463310ed93160e01b83528201906000602083019252565b03915afa91821561058657613d6094613dee93613de8938a91613df5575b50613dc7611b07878a6121db565b915192632f32efe560e21b90840152611c0383611bf58d8c60248401613ba9565b50613ca0565b3880613d54565b613e0c9150833d8511611c4f57611c3c818361023e565b38613db9565b613e299150833d8511611c7c57611c6e818361023e565b38613d4e565b80613e375750565b600080808093338219f150613e4a611aa5565b50565b600060408051613e5c81610208565b828152826020820152015265ffffffffffff808260a01c168015613ea5575b60405192613e8884610208565b6001600160a01b038116845260d01c602084015216604082015290565b5080613e7b565b906041815114600014613ed657611aa1916020820151906060604084015193015160001a90613ee0565b5050600090600290565b9291907f7fffffffffffffffffffffffffffffff5d576e7357a4501ddfe92f46681b20a08311613f505791608094939160ff602094604051948552168484015260408301526060820152600093849182805260015afa156105865781516001600160a01b03811615611f3f579190565b5050505060009060039056fe85b0144f2a9423c7a6aa2d14ed97c6169ecf5e55be5627ab77683b168d9ad1bd85b0144f2a9423c7a6aa2d14ed97c6169ecf5e55be5627ab77683b168d9ad15685b0144f2a9423c7a6aa2d14ed97c6169ecf5e55be5627ab77683b168d9ad1f185b0144f2a9423c7a6aa2d14ed97c6169ecf5e55be5627ab77683b168d9ad18a0c3e544e812442a5d9fd078a043b8060ae540606314f62ad13ee75df338fec404078726ac9e96eb989403b3bea6637a510f15a7424088ee24e283ed5940c3625a26469706673582212203cad21e53ca2aed9c401a4612d62497862afb4af748e78d1f76fc0348d30079364736f6c63430008130033",
    "linkReferences": {}
  },
  "methodIdentifiers": {
    "addDeposit()": "4a58db19",
    "addOwner(address)": "7065cb48",
    "approveHash(bytes32)": "d4d9bdcd",
    "defaultModuleManager()": "be8a7609",
    "entryPoint()": "b0d691fe",
    "execDelegateCall(address,bytes)": "7988977e",
    "execFromModule(bytes)": "d9824fbc",
    "execute(address,uint256,bytes)": "b61d27f6",
    "executeBatch(address[],bytes[])": "18dfb3c7",
    "executeBatch(address[],uint256[],bytes[])": "47e1da2a",
    "getDeposit()": "c399ec88",
    "getNonce()": "d087d288",
    "getNonce(address)": "2d0335ab",
    "initialize(address,address,(address,bytes4[],bytes)[],(address,bytes)[])": "fac783e3",
    "isAuthorizedModule(address)": "399dd463",
    "isAuthorizedPlugin(address)": "48d7b1d4",
    "isOwner(address)": "2f54bf6e",
    "isValidSignature(bytes32,bytes)": "1626ba7e",
    "listModule()": "6bbd74d3",
    "listOwner()": "a52afc20",
    "listPlugin()": "2d17aa33",
    "rejectHash(bytes32)": "e3b57475",
    "removeOwner(address)": "173825d9",
    "replaceOwner(address,address)": "e20056e6",
    "resetOwner(address)": "73cc802a",
    "setFallbackHandler(address)": "f08a0323",
    "validateUserOp((address,uint256,bytes,bytes,uint256,uint256,uint256,uint256,uint256,bytes,bytes),bytes32,uint256)": "3a871cdd",
    "withdrawDepositTo(address,uint256)": "4d44560d"
  },
  "id": 0
}