{
  "abi": [
    {
      "inputs": [
        {
          "internalType": "contract IEntryPoint",
          "name": "anEntryPoint",
          "type": "address"
        },
        {
          "internalType": "address",
          "name": "defaultModuleManager",
          "type": "address"
        }
      ],
      "stateMutability": "nonpayable",
      "type": "constructor"
    },
    {
      "anonymous": false,
      "inputs": [
        {
          "indexed": true,
          "internalType": "bytes32",
          "name": "hash",
          "type": "bytes32"
        }
      ],
      "name": "ApproveHash",
      "type": "event"
    },
    {
      "anonymous": false,
      "inputs": [
        {
          "indexed": true,
          "internalType": "address",
          "name": "fallbackContract",
          "type": "address"
        }
      ],
      "name": "FallbackChanged",
      "type": "event"
    },
    {
      "anonymous": false,
      "inputs": [
        {
          "indexed": false,
          "internalType": "uint8",
          "name": "version",
          "type": "uint8"
        }
      ],
      "name": "Initialized",
      "type": "event"
    },
    {
      "anonymous": false,
      "inputs": [
        {
          "indexed": true,
          "internalType": "address",
          "name": "module",
          "type": "address"
        },
        {
          "indexed": false,
          "internalType": "bytes4[]",
          "name": "selectors",
          "type": "bytes4[]"
        }
      ],
      "name": "ModuleAdded",
      "type": "event"
    },
    {
      "anonymous": false,
      "inputs": [
        {
          "indexed": true,
          "internalType": "address",
          "name": "module",
          "type": "address"
        }
      ],
      "name": "ModuleRemoved",
      "type": "event"
    },
    {
      "anonymous": false,
      "inputs": [
        {
          "indexed": true,
          "internalType": "address",
          "name": "module",
          "type": "address"
        }
      ],
      "name": "ModuleRemovedWithError",
      "type": "event"
    },
    {
      "anonymous": false,
      "inputs": [
        {
          "indexed": true,
          "internalType": "address",
          "name": "owner",
          "type": "address"
        }
      ],
      "name": "OwnerAdded",
      "type": "event"
    },
    {
      "anonymous": false,
      "inputs": [],
      "name": "OwnerCleared",
      "type": "event"
    },
    {
      "anonymous": false,
      "inputs": [
        {
          "indexed": true,
          "internalType": "address",
          "name": "owner",
          "type": "address"
        }
      ],
      "name": "OwnerRemoved",
      "type": "event"
    },
    {
      "anonymous": false,
      "inputs": [
        {
          "indexed": true,
          "internalType": "address",
          "name": "plugin",
          "type": "address"
        }
      ],
      "name": "PluginAdded",
      "type": "event"
    },
    {
      "anonymous": false,
      "inputs": [
        {
          "indexed": true,
          "internalType": "address",
          "name": "plugin",
          "type": "address"
        }
      ],
      "name": "PluginRemoved",
      "type": "event"
    },
    {
      "anonymous": false,
      "inputs": [
        {
          "indexed": true,
          "internalType": "address",
          "name": "plugin",
          "type": "address"
        }
      ],
      "name": "PluginRemovedWithError",
      "type": "event"
    },
    {
      "anonymous": false,
      "inputs": [
        {
          "indexed": true,
          "internalType": "bytes32",
          "name": "hash",
          "type": "bytes32"
        }
      ],
      "name": "RejectHash",
      "type": "event"
    },
    {
      "stateMutability": "payable",
      "type": "fallback"
    },
    {
      "inputs": [],
      "name": "addDeposit",
      "outputs": [],
      "stateMutability": "payable",
      "type": "function"
    },
    {
      "inputs": [
        {
          "internalType": "address",
          "name": "owner",
          "type": "address"
        }
      ],
      "name": "addOwner",
      "outputs": [],
      "stateMutability": "nonpayable",
      "type": "function"
    },
    {
      "inputs": [
        {
          "internalType": "bytes32",
          "name": "hash",
          "type": "bytes32"
        }
      ],
      "name": "approveHash",
      "outputs": [],
      "stateMutability": "nonpayable",
      "type": "function"
    },
    {
      "inputs": [],
      "name": "defaultModuleManager",
      "outputs": [
        {
          "internalType": "address",
          "name": "",
          "type": "address"
        }
      ],
      "stateMutability": "view",
      "type": "function"
    },
    {
      "inputs": [],
      "name": "entryPoint",
      "outputs": [
        {
          "internalType": "contract IEntryPoint",
          "name": "",
          "type": "address"
        }
      ],
      "stateMutability": "view",
      "type": "function"
    },
    {
      "inputs": [
        {
          "internalType": "contract IPlugin",
          "name": "target",
          "type": "address"
        },
        {
          "internalType": "bytes",
          "name": "data",
          "type": "bytes"
        }
      ],
      "name": "execDelegateCall",
      "outputs": [],
      "stateMutability": "nonpayable",
      "type": "function"
    },
    {
      "inputs": [
        {
          "internalType": "bytes",
          "name": "data",
          "type": "bytes"
        }
      ],
      "name": "execFromModule",
      "outputs": [],
      "stateMutability": "nonpayable",
      "type": "function"
    },
    {
      "inputs": [
        {
          "internalType": "address",
          "name": "dest",
          "type": "address"
        },
        {
          "internalType": "uint256",
          "name": "value",
          "type": "uint256"
        },
        {
          "internalType": "bytes",
          "name": "func",
          "type": "bytes"
        }
      ],
      "name": "execute",
      "outputs": [],
      "stateMutability": "nonpayable",
      "type": "function"
    },
    {
      "inputs": [
        {
          "internalType": "address[]",
          "name": "dest",
          "type": "address[]"
        },
        {
          "internalType": "bytes[]",
          "name": "func",
          "type": "bytes[]"
        }
      ],
      "name": "executeBatch",
      "outputs": [],
      "stateMutability": "nonpayable",
      "type": "function"
    },
    {
      "inputs": [
        {
          "internalType": "address[]",
          "name": "dest",
          "type": "address[]"
        },
        {
          "internalType": "uint256[]",
          "name": "value",
          "type": "uint256[]"
        },
        {
          "internalType": "bytes[]",
          "name": "func",
          "type": "bytes[]"
        }
      ],
      "name": "executeBatch",
      "outputs": [],
      "stateMutability": "nonpayable",
      "type": "function"
    },
    {
      "inputs": [],
      "name": "getDeposit",
      "outputs": [
        {
          "internalType": "uint256",
          "name": "",
          "type": "uint256"
        }
      ],
      "stateMutability": "view",
      "type": "function"
    },
    {
      "inputs": [
        {
          "internalType": "address",
          "name": "owner",
          "type": "address"
        }
      ],
      "name": "getNonce",
      "outputs": [
        {
          "internalType": "uint256",
          "name": "",
          "type": "uint256"
        }
      ],
      "stateMutability": "view",
      "type": "function"
    },
    {
      "inputs": [],
      "name": "getNonce",
      "outputs": [
        {
          "internalType": "uint256",
          "name": "",
          "type": "uint256"
        }
      ],
      "stateMutability": "view",
      "type": "function"
    },
    {
      "inputs": [
        {
          "internalType": "address",
          "name": "anOwner",
          "type": "address"
        },
        {
          "internalType": "address",
          "name": "defalutCallbackHandler",
          "type": "address"
        },
        {
          "components": [
            {
              "internalType": "contract IModule",
              "name": "module",
              "type": "address"
            },
            {
              "internalType": "bytes4[]",
              "name": "selectors",
              "type": "bytes4[]"
            },
            {
              "internalType": "bytes",
              "name": "initData",
              "type": "bytes"
            }
          ],
          "internalType": "struct IModuleManager.Module[]",
          "name": "modules",
          "type": "tuple[]"
        },
        {
          "components": [
            {
              "internalType": "contract IPlugin",
              "name": "plugin",
              "type": "address"
            },
            {
              "internalType": "bytes",
              "name": "initData",
              "type": "bytes"
            }
          ],
          "internalType": "struct IPluginManager.Plugin[]",
          "name": "plugins",
          "type": "tuple[]"
        }
      ],
      "name": "initialize",
      "outputs": [],
      "stateMutability": "nonpayable",
      "type": "function"
    },
    {
      "inputs": [
        {
          "internalType": "address",
          "name": "module",
          "type": "address"
        }
      ],
      "name": "isAuthorizedModule",
      "outputs": [
        {
          "internalType": "bool",
          "name": "",
          "type": "bool"
        }
      ],
      "stateMutability": "nonpayable",
      "type": "function"
    },
    {
      "inputs": [
        {
          "internalType": "address",
          "name": "plugin",
          "type": "address"
        }
      ],
      "name": "isAuthorizedPlugin",
      "outputs": [
        {
          "internalType": "bool",
          "name": "",
          "type": "bool"
        }
      ],
      "stateMutability": "nonpayable",
      "type": "function"
    },
    {
      "inputs": [
        {
          "internalType": "address",
          "name": "addr",
          "type": "address"
        }
      ],
      "name": "isOwner",
      "outputs": [
        {
          "internalType": "bool",
          "name": "",
          "type": "bool"
        }
      ],
      "stateMutability": "view",
      "type": "function"
    },
    {
      "inputs": [
        {
          "internalType": "bytes32",
          "name": "hash",
          "type": "bytes32"
        },
        {
          "internalType": "bytes",
          "name": "signature",
          "type": "bytes"
        }
      ],
      "name": "isValidSignature",
      "outputs": [
        {
          "internalType": "bytes4",
          "name": "magicValue",
          "type": "bytes4"
        }
      ],
      "stateMutability": "view",
      "type": "function"
    },
    {
      "inputs": [],
      "name": "listModule",
      "outputs": [
        {
          "internalType": "address[]",
          "name": "modules",
          "type": "address[]"
        },
        {
          "internalType": "bytes4[][]",
          "name": "selectors",
          "type": "bytes4[][]"
        }
      ],
      "stateMutability": "view",
      "type": "function"
    },
    {
      "inputs": [
        {
          "internalType": "address",
          "name": "from",
          "type": "address"
        },
        {
          "internalType": "uint256",
          "name": "limit",
          "type": "uint256"
        }
      ],
      "name": "listOwner",
      "outputs": [
        {
          "internalType": "address[]",
          "name": "owners",
          "type": "address[]"
        }
      ],
      "stateMutability": "view",
      "type": "function"
    },
    {
      "inputs": [],
      "name": "listPlugin",
      "outputs": [
        {
          "internalType": "address[]",
          "name": "plugins",
          "type": "address[]"
        }
      ],
      "stateMutability": "view",
      "type": "function"
    },
    {
      "inputs": [
        {
          "internalType": "bytes32",
          "name": "hash",
          "type": "bytes32"
        }
      ],
      "name": "rejectHash",
      "outputs": [],
      "stateMutability": "nonpayable",
      "type": "function"
    },
    {
      "inputs": [
        {
          "internalType": "address",
          "name": "owner",
          "type": "address"
        }
      ],
      "name": "removeOwner",
      "outputs": [],
      "stateMutability": "nonpayable",
      "type": "function"
    },
    {
      "inputs": [
        {
          "internalType": "address",
          "name": "oldOwner",
          "type": "address"
        },
        {
          "internalType": "address",
          "name": "newOwner",
          "type": "address"
        }
      ],
      "name": "replaceOwner",
      "outputs": [],
      "stateMutability": "nonpayable",
      "type": "function"
    },
    {
      "inputs": [
        {
          "internalType": "address",
          "name": "newOwner",
          "type": "address"
        }
      ],
      "name": "resetOwner",
      "outputs": [],
      "stateMutability": "nonpayable",
      "type": "function"
    },
    {
      "inputs": [
        {
          "internalType": "address",
          "name": "fallbackContract",
          "type": "address"
        }
      ],
      "name": "setFallbackHandler",
      "outputs": [],
      "stateMutability": "nonpayable",
      "type": "function"
    },
    {
      "inputs": [
        {
          "components": [
            {
              "internalType": "address",
              "name": "sender",
              "type": "address"
            },
            {
              "internalType": "uint256",
              "name": "nonce",
              "type": "uint256"
            },
            {
              "internalType": "bytes",
              "name": "initCode",
              "type": "bytes"
            },
            {
              "internalType": "bytes",
              "name": "callData",
              "type": "bytes"
            },
            {
              "internalType": "uint256",
              "name": "callGasLimit",
              "type": "uint256"
            },
            {
              "internalType": "uint256",
              "name": "verificationGasLimit",
              "type": "uint256"
            },
            {
              "internalType": "uint256",
              "name": "preVerificationGas",
              "type": "uint256"
            },
            {
              "internalType": "uint256",
              "name": "maxFeePerGas",
              "type": "uint256"
            },
            {
              "internalType": "uint256",
              "name": "maxPriorityFeePerGas",
              "type": "uint256"
            },
            {
              "internalType": "bytes",
              "name": "paymasterAndData",
              "type": "bytes"
            },
            {
              "internalType": "bytes",
              "name": "signature",
              "type": "bytes"
            }
          ],
          "internalType": "struct UserOperation",
          "name": "userOp",
          "type": "tuple"
        },
        {
          "internalType": "bytes32",
          "name": "userOpHash",
          "type": "bytes32"
        },
        {
          "internalType": "uint256",
          "name": "missingAccountFunds",
          "type": "uint256"
        }
      ],
      "name": "validateUserOp",
      "outputs": [
        {
          "internalType": "uint256",
          "name": "validationData",
          "type": "uint256"
        }
      ],
      "stateMutability": "nonpayable",
      "type": "function"
    },
    {
      "inputs": [
        {
          "internalType": "address payable",
          "name": "withdrawAddress",
          "type": "address"
        },
        {
          "internalType": "uint256",
          "name": "amount",
          "type": "uint256"
        }
      ],
      "name": "withdrawDepositTo",
      "outputs": [],
      "stateMutability": "nonpayable",
      "type": "function"
    },
    {
      "stateMutability": "payable",
      "type": "receive"
    }
  ],
  "bytecode": {
    "object": "0x60c06040523480156200001157600080fd5b506040516200454438038062004544833981016040819052620000349162000134565b6001600160a01b03808316608052811660a0526200005162000059565b505062000173565b600054610100900460ff1615620000c65760405162461bcd60e51b815260206004820152602760248201527f496e697469616c697a61626c653a20636f6e747261637420697320696e697469604482015266616c697a696e6760c81b606482015260840160405180910390fd5b60005460ff908116101562000119576000805460ff191660ff9081179091556040519081527f7f26b83ff96e1f2b6a682f133852f6798a09c465da95921460cefb38474024989060200160405180910390a15b565b6001600160a01b03811681146200013157600080fd5b50565b600080604083850312156200014857600080fd5b825162000155816200011b565b602084015190925062000168816200011b565b809150509250929050565b60805160a051614365620001df6000396000818161048c015281816118d00152611ea70152600081816104220152818161084f015281816109d701528181610a5801528181610cbb01528181610d4e01528181611557015281816116c9015261192801526143656000f3fe6080604052600436106101bb5760003560e01c806373cc802a116100ec578063d4d9bdcd1161008a578063e3b5747511610064578063e3b5747514610538578063f08a032314610558578063f99a98b914610578578063fac783e314610598576101c2565b8063d4d9bdcd146104d8578063d9824fbc146104f8578063e20056e614610518576101c2565b8063b61d27f6116100c6578063b61d27f61461045a578063be8a76091461047a578063c399ec88146104ae578063d087d288146104c3576101c2565b806373cc802a146103d35780637988977e146103f3578063b0d691fe14610413576101c2565b80633a871cdd116101595780634a58db19116101335780634a58db19146103685780634d44560d146103705780636bbd74d3146103905780637065cb48146103b3576101c2565b80633a871cdd1461030857806347e1da2a1461032857806348d7b1d414610348576101c2565b80632d0335ab116101955780632d0335ab146102685780632d17aa33146102965780632f54bf6e146102b8578063399dd463146102e8576101c2565b80631626ba7e146101ea578063173825d91461022857806318dfb3c714610248576101c2565b366101c257005b60013660008037600080366000845afa3d6000803e8080156101e3573d6000f35b3d6000fd5b005b3480156101f657600080fd5b5061020a610205366004613526565b6105b8565b6040516001600160e01b031990911681526020015b60405180910390f35b34801561023457600080fd5b506101e861024336600461358c565b6106bf565b34801561025457600080fd5b506101e86102633660046135ed565b610794565b34801561027457600080fd5b5061028861028336600461358c565b61084a565b60405190815260200161021f565b3480156102a257600080fd5b506102ab6108ee565b60405161021f919061369c565b3480156102c457600080fd5b506102d86102d336600461358c565b610912565b604051901515815260200161021f565b3480156102f457600080fd5b506102d861030336600461358c565b61091d565b34801561031457600080fd5b506102886103233660046136af565b610928565b34801561033457600080fd5b506101e8610343366004613702565b610947565b34801561035457600080fd5b506102d861036336600461358c565b6109ca565b6101e86109d5565b34801561037c57600080fd5b506101e861038b36600461379b565b610a4e565b34801561039c57600080fd5b506103a5610adf565b60405161021f929190613801565b3480156103bf57600080fd5b506101e86103ce36600461358c565b610baa565b3480156103df57600080fd5b506101e86103ee36600461358c565b610c01565b3480156103ff57600080fd5b506101e861040e366004613873565b610c1d565b34801561041f57600080fd5b507f00000000000000000000000000000000000000000000000000000000000000005b6040516001600160a01b03909116815260200161021f565b34801561046657600080fd5b506101e86104753660046138ed565b610c4c565b34801561048657600080fd5b506104427f000000000000000000000000000000000000000000000000000000000000000081565b3480156104ba57600080fd5b50610288610c9b565b3480156104cf57600080fd5b50610288610d27565b3480156104e457600080fd5b506101e86104f336600461393c565b610d7d565b34801561050457600080fd5b506101e8610513366004613955565b610e50565b34801561052457600080fd5b506101e8610533366004613996565b6110d4565b34801561054457600080fd5b506101e861055336600461393c565b611161565b34801561056457600080fd5b506101e861057336600461358c565b611232565b34801561058457600080fd5b506102ab61059336600461379b565b61127a565b3480156105a457600080fd5b506101e86105b33660046139cf565b611295565b805160009015610657576000806105cf858561146a565b91509150806105eb57506001600160e01b031991506106b99050565b81156106455760006105fc836114db565b90506000816040015165ffffffffffff164211806106255750816020015165ffffffffffff1642105b9050801561064257506001600160e11b031993506106b992505050565b50505b50630b135d3f60e11b91506106b99050565b60008381527f85b0144f2a9423c7a6aa2d14ed97c6169ecf5e55be5627ab77683b168d9ad18a602081905260409091205460018190036106a35750630b135d3f60e11b91506106b99050565b506001600160e01b031991506106b99050565b50505b92915050565b6106c761154c565b6106df6000805160206142d0833981519152826115fd565b60016000526000805160206142d08339815191526020527f322be270ffc629a4590bd7d1b272b01c02bb68141b269eb08eaa21a9e45e1918546001600160a01b031661075d5760405162461bcd60e51b815260206004820152600860248201526737379037bbb732b960c11b60448201526064015b60405180910390fd5b6040516001600160a01b038216907f58619076adf5bb0943d100ef88d52d7c3fd691b19d3a9071b555b651fbf418da90600090a250565b61079c6116be565b60005b83811015610843576108318585838181106107bc576107bc613a44565b90506020020160208101906107d1919061358c565b60008585858181106107e5576107e5613a44565b90506020028101906107f79190613a5a565b8080601f01602080910402602001604051908101604052809392919081815260200183838082843760009201919091525061174692505050565b8061083b81613aa0565b91505061079f565b5050505050565b6000817f0000000000000000000000000000000000000000000000000000000000000000604051631aab3f0d60e11b81523060048201526001600160c01b03831660248201526001600160a01b0391909116906335567e1a90604401602060405180830381865afa1580156108c3573d6000803e3d6000fd5b505050506040513d601f19601f820116820180604052508101906108e79190613ac7565b9392505050565b60606000805160206142f083398151915261090c81600160ff6117cc565b91505090565b60006106b9826118a6565b60006106b9826118c2565b600061093261191d565b61093c8484611997565b90506108e7826119e2565b61094f6116be565b60005b858110156109c1576109af87878381811061096f5761096f613a44565b9050602002016020810190610984919061358c565b86868481811061099657610996613a44565b905060200201358585858181106107e5576107e5613a44565b806109b981613aa0565b915050610952565b50505050505050565b60006106b982611a2f565b7f000000000000000000000000000000000000000000000000000000000000000060405163b760faf960e01b81523060048201526001600160a01b03919091169063b760faf99034906024016000604051808303818588803b158015610a3a57600080fd5b505af1158015610843573d6000803e3d6000fd5b610a5661154c565b7f000000000000000000000000000000000000000000000000000000000000000060405163040b850f60e31b81526001600160a01b03848116600483015260248201849052919091169063205c287890604401600060405180830381600087803b158015610ac357600080fd5b505af1158015610ad7573d6000803e3d6000fd5b505050505050565b6060806000805160206142b0833981519152610afe81600160ff6117cc565b925060008051602061431083398151915260005b8451811015610ba357610b73600160e01b60ff8016846000898681518110610b3c57610b3c613a44565b60200260200101516001600160a01b03166001600160a01b03168152602001908152602001600020611a499092919063ffffffff16565b848281518110610b8557610b85613a44565b60200260200101819052508080610b9b90613aa0565b915050610b12565b5050509091565b610bb261154c565b610bca6000805160206142d083398151915282611b16565b6040516001600160a01b038216907f994a936646fe87ffe4f1e469d3d6aa417d6b855598397f323de5b449f765f0c390600090a250565b610c0961154c565b610c11611c6a565b610c1a81610baa565b50565b610c256116be565b610c2e82611a2f565b610c3757600080fd5b610c4360028383611cac565b5050565b905090565b610c546116be565b610c95848484848080601f01602080910402602001604051908101604052809392919081815260200183838082843760009201919091525061174692505050565b50505050565b6040516370a0823160e01b81523060048201526000906001600160a01b037f000000000000000000000000000000000000000000000000000000000000000016906370a08231906024015b602060405180830381865afa158015610d03573d6000803e3d6000fd5b505050506040513d601f19601f82011682018060405250810190610c479190613ac7565b604051631aab3f0d60e11b8152306004820152600060248201819052906001600160a01b037f000000000000000000000000000000000000000000000000000000000000000016906335567e1a90604401610ce6565b610d8561154c565b60008181527f85b0144f2a9423c7a6aa2d14ed97c6169ecf5e55be5627ab77683b168d9ad18a6020819052604090912054600103610e135760405162461bcd60e51b815260206004820152602560248201527f4552433132373148616e646c65723a206861736820616c7265616479206170706044820152641c9bdd995960da1b6064820152608401610754565b600082815260208290526040808220600190555183917fb81b2902afc22dd4d06e3b4818a47a4b34c45475ecd4ca76c06f1a043383c0dc91a25050565b6000610e5f6004828486613ae0565b610e6891613b0a565b9050610e743382611e99565b610ec05760405162461bcd60e51b815260206004820152601c60248201527f756e617574686f72697a6564206d6f64756c652073656c6563746f72000000006044820152606401610754565b6331aab5a560e21b6001600160e01b0319821601610eff576000610ee78360048187613ae0565b810190610ef49190613c50565b9050610c9581611fa7565b635f9cdb9f60e01b6001600160e01b0319821601610f3e576000610f268360048187613ae0565b810190610f33919061358c565b9050610c95816120ed565b6334c9e25b60e01b6001600160e01b0319821601610f7d576000610f658360048187613ae0565b810190610f729190613cfd565b9050610c95816121f9565b6316c9a92760e21b6001600160e01b0319821601610fbc576000610fa48360048187613ae0565b810190610fb1919061358c565b9050610c9581612308565b6324f16c0560e11b6001600160e01b03198216016110035760008080610fe58560048189613ae0565b810190610ff29190613d31565b925092509250610ad7838383612359565b63e7204c3960e01b6001600160e01b03198216016110465760008061102b8460048188613ae0565b8101906110389190613e77565b91509150610843828261236d565b635c0f12eb60e11b6001600160e01b031982160161108d576000808061106f8560048189613ae0565b81019061107c9190613ed0565b925092509250610ad783838361241f565b6110cf60013085858080601f016020809104026020016040519081016040528093929190818152602001838380828437600092019190915250611cac92505050565b505050565b6110dc61154c565b6110f56000805160206142d083398151915283836124e9565b6040516001600160a01b038316907f58619076adf5bb0943d100ef88d52d7c3fd691b19d3a9071b555b651fbf418da90600090a26040516001600160a01b038216907f994a936646fe87ffe4f1e469d3d6aa417d6b855598397f323de5b449f765f0c390600090a25050565b61116961154c565b60008181527f85b0144f2a9423c7a6aa2d14ed97c6169ecf5e55be5627ab77683b168d9ad18a602081905260408220549091036111f65760405162461bcd60e51b815260206004820152602560248201527f4552433132373148616e646c65723a206861736820616c72656164792072656a6044820152641958dd195960da1b6064820152608401610754565b6000828152602082905260408082208290555183917f0d31c89d07093fc009d6c745ee3e051da71c10b1658fc4d17432a8698998f61691a25050565b61123a61154c565b61124381612611565b6040516001600160a01b038216907f224b1729706adad5b4d1b21d074290607c8c0c85c0a46f099cf1a072a408354190600090a250565b60606108e76000805160206142d083398151915284846117cc565b600054610100900460ff16158080156112b55750600054600160ff909116105b806112cf5750303b1580156112cf575060005460ff166001145b6113325760405162461bcd60e51b815260206004820152602e60248201527f496e697469616c697a61626c653a20636f6e747261637420697320616c72656160448201526d191e481a5b9a5d1a585b1a5e995960921b6064820152608401610754565b6000805460ff191660011790558015611355576000805461ff0019166101001790555b61135e87610baa565b6001600160a01b038616156113765761137686612611565b60005b848110156113c8576113b686868381811061139657611396613a44565b90506020028101906113a89190613fa1565b6113b190613fc1565b611fa7565b806113c081613aa0565b915050611379565b5060005b8281101561141b576114098484838181106113e9576113e9613a44565b90506020028101906113fb9190613fcd565b61140490613fe3565b6121f9565b8061141381613aa0565b9150506113cc565b5080156109c1576000805461ff0019169055604051600181527f7f26b83ff96e1f2b6a682f133852f6798a09c465da95921460cefb38474024989060200160405180910390a150505050505050565b600080600061147884612652565b805193509050600061148a86836126ef565b905060008061149d83856020015161273b565b909250905060008160048111156114b6576114b6613fef565b146114c457600094506114d0565b6114cd826118a6565b94505b505050509250929050565b60408051606081018252600080825260208201819052918101919091528160a081901c65ffffffffffff8116600003611517575065ffffffffffff5b604080516060810182526001600160a01b03909316835260d09490941c602083015265ffffffffffff16928101929092525090565b336001600160a01b037f00000000000000000000000000000000000000000000000000000000000000001681148061158c57506001600160a01b03811630145b8061159b575061159b816118a6565b610c1a5760405162461bcd60e51b815260206004820152602860248201527f726571756972652066726f6d20456e747279706f696e74206f72206f776e65726044820152671037b91039b2b63360c11b6064820152608401610754565b919050565b6116078282612780565b6116485760405162461bcd60e51b815260206004820152601260248201527161646472657373206e6f742065786973747360701b6044820152606401610754565b60015b6001600160a01b03808216600090815260208590526040902054811690831681036116b7576001600160a01b0390811660008181526020959095526040808620805494841687529086208054949093166001600160a01b03199485161790925590935282541690915550565b905061164b565b336001600160a01b037f0000000000000000000000000000000000000000000000000000000000000000168114806116fa57506116fa816118a6565b610c1a5760405162461bcd60e51b815260206004820181905260248201527f726571756972652066726f6d20456e747279706f696e74206f72206f776e65726044820152606401610754565b6117518383836127f2565b600080846001600160a01b0316848460405161176d9190614029565b60006040518083038185875af1925050503d80600081146117aa576040519150601f19603f3d011682016040523d82523d6000602084013e6117af565b606091505b5091509150816117c157805160208201fd5b6108438585856129e9565b60606000826001600160401b038111156117e8576117e8613449565b604051908082528060200260200182016040528015611811578160200160208202803683370190505b506001600160a01b0380861660009081526020889052604081205492935091165b60016001600160a01b03821611801561184a57508482105b1561189b578083838151811061186257611862613a44565b6001600160a01b039283166020918202929092018101919091529181166000908152918890526040909120546001929092019116611832565b509095945050505050565b60006106b9826000805160206142d08339815191525b90612780565b6000816001600160a01b03167f00000000000000000000000000000000000000000000000000000000000000006001600160a01b03160361190557506001919050565b6106b9826000805160206142b08339815191526118bc565b336001600160a01b037f000000000000000000000000000000000000000000000000000000000000000016146119955760405162461bcd60e51b815260206004820152601c60248201527f6163636f756e743a206e6f742066726f6d20456e747279506f696e74000000006044820152606401610754565b565b6000806119b1836119ac610140870187613a5a565b612be1565b909250905080156119c9576119c68484612cdf565b90505b806119d55760016119d8565b60005b9091179392505050565b8015610c1a57604051600090339060001990849084818181858888f193505050503d8060008114610843576040519150601f19603f3d011682016040523d82523d6000602084013e610843565b60006106b9826000805160206142f08339815191526118bc565b60606000826001600160401b03811115611a6557611a65613449565b604051908082528060200260200182016040528015611a8e578160200160208202803683370190505b506001600160e01b031985166000908152602087905260408120549192509060e01b5b600160e082901c118015611ac457508482105b1561189b5780838381518110611adc57611adc613a44565b6001600160e01b0319928316602091820292909201810191909152911660009081529087905260409020546001919091019060e01b611ab1565b8060016001600160a01b03821611611b625760405162461bcd60e51b815260206004820152600f60248201526e696e76616c6964206164647265737360881b6044820152606401610754565b6001600160a01b038281166000908152602085905260409020541615611bc35760405162461bcd60e51b81526020600482015260166024820152756164647265737320616c72656164792065786973747360501b6044820152606401610754565b60016000908152602084905260409020546001600160a01b031680611c2457600160008181526020869052604080822080546001600160a01b0388166001600160a01b03199182168117909255908352912080549091169091179055610c95565b60016000908152602094909452604080852080546001600160a01b039586166001600160a01b031991821681179092559086529420805491909316931692909217905550565b611c816000805160206142d0833981519152612ee0565b6040517fe8914930ff5a10c90f8c16e9d4953a65c1435787664c6962e964f2013a0e500a90600090a1565b60006001846003811115611cc257611cc2613fef565b03611d2c57826001600160a01b031682604051611cdf9190614029565b6000604051808303816000865af19150503d8060008114611d1c576040519150601f19603f3d011682016040523d82523d6000602084013e611d21565b606091505b505080915050611e4c565b6002846003811115611d4057611d40613fef565b03611d9857826001600160a01b031682604051611d5d9190614029565b600060405180830381855af49150503d8060008114611d1c576040519150601f19603f3d011682016040523d82523d6000602084013e611d21565b6003846003811115611dac57611dac613fef565b03611e0457826001600160a01b031682604051611dc99190614029565b600060405180830381855afa9150503d8060008114611d1c576040519150601f19603f3d011682016040523d82523d6000602084013e611d21565b60405162461bcd60e51b815260206004820152601d60248201527f43616c6c48656c7065723a20494e56414c49445f43414c4c5f545950450000006044820152606401610754565b80610c955760405162461bcd60e51b815260206004820152601760248201527f43616c6c48656c7065723a2043414c4c5f4641494c45440000000000000000006044820152606401610754565b6000826001600160a01b03167f00000000000000000000000000000000000000000000000000000000000000006001600160a01b0316148015611f3c57506001600160e01b03198216630e554a5b60e21b1480611f0657506001600160e01b0319821663a063246160e01b145b80611f2157506001600160e01b0319821663cb361da560e01b145b80611f3c57506001600160e01b0319821663293656d960e21b145b15611f49575060016106b9565b611f61836000805160206142b08339815191526118bc565b611f6d575060006106b9565b6001600160a01b038316600090815260008051602061431083398151915260208190526040909120611f9f9084612f59565b949350505050565b600081602001515111611fee5760405162461bcd60e51b815260206004820152600f60248201526e73656c6563746f727320656d70747960881b6044820152606401610754565b80516000805160206142b08339815191526120098183611b16565b6020838101516001600160a01b0384166000908152600080516020614310833981519152928390526040902061203e91612fcb565b835160408086015190516379b0e77960e11b81526001600160a01b039092169163f361cef29161207091600401614067565b600060405180830381600087803b15801561208a57600080fd5b505af115801561209e573d6000803e3d6000fd5b50505050826001600160a01b03167f02d0c334c706cd2f08faf7bc03674fc7f3970dd8921776c655069cde33b7fb2985602001516040516120df919061407a565b60405180910390a250505050565b6000805160206142b083398151915261210681836115fd565b6001600160a01b03821660009081526000805160206143108339815191526020819052604090912061213790613002565b826001600160a01b031663e335a37a6040518163ffffffff1660e01b8152600401600060405180830381600087803b15801561217257600080fd5b505af1925050508015612183575060015b6121c0576040516001600160a01b038416907f042e9909bdebf41f90bca04e7933acfcec4f616b7834547cd1973db2d467c7ce90600090a2505050565b6040516001600160a01b038416907f0a1ee69f55c33d8467c69ca59ce2007a737a88603d75392972520bf67cb513b890600090a2505050565b80516001600160a01b038116156122b6576040516301ffc9a760e01b8152632bc9b2eb60e11b60048201526001600160a01b038216906301ffc9a790602401602060405180830381865afa158015612255573d6000803e3d6000fd5b505050506040513d601f19601f82011682018060405250810190612279919061408d565b6122b65760405162461bcd60e51b815260206004820152600e60248201526d3ab735b737bbb71038363ab3b4b760911b6044820152606401610754565b6000805160206142f08339815191526122cf8183611b16565b6040516001600160a01b038316907f49c5bdfe3f492f82069fd409e316805f181989678a8f5e036fa91c572900184c90600090a2505050565b6000805160206142f083398151915261232181836115fd565b6040516001600160a01b038316907f51284fda28afcf93bd679c4a813b5933700648505545b368f84bc5697a63e82b90600090a25050565b61236283613071565b6110cf838383611746565b80518251146123b45760405162461bcd60e51b815260206004820152601360248201527277726f6e67206172726179206c656e6774687360681b6044820152606401610754565b60005b82518110156110cf5760008382815181106123d4576123d4613a44565b602002602001015190506123e781613071565b61240c8160008585815181106123ff576123ff613a44565b6020026020010151611746565b508061241781613aa0565b9150506123b7565b80518351148015612431575081518351145b6124735760405162461bcd60e51b815260206004820152601360248201527277726f6e67206172726179206c656e6774687360681b6044820152606401610754565b60005b8351811015610c9557600084828151811061249357612493613a44565b602002602001015190506124a681613071565b6124d6818584815181106124bc576124bc613a44565b60200260200101518585815181106123ff576123ff613a44565b50806124e181613aa0565b915050612476565b6124f38383612780565b6125345760405162461bcd60e51b815260206004820152601260248201527161646472657373206e6f742065786973747360701b6044820152606401610754565b61253e8382612780565b1561258b5760405162461bcd60e51b815260206004820152601a60248201527f6e6577206164647265737320616c7265616479206578697374730000000000006044820152606401610754565b60015b6001600160a01b038082166000908152602086905260409020548116908416810361260a576001600160a01b0390811660008181526020969096526040808720805495841680895282892080549786166001600160a01b0319988916179055949093168752862080548516909317909255935282541690915550565b905061258e565b7f85b0144f2a9423c7a6aa2d14ed97c6169ecf5e55be5627ab77683b168d9ad15780546001600160a01b0319166001600160a01b0392909216919091179055565b604080518082019091526000815260606020820152815160410361268a57506040805180820190915260008152602081019190915290565b6000606060ff60018501511680600081146126ac57600181146126d057600080fd5b602186015193506041835260418601516020840152606186015160408401526126d5565b600080fd5b505060408051808201909152918252602082015292915050565b805160009081036127015750816106b9565b815160405161271d918591602001918252602082015260400190565b60405160208183030381529060405280519060200120905092915050565b60008082516041036127715760208301516040840151606085015160001a612765878285856130bd565b94509450505050612779565b506000905060025b9250929050565b60008160016001600160a01b038216116127ce5760405162461bcd60e51b815260206004820152600f60248201526e696e76616c6964206164647265737360881b6044820152606401610754565b50506001600160a01b03908116600090815260209290925260409091205416151590565b6000805160206142f0833981519152600061281082600160ff6117cc565b905060005b8151811015610ad75781818151811061283057612830613a44565b60200260200101516001600160a01b031663ba38419a60016040518263ffffffff1660e01b815260040161286491906140af565b602060405180830381865afa158015612881573d6000803e3d6000fd5b505050506040513d601f19601f820116820180604052508101906128a5919061408d565b156129d75760006129948383815181106128c1576128c1613a44565b60200260200101516001600160a01b031663310ed93160016040518263ffffffff1660e01b81526004016128f591906140af565b602060405180830381865afa158015612912573d6000803e3d6000fd5b505050506040513d601f19601f8201168201806040525081019061293691906140d7565b84848151811061294857612948613a44565b6020026020010151898989604051602401612965939291906140f8565b60408051601f198184030181529190526020810180516001600160e01b0316630aa32a3f60e41b179052613181565b509050806129d55760405162461bcd60e51b815260206004820152600e60248201526d1c1c99521bdbdac819985a5b195960921b6044820152606401610754565b505b806129e181613aa0565b915050612815565b6000805160206142f08339815191526000612a0782600160ff6117cc565b905060005b8151811015610ad757818181518110612a2757612a27613a44565b60200260200101516001600160a01b031663ba38419a60026040518263ffffffff1660e01b8152600401612a5b91906140af565b602060405180830381865afa158015612a78573d6000803e3d6000fd5b505050506040513d601f19601f82011682018060405250810190612a9c919061408d565b15612bcf576000612b8b838381518110612ab857612ab8613a44565b60200260200101516001600160a01b031663310ed93160026040518263ffffffff1660e01b8152600401612aec91906140af565b602060405180830381865afa158015612b09573d6000803e3d6000fd5b505050506040513d601f19601f82011682018060405250810190612b2d91906140d7565b848481518110612b3f57612b3f613a44565b6020026020010151898989604051602401612b5c939291906140f8565b60408051601f198184030181529190526020810180516001600160e01b031663ca5ce11960e01b179052613181565b50905080612bcd5760405162461bcd60e51b815260206004820152600f60248201526e1c1bdcdd121bdbdac819985a5b1959608a1b6044820152606401610754565b505b80612bd981613aa0565b915050612a0c565b6000806000612c2585858080601f01602080910402602001604051908101604052809392919081815260200183838082843760009201919091525061265292505050565b8051935090506000612c8d612c3a88846126ef565b6040517f19457468657265756d205369676e6564204d6573736167653a0a3332000000006020820152603c8101829052600090605c01604051602081830303815290604052805190602001209050919050565b9050600080612ca083856020015161273b565b90925090506000816004811115612cb957612cb9613fef565b14612cc75760009450612cd3565b612cd0826118a6565b94505b50505050935093915050565b60006000805160206142f083398151915281612cfe82600160ff6117cc565b905060005b8151811015612ed757818181518110612d1e57612d1e613a44565b60200260200101516001600160a01b031663ba38419a60006040518263ffffffff1660e01b8152600401612d5291906140af565b602060405180830381865afa158015612d6f573d6000803e3d6000fd5b505050506040513d601f19601f82011682018060405250810190612d93919061408d565b15612ec5576000612e80838381518110612daf57612daf613a44565b60200260200101516001600160a01b031663310ed93160006040518263ffffffff1660e01b8152600401612de391906140af565b602060405180830381865afa158015612e00573d6000803e3d6000fd5b505050506040513d601f19601f82011682018060405250810190612e2491906140d7565b848481518110612e3657612e36613a44565b60200260200101518989604051602401612e51929190614196565b60408051601f198184030181529190526020810180516001600160e01b0316632f32efe560e21b179052613181565b50905080612ec35760405162461bcd60e51b815260206004820152601060248201526f19dd585c99121bdbdac819985a5b195960821b6044820152606401610754565b505b80612ecf81613aa0565b915050612d03565b50505092915050565b60016000908152602082905260409020546001600160a01b03165b60016001600160a01b0382161115612f37576001600160a01b0316600090815260208290526040812080546001600160a01b0319169055612efb565b50600160009081526020919091526040902080546001600160a01b0319169055565b600081600160e082901c11612fa35760405162461bcd60e51b815260206004820152601060248201526f1bdb9b1e481cd8599948189e5d195ccd60821b6044820152606401610754565b50506001600160e01b0319908116600090815260209290925260409091205460e01b16151590565b60005b81518110156110cf57612ffa83838381518110612fed57612fed613a44565b60200260200101516132e3565b600101612fce565b600160e01b60009081526020829052604090205460e01b5b600160e082901c111561304f576001600160e01b0319166000908152602082905260408120805463ffffffff1916905561301a565b50600160e01b600090815260209190915260409020805463ffffffff19169055565b306001600160a01b03821603610c1a5760405162461bcd60e51b815260206004820152601160248201527031b0b7103737ba1031b0b6361039b2b63360791b6044820152606401610754565b6000807f7fffffffffffffffffffffffffffffff5d576e7357a4501ddfe92f46681b20a08311156130f45750600090506003613178565b6040805160008082526020820180845289905260ff881692820192909252606081018690526080810185905260019060a0016020604051602081039080840390855afa158015613148573d6000803e3d6000fd5b5050604051601f1901519150506001600160a01b03811661317157600060019250925050613178565b9150600090505b94509492505050565b60006060600185600381111561319957613199613fef565b0361320357836001600160a01b0316836040516131b69190614029565b6000604051808303816000865af19150503d80600081146131f3576040519150601f19603f3d011682016040523d82523d6000602084013e6131f8565b606091505b5090925090506132db565b600285600381111561321757613217613fef565b0361326f57836001600160a01b0316836040516132349190614029565b600060405180830381855af49150503d80600081146131f3576040519150601f19603f3d011682016040523d82523d6000602084013e6131f8565b600385600381111561328357613283613fef565b03611e0457836001600160a01b0316836040516132a09190614029565b600060405180830381855afa9150503d80600081146131f3576040519150601f19603f3d011682016040523d82523d6000602084013e6131f8565b935093915050565b80600160e082901c1161332b5760405162461bcd60e51b815260206004820152601060248201526f1bdb9b1e481cd8599948189e5d195ccd60821b6044820152606401610754565b6001600160e01b031980831660009081526020859052604090205460e01b161561338f5760405162461bcd60e51b815260206004820152601560248201527462797465733420616c72656164792065786973747360581b6044820152606401610754565b600160e01b60009081526020849052604081205460e01b906001600160e01b0319821690036133fe57600160e01b600090815260208590526040808220805460e087901c63ffffffff19918216179091556001600160e01b031986168352912080549091166001179055610c95565b600160e01b60009081526020949094526040808520805460e086811c63ffffffff19928316179092556001600160e01b03199095168652942080549190941c92169190911790915550565b634e487b7160e01b600052604160045260246000fd5b604051606081016001600160401b038111828210171561348157613481613449565b60405290565b604051601f8201601f191681016001600160401b03811182821017156134af576134af613449565b604052919050565b600082601f8301126134c857600080fd5b81356001600160401b038111156134e1576134e1613449565b6134f4601f8201601f1916602001613487565b81815284602083860101111561350957600080fd5b816020850160208301376000918101602001919091529392505050565b6000806040838503121561353957600080fd5b8235915060208301356001600160401b0381111561355657600080fd5b613562858286016134b7565b9150509250929050565b6001600160a01b0381168114610c1a57600080fd5b80356115f88161356c565b60006020828403121561359e57600080fd5b81356108e78161356c565b60008083601f8401126135bb57600080fd5b5081356001600160401b038111156135d257600080fd5b6020830191508360208260051b850101111561277957600080fd5b6000806000806040858703121561360357600080fd5b84356001600160401b038082111561361a57600080fd5b613626888389016135a9565b9096509450602087013591508082111561363f57600080fd5b5061364c878288016135a9565b95989497509550505050565b600081518084526020808501945080840160005b838110156136915781516001600160a01b03168752958201959082019060010161366c565b509495945050505050565b6020815260006108e76020830184613658565b6000806000606084860312156136c457600080fd5b83356001600160401b038111156136da57600080fd5b840161016081870312156136ed57600080fd5b95602085013595506040909401359392505050565b6000806000806000806060878903121561371b57600080fd5b86356001600160401b038082111561373257600080fd5b61373e8a838b016135a9565b9098509650602089013591508082111561375757600080fd5b6137638a838b016135a9565b9096509450604089013591508082111561377c57600080fd5b5061378989828a016135a9565b979a9699509497509295939492505050565b600080604083850312156137ae57600080fd5b82356137b98161356c565b946020939093013593505050565b600081518084526020808501945080840160005b838110156136915781516001600160e01b031916875295820195908201906001016137db565b6040815260006138146040830185613658565b6020838203818501528185518084528284019150828160051b85010183880160005b8381101561386457601f198784030185526138528383516137c7565b94860194925090850190600101613836565b50909998505050505050505050565b6000806040838503121561388657600080fd5b82356138918161356c565b915060208301356001600160401b0381111561355657600080fd5b60008083601f8401126138be57600080fd5b5081356001600160401b038111156138d557600080fd5b60208301915083602082850101111561277957600080fd5b6000806000806060858703121561390357600080fd5b843561390e8161356c565b93506020850135925060408501356001600160401b0381111561393057600080fd5b61364c878288016138ac565b60006020828403121561394e57600080fd5b5035919050565b6000806020838503121561396857600080fd5b82356001600160401b0381111561397e57600080fd5b61398a858286016138ac565b90969095509350505050565b600080604083850312156139a957600080fd5b82356139b48161356c565b915060208301356139c48161356c565b809150509250929050565b600080600080600080608087890312156139e857600080fd5b86356139f38161356c565b95506020870135613a038161356c565b945060408701356001600160401b0380821115613a1f57600080fd5b613a2b8a838b016135a9565b9096509450606089013591508082111561377c57600080fd5b634e487b7160e01b600052603260045260246000fd5b6000808335601e19843603018112613a7157600080fd5b8301803591506001600160401b03821115613a8b57600080fd5b60200191503681900382131561277957600080fd5b600060018201613ac057634e487b7160e01b600052601160045260246000fd5b5060010190565b600060208284031215613ad957600080fd5b5051919050565b60008085851115613af057600080fd5b83861115613afd57600080fd5b5050820193919092039150565b6001600160e01b031981358181169160048510156106b65760049490940360031b84901b1690921692915050565b60006001600160401b03821115613b5157613b51613449565b5060051b60200190565b600060608284031215613b6d57600080fd5b613b7561345f565b90508135613b828161356c565b81526020828101356001600160401b0380821115613b9f57600080fd5b818501915085601f830112613bb357600080fd5b8135613bc6613bc182613b38565b613487565b81815260059190911b83018401908481019088831115613be557600080fd5b938501935b82851015613c1a5784356001600160e01b031981168114613c0b5760008081fd5b82529385019390850190613bea565b80868801525050506040850135925080831115613c3657600080fd5b5050613c44848285016134b7565b60408301525092915050565b600060208284031215613c6257600080fd5b81356001600160401b03811115613c7857600080fd5b611f9f84828501613b5b565b600060408284031215613c9657600080fd5b604051604081016001600160401b038282108183111715613cb957613cb9613449565b8160405282935084359150613ccd8261356c565b90825260208401359080821115613ce357600080fd5b50613cf0858286016134b7565b6020830152505092915050565b600060208284031215613d0f57600080fd5b81356001600160401b03811115613d2557600080fd5b611f9f84828501613c84565b600080600060608486031215613d4657600080fd5b8335613d518161356c565b92506020840135915060408401356001600160401b03811115613d7357600080fd5b613d7f868287016134b7565b9150509250925092565b600082601f830112613d9a57600080fd5b81356020613daa613bc183613b38565b82815260059290921b84018101918181019086841115613dc957600080fd5b8286015b84811015613ded578035613de08161356c565b8352918301918301613dcd565b509695505050505050565b600082601f830112613e0957600080fd5b81356020613e19613bc183613b38565b82815260059290921b84018101918181019086841115613e3857600080fd5b8286015b84811015613ded5780356001600160401b03811115613e5b5760008081fd5b613e698986838b01016134b7565b845250918301918301613e3c565b60008060408385031215613e8a57600080fd5b82356001600160401b0380821115613ea157600080fd5b613ead86838701613d89565b93506020850135915080821115613ec357600080fd5b5061356285828601613df8565b600080600060608486031215613ee557600080fd5b83356001600160401b0380821115613efc57600080fd5b613f0887838801613d89565b9450602091508186013581811115613f1f57600080fd5b8601601f81018813613f3057600080fd5b8035613f3e613bc182613b38565b81815260059190911b8201840190848101908a831115613f5d57600080fd5b928501925b82841015613f7b57833582529285019290850190613f62565b96505050506040860135915080821115613f9457600080fd5b50613d7f86828701613df8565b60008235605e19833603018112613fb757600080fd5b9190910192915050565b60006106b93683613b5b565b60008235603e19833603018112613fb757600080fd5b60006106b93683613c84565b634e487b7160e01b600052602160045260246000fd5b60005b83811015614020578181015183820152602001614008565b50506000910152565b60008251613fb7818460208701614005565b60008151808452614053816020860160208601614005565b601f01601f19169290920160200192915050565b6020815260006108e7602083018461403b565b6020815260006108e760208301846137c7565b60006020828403121561409f57600080fd5b815180151581146108e757600080fd5b60208101600383106140d157634e487b7160e01b600052602160045260246000fd5b91905290565b6000602082840312156140e957600080fd5b8151600481106108e757600080fd5b60018060a01b038416815282602082015260606040820152600061411f606083018461403b565b95945050505050565b6000808335601e1984360301811261413f57600080fd5b83016020810192503590506001600160401b0381111561415e57600080fd5b80360382131561277957600080fd5b81835281816020850137506000828201602090810191909152601f909101601f19169091010190565b604081526141b7604082016141aa85613581565b6001600160a01b03169052565b6020830135606082015260006141d06040850185614128565b6101608060808601526141e86101a08601838561416d565b92506141f76060880188614128565b9250603f19808786030160a088015261421185858461416d565b9450608089013560c088015260a089013560e0880152610100935060c089013584880152610120915060e089013582880152610140848a01358189015261425a838b018b614128565b9550925081888703018489015261427286868561416d565b9550614280818b018b614128565b95509350508087860301610180880152505061429d83838361416d565b9350505050826020830152939250505056fe85b0144f2a9423c7a6aa2d14ed97c6169ecf5e55be5627ab77683b168d9ad1bd85b0144f2a9423c7a6aa2d14ed97c6169ecf5e55be5627ab77683b168d9ad15685b0144f2a9423c7a6aa2d14ed97c6169ecf5e55be5627ab77683b168d9ad1f185b0144f2a9423c7a6aa2d14ed97c6169ecf5e55be5627ab77683b168d9ad1bea26469706673582212200847750a897e71c45c54b06fd14ac47de657990640a9e0ec83766da1bcea56fd64736f6c63430008110033",
    "linkReferences": {}
  },
  "methodIdentifiers": {
    "addDeposit()": "4a58db19",
    "addOwner(address)": "7065cb48",
    "approveHash(bytes32)": "d4d9bdcd",
    "defaultModuleManager()": "be8a7609",
    "entryPoint()": "b0d691fe",
    "execDelegateCall(address,bytes)": "7988977e",
    "execFromModule(bytes)": "d9824fbc",
    "execute(address,uint256,bytes)": "b61d27f6",
    "executeBatch(address[],bytes[])": "18dfb3c7",
    "executeBatch(address[],uint256[],bytes[])": "47e1da2a",
    "getDeposit()": "c399ec88",
    "getNonce()": "d087d288",
    "getNonce(address)": "2d0335ab",
    "initialize(address,address,(address,bytes4[],bytes)[],(address,bytes)[])": "fac783e3",
    "isAuthorizedModule(address)": "399dd463",
    "isAuthorizedPlugin(address)": "48d7b1d4",
    "isOwner(address)": "2f54bf6e",
    "isValidSignature(bytes32,bytes)": "1626ba7e",
    "listModule()": "6bbd74d3",
    "listOwner(address,uint256)": "f99a98b9",
    "listPlugin()": "2d17aa33",
    "rejectHash(bytes32)": "e3b57475",
    "removeOwner(address)": "173825d9",
    "replaceOwner(address,address)": "e20056e6",
    "resetOwner(address)": "73cc802a",
    "setFallbackHandler(address)": "f08a0323",
    "validateUserOp((address,uint256,bytes,bytes,uint256,uint256,uint256,uint256,uint256,bytes,bytes),bytes32,uint256)": "3a871cdd",
    "withdrawDepositTo(address,uint256)": "4d44560d"
  },
  "id": 0
}