{
  "abi": [
    {
      "inputs": [
        {
          "internalType": "address",
          "name": "trustedManagerOwner",
          "type": "address"
        }
      ],
      "stateMutability": "nonpayable",
      "type": "constructor"
    },
    {
      "inputs": [],
      "name": "TrustedModuleManagerOwnerPrivateKey",
      "outputs": [
        {
          "internalType": "uint256",
          "name": "",
          "type": "uint256"
        }
      ],
      "stateMutability": "view",
      "type": "function"
    },
    {
      "inputs": [],
      "name": "entryPoint",
      "outputs": [
        {
          "internalType": "contract EntryPoint",
          "name": "",
          "type": "address"
        }
      ],
      "stateMutability": "view",
      "type": "function"
    },
    {
      "inputs": [],
      "name": "securityControlModule",
      "outputs": [
        {
          "internalType": "contract SecurityControlModule",
          "name": "",
          "type": "address"
        }
      ],
      "stateMutability": "view",
      "type": "function"
    },
    {
      "inputs": [],
      "name": "soulWalletLogic",
      "outputs": [
        {
          "internalType": "contract SoulWallet",
          "name": "",
          "type": "address"
        }
      ],
      "stateMutability": "view",
      "type": "function"
    },
    {
      "inputs": [],
      "name": "trustedModuleManager",
      "outputs": [
        {
          "internalType": "contract TrustedModuleManager",
          "name": "",
          "type": "address"
        }
      ],
      "stateMutability": "view",
      "type": "function"
    },
    {
      "inputs": [],
      "name": "trustedPluginManager",
      "outputs": [
        {
          "internalType": "contract TrustedPluginManager",
          "name": "",
          "type": "address"
        }
      ],
      "stateMutability": "view",
      "type": "function"
    }
  ],
  "bytecode": {
    "object": "0x60803461020457601f61ab0638819003918201601f19168301926001600160401b03929091838511838610176101ee57816020928492604097885283398101031261020457516001600160a01b03808216929091839003610204578351906106eb9182810192818410838511176101ee576155a6823984835260208160009403019083f09384156101bc5782549484166001600160a01b03199586161783558551906106eb8083019190838310858411176101a857918391602093615c918439815203019083f080156101bc57831680856001541617600155838354168651916110319182840192848410868511176101da5791899391859361457585398252602082015203019083f080156101bc578316846003541617600355845161478a80820190828210848311176101c65790829161637c8339039083f080156101bc578316908185600454161760045583600354168651926141ec80850193858510908511176101a85791889391859361038985398252602082015203019082f090811561019d5750169060025416176002555161017f908161020a8239f35b8451903d90823e3d90fd5b634e487b7160e01b86526041600452602486fd5b85513d84823e3d90fd5b634e487b7160e01b85526041600452602485fd5b634e487b7160e01b87526041600452602487fd5b634e487b7160e01b600052604160045260246000fd5b600080fdfe60806040818152600436101561001457600080fd5b600091823560e01c9081630ef22a01146101245750806314603699146100fc57806340de8bee146100de578063820a142c146100b7578063867c73c11461008f5763b0d691fe1461006457600080fd5b3461008b578160031936011261008b5760045490516001600160a01b039091168152602090f35b5080fd5b503461008b578160031936011261008b5760035490516001600160a01b039091168152602090f35b503461008b578160031936011261008b57905490516001600160a01b039091168152602090f35b503461008b578160031936011261008b576020906005549051908152f35b503461008b578160031936011261008b5760025490516001600160a01b039091168152602090f35b83903461008b578160031936011261008b576001546001600160a01b03168152602090f3fea2646970667358221220e6300f341a8db55c16428dd8a87757a3045d40209e38be65a285d3d8ae8144dd64736f6c6343000813003360c0346200017e57601f620041ec38819003918201601f19168301916001600160401b03831184841017620001835780849260409485528339810103126200017e5780516001600160a01b039182821682036200017e576020015191821682036200017e5760805260a05260005460ff8160081c16620001295760ff80821610620000ed575b60405161405290816200019a82396080518181816105070152818161074e0152818161098c01528181610a2601528181610eae01528181610fd0015281816110640152818161190f01526119be015260a051818181610f7501528181611f04015261267b0152f35b60ff90811916176000557f7f26b83ff96e1f2b6a682f133852f6798a09c465da95921460cefb3847402498602060405160ff8152a13862000085565b60405162461bcd60e51b815260206004820152602760248201527f496e697469616c697a61626c653a20636f6e747261637420697320696e697469604482015266616c697a696e6760c81b6064820152608490fd5b600080fd5b634e487b7160e01b600052604160045260246000fdfe60806040526004361015610015575b36611eb657005b60003560e01c80631626ba7e146101d5578063173825d9146101d057806318dfb3c7146101cb5780632d0335ab146101c65780632d17aa33146101c15780632f54bf6e146101bc578063399dd463146101b75780633a871cdd146101b257806347e1da2a146101ad57806348d7b1d4146101a85780634a58db19146101a35780634d44560d1461019e5780636bbd74d3146101995780637065cb481461019457806373cc802a1461018f5780637988977e1461018a578063a52afc2014610185578063b0d691fe14610180578063b61d27f61461017b578063be8a760914610176578063c399ec8814610171578063d087d2881461016c578063d4d9bdcd14610167578063d9824fbc14610162578063e20056e61461015d578063e3b5747514610158578063f08a0323146101535763fac783e30361000e57611527565b6114c9565b6113ee565b611358565b611194565b6110b0565b611031565b610fa4565b610f5f565b610f0a565b610e98565b610d7f565b610d03565b610c4b565b610c1c565b610b3d565b6109f5565b61097d565b610956565b61089e565b610714565b6106ed565b6106bc565b6105e4565b6104bf565b61041e565b61034f565b6102e3565b634e487b7160e01b600052604160045260246000fd5b6001600160401b03811161020357604052565b6101da565b606081019081106001600160401b0382111761020357604052565b604081019081106001600160401b0382111761020357604052565b90601f801991011681019081106001600160401b0382111761020357604052565b6040519061026c82610223565b565b6001600160401b03811161020357601f01601f191660200190565b9291926102958261026e565b916102a3604051938461023e565b8294818452818301116102c0578281602093846000960137010152565b600080fd5b9080601f830112156102c0578160206102e093359101610289565b90565b346102c05760403660031901126102c0576024356001600160401b0381116102c05761032061031860209236906004016102c5565b600435612e9a565b6040516001600160e01b03199091168152f35b6001600160a01b038116036102c057565b359061026c82610333565b346102c05760203660031901126102c05760043561036c81610333565b61037461190c565b61037d816132c9565b6001600160a01b03908161038f611f83565b5416156103be57167f58619076adf5bb0943d100ef88d52d7c3fd691b19d3a9071b555b651fbf418da600080a2005b60405162461bcd60e51b815260206004820152600860248201526737379037bbb732b960c11b6044820152606490fd5b9181601f840112156102c0578235916001600160401b0383116102c0576020808501948460051b0101116102c057565b346102c05760403660031901126102c0576001600160401b036004358181116102c05761044f9036906004016103ee565b916024359081116102c0576104689036906004016103ee565b91906104726119bb565b60005b84811061047e57005b806104b56104906104ba938887611a48565b3561049a81610333565b6104af6104a8848988611a8a565b3691610289565b90611ad5565b6116c2565b610475565b346102c05760203660031901126102c0576004356104dc81610333565b604051631aab3f0d60e11b81523060048201526001600160c01b0390911660248201526020816044817f00000000000000000000000000000000000000000000000000000000000000006001600160a01b03165afa80156105865761055491600091610558575b506040519081529081906020820190565b0390f35b610579915060203d811161057f575b610571818361023e565b8101906118f1565b38610543565b503d610567565b611900565b60009103126102c057565b90815180825260208080930193019160005b8281106105b6575050505090565b83516001600160a01b0316855293810193928101926001016105a8565b9060206102e0928181520190610596565b346102c0576000806003193601126106b9576105fe61350c565b610607816116fd565b906040906106178251938461023e565b808352601f19610626826116fd565b019360209436868601378091600195868352600080516020613f9d8339815191529182825260018060a01b039488868887205416905b61066e575b8751806105548b826105d3565b8616898111806106b0575b156106ab5790818a979695949392610691838c6121db565b52855283835286868987205416910191929394959661065c565b610661565b50828210610679565b80fd5b346102c05760203660031901126102c05760206106e36004356106de81610333565b613464565b6040519015158152f35b346102c05760203660031901126102c05760206106e360043561070f81610333565b611f02565b346102c0576003196060368201126102c057600435906001600160401b0382116102c057610160826004019183360301126102c0576024357f00000000000000000000000000000000000000000000000000000000000000006001600160a01b03163303610859576107976107926104a86101446000960185611a58565b613ae1565b926107f284519460206107aa8286612fba565b604051828101917f19457468657265756d205369676e6564204d6573736167653a0a3332000000008352603c820152603c81526107e681610208565b51902091015190613eac565b600581101561085457156108445750915b82610833575b50501561082b576000905b61081f604435613e2f565b60405191178152602090f35b600190610814565b61083d9250613cdf565b3880610809565b61084e9150613464565b91610803565b612ae8565b60405162461bcd60e51b815260206004820152601c60248201527f6163636f756e743a206e6f742066726f6d20456e747279506f696e74000000006044820152606490fd5b346102c05760603660031901126102c0576001600160401b036004358181116102c0576108cf9036906004016103ee565b6024358381116102c0576108e79036906004016103ee565b936044359081116102c0576109009036906004016103ee565b926109096119bb565b60005b81811061091557005b806104b561092761095193858a611a48565b3561093181610333565b61093c838b89611a48565b3561094b6104a8858b8a611a8a565b91611cb5565b61090c565b346102c05760203660031901126102c05760206106e360043561097881610333565b61349c565b6000806003193601126106b9577f00000000000000000000000000000000000000000000000000000000000000006001600160a01b031681813b156106b95760405163b760faf960e01b8152306004820152918290602490829034905af18015610586576109e9575080f35b6109f2906101f0565b80f35b346102c057600060403660031901126106b957600435610a1481610333565b610a1c61190c565b6001600160a01b037f0000000000000000000000000000000000000000000000000000000000000000811691839190833b15610a865760449083604051958694859363040b850f60e31b855216600484015260243560248401525af18015610586576109e9575080f35b8280fd5b90815180825260208080930193019160005b828110610aaa575050505090565b83516001600160e01b03191685529381019392810192600101610a9c565b90610adb90604083526040830190610596565b818103602092830152606051808252600581901b8201830192608092600090828101905b848310610b0f5750505050505090565b9091929394958480610b2d600193601f198682030187528a51610a8a565b9801930193019194939290610aff565b346102c0576000806003193601126106b957610b5f610b5a613582565b6135f2565b81905b8051831015610c0c5790610b886001600160a01b03610b8185856121db565b5116611fbe565b9181610ba184600160e01b600052602052604060002090565b549260e093841b5b6001908181871c1115610bd9576001600160e01b031916600090815260208790526040902054851b910190610ba9565b5050610c069350610bed9194959295613a19565b610bf6826121c8565b52610c00816121c8565b506116c2565b91610b62565b6105549060405191829182610ac8565b346102c05760203660031901126102c057610c49600435610c3c81610333565b610c4461190c565b6128bc565b005b346102c05760203660031901126102c057600435610c6881610333565b610c7061190c565b6001600160a01b039081610c82611f83565b54165b600183821611610cdb57610c4982610cae610c9e611f83565b80546001600160a01b0319169055565b7fe8914930ff5a10c90f8c16e9d4953a65c1435787664c6962e964f2013a0e500a600080a1610c4461190c565b610cfc81610ce98593611ff7565b80546001600160a01b0319169055611ff7565b5416610c85565b346102c05760403660031901126102c057600435610d2081610333565b6024356001600160401b0381116102c057610d3f9036906004016102c5565b90610d486119bb565b6001600160a01b031690610d5b8261349c565b156102c057600081610c499360208394519201905af4610d79611aa5565b50613811565b346102c0576000806003193601126106b9576001808252600080516020613f7d833981519152602081815260408085205493949390926001600160a01b0392859287908516815b610e5f575b5050610dd6866116fd565b95610de38651978861023e565b808752601f19610df2826116fd565b0136838901378388855283835288868887205416905b610e19578751806105548b826105d3565b861689811180610e56575b156106ab5790818a979695949392610e3c838c6121db565b528552838352868689872054169101919293949596610e08565b50828210610e24565b94809493929791951685811115610e8c578352818752848487852054169101949081979293949597610dc6565b96919293949096610dcb565b346102c05760003660031901126102c0576040517f00000000000000000000000000000000000000000000000000000000000000006001600160a01b03168152602090f35b9181601f840112156102c0578235916001600160401b0383116102c057602083818601950101116102c057565b346102c05760603660031901126102c057600435610f2781610333565b604435906001600160401b0382116102c057610f55610f4d610c49933690600401610edd565b6104a86119bb565b9060243590611cb5565b346102c05760003660031901126102c0576040517f00000000000000000000000000000000000000000000000000000000000000006001600160a01b03168152602090f35b346102c05760003660031901126102c0576040516370a0823160e01b81523060048201526020816024817f00000000000000000000000000000000000000000000000000000000000000006001600160a01b03165afa801561058657602091600091611014575b50604051908152f35b61102b9150823d811161057f57610571818361023e565b3861100b565b346102c05760003660031901126102c057604051631aab3f0d60e11b8152306004820152600060248201526020816044817f00000000000000000000000000000000000000000000000000000000000000006001600160a01b03165afa8015610586576105549160009161055857506040519081529081906020820190565b346102c05760203660031901126102c0576004356110cc61190c565b600090808252600080516020613fbd83398151915260205260016040832054146111415761111a61111482600052600080516020613fbd833981519152602052604060002090565b60019055565b7fb81b2902afc22dd4d06e3b4818a47a4b34c45475ecd4ca76c06f1a043383c0dc8280a280f35b60405162461bcd60e51b815260206004820152602560248201527f4552433132373148616e646c65723a206861736820616c7265616479206170706044820152641c9bdd995960da1b6064820152608490fd5b346102c05760203660031901126102c0576004356001600160401b0381116102c0576111c4903690600401610edd565b906111d86111d283836121ef565b9061221a565b6111ea6111e58233612679565b612246565b6001600160e01b031916630e554a5b60e21b8103611221575061121482610c499361121c936121fd565b8101906124db565b6120ce565b63a063246160e01b810361125d575061124c61124483610c4994611258946121fd565b8101906124a1565b6001600160a01b031690565b61277b565b63cb361da560e01b810361128a575061127d82610c4993611285936121fd565b8101906124b6565b6129e4565b63293656d960e21b81036112b2575061124c61124483610c49946112ad946121fd565b612aaf565b635b0e93fb60e11b81036112e957506112d282610c49936112da936121fd565b810190612467565b916001600160a01b0316612500565b6318dfb3c760e01b8103611317575061130982610c4993611311936121fd565b810190612425565b906125a0565b6323f0ed1560e11b036113435761133582610c499361133d936121fd565b81019061237a565b916125fc565b61135290610c49923691610289565b3061385d565b346102c05760403660031901126102c05760043561137581610333565b60243561138181610333565b61138961190c565b6113938183613201565b6000916001600160a01b03919082167f58619076adf5bb0943d100ef88d52d7c3fd691b19d3a9071b555b651fbf418da8480a2167f994a936646fe87ffe4f1e469d3d6aa417d6b855598397f323de5b449f765f0c38280a280f35b346102c05760203660031901126102c05760043561140a61190c565b600090808252600080516020613fbd833981519152602052604082205415611476578161144e82600052600080516020613fbd833981519152602052604060002090565b557f0d31c89d07093fc009d6c745ee3e051da71c10b1658fc4d17432a8698998f6168280a280f35b60405162461bcd60e51b815260206004820152602560248201527f4552433132373148616e646c65723a206861736820616c72656164792072656a6044820152641958dd195960da1b6064820152608490fd5b346102c05760203660031901126102c0576004356114e681610333565b6114ee61190c565b6114f781611e2f565b6001600160a01b03167f224b1729706adad5b4d1b21d074290607c8c0c85c0a46f099cf1a072a4083541600080a2005b346102c05760803660031901126102c05760043561154481610333565b60243561155081610333565b6001600160401b03906044358281116102c0576115719036906004016103ee565b6064929192359384116102c05761158f6115d39436906004016103ee565b939092600054966115b760ff8960081c16158099819a611651575b8115611631575b5061165f565b876115ca600160ff196000541617600055565b6116185761185a565b6115d957005b6115e961ff001960005416600055565b604051600181527f7f26b83ff96e1f2b6a682f133852f6798a09c465da95921460cefb384740249890602090a1005b61162c61010061ff00196000541617600055565b61185a565b303b15915081611643575b50386115b1565b6001915060ff16143861163c565b600160ff82161091506115aa565b1561166657565b60405162461bcd60e51b815260206004820152602e60248201527f496e697469616c697a61626c653a20636f6e747261637420697320616c72656160448201526d191e481a5b9a5d1a585b1a5e995960921b6064820152608490fd5b60001981146116d15760010190565b634e487b7160e01b600052601160045260246000fd5b634e487b7160e01b600052603260045260246000fd5b6001600160401b0381116102035760051b60200190565b91906060838203126102c0576040519061172d82610208565b8193803561173a81610333565b83526001600160401b03916020828101358481116102c05783019082601f830112156102c05781359161176c836116fd565b9261177a604051948561023e565b808452828085019160051b830101918583116102c0578301905b8282106117bf5750505085015260408201359283116102c0576040926117ba92016102c5565b910152565b81356001600160e01b0319811681036102c0578152908301908301611794565b91908110156118015760051b81013590603e19813603018212156102c0570190565b6116e7565b91906040838203126102c0576040519061181f82610223565b8193803561182c81610333565b83526020810135916001600160401b0383116102c0576020926117ba92016102c5565b6102e0903690611806565b611869909594959392936128bc565b6001600160a01b0381166118e2575b5060005b8181106118b45750505060005b81811061189557505050565b806104b56112856118aa6118af9486886117df565b61184f565b611889565b8060051b83013590605e19843603018212156102c0576104b561121c6118dd9336908701611714565b61187c565b6118eb90611e2f565b38611878565b908160209103126102c0575190565b6040513d6000823e3d90fd5b337f00000000000000000000000000000000000000000000000000000000000000006001600160a01b03161480156119b2575b80156119a3575b1561194d57565b60405162461bcd60e51b815260206004820152602860248201527f726571756972652066726f6d20456e747279706f696e74206f72206f776e65726044820152671037b91039b2b63360c11b6064820152608490fd5b506119ad33613464565b611946565b5030331461193f565b337f00000000000000000000000000000000000000000000000000000000000000006001600160a01b0316148015611a39575b156119f557565b606460405162461bcd60e51b815260206004820152602060248201527f726571756972652066726f6d20456e747279706f696e74206f72206f776e65726044820152fd5b50611a4333613464565b6119ee565b91908110156118015760051b0190565b903590601e19813603018212156102c057018035906001600160401b0382116102c0576020019181360383136102c057565b9082101561180157611aa19160051b810190611a58565b9091565b3d15611ad0573d90611ab68261026e565b91611ac4604051938461023e565b82523d6000602084013e565b606090565b9190611ae7611ae261350c565b6136a3565b9060005b8251811015611c8357611b1461124c61124c611b0784876121db565b516001600160a01b031690565b90604091825190635d1c20cd60e11b825260209182816004938180611b40878201906001602083019252565b03915afa90811561058657600091611c56575b50611b6a575b5050611b6591506116c2565b611aeb565b9080611ba192611b8361124c61124c611b07888c6121db565b8651808096819463310ed93160e01b83528201906001602083019252565b03915afa90811561058657611b659487611c08938b938988611c0e98600094611c15575b5090611bdb611b07611bf593611c0396976121db565b9551968793630aa32a3f60e41b9085015260248401612b16565b03601f19810185528461023e565b613758565b50612b63565b3880611b59565b611c039450611b07611bf59392611c44611bdb93873d8911611c4f575b611c3c818361023e565b810190612afe565b965092935050611bc5565b503d611c32565b611c769150833d8511611c7c575b611c6e818361023e565b8101906129cc565b38611b53565b503d611c64565b50905060008082516020840182875af192611c9c611aa5565b9315611cad5761026c929350612bde565b835160208501fd5b929190611cc3611ae261350c565b60005b8151811015611dfe57611ce261124c61124c611b0784866121db565b90604091825190635d1c20cd60e11b825260209182816004938180611d0e878201906001602083019252565b03915afa90811561058657600091611de1575b50611d38575b5050611d3391506116c2565b611cc6565b9080611d5192611b8361124c61124c611b07888b6121db565b03915afa90811561058657611d339486611c08938c938b8b89611da799600095611dae575b5090611d8d611b07611bf59493611c0397986121db565b9651978894630aa32a3f60e41b9086015260248501612b3f565b3880611d27565b611c039550611b07611bf5949392611dd5611d8d93883d8a11611c4f57611c3c818361023e565b97509293945050611d76565b611df89150833d8511611c7c57611c6e818361023e565b38611d21565b505060008083516020850184885af193611e16611aa5565b9415611e275761026c939450612d47565b845160208601fd5b6001600160a01b03168015611e72577f85b0144f2a9423c7a6aa2d14ed97c6169ecf5e55be5627ab77683b168d9ad15780546001600160a01b0319169091179055565b606460405162461bcd60e51b815260206004820152602060248201527f66616c6c6261636b436f6e7472616374206973207a65726f20616464726573736044820152fd5b7f85b0144f2a9423c7a6aa2d14ed97c6169ecf5e55be5627ab77683b168d9ad15754600090819081906001600160a01b0316368280378136915afa3d82803e15611efe573d90f35b3d90fd5b7f00000000000000000000000000000000000000000000000000000000000000006001600160a01b0390811690821614611f3f576102e0906134d4565b50600190565b15611f4c57565b60405162461bcd60e51b815260206004820152600f60248201526e73656c6563746f727320656d70747960881b6044820152606490fd5b6001600052600080516020613f7d8339815191526020527f322be270ffc629a4590bd7d1b272b01c02bb68141b269eb08eaa21a9e45e191890565b6001600160a01b031660009081527f85b0144f2a9423c7a6aa2d14ed97c6169ecf5e55be5627ab77683b168d9ad1be6020526040902090565b6001600160a01b03166000908152600080516020613f7d8339815191526020526040902090565b6001600160a01b03166000908152600080516020613f5d8339815191526020526040902090565b6001600160a01b03166000908152600080516020613f9d8339815191526020526040902090565b919082519283825260005b848110612098575050826000602080949584010152601f8019910116010190565b602081830181015184830182015201612077565b9060206102e092818152019061206c565b9060206102e0928181520190610a8a565b60208101906120e08251511515611f45565b80516120f4906001600160a01b031661124c565b916120fe83613026565b61211261210a84611fbe565b825190613877565b8151604090612129906001600160a01b031661124c565b92015191803b156102c0576040516379b0e77960e11b815292600091849182908490829061215a90600483016120ac565b03925af1908115610586577f02d0c334c706cd2f08faf7bc03674fc7f3970dd8921776c655069cde33b7fb29926121aa926121af575b50516040516001600160a01b0390941693918291826120bd565b0390a2565b806121bc6121c2926101f0565b8061058b565b38612190565b6060518110156118015760051b60800190565b80518210156118015760209160051b010190565b906004116102c05790600490565b90929192836004116102c05783116102c057600401916003190190565b6001600160e01b0319903581811693926004811061223757505050565b60040360031b82901b16169150565b1561224d57565b60405162461bcd60e51b815260206004820152601c60248201527f756e617574686f72697a6564206d6f64756c652073656c6563746f72000000006044820152606490fd5b81601f820112156102c0578035916122a9836116fd565b926122b7604051948561023e565b808452602092838086019260051b8201019283116102c0578301905b8282106122e1575050505090565b83809183356122ef81610333565b8152019101906122d3565b9080601f830112156102c057813590612312826116fd565b92612320604051948561023e565b828452602092838086019160051b830101928084116102c057848301915b84831061234e5750505050505090565b82356001600160401b0381116102c057869161236f848480948901016102c5565b81520192019161233e565b90916060828403126102c0576001600160401b039180358381116102c057846123a4918301612292565b936020808301358581116102c05783019082601f830112156102c0578135916123cc836116fd565b926123da604051948561023e565b808452828085019160051b830101918583116102c0578301905b82821061241657505050509360408301359081116102c0576102e092016122fa565b813581529083019083016123f4565b9190916040818403126102c0576001600160401b039281358481116102c05781612450918401612292565b9360208301359081116102c0576102e092016122fa565b916060838303126102c057823561247d81610333565b9260208101359260408201356001600160401b0381116102c0576102e092016102c5565b908160209103126102c057356102e081610333565b906020828203126102c05781356001600160401b0381116102c0576102e09201611806565b906020828203126102c05781356001600160401b0381116102c0576102e09201611714565b9061026c929161250f81612514565b611cb5565b6001600160a01b0316301461252557565b60405162461bcd60e51b815260206004820152601160248201527031b0b7103737ba1031b0b6361039b2b63360791b6044820152606490fd5b1561256557565b60405162461bcd60e51b815260206004820152601360248201527277726f6e67206172726179206c656e6774687360681b6044820152606490fd5b9190916125b0815184511461255e565b60005b81518110156125f6576125f1906104b56001600160a01b036125d583866121db565b51166125e081612514565b6125ea83886121db565b5190611ad5565b6125b3565b50509050565b92919092612616815183518114908161266e575b5061255e565b60005b815181101561266757612662906104b56001600160a01b0361263b83866121db565b511661264681612514565b61265083896121db565b5161265b84886121db565b5191611cb5565b612619565b5050509050565b905085511438612610565b7f00000000000000000000000000000000000000000000000000000000000000006001600160a01b039081169082161480612716575b61270f576126bc816134d4565b15612708576126cd6126fe91611fbe565b916126dd60018260e01c116139da565b63ffffffff60e01b929063ffffffff60e01b16600052602052604060002090565b5460e01b16151590565b5050600090565b5050600190565b506001600160e01b03198216630e554a5b60e21b811490811561276a575b8115612759575b8115612748575b506126af565b63293656d960e21b14905038612742565b63cb361da560e01b8114915061273b565b63a063246160e01b81149150612734565b61278481613358565b61278d81611fbe565b6127a481600160e01b600052602052604060002090565b5460e090811b5b600181831c1161286d5750506127ce90600160e01b600052602052604060002090565b805463ffffffff191690556001600160a01b0316803b156102c05760405163719ad1bd60e11b8152600090818160048183875af1908161285a575b5061283457807f042e9909bdebf41f90bca04e7933acfcec4f616b7834547cd1973db2d467c7ce91a2565b807f0a1ee69f55c33d8467c69ca59ce2007a737a88603d75392972520bf67cb513b891a2565b806121bc612867926101f0565b38612809565b8061288e6128b492859063ffffffff60e01b16600052602052604060002090565b805463ffffffff191690556001600160e01b031916600090815260208490526040902090565b54811b6127ab565b6001600160a01b0381811691906128d560018411612fe8565b806128df83611ff7565b541661298e576128fd6128f0611f83565b546001600160a01b031690565b908116612976575061293c8161293761294f93612918611f83565b80546001600160a01b0319166001600160a01b03909216919091179055565b611ff7565b80546001600160a01b0319166001179055565b7f994a936646fe87ffe4f1e469d3d6aa417d6b855598397f323de5b449f765f0c3600080a2565b6129188261293761298994612918611f83565b61294f565b60405162461bcd60e51b81526020600482015260166024820152756164647265737320616c72656164792065786973747360501b6044820152606490fd5b908160209103126102c0575180151581036102c05790565b516001600160a01b031680612a24575b6129fd816130f3565b7f49c5bdfe3f492f82069fd409e316805f181989678a8f5e036fa91c572900184c600080a2565b6040516301ffc9a760e01b8152632bc9b2eb60e11b6004820152602081602481855afa90811561058657600091612a91575b506129f45760405162461bcd60e51b815260206004820152600e60248201526d3ab735b737bbb71038363ab3b4b760911b6044820152606490fd5b612aa9915060203d8111611c7c57611c6e818361023e565b38612a56565b612ab8816133de565b6001600160a01b03167f51284fda28afcf93bd679c4a813b5933700648505545b368f84bc5697a63e82b600080a2565b634e487b7160e01b600052602160045260246000fd5b908160209103126102c0575160048110156102c05790565b6001600160a01b039091168152600060208201526060604082018190526102e09291019061206c565b6102e0939260609260018060a01b031682526020820152816040820152019061206c565b15612b6a57565b60405162461bcd60e51b815260206004820152600e60248201526d1c1c99521bdbdac819985a5b195960921b6044820152606490fd5b15612ba757565b60405162461bcd60e51b815260206004820152600f60248201526e1c1bdcdd121bdbdac819985a5b1959608a1b6044820152606490fd5b9190612beb611ae261350c565b9060005b825181101561266757612c0b61124c61124c611b0784876121db565b90604091825190635d1c20cd60e11b825260209182816004938180612c37878201906002602083019252565b03915afa90811561058657600091612d2a575b50612c61575b5050612c5c91506116c2565b612bef565b9080612c9892612c7a61124c61124c611b07888c6121db565b8651808096819463310ed93160e01b83528201906002602083019252565b03915afa90811561058657612c5c9487612cec938b938988612cf298600094612cf9575b5090612cd2611b07611bf593611c0396976121db565b955196879363ca5ce11960e01b9085015260248401612b16565b50612ba0565b3880612c50565b611c039450611b07611bf59392612d1f612cd293873d8911611c4f57611c3c818361023e565b965092935050612cbc565b612d419150833d8511611c7c57611c6e818361023e565b38612c4a565b9190612d54611ae261350c565b9260005b8451811015612e9357612d7461124c61124c611b0784896121db565b90604091825190635d1c20cd60e11b825260209182816004938180612da0878201906002602083019252565b03915afa8015610586578991600091612e76575b50612dcc575b505050612dc791506116c2565b612d58565b612e0291612de461124c61124c611b078888966121db565b8651808095819463310ed93160e01b83528201906002602083019252565b03915afa91821561058657612dc794612e5193612cec93600091612e59575b50612e2f611b07878d6121db565b91519263ca5ce11960e01b90840152611c0383611bf58c8c8c60248501612b3f565b388087612dba565b612e709150833d8511611c4f57611c3c818361023e565b38612e21565b612e8d9150843d8611611c7c57611c6e818361023e565b38612db4565b5050505050565b908051612ee25750612ec5600191600052600080516020613fbd833981519152602052604060002090565b5403612ed657630b135d3f60e11b90565b6001600160e01b031990565b612eeb91612f78565b15612f6b5780612f02575b50630b135d3f60e11b90565b612f0b90613e4d565b612f2c612f21604083015165ffffffffffff1690565b65ffffffffffff1690565b4211908115612f4d575b50612f415738612ef6565b6001600160e11b031990565b60200151612f63915065ffffffffffff16612f21565b421038612f36565b506001600160e01b031990565b9190612f86612f9d91613ae1565b6020612f9482805196612fba565b91015190613eac565b60058110156108545715612fb15750600090565b6102e090613464565b905180612fc5575090565b6040519060208201928352604082015260408152612fe281610208565b51902090565b15612fef57565b60405162461bcd60e51b815260206004820152600f60248201526e696e76616c6964206164647265737360881b6044820152606490fd5b6001600160a01b0361303c600183831611612fe8565b806130468361201e565b541661298e576001600052600080516020613f5d83398151915260205261307a600080516020613ffd8339815191526128f0565b9081166130be57506001600052600080516020613f5d83398151915260205261026c9061293c906130b981600080516020613ffd833981519152612918565b61201e565b6001600052600080516020613f5d83398151915260205261026c91612918906130b981600080516020613ffd83398151915284565b6001600160a01b03613109600183831611612fe8565b8061311383612045565b541661298e576001600052600080516020613f9d833981519152602052613147600080516020613fdd8339815191526128f0565b90811661318b57506001600052600080516020613f9d83398151915260205261026c9061293c9061318681600080516020613fdd833981519152612918565b612045565b6001600052600080516020613f9d83398151915260205261026c916129189061318681600080516020613fdd83398151915284565b156131c757565b60405162461bcd60e51b815260206004820152601260248201527161646472657373206e6f742065786973747360701b6044820152606490fd5b919061321461320f84613464565b6131c0565b61321d81613464565b61328457600180805b613231575050509050565b61323d6128f082611ff7565b906001600160a01b0380831690871614613258575081613226565b61026c94955081925092612918610c9e9461293761327b6128f061293796611ff7565b61291885611ff7565b60405162461bcd60e51b815260206004820152601a60248201527f6e6577206164647265737320616c7265616479206578697374730000000000006044820152606490fd5b6001600160a01b038082169291600191906132f89082906132ef90612937868911612fe8565b541615156131c0565b81805b613306575050509050565b6000908281168252600080516020613f7d83398151915260205260408381842054169287841461333957505050826132fb565b610c9e9697508395509081612918939461293796935220541691611ff7565b6001600160a01b0380821692916001919061337e9082906132ef906130b9868911612fe8565b81805b61338c575050509050565b6000908281168252600080516020613f5d8339815191526020526040838184205416928784146133bf5750505082613381565b610c9e969750839550908161291893946130b99693522054169161201e565b6001600160a01b038082169291600191906134049082906132ef90613186868911612fe8565b81805b613412575050509050565b6000908281168252600080516020613f9d8339815191526020526040838184205416928784146134455750505082613407565b610c9e9697508395509081612918939461318696935220541691612045565b6001600160a01b0390811661347b60018211612fe8565b600052600080516020613f7d83398151915260205260406000205416151590565b6001600160a01b039081166134b360018211612fe8565b600052600080516020613f9d83398151915260205260406000205416151590565b6001600160a01b039081166134eb60018211612fe8565b600052600080516020613f5d83398151915260205260406000205416151590565b60016000818152600080516020613f9d8339815191526020818152600080516020613fdd833981519152549293926001600160a01b039260409290918416855b61355a575b50505050505090565b84168581111561357d57958596600052828252858585600020541691019661354c565b613551565b60016000818152600080516020613f5d8339815191526020818152600080516020613ffd833981519152549293926001600160a01b039260409290918416855b6135cf5750505050505090565b84168581111561357d5795859660005282825285858560002054169101966135c2565b6135fb816116fd565b90604061360a8151938461023e565b818352601f19613619836116fd565b01916020923684860137600091600193848452600080516020613f5d8339815191529081815260018060a01b039386858588205416905b613660575b505050505050505090565b8516958787118061369a575b156136955786889761367e838c6121db565b526000528383528686866000205416910196613650565b613655565b5081811061366c565b6136ac816116fd565b9060406136bb8151938461023e565b818352601f196136ca836116fd565b01916020923684860137600091600193848452600080516020613f9d8339815191529081815260018060a01b039386858588205416905b61371057505050505050505090565b85169587871180613745575b156136955786889761372e838c6121db565b526000528383528686866000205416910196613701565b5081811061371c565b6004111561085457565b909160009283926137688161374e565b60018103613783575082602083519301915af1611aa1611aa5565b61378c8161374e565b600281036137a65750602082519201905af4611aa1611aa5565b60039193506137b48161374e565b036137cc578291602082519201905afa611aa1611aa5565b60405162461bcd60e51b815260206004820152601d60248201527f43616c6c48656c7065723a20494e56414c49445f43414c4c5f545950450000006044820152606490fd5b1561381857565b60405162461bcd60e51b815260206004820152601760248201527f43616c6c48656c7065723a2043414c4c5f4641494c45440000000000000000006044820152606490fd5b600061026c92819282602083519301915af1610d79611aa5565b919060005b81518110156125f65761388f81836121db565b519063ffffffff60e01b80831690806001946138b08660e092831c116139da565b6001600160e01b03198416600090815260208a90526040902054901b1661399d576138f26138eb88600160e01b600052602052604060002090565b5460e01b90565b90811661395d57506139478161392e6139579361391c8a600160e01b600052602052604060002090565b9060e01c63ffffffff19825416179055565b879063ffffffff60e01b16600052602052604060002090565b805463ffffffff19166001179055565b0161387c565b61391c8261397f6139989461391c8b600160e01b600052602052604060002090565b889063ffffffff60e01b16600052602052604060002090565b613957565b60405162461bcd60e51b815260206004820152601560248201527462797465733420616c72656164792065786973747360581b6044820152606490fd5b156139e157565b60405162461bcd60e51b815260206004820152601060248201526f1bdb9b1e481cd8599948189e5d195ccd60821b6044820152606490fd5b919091613a25836116fd565b90613a33604051928361023e565b838252601f19613a42856116fd565b01366020840137600090600160e01b82528060205260408220549260e093841b5b6001908181871c1180613abe575b15613ab457613aa990613a8486856121db565b63ffffffff60e01b82169052849063ffffffff60e01b16600052602052604060002090565b54851b930192613a63565b5090955050505050565b50878510613a71565b60405190613ad482610223565b6060602083600081520152565b613ae9613ac7565b508051604103613b0857613afb61025f565b9060008252602082015290565b600181015160ff1691908215613b2557826001146102c057600080fd5b909150606160218201519160416060526041810151608052015160a052613b4a61025f565b9081526060602082015290565b9035601e19823603018112156102c05701602081359101916001600160401b0382116102c05781360383136102c057565b908060209392818452848401376000828201840152601f01601f1916010190565b929190613c9b613c0660209260408752613bd660408801613bc983610344565b6001600160a01b03169052565b838101356060880152613c8b613bef6040830183613b57565b9390610160948560808c01526101a08b0191613b88565b91613c82613c2e613c1a6060840184613b57565b603f198d8803810160a08f01529691613b88565b608083013560c08c015260a083013560e08c01528a6101009660c085013588830152613c7261012060e087013581850152610140998701358a850152860186613b57565b9290918882860301910152613b88565b93810190613b57565b9188840301610180890152613b88565b930152565b15613ca757565b60405162461bcd60e51b815260206004820152601060248201526f19dd585c99121bdbdac819985a5b195960821b6044820152606490fd5b9190600092600090613cf2611ae261350c565b825b8151811015612e9357613d1061124c61124c611b0784866121db565b90604091825190635d1c20cd60e11b825260209182816004938180613d3c878201906000602083019252565b03915afa908115610586578891613e12575b50613d65575b5050613d6091506116c2565b613cf4565b81613d9b91613d7d61124c61124c611b07888b6121db565b8651808095819463310ed93160e01b83528201906000602083019252565b03915afa91821561058657613d6094613dee93613de8938a91613df5575b50613dc7611b07878a6121db565b915192632f32efe560e21b90840152611c0383611bf58d8c60248401613ba9565b50613ca0565b3880613d54565b613e0c9150833d8511611c4f57611c3c818361023e565b38613db9565b613e299150833d8511611c7c57611c6e818361023e565b38613d4e565b80613e375750565b600080808093338219f150613e4a611aa5565b50565b600060408051613e5c81610208565b828152826020820152015265ffffffffffff808260a01c168015613ea5575b60405192613e8884610208565b6001600160a01b038116845260d01c602084015216604082015290565b5080613e7b565b906041815114600014613ed657611aa1916020820151906060604084015193015160001a90613ee0565b5050600090600290565b9291907f7fffffffffffffffffffffffffffffff5d576e7357a4501ddfe92f46681b20a08311613f505791608094939160ff602094604051948552168484015260408301526060820152600093849182805260015afa156105865781516001600160a01b03811615611f3f579190565b5050505060009060039056fe85b0144f2a9423c7a6aa2d14ed97c6169ecf5e55be5627ab77683b168d9ad1bd85b0144f2a9423c7a6aa2d14ed97c6169ecf5e55be5627ab77683b168d9ad15685b0144f2a9423c7a6aa2d14ed97c6169ecf5e55be5627ab77683b168d9ad1f185b0144f2a9423c7a6aa2d14ed97c6169ecf5e55be5627ab77683b168d9ad18a0c3e544e812442a5d9fd078a043b8060ae540606314f62ad13ee75df338fec404078726ac9e96eb989403b3bea6637a510f15a7424088ee24e283ed5940c3625a26469706673582212203cad21e53ca2aed9c401a4612d62497862afb4af748e78d1f76fc0348d30079364736f6c6343000813003360c03461009a57601f61103138819003918201601f19168301916001600160401b0383118484101761009f57808492604094855283398101031261009a57610052602061004b836100b5565b92016100b5565b600280546001600160801b031916905560809190915260a052604051610f6790816100ca823960805181818161069701526108e8015260a051818181610be00152610c720152f35b600080fd5b634e487b7160e01b600052604160045260246000fd5b51906001600160a01b038216820361009a5756fe608080604052600436101561001357600080fd5b60003560e01c90816301ffc9a714610ca1575080630ef22a0114610c5c5780631cff79cd146107695780634125ff901461074b57806367b33932146106c6578063820a142c146106815780639f81aed714610663578063c4d252f514610570578063cdca1a5314610503578063e335a37a146103cd578063e3d20e6d1461028b5763f361cef2146100a357600080fd5b3461020357602080600319360112610203576001600160401b03600435818111610203576100d5903690600401610ce3565b336000908152600160205260409020546001600160801b0316156100f557005b60405163399dd46360e01b815230600482015284816024816000335af190811561027f57600091610252575b501561021557818491810103126102035735908116809103610203576201518081101580610208575b1561020357600254916001600160801b0390818416908282146101ed578260018093011680956001600160801b031916176002556040519461018b86610d53565b8552808501938452336000525260406000209251168254916001600160401b0360801b905160801b16916001600160401b0360c01b1617179055337fcdddfb4e53d2f7d725fae607b33383443789359047546dbdbd01f85d21adf61c600080a2005b634e487b7160e01b600052601160045260246000fd5b600080fd5b506212750081111561014a565b60405162461bcd60e51b81526004810185905260156024820152746e6f7420617574686f72697a6564206d6f64756c6560581b6044820152606490fd5b6102729150853d8711610278575b61026a8183610d6e565b810190610d8f565b38610121565b503d610260565b6040513d6000823e3d90fd5b346102035761029936610d10565b90916102a481610e25565b60018060a01b03808216918260005260209460018652604060002094604051956102cd87610d53565b546102fb82846001600160801b03968b8886169b8c8152019a6001600160401b03809660801c168c52610dc8565b96876000526000895285604060002054166103b457511642018042116101ed5786947fa2870d86c0661e772986ac09e63ccc81e35120c057cc6415544b5687ef62e65a94600160405161034d81610d53565b8981528b81019383861685528960005260008d5260406000209151166001600160601b0360a01b825416178155019151166001600160801b03198254161790556103a4604051938493604085526040850191610da7565b90888301520390a3604051908152f35b604051634ca8215f60e11b815260048101899052602490fd5b3461020357600036600319011261020357336000908152600160205260409020546001600160801b03166103fd57005b60405163399dd46360e01b815230600482015260209081816024816000335af190811561027f576000916104e6575b506104ae576040519061043e82610d53565b600082526001818301916000835233600052526001600160801b0360406000209251168254916001600160401b0360801b905160801b16916001600160401b0360c01b1617179055337fc40cdf4341ec984cbdf8ee01d99ea3a417537c7d76f069c9c44e0a613c1a8aab600080a2005b6064906040519062461bcd60e51b825260048201526011602482015270617574686f72697a6564206d6f64756c6560781b6044820152fd5b6104fd9150823d84116102785761026a8183610d6e565b8261042c565b34610203576060366003190112610203576004356001600160801b0381168103610203576024356001600160a01b038116810361020357604435906001600160401b03821161020357602092610560610568933690600401610ce3565b929091610dc8565b604051908152f35b3461020357602036600319011261020357600435806000526000602052604060002060016040516105a081610d53565b818060a01b039283815416908183526001600160801b0393849101541660208301521561064a57826105d3915116610e25565b60016040516105e181610d53565b6000815260208101936000855285600052600060205260406000209151166001600160601b0360a01b825416178155019151166001600160801b03198254161790557fe8d9861dbc9c663ed3accd261bbe2fe01e0d3d9e5f51fa38523b265c7757a93a600080a2005b604051630995c9d560e01b815260048101859052602490fd5b34610203576000366003190112610203576020604051620151808152f35b34610203576000366003190112610203576040517f00000000000000000000000000000000000000000000000000000000000000006001600160a01b03168152602090f35b34610203576020366003190112610203576004356001600160a01b0381169081900361020357600060206040516106fc81610d53565b8281520152600052600160205260408060002081519061071b82610d53565b5460206001600160801b03821692838152016001600160401b03809260801c168152835192835251166020820152f35b34610203576000366003190112610203576020604051621275008152f35b346102035761077736610d10565b610782839293610e25565b60018060a01b03821660005260016020526107d18184846040600020604051906107ab82610d53565b549060206001600160401b036001600160801b0384169384845260801c16910152610dc8565b816004116102035783356001600160e01b031916630e554a5b60e21b8103610b6857506060600319858481010301126102035761081060048501610ccf565b60248501356001600160401b038111610203578386016023828801011215610203576001600160401b036004828801013511610b52576004818701013560051b90602060405161086282850182610d6e565b6004838a01013581520191858801602482848b010101116102035791602482890101925b602481848b0101018410610b2a575050505060448501356001600160401b038111610203576108bd90600485880191880101610eea565b50604051635bf3a31560e01b81526001600160a01b03918216600482015290602090829060249082907f0000000000000000000000000000000000000000000000000000000000000000165afa90811561027f57600091610b0b575b5015610a87575b60405161092c81610d53565b600081526001600160801b036001602083019260008452846000526000602052604060002090828060a01b039051166001600160601b0360a01b825416178155019151166001600160801b03198254161790556000806040518487823780858101838152039082875af1923d15610a5e577f5db5415ab96b2653e08beeb84341b7f5d19ded653e7d528a3af4505cd002ae603d946109c986610ecf565b956109d76040519788610d6e565b86523d6000602088013e5b1515958692610a076040519283926020845260018060a01b0316976020840191610da7565b0390a4604051918252604060208301528181519182604083015260005b838110610a465750508160006060809484010152601f80199101168101030190f35b60208282018101516060878401015285935001610a24565b7f5db5415ab96b2653e08beeb84341b7f5d19ded653e7d528a3af4505cd002ae606060946109e2565b806000526000602052602060406000206001600160801b03600160405192610aae84610d53565b818060a01b03815416845201541691829101528015610af257804210610ad45750610920565b6044906040519063035fce5b60e01b82524260048301526024820152fd5b604051630995c9d560e01b815260048101839052602490fd5b610b24915060203d6020116102785761026a8183610d6e565b85610919565b83356001600160e01b0319811690036102035760208060249386358152019401939150610886565b634e487b7160e01b600052604160045260246000fd5b63cb361da560e01b03610a87578382016040858203600319011261020357610b9260048601610ccf565b906024860135906001600160401b038211610203576004610bb592880101610eea565b50604051635bf3a31560e01b81526001600160a01b03918216600482015290602090829060249082907f0000000000000000000000000000000000000000000000000000000000000000165afa90811561027f57600091610c3d575b5061092057806000526000602052602060406000206001600160801b03600160405192610aae84610d53565b610c56915060203d6020116102785761026a8183610d6e565b85610c11565b34610203576000366003190112610203576040517f00000000000000000000000000000000000000000000000000000000000000006001600160a01b03168152602090f35b34610203576020366003190112610203576004359063ffffffff60e01b821680920361020357602091158152f35b35906001600160a01b038216820361020357565b9181601f84011215610203578235916001600160401b038311610203576020838186019501011161020357565b906040600319830112610203576004356001600160a01b03811681036102035791602435906001600160401b03821161020357610d4f91600401610ce3565b9091565b604081019081106001600160401b03821117610b5257604052565b90601f801991011681019081106001600160401b03821117610b5257604052565b90816020910312610203575180151581036102035790565b908060209392818452848401376000828201840152601f01601f1916010190565b929190610e11610e1f926040519485936001600160801b036020860198468a5230604088015216606086015260018060a01b0316608085015260a08085015260c0840191610da7565b03601f198101835282610d6e565b51902090565b6001600160a01b03163381141580610e7e575b610e6c5760005260016020526001600160801b036040600020541615610e5a57565b604051638fc8bd5960e01b8152600490fd5b6040516374a2152760e01b8152600490fd5b506040516317aa5fb760e11b8152336004820152602081602481855afa90811561027f57600091610eb1575b5015610e38565b610ec9915060203d81116102785761026a8183610d6e565b38610eaa565b6001600160401b038111610b5257601f01601f191660200190565b81601f8201121561020357803590610f0182610ecf565b92610f0f6040519485610d6e565b828452602083830101116102035781600092602080930183860137830101529056fea264697066735822122053f317b2db57b551ec79b22612470bec1d76b1f2bb69daef5b1e57dabca5174a64736f6c6343000813003360803461007057601f6106eb38819003918201601f19168301916001600160401b038311848410176100755780849260209460405283398101031261007057516001600160a01b0381168103610070576100619061005c3361008b565b61008b565b60405161061890816100d38239f35b600080fd5b634e487b7160e01b600052604160045260246000fd5b600080546001600160a01b039283166001600160a01b03198216811783559216907f8be0079c531659141344cd1fd0a4f28419497f9722a3daafe3b4186f6b6457e09080a356fe6040608081526004908136101561001557600080fd5b600091823560e01c806326d6e4571461036a578063424c312d146101fa5780635bf3a3151461015f578063715018a61461019d5780638061f1321461015f5780638da5cb5b146101335763f2fde38b1461006e57600080fd5b3461012f57602036600319011261012f5761008761046b565b9061009061058a565b6001600160a01b039182169283156100dd57505082546001600160a01b0319811683178455167f8be0079c531659141344cd1fd0a4f28419497f9722a3daafe3b4186f6b6457e08380a380f35b906020608492519162461bcd60e51b8352820152602660248201527f4f776e61626c653a206e6577206f776e657220697320746865207a65726f206160448201526564647265737360d01b6064820152fd5b8280fd5b50503461015b578160031936011261015b57905490516001600160a01b039091168152602090f35b5080fd5b50503461015b57602036600319011261015b5760209160ff9082906001600160a01b0361018a61046b565b1681526001855220541690519015158152f35b83346101f757806003193601126101f7576101b661058a565b80546001600160a01b03198116825581906001600160a01b03167f8be0079c531659141344cd1fd0a4f28419497f9722a3daafe3b4186f6b6457e08280a380f35b80fd5b5082346101f75761020a36610486565b9161021361058a565b815b8351811015610366576001600160a01b03806102318387610560565b51161561031357806102438387610560565b511684526001602081815260ff88872054166102b85790808392859461026c6102b3978b610560565b51168852528786209060ff198254161790556102888287610560565b51167f4e87357acd951c4831877b6015585c4a7e20204cadf07178081e9929b3a13b5d8580a261053b565b610215565b8460849189519162461bcd60e51b8352820152603060248201527f54727573746564436f6e74726163744d616e616765723a20636f6e747261637460448201526f08185b1c9958591e481d1c9d5cdd195960821b6064820152fd5b855162461bcd60e51b8152602081850152602760248201527f54727573746564436f6e74726163744d616e616765723a2061646472657373206044820152666973207a65726f60c81b6064820152608490fd5b8280f35b5082346101f75761037a36610486565b9161038361058a565b815b8351811015610366576001600160a01b03806103a18387610560565b511684526001602081815260ff8887205416156104145790829184936103ca61040f968a610560565b5116875252868520805460ff191690556103e48287610560565b51167fe077e45f89f0635acaf766ec2ea56cb9579a33b8732ecdc656fe2e7bdf7cac418580a261053b565b610385565b8460849189519162461bcd60e51b8352820152602c60248201527f54727573746564436f6e74726163744d616e616765723a20636f6e747261637460448201526b081b9bdd081d1c9d5cdd195960a21b6064820152fd5b600435906001600160a01b038216820361048157565b600080fd5b6020806003198301126104815767ffffffffffffffff91600435838111610481578160238201121561048157806004013590848211610525578160051b9160405195601f19603f8501168701908782109082111761052557604052855260248486019282010192831161048157602401905b828210610506575050505090565b81356001600160a01b03811681036104815781529083019083016104f8565b634e487b7160e01b600052604160045260246000fd5b600019811461054a5760010190565b634e487b7160e01b600052601160045260246000fd5b80518210156105745760209160051b010190565b634e487b7160e01b600052603260045260246000fd5b6000546001600160a01b0316330361059e57565b606460405162461bcd60e51b815260206004820152602060248201527f4f776e61626c653a2063616c6c6572206973206e6f7420746865206f776e65726044820152fdfea26469706673582212208af1ace5f13f9a9effccf77416a2475fcf73457dbeb3c4282faf9fb07f4fd4c764736f6c6343000813003360803461007057601f6106eb38819003918201601f19168301916001600160401b038311848410176100755780849260209460405283398101031261007057516001600160a01b0381168103610070576100619061005c3361008b565b61008b565b60405161061890816100d38239f35b600080fd5b634e487b7160e01b600052604160045260246000fd5b600080546001600160a01b039283166001600160a01b03198216811783559216907f8be0079c531659141344cd1fd0a4f28419497f9722a3daafe3b4186f6b6457e09080a356fe6040608081526004908136101561001557600080fd5b600091823560e01c806326d6e4571461036a578063424c312d146101fa5780635bf3a3151461015f578063715018a61461019d5780638061f1321461015f5780638da5cb5b146101335763f2fde38b1461006e57600080fd5b3461012f57602036600319011261012f5761008761046b565b9061009061058a565b6001600160a01b039182169283156100dd57505082546001600160a01b0319811683178455167f8be0079c531659141344cd1fd0a4f28419497f9722a3daafe3b4186f6b6457e08380a380f35b906020608492519162461bcd60e51b8352820152602660248201527f4f776e61626c653a206e6577206f776e657220697320746865207a65726f206160448201526564647265737360d01b6064820152fd5b8280fd5b50503461015b578160031936011261015b57905490516001600160a01b039091168152602090f35b5080fd5b50503461015b57602036600319011261015b5760209160ff9082906001600160a01b0361018a61046b565b1681526001855220541690519015158152f35b83346101f757806003193601126101f7576101b661058a565b80546001600160a01b03198116825581906001600160a01b03167f8be0079c531659141344cd1fd0a4f28419497f9722a3daafe3b4186f6b6457e08280a380f35b80fd5b5082346101f75761020a36610486565b9161021361058a565b815b8351811015610366576001600160a01b03806102318387610560565b51161561031357806102438387610560565b511684526001602081815260ff88872054166102b85790808392859461026c6102b3978b610560565b51168852528786209060ff198254161790556102888287610560565b51167f4e87357acd951c4831877b6015585c4a7e20204cadf07178081e9929b3a13b5d8580a261053b565b610215565b8460849189519162461bcd60e51b8352820152603060248201527f54727573746564436f6e74726163744d616e616765723a20636f6e747261637460448201526f08185b1c9958591e481d1c9d5cdd195960821b6064820152fd5b855162461bcd60e51b8152602081850152602760248201527f54727573746564436f6e74726163744d616e616765723a2061646472657373206044820152666973207a65726f60c81b6064820152608490fd5b8280f35b5082346101f75761037a36610486565b9161038361058a565b815b8351811015610366576001600160a01b03806103a18387610560565b511684526001602081815260ff8887205416156104145790829184936103ca61040f968a610560565b5116875252868520805460ff191690556103e48287610560565b51167fe077e45f89f0635acaf766ec2ea56cb9579a33b8732ecdc656fe2e7bdf7cac418580a261053b565b610385565b8460849189519162461bcd60e51b8352820152602c60248201527f54727573746564436f6e74726163744d616e616765723a20636f6e747261637460448201526b081b9bdd081d1c9d5cdd195960a21b6064820152fd5b600435906001600160a01b038216820361048157565b600080fd5b6020806003198301126104815767ffffffffffffffff91600435838111610481578160238201121561048157806004013590848211610525578160051b9160405195601f19603f8501168701908782109082111761052557604052855260248486019282010192831161048157602401905b828210610506575050505090565b81356001600160a01b03811681036104815781529083019083016104f8565b634e487b7160e01b600052604160045260246000fd5b600019811461054a5760010190565b634e487b7160e01b600052601160045260246000fd5b80518210156105745760209160051b010190565b634e487b7160e01b600052603260045260246000fd5b6000546001600160a01b0316330361059e57565b606460405162461bcd60e51b815260206004820152602060248201527f4f776e61626c653a2063616c6c6572206973206e6f7420746865206f776e65726044820152fdfea2646970667358221220e7689e3636fe0cc80c6ccf033f89de24809b84b73fd0272a9e41ede9dc336ca364736f6c6343000813003360a08060405234620000895760016002556101948181016001600160401b0381118382101762000073578291620045f6833903906000f08015620000675760805260405161456790816200008f8239608051818181610f1901528181612ee0015261313a0152f35b6040513d6000823e3d90fd5b634e487b7160e01b600052604160045260246000fd5b600080fdfe60806040526004361015610023575b361561001957600080fd5b610021614031565b005b60003560e01c80630396cb60146101635780630bd28e3b1461015e5780631b2e01b8146101595780631d732756146101545780631fad948c1461014f578063205c28781461014a57806335567e1a146101455780634b1d7cf5146101405780635287ce121461013b57806370a08231146101365780638f41ec5a14610131578063957122ab1461012c5780639b249f6914610127578063a619353114610122578063b760faf91461011d578063bb9fe6bf14610118578063c23a5cea14610113578063d6383f941461010e578063ee219423146101095763fc7e286d0361000e576114f0565b611354565b611230565b611116565b611013565b610ff3565b610fd3565b610eb7565b610d52565b610d36565b610ce5565b610bd0565b6108da565b610871565b610765565b61068c565b610516565b610348565b6102bb565b60203660031901126102a05760043563ffffffff81168082036102a0573360009081526020819052604090207fa5ae833d0bb1dcd632d98a8b70973e8516812898e19bf27b70071ebc8dc52c019161029b916101e990916101c5811515614105565b6101e26101d9600185015463ffffffff1690565b63ffffffff1690565b1115614151565b549261027d6001600160701b039461025761020934888460781c166118f6565b9661021588151561419d565b610221818911156141de565b61023e8161022d61044c565b941684906001600160701b03169052565b6001602084015287166001600160701b03166040830152565b63ffffffff8316606082015260006080820181905233815260208190526040902061421b565b6040805194855263ffffffff90911660208501523393918291820190565b0390a2005b600080fd5b602435906001600160c01b03821682036102a057565b346102a05760203660031901126102a0576004356001600160c01b03811681036102a0573360009081526001602090815260408083206001600160c01b0390941683529290522061030c8154611af5565b9055005b6001600160a01b038116036102a057565b6024359061032e82610310565b565b60c4359061032e82610310565b359061032e82610310565b346102a05760403660031901126102a05760206103a260043561036a81610310565b6103726102a5565b6001600160a01b0390911660009081526001845260408082206001600160c01b0390931682526020929092522090565b54604051908152f35b634e487b7160e01b600052604160045260246000fd5b60a081019081106001600160401b038211176103dc57604052565b6103ab565b61010081019081106001600160401b038211176103dc57604052565b6001600160401b0381116103dc57604052565b606081019081106001600160401b038211176103dc57604052565b90601f801991011681019081106001600160401b038211176103dc57604052565b6040519061032e826103c1565b6040519060c082018281106001600160401b038211176103dc57604052565b60405190604082018281106001600160401b038211176103dc57604052565b6001600160401b0381116103dc57601f01601f191660200190565b9291926104be82610497565b916104cc604051938461042b565b8294818452818301116102a0578281602093846000960137010152565b9181601f840112156102a0578235916001600160401b0383116102a057602083818601950101116102a057565b346102a0576101c03660031901126102a0576001600160401b036004358181116102a057366023820112156102a0576105599036906024816004013591016104b2565b90366023190161018081126102a05761010060405191610578836103c1565b126102a057604051610589816103e1565b610591610321565b815260443560208201526064356040820152608435606082015260a43560808201526105bb610330565b60a082015260e43560c08201526101043560e082015281526101243560208201526101443560408201526101643560608201526101843560808201526101a4359182116102a05761062f9261061761061f9336906004016104e9565b929091611e06565b6040519081529081906020820190565b0390f35b9060406003198301126102a0576004356001600160401b03928382116102a057806023830112156102a05781600401359384116102a05760248460051b830101116102a057602401919060243561068981610310565b90565b346102a05761069a36610633565b6106a59291926144dd565b6106ae836115ec565b60005b84811061072e57506000927fbb47ee3e183a558b1a2ff0874b079f3fc5478b7454eacf2bfc5af2ff5878f9728480a183915b8583106106fe576106f485856116be565b6100216001600255565b90919360019061072461071287898761166b565b61071c8886611652565b519088611a02565b01940191906106e3565b8061075c610755610743600194869896611652565b5161074f848a8861166b565b84612723565b9083612367565b019290926106b1565b346102a05760403660031901126102a05760043561078281610310565b602435906000913383528260205260408320916001600160701b0383541680831161082c5784838194936107d4610829976107ce6107c2869887986118e4565b6001600160701b031690565b90612a4f565b604080516001600160a01b03831681526020810184905233917fd1c19fbcd4551a5edfb66d43d2e337c04837afda3482b42bdf569a8fccdae5fb91a26001600160a01b03165af161082361168e565b50614450565b80f35b60405162461bcd60e51b815260206004820152601960248201527f576974686472617720616d6f756e7420746f6f206c61726765000000000000006044820152606490fd5b346102a05760403660031901126102a057602060043561089081610310565b6108986102a5565b6001600160a01b0390911660009081526001835260408082206001600160c01b03841683526020529020546040805192901b67ffffffffffffffff1916178152f35b346102a0576108e836610633565b6108f06144dd565b6000805b838210610abe5761090591506115ec565b7fbb47ee3e183a558b1a2ff0874b079f3fc5478b7454eacf2bfc5af2ff5878f972600080a16000805b848110610a3057505060008093815b818110610974576106f4868660007f575ff3acadd5ab348fe1855e217e0f3678f8d767d7494c9f9fefbee2e17cca4d8180a26116be565b6109cb61098282848a611b04565b6109a061099461099460208401611b5b565b6001600160a01b031690565b7f575ff3acadd5ab348fe1855e217e0f3678f8d767d7494c9f9fefbee2e17cca4d600080a280611b26565b906000915b8083106109e8575050506109e390611af5565b61093d565b90919497610a23610a1d610a2992610a178c8b610a1082610a0a8e8b8d61166b565b92611652565b5191611a02565b906118f6565b99611af5565b95611af5565b91906109d0565b610a3b818688611b04565b6020610a53610a4a8380611b26565b92909301611b5b565b6000926001600160a01b03909116905b828410610a7c5750505050610a7790611af5565b61092e565b90919294610a2381610ab185610aaa610a98610ab6968d611652565b51610aa48c8b8a61166b565b85612723565b908b6124ce565b611af5565b929190610a63565b610ac9828587611b04565b90610ad48280611b26565b92610ae461099460208301611b5b565b916001600160a01b038316610afc6001821415611b65565b610b1d575b505050610b1791610b11916118f6565b91611af5565b906108f4565b909592610b366040999693999895989788810190611770565b92908a3b156102a05789938b918a51938492839263e3563a4f60e01b845260049e8f850193610b6494611cba565b03815a93600094fa9081610bb7575b50610ba157865163086a9f7560e41b81526001600160a01b038a16818a0190815281906020010390fd5b0390fd5b9497509295509093509181610b11610b17610b01565b80610bc4610bca926103fd565b80610d2b565b38610b73565b346102a05760203660031901126102a05761062f6080600435610bf281610310565b60409182918251610c02816103c1565b60009281848093528260208201528286820152826060820152015260018060a01b03168152806020522090610c9165ffffffffffff6001835194610c45866103c1565b80546001600160701b038082168852607082901c60ff161515602089015260789190911c1685870152015463ffffffff8116606086015260201c16608084019065ffffffffffff169052565b5191829182919091608065ffffffffffff8160a08401956001600160701b03808251168652602082015115156020870152604082015116604086015263ffffffff6060820151166060860152015116910152565b346102a05760203660031901126102a057600435610d0281610310565b60018060a01b0316600052600060205260206001600160701b0360406000205416604051908152f35b60009103126102a057565b346102a05760003660031901126102a057602060405160018152f35b346102a05760603660031901126102a05760046001600160401b0381358181116102a057610d8390369084016104e9565b905060243591610d9283610310565b6044359081116102a057610da990369085016104e9565b929091159081610ead575b50610e60576014821015610dea575b610b9d8360405191829162461bcd60e51b8352820160409060208152600060208201520190565b610dfa610e0692610e0092612041565b9061204f565b60601c90565b3b15610e13573880610dc3565b610b9d9060405191829162461bcd60e51b8352820160609060208152601b60208201527f41413330207061796d6173746572206e6f74206465706c6f796564000000000060408201520190565b610b9d8360405191829162461bcd60e51b8352820160609060208152601960208201527f41413230206163636f756e74206e6f74206465706c6f7965640000000000000060408201520190565b90503b1538610db4565b346102a05760203660031901126102a0576004356001600160401b0381116102a057610ee79036906004016104e9565b604051632b870d1b60e11b8152918291610f0491600484016121c7565b6001600160a01b0391602091849190038160007f000000000000000000000000000000000000000000000000000000000000000086165af1908115610f9557602492600092610f65575b50604051633653dc0360e11b815291166004820152fd5b610f8791925060203d8111610f8e575b610f7f818361042b565b8101906121b2565b9038610f4e565b503d610f75565b6118c2565b90816101609103126102a05790565b60206003198201126102a057600435906001600160401b0382116102a05761068991600401610f9a565b346102a0576020610feb610fe636610fa9565b611f12565b604051908152f35b60203660031901126102a05761002160043561100e81610310565b6140af565b346102a057600080600319360112611113573381528060205260408120600181019063ffffffff8254169081156110e1576110996110736110a693611065611060855460ff9060701c1690565b6142cf565b65ffffffffffff421661430f565b845469ffffffffffff000000001916602082901b69ffffffffffff000000001617909455565b805460ff60701b19169055565b60405165ffffffffffff91909116815233907ffa9b3c14cc825c412c9ed81b3ba365a5b459439403f18829e572ed53a4180f0a90602090a280f35b60405162461bcd60e51b815260206004820152600a6024820152691b9bdd081cdd185ad95960b21b6044820152606490fd5b80fd5b346102a05760203660031901126102a05760043561113381610310565b33600090815260208190526040902061082990916111d46111626107c285546001600160701b039060781c1690565b9361116e851515614329565b6111ba600182016111a765ffffffffffff611193835465ffffffffffff9060201c1690565b1661119f81151561436c565b4210156143b8565b805469ffffffffffffffffffff19169055565b80546dffffffffffffffffffffffffffff60781b19169055565b604080516001600160a01b03831681526020810185905233917fb7c918e0e249f999e965cafeb6c664271b3f4317d296461500e71da39f0cbda391a2600080808095819460018060a01b03165af161122a61168e565b50614404565b346102a05760603660031901126102a0576001600160401b036004358181116102a057611261903690600401610f9a565b6024359161126e83610310565b6044359081116102a057611289610b9d9136906004016104e9565b611291611589565b61129a8561229c565b6112ad6112a78287612593565b90613f0b565b946112bd82600092438452611903565b43825296606094919384926001600160a01b038316611320575b50505050608001519361130660406112f8602084015165ffffffffffff1690565b92015165ffffffffffff1690565b90604051968796630116f59360e71b885260048801611d4f565b8395508394965061133a6040949293945180948193611d41565b03925af190608061134961168e565b9291903880806112d7565b346102a05761136236610fa9565b61136a611589565b6113738261229c565b61137d8183612593565b825160a0015191939161139d906001600160a01b0316613ff1565b613ff1565b8351519091906113b5906001600160a01b0316613ff1565b946113be612018565b506113ed6113d160409586810190611770565b906000601483106114e85750610dfa61139892610e0092612041565b916113f791613f0b565b8051608086015185870151602084015191976001600160a01b039093169360018514938593909190899065ffffffffffff1691015165ffffffffffff16916060015192611442610459565b9a8b5260208b0152841515898b015265ffffffffffff1660608a015265ffffffffffff16608089015260a0880152151590816114df575b5061149a5750610b9d925194859463e0cff05f60e01b865260048601612158565b9190610b9d936114a984613ff1565b6114c36114b4610478565b6001600160a01b039096168652565b602085015251633ebb2d3960e21b8152958695600487016120d1565b90501538611479565b915050613ff1565b346102a05760203660031901126102a05760043561150d81610310565b60018060a01b0316600052600060205260a0604060002065ffffffffffff60018254920154604051926001600160701b0390818116855260ff8160701c161515602086015260781c16604084015263ffffffff8116606084015260201c166080820152f35b6001600160401b0381116103dc5760051b60200190565b60405190611596826103c1565b6040516080836115a5836103e1565b60009283815283602082015283604082015283606082015283838201528360a08201528360c08201528360e082015281528260208201528260408201528260608201520152565b906115f682611572565b611603604051918261042b565b8281528092611614601f1991611572565b019060005b82811061162557505050565b602090611630611589565b82828501015201611619565b634e487b7160e01b600052603260045260246000fd5b80518210156116665760209160051b010190565b61163c565b91908110156116665760051b8101359061015e19813603018212156102a0570190565b3d156116b9573d9061169f82610497565b916116ad604051938461042b565b82523d6000602084013e565b606090565b6001600160a01b0316801561172b57600080809381935af16116de61168e565b50156116e657565b60405162461bcd60e51b815260206004820152601f60248201527f41413931206661696c65642073656e6420746f2062656e6566696369617279006044820152606490fd5b60405162461bcd60e51b815260206004820152601860248201527f4141393020696e76616c69642062656e656669636961727900000000000000006044820152606490fd5b903590601e19813603018212156102a057018035906001600160401b0382116102a0576020019181360383136102a057565b908160209103126102a0575190565b908060209392818452848401376000828201840152601f01601f1916010190565b60005b8381106117e55750506000910152565b81810151838201526020016117d5565b9060209161180e815180928185528580860191016117d2565b601f01601f1916010190565b9061183460809161068996946101c08086528501916117b1565b9360e0815160018060a01b0380825116602087015260208201516040870152604082015160608701526060820151858701528482015160a087015260a08201511660c086015260c081015182860152015161010084015260208101516101208401526040810151610140840152606081015161016084015201516101808201526101a08184039101526117f5565b6040513d6000823e3d90fd5b634e487b7160e01b600052601160045260246000fd5b919082039182116118f157565b6118ce565b919082018092116118f157565b905a9181602061191c6060830151936060810190611770565b9061193c856040519586948594630eb993ab60e11b86526004860161181a565b03816000305af1600091816119d2575b506119cb575060206000803e60005163deaddead60e01b1461198a57611984611979610689945a906118e4565b6080840151906118f6565b9161384e565b60408051631101335b60e11b8152600060048201526024810191909152600f60448201526e41413935206f7574206f662067617360881b6064820152608490fd5b9250505090565b6119f491925060203d81116119fb575b6119ec818361042b565b8101906117a2565b903861194c565b503d6119e2565b909291925a93806020611a1e6060830151946060810190611770565b90611a3e866040519586948594630eb993ab60e11b86526004860161181a565b03816000305af160009181611ad5575b50611ace575060206000803e60005163deaddead60e01b14611a8d57611a87611a7c61068995965a906118e4565b6080830151906118f6565b92613a7e565b60408051631101335b60e11b8152600481018590526024810191909152600f60448201526e41413935206f7574206f662067617360881b6064820152608490fd5b9450505050565b611aee91925060203d81116119fb576119ec818361042b565b9038611a4e565b60001981146118f15760010190565b91908110156116665760051b81013590605e19813603018212156102a0570190565b903590601e19813603018212156102a057018035906001600160401b0382116102a057602001918160051b360383136102a057565b3561068981610310565b15611b6c57565b60405162461bcd60e51b815260206004820152601760248201527f4141393620696e76616c69642061676772656761746f720000000000000000006044820152606490fd5b9035601e19823603018112156102a05701602081359101916001600160401b0382116102a05781360383136102a057565b61068991611c0081611bf38461033d565b6001600160a01b03169052565b60208201356020820152611c9b611c4c611c31611c206040860186611bb1565b6101608060408801528601916117b1565b611c3e6060860186611bb1565b9085830360608701526117b1565b6080840135608084015260a084013560a084015260c084013560c084015260e084013560e08401526101008085013590840152610120611c8e81860186611bb1565b91858403908601526117b1565b91611cac6101409182810190611bb1565b9290918185039101526117b1565b949391929083604087016040885252606086019360608160051b8801019482600090815b848310611cfd57505050505050846020610689959685039101526117b1565b909192939497605f198b8203018552883561015e1984360301811215611d3d5760019184611d2b9201611be2565b98602090810196950193019190611cde565b8280fd5b908092918237016000815290565b92909361068996959260c0958552602085015265ffffffffffff8092166040850152166060830152151560808201528160a082015201906117f5565b15611d9257565b60405162461bcd60e51b815260206004820152601760248201527f4141393220696e7465726e616c2063616c6c206f6e6c790000000000000000006044820152606490fd5b906040610689926000815281602082015201906117f5565b6040906106899392815281602082015201906117f5565b909291925a93611e17303314611d8b565b8151946040860151955a611388606083015189010111611f0157610689966000958051611e5e575b50505090611e58915a90036080840151019436916104b2565b91613c52565b8251611e7c92611e789290916001600160a01b031661449c565b1590565b611e88575b8080611e3f565b611e5892919450611e976144ae565b8051611eaa575b50506001939091611e81565b602085810151835193909101516040516001600160a01b039094169391927f1c4fada7374c0a9ee8841fc38afe82932dc0f8e69012e927f061a8bae611a20192918291611ef79183611def565b0390a33880611e9e565b63deaddead60e01b60005260206000fd5b611f28611f226040830183611770565b90614491565b90611f39611f226060830183611770565b90611fcf611f4e611f22610120840184611770565b6040805184356001600160a01b031660208083019182528601359282019290925260608101969096526080808701959095529383013560a08087019190915283013560c08087019190915283013560e08087019190915283013561010080870191909152909201356101208501526101408401919091528290610160820190565b0391611fe3601f199384810183528261042b565b51902060408051602081019283523091810191909152466060820152608092830181529091612012908261042b565b51902090565b60405190604082018281106001600160401b038211176103dc5760405260006020838281520152565b906014116102a05790601490565b6bffffffffffffffffffffffff19903581811693926014811061207157505050565b60140360031b82901b16169150565b9060c060a061068993805184526020810151602085015260408101511515604085015265ffffffffffff80606083015116606086015260808201511660808501520151918160a082015201906117f5565b929461213261032e9561212061010095999861210e6120fa602097610140808c528b0190612080565b9b878a019060208091805184520151910152565b80516060890152602001516080880152565b805160a08701526020015160c0860152565b80516001600160a01b031660e08501520151805191909201908152602091820151910152565b6121a161032e9461218f61217a60a0959998969960e0865260e0860190612080565b98602085019060208091805184520151910152565b80516060840152602001516080830152565b019060208091805184520151910152565b908160209103126102a0575161068981610310565b9160206106899381815201916117b1565b906121f290610689969495936060845260608401916117b1565b6001600160a01b0390941660208201528084036040909101526117b1565b60009060033d1161221d57565b905060046000803e60005160e01c90565b600060443d1061068957604051600319913d83016004833e81516001600160401b03918282113d60248401111761228b57818401948551938411612293573d8501016020848701011161228b57506106899291016020019061042b565b949350505050565b50949350505050565b6122a96040820182611770565b6122c16122b584611b5b565b93610120810190611770565b9290303b156102a0576000936122ec91604051968795869563957122ab60e01b8752600487016121d8565b0381305afa9081612354575b5061032e576001612307612210565b6308c379a014612318575b610f9557565b61232061222e565b8061232c575b50612312565b8051600092501561232657604051631101335b60e11b8152908190610b9d9060048301611dd7565b80610bc4612361926103fd565b386122f8565b9190612372906124f8565b6001600160a01b0392918316612488576124395761238f906124f8565b91166123f35761239c5750565b60408051631101335b60e11b815260048101929092526024820152602160448201527f41413332207061796d61737465722065787069726564206f72206e6f742064756064820152606560f81b608482015260a490fd5b60408051631101335b60e11b8152600481018490526024810191909152601460448201527320a0999a1039b4b3b730ba3ab9329032b93937b960611b6064820152608490fd5b60408051631101335b60e11b8152600481018590526024810191909152601760448201527f414132322065787069726564206f72206e6f74206475650000000000000000006064820152608490fd5b60408051631101335b60e11b8152600481018690526024810191909152601460448201527320a0991a1039b4b3b730ba3ab9329032b93937b960611b6064820152608490fd5b9291906124da906124f8565b6001600160a01b03939091841690841603612488576124395761238f905b801561253e5761250790613ebd565b65ffffffffffff80604083015116421190811561252e575b5090516001600160a01b031691565b905060208201511642103861251f565b50600090600090565b1561254e57565b60405162461bcd60e51b815260206004820152601860248201527f41413934206761732076616c756573206f766572666c6f7700000000000000006044820152606490fd5b916000915a938151906125a68282612901565b6125af81611f12565b60208401526125e56001600160781b0360808401516060850151176040850151176101008401359060e085013517171115612547565b6125ee826129a9565b6125f9818584612a6a565b84519098919061261b90611e78906001600160a01b0316602088015190613fb1565b6126d45761262843600052565b60a09490940151606094906001600160a01b03166126ba575b505a810360a08401351061266b5760809360c092604087015260608601525a900391013501910152565b60408051631101335b60e11b8152600060048201526024810191909152601e60448201527f41413430206f76657220766572696669636174696f6e4761734c696d697400006064820152608490fd5b909350816126cb929750858461342d565b95909238612641565b60408051631101335b60e11b8152600060048201526024810191909152601a60448201527f4141323520696e76616c6964206163636f756e74206e6f6e63650000000000006064820152608490fd5b9290916000925a82516127368184612901565b61273f83611f12565b60208501526127756001600160781b0360808301516060840151176040840151176101008601359060e087013517171115612547565b61277e816129a9565b61278a8186868b612ccb565b8351909991906127ac90611e78906001600160a01b0316602087015190613fb1565b612866576127b943600052565b60a09390930151606093906001600160a01b031661284b575b505a840360a0860135106127fe5750604085015260608401526080919060c0905a900391013501910152565b60408051631101335b60e11b815260048101929092526024820152601e60448201527f41413430206f76657220766572696669636174696f6e4761734c696d697400006064820152608490fd5b9092508161285d9298508686856135fc565b969091386127d2565b60408051631101335b60e11b8152600481018490526024810191909152601a60448201527f4141323520696e76616c6964206163636f756e74206e6f6e63650000000000006064820152608490fd5b156128bc57565b60405162461bcd60e51b815260206004820152601d60248201527f4141393320696e76616c6964207061796d6173746572416e64446174610000006044820152606490fd5b6129669061291e61291182611b5b565b6001600160a01b03168452565b602081013560208401526080810135604084015260a0810135606084015260c0810135608084015260e081013560c084015261010081013560e0840152610120810190611770565b90811561299e57612990610e00610dfa8460a09461298b601461032e999810156128b5565b612041565b6001600160a01b0316910152565b505060a06000910152565b60a08101516001600160a01b0316156129de5760c060035b60ff60408401519116606084015102016080830151019101510290565b60c060016129c1565b6129ff60409295949395606083526060830190611be2565b9460208201520152565b9061032e602f60405180946e020a09919903932bb32b93a32b21d1608d1b6020830152612a3f81518092602086860191016117d2565b810103600f81018552018361042b565b906001600160701b03166001600160701b0319825416179055565b916000926000925a93612af86020835193612a8b855160018060a01b031690565b95612aa3612a9c6040830183611770565b9084612e8c565b60a08601516001600160a01b031690612abb43600052565b6001600160a01b0391821615968693849189612c78575b6060015190860151604051633a871cdd60e01b81529788968795869390600485016129e7565b03938a1690f1829181612c58575b50612c4f5750600190612b17612210565b6308c379a014612c14575b50612bcc575b612b35575b50505a900391565b6001600160a01b03166000908152602081905260409020612b606107c282546001600160701b031690565b808311612b8357612b7c926001600160701b0391031690612a4f565b3880612b2d565b60408051631101335b60e11b8152600060048201526024810191909152601760448201527610504c8c48191a591b89dd081c185e481c1c99599d5b99604a1b6064820152608490fd5b60408051631101335b60e11b815260006004820152602481019190915260166044820152754141323320726576657274656420286f72204f4f472960501b6064820152608490fd5b612c1c61222e565b9081612c285750612b22565b610b9d91612c369150612a09565b604051631101335b60e11b815291829160048301611dd7565b9550612b289050565b612c7191925060203d81116119fb576119ec818361042b565b9038612b06565b9450612ca96107c2612c9c8c60018060a01b03166000526000602052604060002090565b546001600160701b031690565b8b811115612cc05750856060835b96915050612ad2565b606087918d03612cb7565b90926000936000935a94612d066020835193612ced855160018060a01b031690565b95612aa3612cfe6040830183611770565b90848c6130e3565b03938a1690f1829181612e6c575b50612e635750600190612d25612210565b6308c379a014612e26575b50612dde575b612d44575b5050505a900391565b6001600160a01b0316600090815260208190526040902091612d706107c284546001600160701b031690565b90818311612d975750612d8f92916001600160701b0391031690612a4f565b388080612d3b565b60408051631101335b60e11b815260048101929092526024820152601760448201527610504c8c48191a591b89dd081c185e481c1c99599d5b99604a1b6064820152608490fd5b60408051631101335b60e11b815260048101869052602481019190915260166044820152754141323320726576657274656420286f72204f4f472960501b6064820152608490fd5b612e2e61222e565b9081612e3a5750612d30565b8691612e469150612a09565b604051631101335b60e11b8152918291610b9d9160048401611def565b9650612d369050565b612e8591925060203d81116119fb576119ec818361042b565b9038612d14565b909180612e9857505050565b8151516001600160a01b031692833b61309457825160600151604051632b870d1b60e11b81529060208280612ed18787600484016121c7565b0381600060018060a01b0395867f00000000000000000000000000000000000000000000000000000000000000001690f1918215610f9557600092613074575b508082169586156130255716809503612fd6573b15612f8757610e00610dfa7fd51a9c61267aa6196961883ecf5ff2da6619c37dac0fa92122513fb32c032d2d93612f5b93612041565b602083810151935160a00151604080516001600160a01b039485168152939091169183019190915290a3565b60408051631101335b60e11b8152600060048201526024810191909152602060448201527f4141313520696e6974436f6465206d757374206372656174652073656e6465726064820152608490fd5b60408051631101335b60e11b8152600060048201526024810191909152602060448201527f4141313420696e6974436f6465206d7573742072657475726e2073656e6465726064820152608490fd5b60408051631101335b60e11b8152600060048201526024810191909152601b60448201527f4141313320696e6974436f6465206661696c6564206f72204f4f4700000000006064820152608490fd5b61308d91925060203d8111610f8e57610f7f818361042b565b9038612f11565b60408051631101335b60e11b8152600060048201526024810191909152601f60448201527f414131302073656e64657220616c726561647920636f6e7374727563746564006064820152608490fd5b929091816130f2575b50505050565b8251516001600160a01b031693843b6132f457835160600151604051632b870d1b60e11b8152906020828061312b8888600484016121c7565b0381600060018060a01b0395867f00000000000000000000000000000000000000000000000000000000000000001690f1918215610f95576000926132d4575b508082169687156132855716809603613236573b156131e95750610e00610dfa7fd51a9c61267aa6196961883ecf5ff2da6619c37dac0fa92122513fb32c032d2d936131b693612041565b602083810151935160a00151604080516001600160a01b039485168152939091169183019190915290a3388080806130ec565b60408051631101335b60e11b815260048101929092526024820152602060448201527f4141313520696e6974436f6465206d757374206372656174652073656e6465726064820152608490fd5b60408051631101335b60e11b8152600481018490526024810191909152602060448201527f4141313420696e6974436f6465206d7573742072657475726e2073656e6465726064820152608490fd5b60408051631101335b60e11b8152600481018690526024810191909152601b60448201527f4141313320696e6974436f6465206661696c6564206f72204f4f4700000000006064820152608490fd5b6132ed91925060203d8111610f8e57610f7f818361042b565b903861316b565b60408051631101335b60e11b815260048101929092526024820152601f60448201527f414131302073656e64657220616c726561647920636f6e7374727563746564006064820152608490fd5b1561334857565b60405162461bcd60e51b815260206004820152601f60248201527f4141343120746f6f206c6974746c6520766572696669636174696f6e476173006044820152606490fd5b91906040838203126102a05782516001600160401b0381116102a05783019080601f830112156102a0578151916133c383610497565b916133d1604051938461042b565b838352602084830101116102a0576020926133f1918480850191016117d2565b92015190565b9061032e602f60405180946e020a09999903932bb32b93a32b21d1608d1b6020830152612a3f81518092602086860191016117d2565b939192909360609460009460009382519361346160a08a87015196613453858911613341565b01516001600160a01b031690565b9161347e8360018060a01b03166000526000602052604060002090565b956134936107c288546001600160701b031690565b918583106135ad57602089976134b96134d99a6001600160701b038a8c98031690612a4f565b0151604051637a32e3bf60e11b81529889978896879390600485016129e7565b03946001600160a01b03169103f1908183918493613587575b50613580575050600190613504612210565b6308c379a01461355e575b5061351657565b60408051631101335b60e11b815260006004820152602481019190915260166044820152754141333320726576657274656420286f72204f4f472960501b6064820152608490fd5b61356661222e565b9081613572575061350f565b610b9d91612c3691506133f7565b9450925050565b9092506135a691503d8085833e61359e818361042b565b81019061338d565b91386134f2565b60408051631101335b60e11b8152600060048201526024810191909152601e60448201527f41413331207061796d6173746572206465706f73697420746f6f206c6f7700006064820152608490fd5b91949293909360609560009560009382519061362360a08b84015193613453848611613341565b936136408560018060a01b03166000526000602052604060002090565b6136546107c282546001600160701b031690565b8781106137485792602089979592936134b989956001600160701b038c61367f9d9b99031690612a4f565b03946001600160a01b03169103f190818391849361372a575b506137225750506001906136aa612210565b6308c379a014613703575b506136bd5750565b60408051631101335b60e11b81526004810192909252602482015260166044820152754141333320726576657274656420286f72204f4f472960501b6064820152608490fd5b61370b61222e565b908161371757506136b5565b612e469250506133f7565b955093505050565b90925061374191503d8085833e61359e818361042b565b9138613698565b60408051631101335b60e11b8152600481018c90526024810191909152601e60448201527f41413331207061796d6173746572206465706f73697420746f6f206c6f7700006064820152608490fd5b600311156137a157565b634e487b7160e01b600052602160045260246000fd5b9291906137d5604091600286526060602087015260608601906117f5565b930152565b9392919060038110156137a1576040916137d59186526060602087015260608601906117f5565b9061032e6036604051809475020a09a98103837b9ba27b8103932bb32b93a32b21d160551b602083015261383e81518092602086860191016117d2565b810103601681018552018361042b565b929190925a9360009180519161386383613e76565b60a084018051909691946001600160a01b03939092918416808061398557505082516001600160a01b03169050985b5a90030193840297604084019089825110613936577f49628fd1471006c1482da88028e9ce4dbb080b815c9b0344d39e5a8e6ec1419f946138dc6020928c6139319551039061403a565b0151948960206139036138f5865160018060a01b031690565b9a516001600160a01b031690565b9401519785604051968796169a16988590949392606092608083019683521515602083015260408201520152565b0390a4565b60408051631101335b60e11b8152600060048201526024810191909152602060448201527f414135312070726566756e642062656c6f772061637475616c476173436f73746064820152608490fd5b9a918051613995575b5050613892565b6060850151600099509091803b15613a7a5791899189836139cf9560405180978196829563a9a2340960e01b84528c0290600484016137b7565b0393f19081613a67575b50613a625760016139e8612210565b6308c379a014613a43575b6139ff575b388061398e565b60408051631101335b60e11b8152600060048201526024810191909152601260448201527110504d4c081c1bdcdd13dc081c995d995c9d60721b6064820152608490fd5b613a4b61222e565b80613a5657506139f3565b612c36610b9d91613801565b6139f8565b80610bc4613a74926103fd565b386139d9565b8980fd5b9392915a90600092805190613a9282613e76565b60a083018051909791956001600160a01b039590929186168080613b5b57505084516001600160a01b03169050915b5a9003019485029860408301908a825110613b0e57507f49628fd1471006c1482da88028e9ce4dbb080b815c9b0344d39e5a8e6ec1419f9493926138dc613931938c60209451039061403a565b60408051631101335b60e11b815260048101929092526024820152602060448201527f414135312070726566756e642062656c6f772061637475616c476173436f73746064820152608490fd5b93918051613b6b575b5050613ac1565b606087015160009a509091803b15613c4e57918a918a83613ba59560405180978196829563a9a2340960e01b84528c0290600484016137b7565b0393f19081613c3b575b50613c36576001613bbe612210565b6308c379a014613c19575b613bd5575b3880613b64565b60408051631101335b60e11b8152600481018d90526024810191909152601260448201527110504d4c081c1bdcdd13dc081c995d995c9d60721b6064820152608490fd5b613c2161222e565b80613c2c5750613bc9565b612e468d91613801565b613bce565b80610bc4613c48926103fd565b38613baf565b8a80fd5b909392915a94805191613c6483613e76565b60a084018051909691946001600160a01b03939092918416908180613d2c57505082516001600160a01b03169050985b5a90030193840297604084019089825110613936577f49628fd1471006c1482da88028e9ce4dbb080b815c9b0344d39e5a8e6ec1419f94613cde6020928c6139319551039061403a565b613ce788613797565b015194896020613d006138f5865160018060a01b031690565b940151604080519182529815602082015297880152606087015290821695909116939081906080820190565b9a918151613d3c575b5050613c94565b878402613d488a613797565b60028a14613dac576060860151823b156102a057613d8293600080948d6040519788968795869363a9a2340960e01b8552600485016137da565b0393f18015610f9557613d99575b505b3880613d35565b80610bc4613da6926103fd565b38613d90565b6060860151823b156102a057613dde93600080948d6040519788968795869363a9a2340960e01b8552600485016137da565b0393f19081613e63575b50613e5e576001613df7612210565b6308c379a014613e4b575b15613d925760408051631101335b60e11b8152600060048201526024810191909152601260448201527110504d4c081c1bdcdd13dc081c995d995c9d60721b6064820152608490fd5b613e5361222e565b80613a565750613e02565b613d92565b80610bc4613e70926103fd565b38613de8565b60e060c0820151910151808214613e9a57480180821015613e95575090565b905090565b5090565b60405190613eab82610410565b60006040838281528260208201520152565b613ec5613e9e565b5065ffffffffffff808260a01c168015613f04575b60405192613ee784610410565b6001600160a01b038116845260d01c602084015216604082015290565b5080613eda565b613f20613f2691613f1a613e9e565b50613ebd565b91613ebd565b81516001600160a01b039081169291908315613fa6575b65ffffffffffff928391826040816020850151169301511693836040816020840151169201511690808410613f9e575b50808511613f96575b5060405195613f8487610410565b16855216602084015216604082015290565b935038613f76565b925038613f6d565b815181169350613f3d565b6001600160a01b0316600090815260016020908152604080832084821c845290915290208054916001600160401b0391613fea84611af5565b9055161490565b90613ffa612018565b9160018060a01b0316600052600060205263ffffffff600160406000206001600160701b03815460781c1685520154166020830152565b61032e336140af565b60018060a01b0316600052600060205260406000206001600160701b03808254169283018093116118f1578083116140775761032e921690612a4f565b60405162461bcd60e51b815260206004820152601060248201526f6465706f736974206f766572666c6f7760801b6044820152606490fd5b6140b9348261403a565b60018060a01b03168060005260006020527f2da466a7b24304f47e87fa2e1e5a81b9831ce54fec19055ce277ca2f39ba42c460206001600160701b0360406000205416604051908152a2565b1561410c57565b60405162461bcd60e51b815260206004820152601a60248201527f6d757374207370656369667920756e7374616b652064656c61790000000000006044820152606490fd5b1561415857565b60405162461bcd60e51b815260206004820152601c60248201527f63616e6e6f7420646563726561736520756e7374616b652074696d65000000006044820152606490fd5b156141a457565b60405162461bcd60e51b81526020600482015260126024820152711b9bc81cdd185ad9481cdc1958da599a595960721b6044820152606490fd5b156141e557565b60405162461bcd60e51b815260206004820152600e60248201526d7374616b65206f766572666c6f7760901b6044820152606490fd5b9065ffffffffffff6080600161032e9461423f6001600160701b0386511682612a4f565b602085810151825460408801516dffffffffffffffffffffffffffff60781b60789190911b1660ff60701b92151560701b929092166effffffffffffffffffffffffffffff60701b19909116171782556060860151929091018054939095015169ffffffffffff000000009416901b9290921663ffffffff90921669ffffffffffffffffffff1990911617179055565b156142d657565b60405162461bcd60e51b8152602060048201526011602482015270616c726561647920756e7374616b696e6760781b6044820152606490fd5b91909165ffffffffffff808094169116019182116118f157565b1561433057565b60405162461bcd60e51b81526020600482015260146024820152734e6f207374616b6520746f20776974686472617760601b6044820152606490fd5b1561437357565b60405162461bcd60e51b815260206004820152601d60248201527f6d7573742063616c6c20756e6c6f636b5374616b6528292066697273740000006044820152606490fd5b156143bf57565b60405162461bcd60e51b815260206004820152601b60248201527f5374616b65207769746864726177616c206973206e6f742064756500000000006044820152606490fd5b1561440b57565b60405162461bcd60e51b815260206004820152601860248201527f6661696c656420746f207769746864726177207374616b6500000000000000006044820152606490fd5b1561445757565b60405162461bcd60e51b81526020600482015260126024820152716661696c656420746f20776974686472617760701b6044820152606490fd5b816040519182372090565b9060009283809360208451940192f190565b3d6108008082116144d5575b50604051906020818301016040528082526000602083013e90565b9050386144ba565b60028054146144ec5760028055565b60405162461bcd60e51b815260206004820152601f60248201527f5265656e7472616e637947756172643a207265656e7472616e742063616c6c006044820152606490fdfea2646970667358221220a2b35f31e4b6e22a66196eb938321dfeccbf27f4e627fc235cb2cb0956c9647a64736f6c634300081300336080806040523461001657610178908161001c8239f35b600080fdfe6080604052600436101561001257600080fd5b6000803560e01c63570e1a361461002857600080fd5b3461009e57602036600319011261009e5760043567ffffffffffffffff9182821161009e573660238301121561009e57816004013592831161009e57366024848401011161009e5761009a61008084602485016100b7565b6040516001600160a01b0390911681529081906020820190565b0390f35b80fd5b634e487b7160e01b600052604160045260246000fd5b90806014116101385767ffffffffffffffff91601319820183811161013d5760405193600b8401601f19908116603f011685019081118582101761013d5760405280845260208401903684840111610138576020946000600c819682946014880187378301015251923560601c5af190600051911561013257565b60009150565b600080fd5b6100a156fea26469706673582212204378425ba5cdab6179b874271c7810ae0ff3df00d71ad639df6e2f672cb3c8e064736f6c63430008130033",
    "linkReferences": {}
  },
  "methodIdentifiers": {
    "TrustedModuleManagerOwnerPrivateKey()": "40de8bee",
    "entryPoint()": "b0d691fe",
    "securityControlModule()": "867c73c1",
    "soulWalletLogic()": "14603699",
    "trustedModuleManager()": "820a142c",
    "trustedPluginManager()": "0ef22a01"
  },
  "id": 95
}