{
  "abi": [
    {
      "inputs": [
        {
          "internalType": "address",
          "name": "_walletImpl",
          "type": "address"
        }
      ],
      "stateMutability": "nonpayable",
      "type": "constructor"
    },
    {
      "inputs": [],
      "name": "VERSION",
      "outputs": [
        {
          "internalType": "string",
          "name": "",
          "type": "string"
        }
      ],
      "stateMutability": "view",
      "type": "function"
    },
    {
      "inputs": [
        {
          "internalType": "bytes",
          "name": "initializer",
          "type": "bytes"
        },
        {
          "internalType": "bytes32",
          "name": "_salt",
          "type": "bytes32"
        }
      ],
      "name": "createWallet",
      "outputs": [
        {
          "internalType": "address",
          "name": "proxy",
          "type": "address"
        }
      ],
      "stateMutability": "nonpayable",
      "type": "function"
    },
    {
      "inputs": [
        {
          "internalType": "bytes",
          "name": "initializer",
          "type": "bytes"
        },
        {
          "internalType": "bytes32",
          "name": "_salt",
          "type": "bytes32"
        }
      ],
      "name": "getWalletAddress",
      "outputs": [
        {
          "internalType": "address",
          "name": "",
          "type": "address"
        }
      ],
      "stateMutability": "view",
      "type": "function"
    },
    {
      "inputs": [],
      "name": "proxyCode",
      "outputs": [
        {
          "internalType": "bytes",
          "name": "",
          "type": "bytes"
        }
      ],
      "stateMutability": "pure",
      "type": "function"
    },
    {
      "inputs": [],
      "name": "walletImpl",
      "outputs": [
        {
          "internalType": "address",
          "name": "",
          "type": "address"
        }
      ],
      "stateMutability": "view",
      "type": "function"
    }
  ],
  "bytecode": {
    "object": "0x60a03461007d57601f61061e38819003918201601f19168301916001600160401b038311848410176100825780849260209460405283398101031261007d57516001600160a01b03811680820361007d571561007d576080526040516105859081610099823960805181818160b30152818161014301526103090152f35b600080fd5b634e487b7160e01b600052604160045260246000fdfe604060808152600436101561001357600080fd5b6000803560e01c9182633943c0301461013057826341d900581461006757505080636fa59bbc14610062578063a1aafc9e1461005d5763ffa1ad741461005857600080fd5b61037c565b6102be565b610277565b3461012c57610128906055600b61007d366101b5565b6100f561012091865192610094602082018561018e565b808452610430602085013986519360208501936100f09086906100e2907f00000000000000000000000000000000000000000000000000000000000000006001600160a01b031690886103d5565b03601f19810187528661018e565b6103f3565b91519020908451918583015260208201523081520160ff81532090516001600160a01b0390911681529081906020820190565b0390f35b5080fd5b50346101755780600319360112610175577f00000000000000000000000000000000000000000000000000000000000000006001600160a01b03166080908152602090f35b80fd5b634e487b7160e01b600052604160045260246000fd5b90601f8019910116810190811067ffffffffffffffff8211176101b057604052565b610178565b604060031982011261022a5767ffffffffffffffff60043581811161022a578260238201121561022a5780600401359182116101b05760405192610203601f8401601f19166020018561018e565b8284526024838301011161022a578160009260246020930183860137830101529060243590565b600080fd5b60005b8381106102425750506000910152565b8181015183820152602001610232565b9060209161026b8151809281855285808601910161022f565b601f01601f1916010190565b3461022a57600036600319011261022a576101286101206040519061029f602082018361018e565b8082526104306020830139604051918291602083526020830190610252565b3461022a576102cc366101b5565b604051906101206102e0602082018461018e565b808352610430602084013960405192610344602085019261033e8661033060018060a01b0397887f00000000000000000000000000000000000000000000000000000000000000001690886103d5565b03601f19810188528761018e565b826103f3565b935193600094859384f59283161561012c578051829160200182855af11561012c576040516001600160a01b03919091168152602090f35b3461022a57600036600319011261022a57604051604081019080821067ffffffffffffffff8311176101b057610128916040526005815264302e302e3160d81b6020820152604051918291602083526020830190610252565b60209291906103eb84928281519485920161022f565b019081520190565b602081519101209060405190602082019283526040820152604081526060810181811067ffffffffffffffff8211176101b0576040525190209056fe60803461007f57601f61012038819003918201601f19168301916001600160401b038311848410176100845780849260209460405283398101031261007f57516001600160a01b038116810361007f577f360894a13ba1a3210667c828492db98dca3e2076cc3735a920a3ca505d382bbc556040516085908161009b8239f35b600080fd5b634e487b7160e01b600052604160045260246000fdfe60806040527f360894a13ba1a3210667c828492db98dca3e2076cc3735a920a3ca505d382bbc54600090819081906001600160a01b0316368280378136915af43d82803e15604b573d90f35b3d90fdfea26469706673582212208a314916227e821b76c7266c036b3459355eb62aa38ab806968e33278981e87f64736f6c63430008130033a2646970667358221220d5a447fb8297e378d101d8b2c7b38a3c1710045e8ec17ddda860b17e98f1227d64736f6c63430008130033",
    "linkReferences": {}
  },
  "methodIdentifiers": {
    "VERSION()": "ffa1ad74",
    "createWallet(bytes,bytes32)": "a1aafc9e",
    "getWalletAddress(bytes,bytes32)": "41d90058",
    "proxyCode()": "6fa59bbc",
    "walletImpl()": "3943c030"
  },
  "id": 1
}