{
  "abi": [
    {
      "inputs": [
        {
          "internalType": "bytes",
          "name": "initCode",
          "type": "bytes"
        }
      ],
      "name": "createSender",
      "outputs": [
        {
          "internalType": "address",
          "name": "sender",
          "type": "address"
        }
      ],
      "stateMutability": "nonpayable",
      "type": "function"
    }
  ],
  "bytecode": {
    "object": "0x6080806040523461001657610178908161001c8239f35b600080fdfe6080604052600436101561001257600080fd5b6000803560e01c63570e1a361461002857600080fd5b3461009e57602036600319011261009e5760043567ffffffffffffffff9182821161009e573660238301121561009e57816004013592831161009e57366024848401011161009e5761009a61008084602485016100b7565b6040516001600160a01b0390911681529081906020820190565b0390f35b80fd5b634e487b7160e01b600052604160045260246000fd5b90806014116101385767ffffffffffffffff91601319820183811161013d5760405193600b8401601f19908116603f011685019081118582101761013d5760405280845260208401903684840111610138576020946000600c819682946014880187378301015251923560601c5af190600051911561013257565b60009150565b600080fd5b6100a156fea26469706673582212204378425ba5cdab6179b874271c7810ae0ff3df00d71ad639df6e2f672cb3c8e064736f6c63430008130033",
    "linkReferences": {}
  },
  "methodIdentifiers": {
    "createSender(bytes)": "570e1a36"
  },
  "id": 59
}