{
  "abi": [
    {
      "inputs": [],
      "stateMutability": "nonpayable",
      "type": "constructor"
    },
    {
      "anonymous": false,
      "inputs": [
        {
          "indexed": true,
          "internalType": "address",
          "name": "owner",
          "type": "address"
        },
        {
          "indexed": true,
          "internalType": "address",
          "name": "approved",
          "type": "address"
        },
        {
          "indexed": true,
          "internalType": "uint256",
          "name": "tokenId",
          "type": "uint256"
        }
      ],
      "name": "Approval",
      "type": "event"
    },
    {
      "anonymous": false,
      "inputs": [
        {
          "indexed": true,
          "internalType": "address",
          "name": "owner",
          "type": "address"
        },
        {
          "indexed": true,
          "internalType": "address",
          "name": "operator",
          "type": "address"
        },
        {
          "indexed": false,
          "internalType": "bool",
          "name": "approved",
          "type": "bool"
        }
      ],
      "name": "ApprovalForAll",
      "type": "event"
    },
    {
      "anonymous": false,
      "inputs": [
        {
          "indexed": true,
          "internalType": "address",
          "name": "from",
          "type": "address"
        },
        {
          "indexed": true,
          "internalType": "address",
          "name": "to",
          "type": "address"
        },
        {
          "indexed": true,
          "internalType": "uint256",
          "name": "tokenId",
          "type": "uint256"
        }
      ],
      "name": "Transfer",
      "type": "event"
    },
    {
      "inputs": [
        {
          "internalType": "address",
          "name": "to",
          "type": "address"
        },
        {
          "internalType": "uint256",
          "name": "tokenId",
          "type": "uint256"
        }
      ],
      "name": "approve",
      "outputs": [],
      "stateMutability": "nonpayable",
      "type": "function"
    },
    {
      "inputs": [
        {
          "internalType": "address",
          "name": "owner",
          "type": "address"
        }
      ],
      "name": "balanceOf",
      "outputs": [
        {
          "internalType": "uint256",
          "name": "",
          "type": "uint256"
        }
      ],
      "stateMutability": "view",
      "type": "function"
    },
    {
      "inputs": [
        {
          "internalType": "uint256",
          "name": "tokenId",
          "type": "uint256"
        }
      ],
      "name": "getApproved",
      "outputs": [
        {
          "internalType": "address",
          "name": "",
          "type": "address"
        }
      ],
      "stateMutability": "view",
      "type": "function"
    },
    {
      "inputs": [
        {
          "internalType": "address",
          "name": "owner",
          "type": "address"
        },
        {
          "internalType": "address",
          "name": "operator",
          "type": "address"
        }
      ],
      "name": "isApprovedForAll",
      "outputs": [
        {
          "internalType": "bool",
          "name": "",
          "type": "bool"
        }
      ],
      "stateMutability": "view",
      "type": "function"
    },
    {
      "inputs": [],
      "name": "name",
      "outputs": [
        {
          "internalType": "string",
          "name": "",
          "type": "string"
        }
      ],
      "stateMutability": "view",
      "type": "function"
    },
    {
      "inputs": [
        {
          "internalType": "uint256",
          "name": "tokenId",
          "type": "uint256"
        }
      ],
      "name": "ownerOf",
      "outputs": [
        {
          "internalType": "address",
          "name": "",
          "type": "address"
        }
      ],
      "stateMutability": "view",
      "type": "function"
    },
    {
      "inputs": [
        {
          "internalType": "address",
          "name": "to",
          "type": "address"
        },
        {
          "internalType": "uint256",
          "name": "tokenId",
          "type": "uint256"
        }
      ],
      "name": "safeMint",
      "outputs": [],
      "stateMutability": "nonpayable",
      "type": "function"
    },
    {
      "inputs": [
        {
          "internalType": "address",
          "name": "from",
          "type": "address"
        },
        {
          "internalType": "address",
          "name": "to",
          "type": "address"
        },
        {
          "internalType": "uint256",
          "name": "tokenId",
          "type": "uint256"
        }
      ],
      "name": "safeTransferFrom",
      "outputs": [],
      "stateMutability": "nonpayable",
      "type": "function"
    },
    {
      "inputs": [
        {
          "internalType": "address",
          "name": "from",
          "type": "address"
        },
        {
          "internalType": "address",
          "name": "to",
          "type": "address"
        },
        {
          "internalType": "uint256",
          "name": "tokenId",
          "type": "uint256"
        },
        {
          "internalType": "bytes",
          "name": "data",
          "type": "bytes"
        }
      ],
      "name": "safeTransferFrom",
      "outputs": [],
      "stateMutability": "nonpayable",
      "type": "function"
    },
    {
      "inputs": [
        {
          "internalType": "address",
          "name": "operator",
          "type": "address"
        },
        {
          "internalType": "bool",
          "name": "approved",
          "type": "bool"
        }
      ],
      "name": "setApprovalForAll",
      "outputs": [],
      "stateMutability": "nonpayable",
      "type": "function"
    },
    {
      "inputs": [
        {
          "internalType": "bytes4",
          "name": "interfaceId",
          "type": "bytes4"
        }
      ],
      "name": "supportsInterface",
      "outputs": [
        {
          "internalType": "bool",
          "name": "",
          "type": "bool"
        }
      ],
      "stateMutability": "view",
      "type": "function"
    },
    {
      "inputs": [],
      "name": "symbol",
      "outputs": [
        {
          "internalType": "string",
          "name": "",
          "type": "string"
        }
      ],
      "stateMutability": "view",
      "type": "function"
    },
    {
      "inputs": [
        {
          "internalType": "uint256",
          "name": "tokenId",
          "type": "uint256"
        }
      ],
      "name": "tokenURI",
      "outputs": [
        {
          "internalType": "string",
          "name": "",
          "type": "string"
        }
      ],
      "stateMutability": "view",
      "type": "function"
    },
    {
      "inputs": [
        {
          "internalType": "address",
          "name": "from",
          "type": "address"
        },
        {
          "internalType": "address",
          "name": "to",
          "type": "address"
        },
        {
          "internalType": "uint256",
          "name": "tokenId",
          "type": "uint256"
        }
      ],
      "name": "transferFrom",
      "outputs": [],
      "stateMutability": "nonpayable",
      "type": "function"
    }
  ],
  "bytecode": {
    "object": "0x6080346200030a576001600160401b039060409080820183811182821017620002f4578252600781526020926626bcaa37b5b2b760c91b84830152825183810181811083821117620002f457845260038152624d544b60e81b85820152825190828211620002f45760008054926001958685811c95168015620002e9575b89861014620002d5578190601f9586811162000282575b5089908683116001146200021e57849262000212575b5050600019600383901b1c191690861b1781555b8151938411620001fe5784548581811c91168015620001f3575b88821014620001df5783811162000197575b5086928411600114620001315783949596509262000125575b5050600019600383901b1c191690821b1790555b516111a89081620003108239f35b01519050388062000103565b9190601f1984169685845280842093905b8882106200017f575050838596971062000165575b505050811b01905562000117565b015160001960f88460031b161c1916905538808062000157565b80878596829496860151815501950193019062000142565b8582528782208480870160051c8201928a8810620001d5575b0160051c019086905b828110620001c9575050620000ea565b838155018690620001b9565b92508192620001b0565b634e487b7160e01b82526022600452602482fd5b90607f1690620000d8565b634e487b7160e01b81526041600452602490fd5b015190503880620000aa565b8480528a85208994509190601f198416865b8d8282106200026b575050841162000251575b505050811b018155620000be565b015160001960f88460031b161c1916905538808062000243565b8385015186558c9790950194938401930162000230565b9091508380528984208680850160051c8201928c8610620002cb575b918a91869594930160051c01915b828110620002bc57505062000094565b8681558594508a9101620002ac565b925081926200029e565b634e487b7160e01b83526022600452602483fd5b94607f16946200007d565b634e487b7160e01b600052604160045260246000fd5b600080fdfe608060408181526004918236101561001657600080fd5b600092833560e01c91826301ffc9a714610a8f5750816306fdde03146109c4578163081812fc146109a4578163095ea7b31461083657816323b872dd1461081157816342842e0e146107dd5781636352211e146107ac57816370a082311461071657816395d89b411461060f578163a1448194146104d8578163a22cb46514610408578163b88d4fde14610350578163c87b56dd1461010f575063e985e9c5146100bf57600080fd5b3461010b578060031936011261010b5760ff816020936100dd610b42565b6100e5610b5d565b6001600160a01b0391821683526005875283832091168252855220549151911615158152f35b5080fd5b83833461010b576020918260031936011261034d578335600081815260026020526040902054610149906001600160a01b03161515610c18565b82519483860186811067ffffffffffffffff82111761033a5784526011865284860190701a1d1d1c0e8bcbdcdbdd5b1dd85b1b195d607a1b825282839185947a184f03e93ff9f4daa797ed6e38ed64bf6a1f010000000000000000908181101561032d575b5050876d04ee2d6d415b85acef81000000008085101561031f575b5050662386f26fc1000080841015610310575b506305f5e10080841015610301575b50612710808410156102f3575b505060648210156102e3575b600a809210156102d9575b6001908160218187019661023a61022589610bfc565b986102328c519a8b610bda565b808a52610bfc565b888c019990601f1901368b3750870101905b6102a3575b6102758961029f8a610290838f8d8d6102848e87519a8b9551809288880190610afa565b84019151809386840190610afa565b01038087520185610bda565b51928284938452830190610b1d565b0390f35b600019019083906f181899199a1a9b1b9c1cb0b131b232b360811b8282061a8353049182156102d45791908261024c565b610251565b926001019261020f565b9290606460029104910192610204565b9401939091049088806101f8565b600891959304920193896101eb565b601091959304920193896101dc565b95019490920491878a6101c9565b88965004925089806101ae565b634e487b7160e01b845260418252602484fd5b80fd5b919050346104045760803660031901126104045761036c610b42565b90610375610b5d565b604435906064359467ffffffffffffffff8611610400573660238701121561040057850135936103b06103a786610bfc565b94519485610bda565b84845286366024878901011161034d576020866103f89760246103fd9a0183890137860101526103e86103e38433610da1565b610cc8565b6103f3838383610eb5565b6110e7565b610d7d565b80f35b8680fd5b8280fd5b91905034610404578060031936011261040457610423610b42565b90602435918215158093036104d4576001600160a01b0316923384146104925750338452600560205280842083855260205280842060ff1981541660ff8416179055519081527f17307eab39ab6107e8899845ad3d59bd9653f200f220920489ca2b5937696c3160203392a380f35b6020606492519162461bcd60e51b8352820152601960248201527f4552433732313a20617070726f766520746f2063616c6c6572000000000000006044820152fd5b8480fd5b8391503461010b578260031936011261010b576104f3610b42565b6024359084519261050384610ba8565b8484526001600160a01b0382169081156105cc5750916103fd9391816103f8948861054c61054684600052600260205260018060a01b0360406000205416151590565b15610e0f565b60008381526002602052604090205461056f906001600160a01b03161515610546565b81895260036020528089206001815401905582895260026020528820816bffffffffffffffffffffffff60a01b825416179055877fddf252ad1be2c89b69c2b068fc378daa952ba7f163c4a11628f55a4df523b3ef8180a4610fcb565b606490602088519162461bcd60e51b8352820152602060248201527f4552433732313a206d696e7420746f20746865207a65726f20616464726573736044820152fd5b82843461034d578060031936011261034d578151918160019283549384811c9181861695861561070c575b60209687851081146106f9578899509688969785829a5291826000146106d2575050600114610677575b50505061029f9291610290910385610bda565b91908693508083527fb10e2d527612073b26eecdfd717e6a320cf44b4afac2b0732d9fcbe2b7fa0cf65b8284106106ba575050508201018161029061029f610664565b8054848a0186015288955087949093019281016106a1565b60ff19168782015293151560051b86019093019350849250610290915061029f9050610664565b634e487b7160e01b835260228a52602483fd5b92607f169261063a565b8391503461010b57602036600319011261010b576001600160a01b0361073a610b42565b169081156107575760208480858581526003845220549051908152f35b608490602085519162461bcd60e51b8352820152602960248201527f4552433732313a2061646472657373207a65726f206973206e6f7420612076616044820152683634b21037bbb732b960b91b6064820152fd5b82843461034d57602036600319011261034d57506107cc60209235610c64565b90516001600160a01b039091168152f35b50503461010b576103f86103fd916107f436610b73565b9192519261080184610ba8565b8684526103e86103e38433610da1565b833461034d576103fd61082336610b73565b916108316103e38433610da1565b610eb5565b905034610404578160031936011261040457610850610b42565b6024359290916001600160a01b039190828061086b87610c64565b1694169380851461095757803314908115610938575b50156108d057848652602052842080546001600160a01b031916831790556108a883610c64565b167f8c5be1e5ebec7d5bd14f71427d1e84f3dd0314c0f7b2291e5b200ac8c7c3b9258480a480f35b6020608492519162461bcd60e51b8352820152603d60248201527f4552433732313a20617070726f76652063616c6c6572206973206e6f7420746f60448201527f6b656e206f776e6572206f7220617070726f76656420666f7220616c6c0000006064820152fd5b90508652600560205281862033875260205260ff828720541638610881565b506020608492519162461bcd60e51b8352820152602160248201527f4552433732313a20617070726f76616c20746f2063757272656e74206f776e656044820152603960f91b6064820152fd5b82843461034d57602036600319011261034d57506107cc60209235610c8a565b82843461034d578060031936011261034d5781519181825492600184811c91818616958615610a85575b60209687851081146106f9578899509688969785829a5291826000146106d2575050600114610a2a5750505061029f9291610290910385610bda565b91908693508280527f290decd9548b62a8d60345a988386fc84ba6bc95484008f6362f93160ef3e5635b828410610a6d575050508201018161029061029f610664565b8054848a018601528895508794909301928101610a54565b92607f16926109ee565b849134610404576020366003190112610404573563ffffffff60e01b811680910361040457602092506380ac58cd60e01b8114908115610ae9575b8115610ad8575b5015158152f35b6301ffc9a760e01b14905083610ad1565b635b5e139f60e01b81149150610aca565b60005b838110610b0d5750506000910152565b8181015183820152602001610afd565b90602091610b3681518092818552858086019101610afa565b601f01601f1916010190565b600435906001600160a01b0382168203610b5857565b600080fd5b602435906001600160a01b0382168203610b5857565b6060906003190112610b58576001600160a01b03906004358281168103610b5857916024359081168103610b58579060443590565b6020810190811067ffffffffffffffff821117610bc457604052565b634e487b7160e01b600052604160045260246000fd5b90601f8019910116810190811067ffffffffffffffff821117610bc457604052565b67ffffffffffffffff8111610bc457601f01601f191660200190565b15610c1f57565b60405162461bcd60e51b815260206004820152601860248201527f4552433732313a20696e76616c696420746f6b656e20494400000000000000006044820152606490fd5b6000908152600260205260409020546001600160a01b0316610c87811515610c18565b90565b600081815260026020526040902054610cad906001600160a01b03161515610c18565b6000908152600460205260409020546001600160a01b031690565b15610ccf57565b60405162461bcd60e51b815260206004820152602d60248201527f4552433732313a2063616c6c6572206973206e6f7420746f6b656e206f776e6560448201526c1c881bdc88185c1c1c9bdd9959609a1b6064820152608490fd5b60809060208152603260208201527f4552433732313a207472616e7366657220746f206e6f6e20455243373231526560408201527131b2b4bb32b91034b6b83632b6b2b73a32b960711b60608201520190565b15610d8457565b60405162461bcd60e51b815280610d9d60048201610d2a565b0390fd5b906001600160a01b038080610db584610c64565b16931691838314938415610de8575b508315610dd2575b50505090565b610dde91929350610c8a565b1614388080610dcc565b909350600052600560205260406000208260005260205260ff604060002054169238610dc4565b15610e1657565b60405162461bcd60e51b815260206004820152601c60248201527f4552433732313a20746f6b656e20616c7265616479206d696e746564000000006044820152606490fd5b15610e6257565b60405162461bcd60e51b815260206004820152602560248201527f4552433732313a207472616e736665722066726f6d20696e636f72726563742060448201526437bbb732b960d91b6064820152608490fd5b90610edd91610ec384610c64565b6001600160a01b0393918416928492909183168414610e5b565b16918215610f7a5781610efa91610ef386610c64565b1614610e5b565b7fddf252ad1be2c89b69c2b068fc378daa952ba7f163c4a11628f55a4df523b3ef60008481526004602052604081206bffffffffffffffffffffffff60a01b9081815416905583825260036020526040822060001981540190558482526040822060018154019055858252600260205284604083209182541617905580a4565b60405162461bcd60e51b8152602060048201526024808201527f4552433732313a207472616e7366657220746f20746865207a65726f206164646044820152637265737360e01b6064820152608490fd5b9192600092909190803b156110dd57611019946040518092630a85bd0160e11b9485835233600484015287602484015260448301526080606483015281878160209a8b966084830190610b1d565b03926001600160a01b03165af184918161109d575b5061108c575050503d600014611084573d61104881610bfc565b906110566040519283610bda565b81528091833d92013e5b805191826110815760405162461bcd60e51b815280610d9d60048201610d2a565b01fd5b506060611060565b6001600160e01b0319161492509050565b9091508581813d83116110d6575b6110b58183610bda565b810103126104d457516001600160e01b0319811681036104d457903861102e565b503d6110ab565b5050915050600190565b9293600093909291803b15611167579484916111419660405180948193630a85bd0160e11b9788845233600485015260018060a01b0380921660248501526044840152608060648401528260209b8c976084830190610b1d565b0393165af184918161109d575061108c575050503d600014611084573d61104881610bfc565b50505091505060019056fea2646970667358221220e871ccd7fb6a8e4422745006b488e747d42c4442021b8e068bfe65a43582a6e064736f6c63430008130033",
    "linkReferences": {}
  },
  "methodIdentifiers": {
    "approve(address,uint256)": "095ea7b3",
    "balanceOf(address)": "70a08231",
    "getApproved(uint256)": "081812fc",
    "isApprovedForAll(address,address)": "e985e9c5",
    "name()": "06fdde03",
    "ownerOf(uint256)": "6352211e",
    "safeMint(address,uint256)": "a1448194",
    "safeTransferFrom(address,address,uint256)": "42842e0e",
    "safeTransferFrom(address,address,uint256,bytes)": "b88d4fde",
    "setApprovalForAll(address,bool)": "a22cb465",
    "supportsInterface(bytes4)": "01ffc9a7",
    "symbol()": "95d89b41",
    "tokenURI(uint256)": "c87b56dd",
    "transferFrom(address,address,uint256)": "23b872dd"
  },
  "id": 16
}