{
  "abi": [
    {
      "inputs": [
        {
          "internalType": "address",
          "name": "_owner",
          "type": "address"
        }
      ],
      "stateMutability": "nonpayable",
      "type": "constructor"
    },
    {
      "anonymous": false,
      "inputs": [
        {
          "indexed": true,
          "internalType": "address",
          "name": "previousOwner",
          "type": "address"
        },
        {
          "indexed": true,
          "internalType": "address",
          "name": "newOwner",
          "type": "address"
        }
      ],
      "name": "OwnershipTransferred",
      "type": "event"
    },
    {
      "anonymous": false,
      "inputs": [
        {
          "indexed": true,
          "internalType": "address",
          "name": "module",
          "type": "address"
        }
      ],
      "name": "TrustedContractAdded",
      "type": "event"
    },
    {
      "anonymous": false,
      "inputs": [
        {
          "indexed": true,
          "internalType": "address",
          "name": "module",
          "type": "address"
        }
      ],
      "name": "TrustedContractRemoved",
      "type": "event"
    },
    {
      "inputs": [
        {
          "internalType": "address[]",
          "name": "modules",
          "type": "address[]"
        }
      ],
      "name": "addContract",
      "outputs": [],
      "stateMutability": "nonpayable",
      "type": "function"
    },
    {
      "inputs": [
        {
          "internalType": "address",
          "name": "module",
          "type": "address"
        }
      ],
      "name": "isTrustedContract",
      "outputs": [
        {
          "internalType": "bool",
          "name": "",
          "type": "bool"
        }
      ],
      "stateMutability": "view",
      "type": "function"
    },
    {
      "inputs": [],
      "name": "owner",
      "outputs": [
        {
          "internalType": "address",
          "name": "",
          "type": "address"
        }
      ],
      "stateMutability": "view",
      "type": "function"
    },
    {
      "inputs": [
        {
          "internalType": "address[]",
          "name": "modules",
          "type": "address[]"
        }
      ],
      "name": "removeTrustedModule",
      "outputs": [],
      "stateMutability": "nonpayable",
      "type": "function"
    },
    {
      "inputs": [],
      "name": "renounceOwnership",
      "outputs": [],
      "stateMutability": "nonpayable",
      "type": "function"
    },
    {
      "inputs": [
        {
          "internalType": "address",
          "name": "newOwner",
          "type": "address"
        }
      ],
      "name": "transferOwnership",
      "outputs": [],
      "stateMutability": "nonpayable",
      "type": "function"
    },
    {
      "inputs": [
        {
          "internalType": "address",
          "name": "",
          "type": "address"
        }
      ],
      "name": "trustedContract",
      "outputs": [
        {
          "internalType": "bool",
          "name": "",
          "type": "bool"
        }
      ],
      "stateMutability": "view",
      "type": "function"
    }
  ],
  "bytecode": {
    "object": "0x608060405234801561001057600080fd5b5060405161084b38038061084b83398101604081905261002f91610099565b8061003933610049565b61004281610049565b50506100c9565b600080546001600160a01b038381166001600160a01b0319831681178455604051919092169283917f8be0079c531659141344cd1fd0a4f28419497f9722a3daafe3b4186f6b6457e09190a35050565b6000602082840312156100ab57600080fd5b81516001600160a01b03811681146100c257600080fd5b9392505050565b610773806100d86000396000f3fe608060405234801561001057600080fd5b506004361061007d5760003560e01c8063715018a61161005b578063715018a6146100eb5780638061f132146100f35780638da5cb5b14610116578063f2fde38b1461013157600080fd5b806326d6e45714610082578063424c312d146100975780635bf3a315146100aa575b600080fd5b610095610090366004610619565b610144565b005b6100956100a5366004610619565b6102b7565b6100d66100b83660046106de565b6001600160a01b031660009081526001602052604090205460ff1690565b60405190151581526020015b60405180910390f35b6100956104b0565b6100d66101013660046106de565b60016020526000908152604090205460ff1681565b6000546040516001600160a01b0390911681526020016100e2565b61009561013f3660046106de565b6104c4565b61014c61053d565b60005b81518110156102b3576001600083838151811061016e5761016e610700565b6020908102919091018101516001600160a01b031682528101919091526040016000205460ff166101fb5760405162461bcd60e51b815260206004820152602c60248201527f54727573746564436f6e74726163744d616e616765723a20636f6e747261637460448201526b081b9bdd081d1c9d5cdd195960a21b60648201526084015b60405180910390fd5b60006001600084848151811061021357610213610700565b60200260200101516001600160a01b03166001600160a01b0316815260200190815260200160002060006101000a81548160ff02191690831515021790555081818151811061026457610264610700565b60200260200101516001600160a01b03167fe077e45f89f0635acaf766ec2ea56cb9579a33b8732ecdc656fe2e7bdf7cac4160405160405180910390a2806102ab81610716565b91505061014f565b5050565b6102bf61053d565b60005b81518110156102b35760006001600160a01b03168282815181106102e8576102e8610700565b60200260200101516001600160a01b0316036103565760405162461bcd60e51b815260206004820152602760248201527f54727573746564436f6e74726163744d616e616765723a2061646472657373206044820152666973207a65726f60c81b60648201526084016101f2565b6001600083838151811061036c5761036c610700565b6020908102919091018101516001600160a01b031682528101919091526040016000205460ff16156103f95760405162461bcd60e51b815260206004820152603060248201527f54727573746564436f6e74726163744d616e616765723a20636f6e747261637460448201526f08185b1c9958591e481d1c9d5cdd195960821b60648201526084016101f2565b600180600084848151811061041057610410610700565b60200260200101516001600160a01b03166001600160a01b0316815260200190815260200160002060006101000a81548160ff02191690831515021790555081818151811061046157610461610700565b60200260200101516001600160a01b03167f4e87357acd951c4831877b6015585c4a7e20204cadf07178081e9929b3a13b5d60405160405180910390a2806104a881610716565b9150506102c2565b6104b861053d565b6104c26000610597565b565b6104cc61053d565b6001600160a01b0381166105315760405162461bcd60e51b815260206004820152602660248201527f4f776e61626c653a206e6577206f776e657220697320746865207a65726f206160448201526564647265737360d01b60648201526084016101f2565b61053a81610597565b50565b6000546001600160a01b031633146104c25760405162461bcd60e51b815260206004820181905260248201527f4f776e61626c653a2063616c6c6572206973206e6f7420746865206f776e657260448201526064016101f2565b600080546001600160a01b038381166001600160a01b0319831681178455604051919092169283917f8be0079c531659141344cd1fd0a4f28419497f9722a3daafe3b4186f6b6457e09190a35050565b634e487b7160e01b600052604160045260246000fd5b80356001600160a01b038116811461061457600080fd5b919050565b6000602080838503121561062c57600080fd5b823567ffffffffffffffff8082111561064457600080fd5b818501915085601f83011261065857600080fd5b81358181111561066a5761066a6105e7565b8060051b604051601f19603f8301168101818110858211171561068f5761068f6105e7565b6040529182528482019250838101850191888311156106ad57600080fd5b938501935b828510156106d2576106c3856105fd565b845293850193928501926106b2565b98975050505050505050565b6000602082840312156106f057600080fd5b6106f9826105fd565b9392505050565b634e487b7160e01b600052603260045260246000fd5b60006001820161073657634e487b7160e01b600052601160045260246000fd5b506001019056fea2646970667358221220dd645e990f117c78908c4ebdea3b645c6f6b607c4186118e3b0a54c24362d6e864736f6c63430008110033",
    "linkReferences": {}
  },
  "methodIdentifiers": {
    "addContract(address[])": "424c312d",
    "isTrustedContract(address)": "5bf3a315",
    "owner()": "8da5cb5b",
    "removeTrustedModule(address[])": "26d6e457",
    "renounceOwnership()": "715018a6",
    "transferOwnership(address)": "f2fde38b",
    "trustedContract(address)": "8061f132"
  },
  "id": 49
}