{
  "abi": [
    {
      "inputs": [
        {
          "internalType": "address",
          "name": "_owner",
          "type": "address"
        }
      ],
      "stateMutability": "nonpayable",
      "type": "constructor"
    },
    {
      "anonymous": false,
      "inputs": [
        {
          "indexed": true,
          "internalType": "address",
          "name": "previousOwner",
          "type": "address"
        },
        {
          "indexed": true,
          "internalType": "address",
          "name": "newOwner",
          "type": "address"
        }
      ],
      "name": "OwnershipTransferred",
      "type": "event"
    },
    {
      "anonymous": false,
      "inputs": [
        {
          "indexed": true,
          "internalType": "address",
          "name": "module",
          "type": "address"
        }
      ],
      "name": "TrustedContractAdded",
      "type": "event"
    },
    {
      "anonymous": false,
      "inputs": [
        {
          "indexed": true,
          "internalType": "address",
          "name": "module",
          "type": "address"
        }
      ],
      "name": "TrustedContractRemoved",
      "type": "event"
    },
    {
      "inputs": [
        {
          "internalType": "address[]",
          "name": "modules",
          "type": "address[]"
        }
      ],
      "name": "addContract",
      "outputs": [],
      "stateMutability": "nonpayable",
      "type": "function"
    },
    {
      "inputs": [
        {
          "internalType": "address",
          "name": "module",
          "type": "address"
        }
      ],
      "name": "isTrustedContract",
      "outputs": [
        {
          "internalType": "bool",
          "name": "",
          "type": "bool"
        }
      ],
      "stateMutability": "view",
      "type": "function"
    },
    {
      "inputs": [],
      "name": "owner",
      "outputs": [
        {
          "internalType": "address",
          "name": "",
          "type": "address"
        }
      ],
      "stateMutability": "view",
      "type": "function"
    },
    {
      "inputs": [
        {
          "internalType": "address[]",
          "name": "modules",
          "type": "address[]"
        }
      ],
      "name": "removeTrustedModule",
      "outputs": [],
      "stateMutability": "nonpayable",
      "type": "function"
    },
    {
      "inputs": [],
      "name": "renounceOwnership",
      "outputs": [],
      "stateMutability": "nonpayable",
      "type": "function"
    },
    {
      "inputs": [
        {
          "internalType": "address",
          "name": "newOwner",
          "type": "address"
        }
      ],
      "name": "transferOwnership",
      "outputs": [],
      "stateMutability": "nonpayable",
      "type": "function"
    },
    {
      "inputs": [
        {
          "internalType": "address",
          "name": "",
          "type": "address"
        }
      ],
      "name": "trustedContract",
      "outputs": [
        {
          "internalType": "bool",
          "name": "",
          "type": "bool"
        }
      ],
      "stateMutability": "view",
      "type": "function"
    }
  ],
  "bytecode": {
    "object": "0x60803461007057601f6106eb38819003918201601f19168301916001600160401b038311848410176100755780849260209460405283398101031261007057516001600160a01b0381168103610070576100619061005c3361008b565b61008b565b60405161061890816100d38239f35b600080fd5b634e487b7160e01b600052604160045260246000fd5b600080546001600160a01b039283166001600160a01b03198216811783559216907f8be0079c531659141344cd1fd0a4f28419497f9722a3daafe3b4186f6b6457e09080a356fe6040608081526004908136101561001557600080fd5b600091823560e01c806326d6e4571461036a578063424c312d146101fa5780635bf3a3151461015f578063715018a61461019d5780638061f1321461015f5780638da5cb5b146101335763f2fde38b1461006e57600080fd5b3461012f57602036600319011261012f5761008761046b565b9061009061058a565b6001600160a01b039182169283156100dd57505082546001600160a01b0319811683178455167f8be0079c531659141344cd1fd0a4f28419497f9722a3daafe3b4186f6b6457e08380a380f35b906020608492519162461bcd60e51b8352820152602660248201527f4f776e61626c653a206e6577206f776e657220697320746865207a65726f206160448201526564647265737360d01b6064820152fd5b8280fd5b50503461015b578160031936011261015b57905490516001600160a01b039091168152602090f35b5080fd5b50503461015b57602036600319011261015b5760209160ff9082906001600160a01b0361018a61046b565b1681526001855220541690519015158152f35b83346101f757806003193601126101f7576101b661058a565b80546001600160a01b03198116825581906001600160a01b03167f8be0079c531659141344cd1fd0a4f28419497f9722a3daafe3b4186f6b6457e08280a380f35b80fd5b5082346101f75761020a36610486565b9161021361058a565b815b8351811015610366576001600160a01b03806102318387610560565b51161561031357806102438387610560565b511684526001602081815260ff88872054166102b85790808392859461026c6102b3978b610560565b51168852528786209060ff198254161790556102888287610560565b51167f4e87357acd951c4831877b6015585c4a7e20204cadf07178081e9929b3a13b5d8580a261053b565b610215565b8460849189519162461bcd60e51b8352820152603060248201527f54727573746564436f6e74726163744d616e616765723a20636f6e747261637460448201526f08185b1c9958591e481d1c9d5cdd195960821b6064820152fd5b855162461bcd60e51b8152602081850152602760248201527f54727573746564436f6e74726163744d616e616765723a2061646472657373206044820152666973207a65726f60c81b6064820152608490fd5b8280f35b5082346101f75761037a36610486565b9161038361058a565b815b8351811015610366576001600160a01b03806103a18387610560565b511684526001602081815260ff8887205416156104145790829184936103ca61040f968a610560565b5116875252868520805460ff191690556103e48287610560565b51167fe077e45f89f0635acaf766ec2ea56cb9579a33b8732ecdc656fe2e7bdf7cac418580a261053b565b610385565b8460849189519162461bcd60e51b8352820152602c60248201527f54727573746564436f6e74726163744d616e616765723a20636f6e747261637460448201526b081b9bdd081d1c9d5cdd195960a21b6064820152fd5b600435906001600160a01b038216820361048157565b600080fd5b6020806003198301126104815767ffffffffffffffff91600435838111610481578160238201121561048157806004013590848211610525578160051b9160405195601f19603f8501168701908782109082111761052557604052855260248486019282010192831161048157602401905b828210610506575050505090565b81356001600160a01b03811681036104815781529083019083016104f8565b634e487b7160e01b600052604160045260246000fd5b600019811461054a5760010190565b634e487b7160e01b600052601160045260246000fd5b80518210156105745760209160051b010190565b634e487b7160e01b600052603260045260246000fd5b6000546001600160a01b0316330361059e57565b606460405162461bcd60e51b815260206004820152602060248201527f4f776e61626c653a2063616c6c6572206973206e6f7420746865206f776e65726044820152fdfea2646970667358221220e7689e3636fe0cc80c6ccf033f89de24809b84b73fd0272a9e41ede9dc336ca364736f6c63430008130033",
    "linkReferences": {}
  },
  "methodIdentifiers": {
    "addContract(address[])": "424c312d",
    "isTrustedContract(address)": "5bf3a315",
    "owner()": "8da5cb5b",
    "removeTrustedModule(address[])": "26d6e457",
    "renounceOwnership()": "715018a6",
    "transferOwnership(address)": "f2fde38b",
    "trustedContract(address)": "8061f132"
  },
  "id": 54
}